{"contracts/TESToken.sol":{"TESToken":{"abi":[{"inputs":[],"stateMutability":"nonpayable","type":"constructor"},{"anonymous":false,"inputs":[{"indexed":true,"internalType":"address","name":"owner","type":"address"},{"indexed":true,"internalType":"address","name":"spender","type":"address"},{"indexed":false,"internalType":"uint256","name":"value","type":"uint256"}],"name":"Approval","type":"event"},{"anonymous":false,"inputs":[{"indexed":true,"internalType":"address","name":"addr","type":"address"}],"name":"EventChangeSwapBalanceAddress","type":"event"},{"anonymous":false,"inputs":[{"indexed":true,"internalType":"address","name":"target","type":"address"},{"indexed":false,"internalType":"bool","name":"state","type":"bool"}],"name":"EventWhiteList","type":"event"},{"anonymous":false,"inputs":[{"indexed":false,"internalType":"string","name":"message","type":"string"}],"name":"Log","type":"event"},{"anonymous":false,"inputs":[{"indexed":true,"internalType":"address","name":"previousOwner","type":"address"},{"indexed":true,"internalType":"address","name":"newOwner","type":"address"}],"name":"OwnershipTransferred","type":"event"},{"anonymous":false,"inputs":[{"indexed":true,"internalType":"bytes32","name":"role","type":"bytes32"},{"indexed":true,"internalType":"bytes32","name":"previousAdminRole","type":"bytes32"},{"indexed":true,"internalType":"bytes32","name":"newAdminRole","type":"bytes32"}],"name":"RoleAdminChanged","type":"event"},{"anonymous":false,"inputs":[{"indexed":true,"internalType":"bytes32","name":"role","type":"bytes32"},{"indexed":true,"internalType":"address","name":"account","type":"address"},{"indexed":true,"internalType":"address","name":"sender","type":"address"}],"name":"RoleGranted","type":"event"},{"anonymous":false,"inputs":[{"indexed":true,"internalType":"bytes32","name":"role","type":"bytes32"},{"indexed":true,"internalType":"address","name":"account","type":"address"},{"indexed":true,"internalType":"address","name":"sender","type":"address"}],"name":"RoleRevoked","type":"event"},{"anonymous":false,"inputs":[{"indexed":true,"internalType":"address","name":"from","type":"address"},{"indexed":true,"internalType":"address","name":"to","type":"address"},{"indexed":false,"internalType":"uint256","name":"value","type":"uint256"}],"name":"Transfer","type":"event"},{"inputs":[],"name":"BURNER_ROLE","outputs":[{"internalType":"bytes32","name":"","type":"bytes32"}],"stateMutability":"view","type":"function"},{"inputs":[],"name":"DEFAULT_ADMIN_ROLE","outputs":[{"internalType":"bytes32","name":"","type":"bytes32"}],"stateMutability":"view","type":"function"},{"inputs":[{"internalType":"address","name":"owner","type":"address"},{"internalType":"address","name":"spender","type":"address"}],"name":"allowance","outputs":[{"internalType":"uint256","name":"","type":"uint256"}],"stateMutability":"view","type":"function"},{"inputs":[{"internalType":"address","name":"spender","type":"address"},{"internalType":"uint256","name":"amount","type":"uint256"}],"name":"approve","outputs":[{"internalType":"bool","name":"","type":"bool"}],"stateMutability":"nonpayable","type":"function"},{"inputs":[{"internalType":"address","name":"account","type":"address"}],"name":"balanceOf","outputs":[{"internalType":"uint256","name":"","type":"uint256"}],"stateMutability":"view","type":"function"},{"inputs":[],"name":"blacklistTime","outputs":[{"internalType":"uint256","name":"","type":"uint256"}],"stateMutability":"view","type":"function"},{"inputs":[],"name":"bpEnabled","outputs":[{"internalType":"bool","name":"","type":"bool"}],"stateMutability":"view","type":"function"},{"inputs":[{"internalType":"uint256","name":"amount","type":"uint256"}],"name":"burn","outputs":[],"stateMutability":"nonpayable","type":"function"},{"inputs":[],"name":"decimals","outputs":[{"internalType":"uint8","name":"","type":"uint8"}],"stateMutability":"view","type":"function"},{"inputs":[{"internalType":"address","name":"spender","type":"address"},{"internalType":"uint256","name":"subtractedValue","type":"uint256"}],"name":"decreaseAllowance","outputs":[{"internalType":"bool","name":"","type":"bool"}],"stateMutability":"nonpayable","type":"function"},{"inputs":[{"internalType":"address","name":"account","type":"address"}],"name":"excludeFromFee","outputs":[],"stateMutability":"nonpayable","type":"function"},{"inputs":[],"name":"getFees","outputs":[{"internalType":"uint256","name":"buyFee","type":"uint256"},{"internalType":"uint256","name":"sellFee","type":"uint256"}],"stateMutability":"view","type":"function"},{"inputs":[{"internalType":"bytes32","name":"role","type":"bytes32"}],"name":"getRoleAdmin","outputs":[{"internalType":"bytes32","name":"","type":"bytes32"}],"stateMutability":"view","type":"function"},{"inputs":[{"internalType":"bytes32","name":"role","type":"bytes32"},{"internalType":"address","name":"account","type":"address"}],"name":"grantRole","outputs":[],"stateMutability":"nonpayable","type":"function"},{"inputs":[{"internalType":"bytes32","name":"role","type":"bytes32"},{"internalType":"address","name":"account","type":"address"}],"name":"hasRole","outputs":[{"internalType":"bool","name":"","type":"bool"}],"stateMutability":"view","type":"function"},{"inputs":[{"internalType":"address","name":"spender","type":"address"},{"internalType":"uint256","name":"addedValue","type":"uint256"}],"name":"increaseAllowance","outputs":[{"internalType":"bool","name":"","type":"bool"}],"stateMutability":"nonpayable","type":"function"},{"inputs":[{"internalType":"address","name":"routerAddress","type":"address"}],"name":"initSwap","outputs":[],"stateMutability":"nonpayable","type":"function"},{"inputs":[],"name":"name","outputs":[{"internalType":"string","name":"","type":"string"}],"stateMutability":"view","type":"function"},{"inputs":[],"name":"owner","outputs":[{"internalType":"address","name":"","type":"address"}],"stateMutability":"view","type":"function"},{"inputs":[],"name":"pancakeswapV2Pair","outputs":[{"internalType":"address","name":"","type":"address"}],"stateMutability":"view","type":"function"},{"inputs":[],"name":"pancakeswapV2Router","outputs":[{"internalType":"contract IUniswapV2Router02","name":"","type":"address"}],"stateMutability":"view","type":"function"},{"inputs":[{"internalType":"address","name":"target","type":"address"}],"name":"removeWhiteLists","outputs":[],"stateMutability":"nonpayable","type":"function"},{"inputs":[],"name":"renounceOwnership","outputs":[],"stateMutability":"nonpayable","type":"function"},{"inputs":[{"internalType":"bytes32","name":"role","type":"bytes32"},{"internalType":"address","name":"account","type":"address"}],"name":"renounceRole","outputs":[],"stateMutability":"nonpayable","type":"function"},{"inputs":[{"internalType":"bytes32","name":"role","type":"bytes32"},{"internalType":"address","name":"account","type":"address"}],"name":"revokeRole","outputs":[],"stateMutability":"nonpayable","type":"function"},{"inputs":[{"internalType":"uint256","name":"fee","type":"uint256"}],"name":"setBuyFeeRate","outputs":[],"stateMutability":"nonpayable","type":"function"},{"inputs":[{"internalType":"address","name":"pairAddress","type":"address"}],"name":"setPairAddress","outputs":[],"stateMutability":"nonpayable","type":"function"},{"inputs":[{"internalType":"uint256","name":"fee","type":"uint256"}],"name":"setSellFeeRate","outputs":[],"stateMutability":"nonpayable","type":"function"},{"inputs":[{"internalType":"address","name":"_swapBalanceAddress","type":"address"}],"name":"setSwapBalance","outputs":[],"stateMutability":"nonpayable","type":"function"},{"inputs":[{"internalType":"address","name":"target","type":"address"}],"name":"setWhiteLists","outputs":[],"stateMutability":"nonpayable","type":"function"},{"inputs":[{"internalType":"bytes4","name":"interfaceId","type":"bytes4"}],"name":"supportsInterface","outputs":[{"internalType":"bool","name":"","type":"bool"}],"stateMutability":"view","type":"function"},{"inputs":[],"name":"swapBalanceAddress","outputs":[{"internalType":"address","name":"","type":"address"}],"stateMutability":"view","type":"function"},{"inputs":[],"name":"swapLockTime","outputs":[{"internalType":"uint256","name":"","type":"uint256"}],"stateMutability":"view","type":"function"},{"inputs":[{"internalType":"uint256","name":"tokenAmount","type":"uint256"}],"name":"swapTokensForETH","outputs":[],"stateMutability":"nonpayable","type":"function"},{"inputs":[],"name":"symbol","outputs":[{"internalType":"string","name":"","type":"string"}],"stateMutability":"view","type":"function"},{"inputs":[],"name":"totalSupply","outputs":[{"internalType":"uint256","name":"","type":"uint256"}],"stateMutability":"view","type":"function"},{"inputs":[{"internalType":"address","name":"recipient","type":"address"},{"internalType":"uint256","name":"amount","type":"uint256"}],"name":"transfer","outputs":[{"internalType":"bool","name":"","type":"bool"}],"stateMutability":"nonpayable","type":"function"},{"inputs":[{"internalType":"address","name":"sender","type":"address"},{"internalType":"address","name":"recipient","type":"address"},{"internalType":"uint256","name":"amount","type":"uint256"}],"name":"transferFrom","outputs":[{"internalType":"bool","name":"","type":"bool"}],"stateMutability":"nonpayable","type":"function"},{"inputs":[{"internalType":"address","name":"newOwner","type":"address"}],"name":"transferOwnership","outputs":[],"stateMutability":"nonpayable","type":"function"},{"inputs":[{"internalType":"uint256","name":"amount","type":"uint256"}],"name":"updateSwapBalance","outputs":[],"stateMutability":"nonpayable","type":"function"}],"devdoc":{"details":"ERC20 based Token, where all tokens are pre-assigned to the creator. Note they can later distribute these tokens as they wish using `transfer` and other","kind":"dev","methods":{"allowance(address,address)":{"details":"See {IERC20-allowance}."},"approve(address,uint256)":{"details":"See {IERC20-approve}. Requirements: - `spender` cannot be the zero address."},"balanceOf(address)":{"details":"See {IERC20-balanceOf}."},"decimals()":{"details":"Returns the number of decimals used to get its user representation. For example, if `decimals` equals `2`, a balance of `505` tokens should be displayed to a user as `5.05` (`505 / 10 ** 2`). Tokens usually opt for a value of 18, imitating the relationship between Ether and Wei. This is the value {ERC20} uses, unless this function is overridden; NOTE: This information is only used for _display_ purposes: it in no way affects any of the arithmetic of the contract, including {IERC20-balanceOf} and {IERC20-transfer}."},"decreaseAllowance(address,uint256)":{"details":"Atomically decreases the allowance granted to `spender` by the caller. This is an alternative to {approve} that can be used as a mitigation for problems described in {IERC20-approve}. Emits an {Approval} event indicating the updated allowance. Requirements: - `spender` cannot be the zero address. - `spender` must have allowance for the caller of at least `subtractedValue`."},"getRoleAdmin(bytes32)":{"details":"Returns the admin role that controls `role`. See {grantRole} and {revokeRole}. To change a role's admin, use {_setRoleAdmin}."},"grantRole(bytes32,address)":{"details":"Grants `role` to `account`. If `account` had not been already granted `role`, emits a {RoleGranted} event. Requirements: - the caller must have ``role``'s admin role."},"hasRole(bytes32,address)":{"details":"Returns `true` if `account` has been granted `role`."},"increaseAllowance(address,uint256)":{"details":"Atomically increases the allowance granted to `spender` by the caller. This is an alternative to {approve} that can be used as a mitigation for problems described in {IERC20-approve}. Emits an {Approval} event indicating the updated allowance. Requirements: - `spender` cannot be the zero address."},"name()":{"details":"Returns the name of the token."},"owner()":{"details":"Returns the address of the current owner."},"renounceOwnership()":{"details":"Leaves the contract without owner. It will not be possible to call `onlyOwner` functions anymore. Can only be called by the current owner. NOTE: Renouncing ownership will leave the contract without an owner, thereby removing any functionality that is only available to the owner."},"renounceRole(bytes32,address)":{"details":"Revokes `role` from the calling account. Roles are often managed via {grantRole} and {revokeRole}: this function's purpose is to provide a mechanism for accounts to lose their privileges if they are compromised (such as when a trusted device is misplaced). If the calling account had been revoked `role`, emits a {RoleRevoked} event. Requirements: - the caller must be `account`."},"revokeRole(bytes32,address)":{"details":"Revokes `role` from `account`. If `account` had been granted `role`, emits a {RoleRevoked} event. Requirements: - the caller must have ``role``'s admin role."},"supportsInterface(bytes4)":{"details":"See {IERC165-supportsInterface}."},"symbol()":{"details":"Returns the symbol of the token, usually a shorter version of the name."},"totalSupply()":{"details":"See {IERC20-totalSupply}."},"transfer(address,uint256)":{"details":"See {IERC20-transfer}. Requirements: - `recipient` cannot be the zero address. - the caller must have a balance of at least `amount`."},"transferFrom(address,address,uint256)":{"details":"See {IERC20-transferFrom}. Emits an {Approval} event indicating the updated allowance. This is not required by the EIP. See the note at the beginning of {ERC20}. Requirements: - `sender` and `recipient` cannot be the zero address. - `sender` must have a balance of at least `amount`. - the caller must have allowance for ``sender``'s tokens of at least `amount`."},"transferOwnership(address)":{"details":"Transfers ownership of the contract to a new account (`newOwner`). Can only be called by the current owner."}},"title":"TES Token","version":1},"evm":{"bytecode":{"linkReferences":{},"object":"60806040526000600b556000600c556000601060006101000a81548160ff021916908315150217905550600060115560006012553480156200004057600080fd5b506040518060400160405280600d81526020017f546974616e2054726164696e67000000000000000000000000000000000000008152506040518060400160405280600381526020017f54455300000000000000000000000000000000000000000000000000000000008152508160039080519060200190620000c592919062000924565b508060049080519060200190620000de92919062000924565b50505062000101620000f56200052a60201b60201c565b6200053260201b60201c565b620001357feb8697feeeccedf12ea87956b628b8e33f62a0b6aab65aae172bff38c5973ae360001b620005f860201b60201c565b620001697fd78e0dad43c40e3be81d71f1c987c906d2359388bccd9de9f30a79e8a0c5c90f60001b620005f860201b60201c565b6200019d7fb191624c3ff643e7981d7f8339ff16d61b248fb8055e5ec8a869270d0dd859cc60001b620005f860201b60201c565b620001ad620005fb60201b60201c565b60ff16600a620001be919062000b14565b6305f5e100620001cf919062000c51565b600a81905550620002097f1d0b26c7d44e478cf4b34db4b2f5e27d51a79c9ed3a93421fe0c6cad27010ca360001b620005f860201b60201c565b6200023d7f0e5852b814da8cba28ee3190c8223741469b08b8fae0e3317222cefaeee68a3760001b620005f860201b60201c565b62000260620002516200052a60201b60201c565b600a546200060460201b60201c565b620002947f09ab2344e28c37325973752aa643353b719c04475d1e123bff39769f0866fef260001b620005f860201b60201c565b620002c87f496151a386891a7c1fcf4d48616466ecee36de611b058dabba2aeeb20c946e6560001b620005f860201b60201c565b620002ec6000801b620002e06200052a60201b60201c565b6200077d60201b60201c565b620003207f2a2b85a2e6aaf6cce5559741cd89b1a45004ce3df8e39f90f4c539d2d8662f7460001b620005f860201b60201c565b620003547f8c41d23e0d6a65ca75b45c4e71aea37acb12f1c7e31caa367a397a5f5811e4d160001b620005f860201b60201c565b620003957f3c11d16cbaffd01df69ce1c404f6340ee057498f5f00246190ea54220576a848620003896200052a60201b60201c565b6200077d60201b60201c565b620003c97f0381b07e1b05b934a5e8990ed376b133aba4429df7f4465d9902e185f6bb512060001b620005f860201b60201c565b620003fd7f90c5bf8cc4f6f680a19e6c3e82223ad4bafba08c2b645755b60e517f187d245960001b620005f860201b60201c565b6001600e6000620004136200079360201b60201c565b73ffffffffffffffffffffffffffffffffffffffff1673ffffffffffffffffffffffffffffffffffffffff16815260200190815260200160002060006101000a81548160ff021916908315150217905550620004987f81912b30ee4054341d0a6973bc52cad2c3c86aa67ee92cb8ab848d6bdba5314a60001b620005f860201b60201c565b620004cc7fba9cb535097daa3c3a9148f669b5e07b5315438d221082f38157cc807bab89be60001b620005f860201b60201c565b6001600e60003073ffffffffffffffffffffffffffffffffffffffff1673ffffffffffffffffffffffffffffffffffffffff16815260200190815260200160002060006101000a81548160ff02191690831515021790555062000d86565b600033905090565b6000600560009054906101000a900473ffffffffffffffffffffffffffffffffffffffff16905081600560006101000a81548173ffffffffffffffffffffffffffffffffffffffff021916908373ffffffffffffffffffffffffffffffffffffffff1602179055508173ffffffffffffffffffffffffffffffffffffffff168173ffffffffffffffffffffffffffffffffffffffff167f8be0079c531659141344cd1fd0a4f28419497f9722a3daafe3b4186f6b6457e060405160405180910390a35050565b50565b60006012905090565b600073ffffffffffffffffffffffffffffffffffffffff168273ffffffffffffffffffffffffffffffffffffffff16141562000677576040517f08c379a00000000000000000000000000000000000000000000000000000000081526004016200066e9062000a0c565b60405180910390fd5b6200068b60008383620007bd60201b60201c565b80600260008282546200069f919062000a5c565b92505081905550806000808473ffffffffffffffffffffffffffffffffffffffff1673ffffffffffffffffffffffffffffffffffffffff1681526020019081526020016000206000828254620006f6919062000a5c565b925050819055508173ffffffffffffffffffffffffffffffffffffffff16600073ffffffffffffffffffffffffffffffffffffffff167fddf252ad1be2c89b69c2b068fc378daa952ba7f163c4a11628f55a4df523b3ef836040516200075d919062000a2e565b60405180910390a36200077960008383620007c260201b60201c565b5050565b6200078f8282620007c760201b60201c565b5050565b6000600560009054906101000a900473ffffffffffffffffffffffffffffffffffffffff16905090565b505050565b505050565b620007d98282620008b960201b60201c565b620008b55760016006600084815260200190815260200160002060000160008373ffffffffffffffffffffffffffffffffffffffff1673ffffffffffffffffffffffffffffffffffffffff16815260200190815260200160002060006101000a81548160ff0219169083151502179055506200085a6200052a60201b60201c565b73ffffffffffffffffffffffffffffffffffffffff168173ffffffffffffffffffffffffffffffffffffffff16837f2f8788117e7eff1d82e926ec794901d17c78024a50270940304540a733656f0d60405160405180910390a45b5050565b60006006600084815260200190815260200160002060000160008373ffffffffffffffffffffffffffffffffffffffff1673ffffffffffffffffffffffffffffffffffffffff16815260200190815260200160002060009054906101000a900460ff16905092915050565b828054620009329062000cbc565b90600052602060002090601f016020900481019282620009565760008555620009a2565b82601f106200097157805160ff1916838001178555620009a2565b82800160010185558215620009a2579182015b82811115620009a157825182559160200191906001019062000984565b5b509050620009b19190620009b5565b5090565b5b80821115620009d0576000816000905550600101620009b6565b5090565b6000620009e3601f8362000a4b565b9150620009f08262000d5d565b602082019050919050565b62000a068162000cb2565b82525050565b6000602082019050818103600083015262000a2781620009d4565b9050919050565b600060208201905062000a456000830184620009fb565b92915050565b600082825260208201905092915050565b600062000a698262000cb2565b915062000a768362000cb2565b9250827fffffffffffffffffffffffffffffffffffffffffffffffffffffffffffffffff0382111562000aae5762000aad62000cf2565b5b828201905092915050565b6000808291508390505b600185111562000b0b5780860481111562000ae35762000ae262000cf2565b5b600185161562000af35780820291505b808102905062000b038562000d50565b945062000ac3565b94509492505050565b600062000b218262000cb2565b915062000b2e8362000cb2565b925062000b5d7fffffffffffffffffffffffffffffffffffffffffffffffffffffffffffffffff848462000b65565b905092915050565b60008262000b77576001905062000c4a565b8162000b87576000905062000c4a565b816001811462000ba0576002811462000bab5762000be1565b600191505062000c4a565b60ff84111562000bc05762000bbf62000cf2565b5b8360020a91508482111562000bda5762000bd962000cf2565b5b5062000c4a565b5060208310610133831016604e8410600b841016171562000c1b5782820a90508381111562000c155762000c1462000cf2565b5b62000c4a565b62000c2a848484600162000ab9565b9250905081840481111562000c445762000c4362000cf2565b5b81810290505b9392505050565b600062000c5e8262000cb2565b915062000c6b8362000cb2565b9250817fffffffffffffffffffffffffffffffffffffffffffffffffffffffffffffffff048311821515161562000ca75762000ca662000cf2565b5b828202905092915050565b6000819050919050565b6000600282049050600182168062000cd557607f821691505b6020821081141562000cec5762000ceb62000d21565b5b50919050565b7f4e487b7100000000000000000000000000000000000000000000000000000000600052601160045260246000fd5b7f4e487b7100000000000000000000000000000000000000000000000000000000600052602260045260246000fd5b60008160011c9050919050565b7f45524332303a206d696e7420746f20746865207a65726f206164647265737300600082015250565b615a2f8062000d966000396000f3fe608060405234801561001057600080fd5b50600436106102485760003560e01c806391d148541161013b578063ce636726116100b8578063e34edc141161007c578063e34edc14146106f0578063e56a645e1461070c578063e5dffed314610728578063f2f7049c14610746578063f2fde38b1461076457610248565b8063ce6367261461064d578063d547741f14610669578063db8d55f114610685578063dcb5f220146106a4578063dd62ed3e146106c057610248565b8063a22d4832116100ff578063a22d483214610597578063a457c2d7146105b3578063a9059cbb146105e3578063bd9797f414610613578063cb81c2291461062f57610248565b806391d14854146104f357806395d89b41146105235780639729d64c146105415780639c466f1f1461055d578063a217fddf1461057957610248565b806336568abe116101c9578063528928841161018d578063528928841461046157806370a082311461047f578063715018a6146104af5780638da5cb5b146104b95780639072e306146104d757610248565b806336568abe146103bf57806339509351146103db57806342966c681461040b578063437823ec146104275780634489d6f81461044357610248565b8063248a9ca311610210578063248a9ca31461031957806326898da914610349578063282c51f3146103675780632f2ff15d14610385578063313ce567146103a157610248565b806301ffc9a71461024d57806306fdde031461027d578063095ea7b31461029b57806318160ddd146102cb57806323b872dd146102e9575b600080fd5b6102676004803603810190610262919061479c565b610780565b6040516102749190614cce565b60405180910390f35b6102856107fa565b6040516102929190614d1f565b60405180910390f35b6102b560048036038101906102b091906146ef565b61088c565b6040516102c29190614cce565b60405180910390f35b6102d36108aa565b6040516102e09190614fc1565b60405180910390f35b61030360048036038101906102fe919061469c565b6108b4565b6040516103109190614cce565b60405180910390f35b610333600480360381019061032e919061472f565b6109ac565b6040516103409190614ce9565b60405180910390f35b6103516109cc565b60405161035e9190614cce565b60405180910390f35b61036f6109df565b60405161037c9190614ce9565b60405180910390f35b61039f600480360381019061039a919061475c565b610a03565b005b6103a9610a2c565b6040516103b6919061505f565b60405180910390f35b6103d960048036038101906103d4919061475c565b610a35565b005b6103f560048036038101906103f091906146ef565b610ab8565b6040516104029190614cce565b60405180910390f35b610425600480360381019061042091906147c9565b610b64565b005b610441600480360381019061043c9190614602565b610c78565b005b61044b610dd3565b6040516104589190614fc1565b60405180910390f35b610469610dd9565b6040516104769190614c8a565b60405180910390f35b61049960048036038101906104949190614602565b610dff565b6040516104a69190614fc1565b60405180910390f35b6104b7610e47565b005b6104c1610ecf565b6040516104ce9190614c8a565b60405180910390f35b6104f160048036038101906104ec91906147c9565b610ef9565b005b61050d6004803603810190610508919061475c565b6110f7565b60405161051a9190614cce565b60405180910390f35b61052b611162565b6040516105389190614d1f565b60405180910390f35b61055b60048036038101906105569190614602565b6111f4565b005b610577600480360381019061057291906147c9565b6114f3565b005b6105816116f1565b60405161058e9190614ce9565b60405180910390f35b6105b160048036038101906105ac9190614602565b6116f8565b005b6105cd60048036038101906105c891906146ef565b611947565b6040516105da9190614cce565b60405180910390f35b6105fd60048036038101906105f891906146ef565b611a32565b60405161060a9190614cce565b60405180910390f35b61062d600480360381019061062891906147c9565b611a50565b005b610637611cb5565b6040516106449190614fc1565b60405180910390f35b61066760048036038101906106629190614602565b611cbb565b005b610683600480360381019061067e919061475c565b6121df565b005b61068d612208565b60405161069b929190615036565b60405180910390f35b6106be60048036038101906106b99190614602565b61229d565b005b6106da60048036038101906106d5919061465c565b6125a6565b6040516106e79190614fc1565b60405180910390f35b61070a60048036038101906107059190614602565b61262d565b005b610726600480360381019061072191906147c9565b612935565b005b610730612e99565b60405161073d9190614d04565b60405180910390f35b61074e612ebf565b60405161075b9190614c8a565b60405180910390f35b61077e60048036038101906107799190614602565b612ee5565b005b60007f7965db0b000000000000000000000000000000000000000000000000000000007bffffffffffffffffffffffffffffffffffffffffffffffffffffffff1916827bffffffffffffffffffffffffffffffffffffffffffffffffffffffff191614806107f357506107f282612fdd565b5b9050919050565b6060600380546108099061531f565b80601f01602080910402602001604051908101604052809291908181526020018280546108359061531f565b80156108825780601f1061085757610100808354040283529160200191610882565b820191906000526020600020905b81548152906001019060200180831161086557829003601f168201915b5050505050905090565b60006108a0610899613047565b848461304f565b6001905092915050565b6000600254905090565b60006108c184848461321a565b6000600160008673ffffffffffffffffffffffffffffffffffffffff1673ffffffffffffffffffffffffffffffffffffffff168152602001908152602001600020600061090c613047565b73ffffffffffffffffffffffffffffffffffffffff1673ffffffffffffffffffffffffffffffffffffffff1681526020019081526020016000205490508281101561098c576040517f08c379a000000000000000000000000000000000000000000000000000000000815260040161098390614e21565b60405180910390fd5b6109a085610998613047565b85840361304f565b60019150509392505050565b600060066000838152602001908152602001600020600101549050919050565b601060009054906101000a900460ff1681565b7f3c11d16cbaffd01df69ce1c404f6340ee057498f5f00246190ea54220576a84881565b610a0c826109ac565b610a1d81610a18613047565b613af9565b610a278383613b96565b505050565b60006012905090565b610a3d613047565b73ffffffffffffffffffffffffffffffffffffffff168173ffffffffffffffffffffffffffffffffffffffff1614610aaa576040517f08c379a0000000000000000000000000000000000000000000000000000000008152600401610aa190614fa1565b60405180910390fd5b610ab48282613c77565b5050565b6000610b5a610ac5613047565b848460016000610ad3613047565b73ffffffffffffffffffffffffffffffffffffffff1673ffffffffffffffffffffffffffffffffffffffff16815260200190815260200160002060008873ffffffffffffffffffffffffffffffffffffffff1673ffffffffffffffffffffffffffffffffffffffff16815260200190815260200160002054610b5591906150da565b61304f565b6001905092915050565b610b6c613047565b73ffffffffffffffffffffffffffffffffffffffff16610b8a610ecf565b73ffffffffffffffffffffffffffffffffffffffff1614610be0576040517f08c379a0000000000000000000000000000000000000000000000000000000008152600401610bd790614e41565b60405180910390fd5b610c0c7f874871a162a71d4840c7f98993fb3251652851c996b75e596e2f66dee8baa7f960001b613d59565b610c387f68ecaabc630493d4ab70e690b088842f6f3ae666e7a82c9ff4d7db991edcb18d60001b613d59565b610c647f230cf1ba6a719d7e2d36ce293483374951c55a9a4587be1b0f0ba733c5a13c6b60001b613d59565b610c75610c6f613047565b82613d5c565b50565b610c80613047565b73ffffffffffffffffffffffffffffffffffffffff16610c9e610ecf565b73ffffffffffffffffffffffffffffffffffffffff1614610cf4576040517f08c379a0000000000000000000000000000000000000000000000000000000008152600401610ceb90614e41565b60405180910390fd5b610d207fcc9bb4bfb50f8753d0b3805423e1b795b9c015d77ff8b6315c882227e98790f760001b613d59565b610d4c7fb60cc414ccd45705ec809ef12c8b98f546e361b2f31f66a1f4d240f388c2dbef60001b613d59565b610d787f0bdd4467206ea05c384952926d9e6524d032a38f748e3a07acb20648eddb652c60001b613d59565b6001600e60008373ffffffffffffffffffffffffffffffffffffffff1673ffffffffffffffffffffffffffffffffffffffff16815260200190815260200160002060006101000a81548160ff02191690831515021790555050565b60125481565b600960009054906101000a900473ffffffffffffffffffffffffffffffffffffffff1681565b60008060008373ffffffffffffffffffffffffffffffffffffffff1673ffffffffffffffffffffffffffffffffffffffff168152602001908152602001600020549050919050565b610e4f613047565b73ffffffffffffffffffffffffffffffffffffffff16610e6d610ecf565b73ffffffffffffffffffffffffffffffffffffffff1614610ec3576040517f08c379a0000000000000000000000000000000000000000000000000000000008152600401610eba90614e41565b60405180910390fd5b610ecd6000613f33565b565b6000600560009054906101000a900473ffffffffffffffffffffffffffffffffffffffff16905090565b610f01613047565b73ffffffffffffffffffffffffffffffffffffffff16610f1f610ecf565b73ffffffffffffffffffffffffffffffffffffffff1614610f75576040517f08c379a0000000000000000000000000000000000000000000000000000000008152600401610f6c90614e41565b60405180910390fd5b610fa17fff23f575ddf82a89cda38f6e25d8dd84d551b5d3ea4e3c433bbdce2ab55c4c6c60001b613d59565b610fcd7ffa7648d0999c65c1558697c161ba7e49f75747c9a493c4ea6ca969254f05c0b460001b613d59565b610ff97fe303d1b7cc0589bf11c929684cba5a976db5fd144526c19840aee8c8291951b660001b613d59565b6110257fa1e79fd50c2063573979e1ebf1d4993035057be88f704f5c8c0dea5112f3458460001b613d59565b6000811015611069576040517f08c379a000000000000000000000000000000000000000000000000000000000815260040161106090614e61565b60405180910390fd5b6110957f2d6d8168589661b245ad05210f2615c1db13cf05693e3a25e1e78fec21bc323560001b613d59565b6110c17f8eacbd449c4d901c8a7a53b755efb3d9d459ad58e7c7da4c8bba68190e29544d60001b613d59565b6110ed7f235dbbd88aff0b673e281581964f59b7ee6708b4ba0b6a4abcb0685c1f28c81760001b613d59565b80600b8190555050565b60006006600084815260200190815260200160002060000160008373ffffffffffffffffffffffffffffffffffffffff1673ffffffffffffffffffffffffffffffffffffffff16815260200190815260200160002060009054906101000a900460ff16905092915050565b6060600480546111719061531f565b80601f016020809104026020016040519081016040528092919081815260200182805461119d9061531f565b80156111ea5780601f106111bf576101008083540402835291602001916111ea565b820191906000526020600020905b8154815290600101906020018083116111cd57829003601f168201915b5050505050905090565b6111fc613047565b73ffffffffffffffffffffffffffffffffffffffff1661121a610ecf565b73ffffffffffffffffffffffffffffffffffffffff1614611270576040517f08c379a000000000000000000000000000000000000000000000000000000000815260040161126790614e41565b60405180910390fd5b61129c7ff0e5f5a062fb01ca110e048f65b9252393a563e8e194786e887bc99c82a638c760001b613d59565b6112c87fb6661620e6fb1dcb4a87d781b8b0b726081dd7b87dbbd1bb78c1b198517f83ac60001b613d59565b6112f47f87fae9fc1605aae09d8965a862adcecda40ceae54e93465d2c8d062dfff7ca6060001b613d59565b6113207f9640facc8901aac0eabce1f5364d56ce0695165847471018064c255fb02db2ed60001b613d59565b600073ffffffffffffffffffffffffffffffffffffffff168173ffffffffffffffffffffffffffffffffffffffff161415611390576040517f08c379a000000000000000000000000000000000000000000000000000000000815260040161138790614ec1565b60405180910390fd5b6113bc7fb93863268e433fd79d20e2b653708360b570bf98470ae49bbed77ca7c0a7d48560001b613d59565b6113e87f155e65c3bb6bee1b5a8306beee811d2dde625eb5e815cc300bad1e3745ee309b60001b613d59565b6114147f55dd95cad26e6cb6884b2ae14df4addd9553aa2eb8c044fedb9bbdd7e1ec0e3b60001b613d59565b80600860006101000a81548173ffffffffffffffffffffffffffffffffffffffff021916908373ffffffffffffffffffffffffffffffffffffffff1602179055506114817f8485e14467bec9af88edd6176fef347c81912742931baf041e908eea5a08b96f60001b613d59565b6114ad7f3c0ce189a26f414be6a5c769bb7d154f1512bfdc3293d94c2616a678951b3e8760001b613d59565b8073ffffffffffffffffffffffffffffffffffffffff167f0f7bf2342f244edc4ddc8b8c9c59859b32d0cf0fdba77897f8080db836b8fc1560405160405180910390a250565b6114fb613047565b73ffffffffffffffffffffffffffffffffffffffff16611519610ecf565b73ffffffffffffffffffffffffffffffffffffffff161461156f576040517f08c379a000000000000000000000000000000000000000000000000000000000815260040161156690614e41565b60405180910390fd5b61159b7ffe8ffb44fb47be877889ca12e262a2883968eaaa1947c78b9c84c42303fdd63e60001b613d59565b6115c77f5e2aa41913a216a3676256395c8c85d655e27700c32d414a2cda1adc9042ea6160001b613d59565b6115f37f92eb3184e64a0a829d38bb248eb310849b44318c65d529c37d06e56729702c7c60001b613d59565b61161f7fa0b95bacc6f44946ca54ad22e6fad4d6d72bdf0329f0e68bbbcd20ab8d83dad360001b613d59565b6006811115611663576040517f08c379a000000000000000000000000000000000000000000000000000000000815260040161165a90614f21565b60405180910390fd5b61168f7f6262603b1ef5dd1aaa6e7f2c9a811699040ec0be8969c1bc3c47f5cd5cb2ab6660001b613d59565b6116bb7fa8af5b6c89846ba6a2d4b0b37b04f5831e6ba0c9ca452135003f9ddca69dc9bf60001b613d59565b6116e77f773fa97560635f12d90ae3b5747f025b3ce03c9681ba5102b57b14e9732f582c60001b613d59565b80600c8190555050565b6000801b81565b611700613047565b73ffffffffffffffffffffffffffffffffffffffff1661171e610ecf565b73ffffffffffffffffffffffffffffffffffffffff1614611774576040517f08c379a000000000000000000000000000000000000000000000000000000000815260040161176b90614e41565b60405180910390fd5b6117a07f95743098b908f8d4200cdba1ef3d0e626804b4db8dc58930115232f982025d6f60001b613d59565b6117cc7f89e878be3ade5aa6c83140e87f655d349879c23ef1808bc85effd7a21b3dd19560001b613d59565b6117f87fcd3444bfb51978c7853dcd71c82e907581460ef996b688011c1262806ff0f84a60001b613d59565b6118247fab1ff83e49b642f1d55d495298cc0e2ed28801aaf0945fbc13f3c457c8e61cc860001b613d59565b600073ffffffffffffffffffffffffffffffffffffffff16600960009054906101000a900473ffffffffffffffffffffffffffffffffffffffff1673ffffffffffffffffffffffffffffffffffffffff161461187f57600080fd5b6118ab7fa858f45b1b59f3addfecf565acfc29b6f2458d78398da3bc46aa60a301b2071360001b613d59565b6118d77f37d4c084fcea657ac17c94ed1a1c7b04db733e32df13c3a3ad629c7927f3fa0e60001b613d59565b6119037fccce66c20238b683f5b33aa8390ab58bbaec5b792ee3f35d0588a2ac2b34810260001b613d59565b80600960006101000a81548173ffffffffffffffffffffffffffffffffffffffff021916908373ffffffffffffffffffffffffffffffffffffffff16021790555050565b60008060016000611956613047565b73ffffffffffffffffffffffffffffffffffffffff1673ffffffffffffffffffffffffffffffffffffffff16815260200190815260200160002060008573ffffffffffffffffffffffffffffffffffffffff1673ffffffffffffffffffffffffffffffffffffffff16815260200190815260200160002054905082811015611a13576040517f08c379a0000000000000000000000000000000000000000000000000000000008152600401611a0a90614f81565b60405180910390fd5b611a27611a1e613047565b8585840361304f565b600191505092915050565b6000611a46611a3f613047565b848461321a565b6001905092915050565b611a58613047565b73ffffffffffffffffffffffffffffffffffffffff16611a76610ecf565b73ffffffffffffffffffffffffffffffffffffffff1614611acc576040517f08c379a0000000000000000000000000000000000000000000000000000000008152600401611ac390614e41565b60405180910390fd5b611af87fa981dd2ec8cc204a4f5de975e11f086eb282597d9fd965789df5a55de60beac660001b613d59565b611b247f31a7415c31da047df5e1e4808a28cc2570907639808266cada354d4a4a769a3560001b613d59565b611b507f86a35f02b35a9d937e52c3d6ecc0cfaae00e8afbc2e79ddd4f49ba9035d88d4160001b613d59565b6000611b5b30610dff565b9050611b897fcceae568273af8efd3221f4808dd64619424e80e310bd760fc429fea71291f3460001b613d59565b611bb57ffe99f1b917360ac8d691d3cb26a21928161305b08929e74787770a872a50562f60001b613d59565b611be17f3b7ee4f7d52d212cc7e232a7826ebfd6d215bd3392cf2930706da9d54b24dd3060001b613d59565b80821115611c24576040517f08c379a0000000000000000000000000000000000000000000000000000000008152600401611c1b90614e01565b60405180910390fd5b611c507fd72ba3018c22a603110d612854925dfe5f1b7ef2233675c64b258fc0628d6ac160001b613d59565b611c7c7ffdabd829a6ed7553aaffc8b559cc7b64d4f4db556864a57ca48c3c6082dc9a1260001b613d59565b611ca87f01e29be510ff09bebc81adfebd8b13e8df5e7de827cb00d4f9523bc2594accf360001b613d59565b611cb182612935565b5050565b60115481565b611cc3613047565b73ffffffffffffffffffffffffffffffffffffffff16611ce1610ecf565b73ffffffffffffffffffffffffffffffffffffffff1614611d37576040517f08c379a0000000000000000000000000000000000000000000000000000000008152600401611d2e90614e41565b60405180910390fd5b611d637f91d2d85651dd1f145bdeb46814358f467e8ad1d8515f9c765c9bd943788c52d260001b613d59565b611d8f7f9ffa4bd692a9c614209b8f3f21001371e7d3eccff5db3a3c6c5ba65cb7769c1360001b613d59565b611dbb7f189619229ffab062228adc4a2bfdbe074b3122ff6865d318bd58a7b222ca069560001b613d59565b611de77fdaa7e504c0454a40dec64b84ef6873f708ea08d9e4c9f9bc798566a30c415fa560001b613d59565b601154421015611e2c576040517f08c379a0000000000000000000000000000000000000000000000000000000008152600401611e2390614f61565b60405180910390fd5b611e587f223c71e359f2f064cff9c97e9ce2a3d74779dcd4d489a03c38fd207300d29b9060001b613d59565b611e847f96f04c50155c52583db175507eacae22784788da63664e85ba59e5a84a332d1860001b613d59565b611eb07f961c83ed8d02582e554af49ae76a0232e674f1f2d8bfc6ad1e3fd6c02b3744c460001b613d59565b6000819050611ee17fe6704977ef99598fdbc27c8e6b06b1ee8f9a95eb69c02197fea6f941e45e12b360001b613d59565b611f0d7fbf8aecfb69334d46b4895efd0757ae0912db4e40d75c8ad907a37301435492a360001b613d59565b8073ffffffffffffffffffffffffffffffffffffffff1663c45a01556040518163ffffffff1660e01b815260040160206040518083038186803b158015611f5357600080fd5b505afa158015611f67573d6000803e3d6000fd5b505050506040513d601f19601f82011682018060405250810190611f8b919061462f565b73ffffffffffffffffffffffffffffffffffffffff1663c9c65396308373ffffffffffffffffffffffffffffffffffffffff1663ad5c46486040518163ffffffff1660e01b815260040160206040518083038186803b158015611fed57600080fd5b505afa158015612001573d6000803e3d6000fd5b505050506040513d601f19601f82011682018060405250810190612025919061462f565b6040518363ffffffff1660e01b8152600401612042929190614ca5565b602060405180830381600087803b15801561205c57600080fd5b505af1158015612070573d6000803e3d6000fd5b505050506040513d601f19601f82011682018060405250810190612094919061462f565b600960006101000a81548173ffffffffffffffffffffffffffffffffffffffff021916908373ffffffffffffffffffffffffffffffffffffffff1602179055506121007fca9bd43f80c2a971f2cfe0e9b0218ec1335ecc00f2ed2717b5a2c89af1c0711760001b613d59565b61212c7f21bc6ddf697e488c5cb420b2160a971e6b206df2b46936b93dbe3c785c5d82ba60001b613d59565b80600760006101000a81548173ffffffffffffffffffffffffffffffffffffffff021916908373ffffffffffffffffffffffffffffffffffffffff1602179055506121997fff8cf1e870f3363c2ff0fa945f2abbaafe871ada7033f9c146b65be77cf8096760001b613d59565b6121c57f979be8bb75d0fa0a76efbcde128ef15d4446834784c670447bca242eaf8fcaf660001b613d59565b6301e13380426121d591906150da565b6011819055505050565b6121e8826109ac565b6121f9816121f4613047565b613af9565b6122038383613c77565b505050565b6000806122377f80eabdae698c5db4f436826a925bdd55305944c4067b3e42fe75b5be6c50ceb360001b613d59565b6122637f7591c0e4924d7d011d2534f5cbe6be13838fc9b28f484d14d68a0d0b34d9d81460001b613d59565b61228f7f5314cb37ab76c25674b9242d28c274b87479c8741c5e954a3c6ea106c1c44be160001b613d59565b600b54600c54915091509091565b6122a5613047565b73ffffffffffffffffffffffffffffffffffffffff166122c3610ecf565b73ffffffffffffffffffffffffffffffffffffffff1614612319576040517f08c379a000000000000000000000000000000000000000000000000000000000815260040161231090614e41565b60405180910390fd5b6123457f8208650bb6a6fb778f85313ae1e4e6b97ffb73d58c45d7483e687ab3b35222a460001b613d59565b6123717f3fc74d5c6ef0de4ef0034b01df01171f34b94cbbe971d9857527568ee01ad43d60001b613d59565b61239d7fa59dd7a2a6056bc862ca5b25d3106a4e7d176149d5e3dd9ecceba5272304cb9f60001b613d59565b6123c97f2b83b6d533e9e54f218b64f517f33f19cc42ebb3ffed13f69c2b9bb26d896c8260001b613d59565b600d60008273ffffffffffffffffffffffffffffffffffffffff1673ffffffffffffffffffffffffffffffffffffffff16815260200190815260200160002060009054906101000a900460ff161561242057600080fd5b61244c7f88445042b4076121fd2de6ef58176a062ed545c9e9a87a23a2b100d024e8490060001b613d59565b6124787f69e00ad23a9f763d3f2b6b18ddc6c7f4c287afd1e6bce66a622dffd342a3820860001b613d59565b6124a47fef95ef12bfb0eade85a8d8c1980b76ca4e17cb053033828cc99ddf66b89865ed60001b613d59565b6001600d60008373ffffffffffffffffffffffffffffffffffffffff1673ffffffffffffffffffffffffffffffffffffffff16815260200190815260200160002060006101000a81548160ff0219169083151502179055506125287f4cad42baa7fc5485e5b4a7509dbc1189cd8e280f55ebeeed3d9b8bf397c26d0d60001b613d59565b6125547f096bcd9683c0a0e05563b47e48c3dbb1fc10f6ecf910984a728d2b14ff38516660001b613d59565b8073ffffffffffffffffffffffffffffffffffffffff167ffd1d4aa2c8ad064e5488483008a99152737db29cc4d0f88d3b7b080f8d73cc82600160405161259b9190614cce565b60405180910390a250565b6000600160008473ffffffffffffffffffffffffffffffffffffffff1673ffffffffffffffffffffffffffffffffffffffff16815260200190815260200160002060008373ffffffffffffffffffffffffffffffffffffffff1673ffffffffffffffffffffffffffffffffffffffff16815260200190815260200160002054905092915050565b612635613047565b73ffffffffffffffffffffffffffffffffffffffff16612653610ecf565b73ffffffffffffffffffffffffffffffffffffffff16146126a9576040517f08c379a00000000000000000000000000000000000000000000000000000000081526004016126a090614e41565b60405180910390fd5b6126d57f5eb5ab14da192167f553ad7dbfae042d3e72b04f3ea98354816388a7663c09bb60001b613d59565b6127017ff8c18e39b27788c09204922ae5e52a7b746753ae8eafb2d4e5624e33a72e180560001b613d59565b61272d7f818f9367c9275165cdeffb20dcabec2b8039e511deb6ea96bea26f08c2d46d1260001b613d59565b6127597f3d273b36f9ca6ba76acfc1272a90b72e6d660e080d3c0f5a137e344f5010a8f960001b613d59565b600d60008273ffffffffffffffffffffffffffffffffffffffff1673ffffffffffffffffffffffffffffffffffffffff16815260200190815260200160002060009054906101000a900460ff166127af57600080fd5b6127db7f61049e27960f247886e081c48510c98a807bf9856b20c7c09df8532d3630ddbd60001b613d59565b6128077fc4662402d740049f98674b9d30c6eb5f27a881314f2aa18ffba81ecd2b9ef15d60001b613d59565b6128337f9363172b3c4ae25591766b76d0e211e3a60e447cd7eab7a8c79a907e095a4ba960001b613d59565b6000600d60008373ffffffffffffffffffffffffffffffffffffffff1673ffffffffffffffffffffffffffffffffffffffff16815260200190815260200160002060006101000a81548160ff0219169083151502179055506128b77f90c333b632fc37c9330e039b314a3f72fc91be7c34479d3cd8913ea74f2ff9b860001b613d59565b6128e37f57243b59aa5a19c7db0f05bbabe2986f88eba1bced8fd99352eb615da07c545060001b613d59565b8073ffffffffffffffffffffffffffffffffffffffff167ffd1d4aa2c8ad064e5488483008a99152737db29cc4d0f88d3b7b080f8d73cc82600060405161292a9190614cce565b60405180910390a250565b61293d613047565b73ffffffffffffffffffffffffffffffffffffffff1661295b610ecf565b73ffffffffffffffffffffffffffffffffffffffff16146129b1576040517f08c379a00000000000000000000000000000000000000000000000000000000081526004016129a890614e41565b60405180910390fd5b6129dd7f14f77654cc92c8d4169fec5808b3c36912a600eaa8fa5bcaaa967d7f750050b560001b613d59565b612a097fbc1beb35fec1eef73844a671b0d6616961e5ce7e3987e68646003644be6d906560001b613d59565b612a357f03a9591ad92b173b1e2e410f46377a02484164743bbf15cacb8eaf9dc4b81d6660001b613d59565b6000600267ffffffffffffffff811115612a5257612a5161540d565b5b604051908082528060200260200182016040528015612a805781602001602082028036833780820191505090505b509050612aaf7f783b62aafdb5e4e90c1ad23a76431d61a200db9541f66dc031375104ce774b9860001b613d59565b612adb7f4016f4a1253fbce6072a93086db178bf49ad87f85a682f2ccd5225fd46a6befa60001b613d59565b3081600081518110612af057612aef6153de565b5b602002602001019073ffffffffffffffffffffffffffffffffffffffff16908173ffffffffffffffffffffffffffffffffffffffff1681525050612b567f2ea0711eb4f84f97c0fcdc427fa2c5aab8e342cf7338507dea31cf4bb59cfe1660001b613d59565b612b827f9611dcc0353f4130e3b7445bc25f254b71bb6ab3c5d5ece5c74e78c14177572360001b613d59565b600760009054906101000a900473ffffffffffffffffffffffffffffffffffffffff1673ffffffffffffffffffffffffffffffffffffffff1663ad5c46486040518163ffffffff1660e01b815260040160206040518083038186803b158015612bea57600080fd5b505afa158015612bfe573d6000803e3d6000fd5b505050506040513d601f19601f82011682018060405250810190612c22919061462f565b81600181518110612c3657612c356153de565b5b602002602001019073ffffffffffffffffffffffffffffffffffffffff16908173ffffffffffffffffffffffffffffffffffffffff1681525050612c9c7f49bc151ab909544eb501abce1e163b7e43e69903e091b86fd79e93062aa7ffeb60001b613d59565b612cc87fcfef6c3cb07ca0b9e64a4bd95f56d7babe9eb6a18c5fc8e7e54f58471e8ab65660001b613d59565b612cf530600760009054906101000a900473ffffffffffffffffffffffffffffffffffffffff168461304f565b612d217fbc1ddb574d46e47d5c76eca663a2f05baa044a5368ded37590f2bee54107bf4960001b613d59565b612d4d7ff82c9006b6fd15b505f7c0e189c9c16fe610f8a7a08135ea0f2ecacab1b4a14860001b613d59565b600760009054906101000a900473ffffffffffffffffffffffffffffffffffffffff1673ffffffffffffffffffffffffffffffffffffffff1663791ac94783600084600860009054906101000a900473ffffffffffffffffffffffffffffffffffffffff16426040518663ffffffff1660e01b8152600401612dd3959493929190614fdc565b600060405180830381600087803b158015612ded57600080fd5b505af1925050508015612dfe575060015b612e9457612e2e7f18e3323504035f329d1b727cf6b856f52098af379271a44614256ff6ebd399c160001b613d59565b612e5a7f2e17429f5ef1b1683f393207017eb79534ff35334dbaf9934880fb21f234037a60001b613d59565b7fcf34ef537ac33ee1ac626ca1587a0a7e8e51561e5514f8cb36afa1c5102b3bab604051612e8790614f41565b60405180910390a1612e95565b5b5050565b600760009054906101000a900473ffffffffffffffffffffffffffffffffffffffff1681565b600860009054906101000a900473ffffffffffffffffffffffffffffffffffffffff1681565b612eed613047565b73ffffffffffffffffffffffffffffffffffffffff16612f0b610ecf565b73ffffffffffffffffffffffffffffffffffffffff1614612f61576040517f08c379a0000000000000000000000000000000000000000000000000000000008152600401612f5890614e41565b60405180910390fd5b600073ffffffffffffffffffffffffffffffffffffffff168173ffffffffffffffffffffffffffffffffffffffff161415612fd1576040517f08c379a0000000000000000000000000000000000000000000000000000000008152600401612fc890614da1565b60405180910390fd5b612fda81613f33565b50565b60007f01ffc9a7000000000000000000000000000000000000000000000000000000007bffffffffffffffffffffffffffffffffffffffffffffffffffffffff1916827bffffffffffffffffffffffffffffffffffffffffffffffffffffffff1916149050919050565b600033905090565b600073ffffffffffffffffffffffffffffffffffffffff168373ffffffffffffffffffffffffffffffffffffffff1614156130bf576040517f08c379a00000000000000000000000000000000000000000000000000000000081526004016130b690614f01565b60405180910390fd5b600073ffffffffffffffffffffffffffffffffffffffff168273ffffffffffffffffffffffffffffffffffffffff16141561312f576040517f08c379a000000000000000000000000000000000000000000000000000000000815260040161312690614dc1565b60405180910390fd5b80600160008573ffffffffffffffffffffffffffffffffffffffff1673ffffffffffffffffffffffffffffffffffffffff16815260200190815260200160002060008473ffffffffffffffffffffffffffffffffffffffff1673ffffffffffffffffffffffffffffffffffffffff168152602001908152602001600020819055508173ffffffffffffffffffffffffffffffffffffffff168373ffffffffffffffffffffffffffffffffffffffff167f8c5be1e5ebec7d5bd14f71427d1e84f3dd0314c0f7b2291e5b200ac8c7c3b9258360405161320d9190614fc1565b60405180910390a3505050565b6132467f053281432cd0c552183553f8f9da1c1e1512e8f8ce86fdc41041200e80ef725560001b613d59565b6132727fff869c270c001b3dc468854ad56d7cf01dab3a91a7e23630692b8e3d348e19de60001b613d59565b61329e7f79494500391633c9fbb769dfe3ecb2b3cd8dc9f3df60e7cdb08dfa2ddb8ab2d160001b613d59565b6132ca7f359a9fa7e94cd2bbf587e464e7a6c33d39104d33d528458185121395522a30be60001b613d59565b600073ffffffffffffffffffffffffffffffffffffffff168373ffffffffffffffffffffffffffffffffffffffff16141561333a576040517f08c379a000000000000000000000000000000000000000000000000000000000815260040161333190614ee1565b60405180910390fd5b6133667f30e073747e86d7419ff3ad135a6b8a02624545be57f6595dff9fdab5fb2a7bb760001b613d59565b6133927feaa402665f1525dca802a0c2bead9489076e30a549d09b0d876e6a19022fdb0a60001b613d59565b6133be7f91982d7609adfbb4600126d697f20e61e20e0c5cd1be4e63d1325b73c30b619d60001b613d59565b6133ea7f795b13e2d9e12ba324ccac9aedd3a743c54f4f9530ae93d62bda0e78e64f765e60001b613d59565b600073ffffffffffffffffffffffffffffffffffffffff168273ffffffffffffffffffffffffffffffffffffffff16141561345a576040517f08c379a000000000000000000000000000000000000000000000000000000000815260040161345190614d61565b60405180910390fd5b6134867f5be9acc3cdcc8dc5aac64c9ce5f64986fce74a03d2022b1df1baa3e41205c0ce60001b613d59565b6134b27f0b06591f0503adff195110193b284c48c9e3e845d69b9497fcb95104a0ee237060001b613d59565b6134de7ff1a4f8573300deb6ac04447b89ac45b4871f8eb230267e8bd9e79998dc6a287760001b613d59565b61350a7f6809965b6d5a3b595ca4562fe23942c7aeee26ca95340ab79d97eae2976fa8a060001b613d59565b6000811161354d576040517f08c379a000000000000000000000000000000000000000000000000000000000815260040161354490614e81565b60405180910390fd5b6135797f16a34063858514359fa2dcfc20449cef17a18e424f52c9ea7c5c1ee742123c2560001b613d59565b6135a57f1246824c4160bcea34a76e9bf37fdc681657d76963327a65df1a705e50a3509b60001b613d59565b6135d17fc5cb343f6098f974670c51136f34284136e87207c6f59f927f929cf05e9bb81160001b613d59565b60006135ff7f11cbb33dcad5151a1798a1a2437b5c1e4e47c16250527f887803b32ecef1990060001b613d59565b61362b7fcf8deb65e5fc2dfe3b03bc4ed178431ba01e51c5a1f1d020dc68d2004efa787660001b613d59565b600d60008573ffffffffffffffffffffffffffffffffffffffff1673ffffffffffffffffffffffffffffffffffffffff16815260200190815260200160002060009054906101000a900460ff1615806136ce5750600d60008473ffffffffffffffffffffffffffffffffffffffff1673ffffffffffffffffffffffffffffffffffffffff16815260200190815260200160002060009054906101000a900460ff16155b1561386d576136ff7fee74511d782791863b14dd42ab6a31ad70d6da404cc7c73526721ff3d0185da560001b613d59565b61372b7fd77a7e6da8d34a5656d9798e5c1a5dfc3f9b3f3c4d83f53f6bb82b1bc066bb4160001b613d59565b6137577fb8bdccd8bd21b7fda0f746d07413ca0658ad985d026eaf1e3b1ea10b5146440d60001b613d59565b600960009054906101000a900473ffffffffffffffffffffffffffffffffffffffff1673ffffffffffffffffffffffffffffffffffffffff168373ffffffffffffffffffffffffffffffffffffffff16141561383b576137d97f3ba0319b38cfbe6e4832dd29eebca59f530ee39e1ad7d372873466cd607ee57360001b613d59565b6138057f7f578cb08e39e8fc934142422fb9f5d1de4d0de8fb2c2b5399601acd3978fae660001b613d59565b6138317fba0cfba50c7a2bcc7438b12453d456f0c96a52c198451701c6dcf639c5db082260001b613d59565b600c549050613868565b6138677f88d6b04da6f31100d3e0c59651c91c01d39c367058179b9c86cea4264baca99060001b613d59565b5b61389a565b6138997fc119f2e807bae09ea6073b67f519ebb2a6efd0c003b893d6293fd69a8e7b971560001b613d59565b5b6138c67f2818a3834e447a167422cbf2b00118813570aa76f4a9f84435158964867f14cc60001b613d59565b6138f27f28ecb9a93087752a7aec2097887aec12e9a571c5ec76ad60f94b635927abb0d460001b613d59565b6000811115613a63576139277f64ff359c8cfb0e50332484850933a19369ebcfb21d9e57d4fe25730068403e7760001b613d59565b6139537f61ba160dc4bcfb5266a9966c187d29d20788ca52879fc2af3c9c9780d9c4b03b60001b613d59565b61397f7f5d541f27a5a2372779f327060051d1dadf89cdae00aac6554358bc176912a44560001b613d59565b600061398b8383613ff9565b90506139b97feea4210f50b3ff0c83eb35af2632a78b79b1ac16feb325cf5fed6e91d82bc36f60001b613d59565b6139e57f54b2f344e0de0af165d70ff1e84aab963f259eb060d9f36ee9d2855b9899cd0f60001b613d59565b6139f08530836140a6565b613a1c7f9711b1c06c8a25e9b99904e4d592065372ab4655d00bb8b7c52ccbb8f5dc426760001b613d59565b613a487f55afbdfefb24ab319b2a7a86d87613c1f40681bbfb21a3e396138b7a6c7bcd9f60001b613d59565b613a5b818461432790919063ffffffff16565b925050613a90565b613a8f7f48d6d04818aa232157fba296726362097bf6d8350b984fe990c13d9cf865f03660001b613d59565b5b613abc7fab855e124e713de6169c5ebca0cb18eb3c0c438ba9653f1161a3eec924b8de6160001b613d59565b613ae87fcff2e869c8052436b75f5e775b6dece6819cdb1fea36c9d9aa53cd6502db630d60001b613d59565b613af38484846140a6565b50505050565b613b0382826110f7565b613b9257613b288173ffffffffffffffffffffffffffffffffffffffff16601461433d565b613b368360001c602061433d565b604051602001613b47929190614c50565b6040516020818303038152906040526040517f08c379a0000000000000000000000000000000000000000000000000000000008152600401613b899190614d1f565b60405180910390fd5b5050565b613ba082826110f7565b613c735760016006600084815260200190815260200160002060000160008373ffffffffffffffffffffffffffffffffffffffff1673ffffffffffffffffffffffffffffffffffffffff16815260200190815260200160002060006101000a81548160ff021916908315150217905550613c18613047565b73ffffffffffffffffffffffffffffffffffffffff168173ffffffffffffffffffffffffffffffffffffffff16837f2f8788117e7eff1d82e926ec794901d17c78024a50270940304540a733656f0d60405160405180910390a45b5050565b613c8182826110f7565b15613d555760006006600084815260200190815260200160002060000160008373ffffffffffffffffffffffffffffffffffffffff1673ffffffffffffffffffffffffffffffffffffffff16815260200190815260200160002060006101000a81548160ff021916908315150217905550613cfa613047565b73ffffffffffffffffffffffffffffffffffffffff168173ffffffffffffffffffffffffffffffffffffffff16837ff6391f5c32d9c69d2a47ea670b442974b53935d1edc7fd64eb21e047a839171b60405160405180910390a45b5050565b50565b600073ffffffffffffffffffffffffffffffffffffffff168273ffffffffffffffffffffffffffffffffffffffff161415613dcc576040517f08c379a0000000000000000000000000000000000000000000000000000000008152600401613dc390614ea1565b60405180910390fd5b613dd882600083614579565b60008060008473ffffffffffffffffffffffffffffffffffffffff1673ffffffffffffffffffffffffffffffffffffffff16815260200190815260200160002054905081811015613e5e576040517f08c379a0000000000000000000000000000000000000000000000000000000008152600401613e5590614d81565b60405180910390fd5b8181036000808573ffffffffffffffffffffffffffffffffffffffff1673ffffffffffffffffffffffffffffffffffffffff168152602001908152602001600020819055508160026000828254613eb591906151bb565b92505081905550600073ffffffffffffffffffffffffffffffffffffffff168373ffffffffffffffffffffffffffffffffffffffff167fddf252ad1be2c89b69c2b068fc378daa952ba7f163c4a11628f55a4df523b3ef84604051613f1a9190614fc1565b60405180910390a3613f2e8360008461457e565b505050565b6000600560009054906101000a900473ffffffffffffffffffffffffffffffffffffffff16905081600560006101000a81548173ffffffffffffffffffffffffffffffffffffffff021916908373ffffffffffffffffffffffffffffffffffffffff1602179055508173ffffffffffffffffffffffffffffffffffffffff168173ffffffffffffffffffffffffffffffffffffffff167f8be0079c531659141344cd1fd0a4f28419497f9722a3daafe3b4186f6b6457e060405160405180910390a35050565b60006140277f1083802c199ccf3b199e4b4fc079dcc57d881f3e55b32c2c3e39d0b486545d4c60001b613d59565b6140537f46335d69d91e95c1f260086c57556e654e09eb434a6a778368cb9232a292c20060001b613d59565b61407f7f0d7440cd80b0e8b2676a63a8a099128530853ea3e7b2f2da192a2a845ddb8fe860001b613d59565b61409e606483856140909190615161565b61458390919063ffffffff16565b905092915050565b600073ffffffffffffffffffffffffffffffffffffffff168373ffffffffffffffffffffffffffffffffffffffff161415614116576040517f08c379a000000000000000000000000000000000000000000000000000000000815260040161410d90614ee1565b60405180910390fd5b600073ffffffffffffffffffffffffffffffffffffffff168273ffffffffffffffffffffffffffffffffffffffff161415614186576040517f08c379a000000000000000000000000000000000000000000000000000000000815260040161417d90614d61565b60405180910390fd5b614191838383614579565b60008060008573ffffffffffffffffffffffffffffffffffffffff1673ffffffffffffffffffffffffffffffffffffffff16815260200190815260200160002054905081811015614217576040517f08c379a000000000000000000000000000000000000000000000000000000000815260040161420e90614de1565b60405180910390fd5b8181036000808673ffffffffffffffffffffffffffffffffffffffff1673ffffffffffffffffffffffffffffffffffffffff16815260200190815260200160002081905550816000808573ffffffffffffffffffffffffffffffffffffffff1673ffffffffffffffffffffffffffffffffffffffff16815260200190815260200160002060008282546142aa91906150da565b925050819055508273ffffffffffffffffffffffffffffffffffffffff168473ffffffffffffffffffffffffffffffffffffffff167fddf252ad1be2c89b69c2b068fc378daa952ba7f163c4a11628f55a4df523b3ef8460405161430e9190614fc1565b60405180910390a361432184848461457e565b50505050565b6000818361433591906151bb565b905092915050565b6060600060028360026143509190615161565b61435a91906150da565b67ffffffffffffffff8111156143735761437261540d565b5b6040519080825280601f01601f1916602001820160405280156143a55781602001600182028036833780820191505090505b5090507f3000000000000000000000000000000000000000000000000000000000000000816000815181106143dd576143dc6153de565b5b60200101907effffffffffffffffffffffffffffffffffffffffffffffffffffffffffffff1916908160001a9053507f780000000000000000000000000000000000000000000000000000000000000081600181518110614441576144406153de565b5b60200101907effffffffffffffffffffffffffffffffffffffffffffffffffffffffffffff1916908160001a905350600060018460026144819190615161565b61448b91906150da565b90505b600181111561452b577f3031323334353637383961626364656600000000000000000000000000000000600f8616601081106144cd576144cc6153de565b5b1a60f81b8282815181106144e4576144e36153de565b5b60200101907effffffffffffffffffffffffffffffffffffffffffffffffffffffffffffff1916908160001a905350600485901c945080614524906152f5565b905061448e565b506000841461456f576040517f08c379a000000000000000000000000000000000000000000000000000000000815260040161456690614d41565b60405180910390fd5b8091505092915050565b505050565b505050565b600081836145919190615130565b905092915050565b6000813590506145a8816159c6565b92915050565b6000815190506145bd816159c6565b92915050565b6000813590506145d2816159dd565b92915050565b6000813590506145e7816159f4565b92915050565b6000813590506145fc81615a0b565b92915050565b6000602082840312156146185761461761543c565b5b600061462684828501614599565b91505092915050565b6000602082840312156146455761464461543c565b5b6000614653848285016145ae565b91505092915050565b600080604083850312156146735761467261543c565b5b600061468185828601614599565b925050602061469285828601614599565b9150509250929050565b6000806000606084860312156146b5576146b461543c565b5b60006146c386828701614599565b93505060206146d486828701614599565b92505060406146e5868287016145ed565b9150509250925092565b600080604083850312156147065761470561543c565b5b600061471485828601614599565b9250506020614725858286016145ed565b9150509250929050565b6000602082840312156147455761474461543c565b5b6000614753848285016145c3565b91505092915050565b600080604083850312156147735761477261543c565b5b6000614781858286016145c3565b925050602061479285828601614599565b9150509250929050565b6000602082840312156147b2576147b161543c565b5b60006147c0848285016145d8565b91505092915050565b6000602082840312156147df576147de61543c565b5b60006147ed848285016145ed565b91505092915050565b6000614802838361480e565b60208301905092915050565b614817816151ef565b82525050565b614826816151ef565b82525050565b60006148378261508a565b61484181856150ad565b935061484c8361507a565b8060005b8381101561487d57815161486488826147f6565b975061486f836150a0565b925050600181019050614850565b5085935050505092915050565b61489381615201565b82525050565b6148a28161520d565b82525050565b6148b18161527a565b82525050565b6148c08161528c565b82525050565b60006148d182615095565b6148db81856150be565b93506148eb8185602086016152c2565b6148f481615441565b840191505092915050565b600061490a82615095565b61491481856150cf565b93506149248185602086016152c2565b80840191505092915050565b600061493d6020836150be565b915061494882615452565b602082019050919050565b60006149606023836150be565b915061496b8261547b565b604082019050919050565b60006149836022836150be565b915061498e826154ca565b604082019050919050565b60006149a66026836150be565b91506149b182615519565b604082019050919050565b60006149c96022836150be565b91506149d482615568565b604082019050919050565b60006149ec6026836150be565b91506149f7826155b7565b604082019050919050565b6000614a0f6020836150be565b9150614a1a82615606565b602082019050919050565b6000614a326028836150be565b9150614a3d8261562f565b604082019050919050565b6000614a556020836150be565b9150614a608261567e565b602082019050919050565b6000614a786025836150be565b9150614a83826156a7565b604082019050919050565b6000614a9b6029836150be565b9150614aa6826156f6565b604082019050919050565b6000614abe6021836150be565b9150614ac982615745565b604082019050919050565b6000614ae16020836150be565b9150614aec82615794565b602082019050919050565b6000614b046025836150be565b9150614b0f826157bd565b604082019050919050565b6000614b276024836150be565b9150614b328261580c565b604082019050919050565b6000614b4a601d836150be565b9150614b558261585b565b602082019050919050565b6000614b6d6017836150cf565b9150614b7882615884565b601782019050919050565b6000614b906014836150be565b9150614b9b826158ad565b602082019050919050565b6000614bb36015836150be565b9150614bbe826158d6565b602082019050919050565b6000614bd66025836150be565b9150614be1826158ff565b604082019050919050565b6000614bf96011836150cf565b9150614c048261594e565b601182019050919050565b6000614c1c602f836150be565b9150614c2782615977565b604082019050919050565b614c3b81615263565b82525050565b614c4a8161526d565b82525050565b6000614c5b82614b60565b9150614c6782856148ff565b9150614c7282614bec565b9150614c7e82846148ff565b91508190509392505050565b6000602082019050614c9f600083018461481d565b92915050565b6000604082019050614cba600083018561481d565b614cc7602083018461481d565b9392505050565b6000602082019050614ce3600083018461488a565b92915050565b6000602082019050614cfe6000830184614899565b92915050565b6000602082019050614d1960008301846148a8565b92915050565b60006020820190508181036000830152614d3981846148c6565b905092915050565b60006020820190508181036000830152614d5a81614930565b9050919050565b60006020820190508181036000830152614d7a81614953565b9050919050565b60006020820190508181036000830152614d9a81614976565b9050919050565b60006020820190508181036000830152614dba81614999565b9050919050565b60006020820190508181036000830152614dda816149bc565b9050919050565b60006020820190508181036000830152614dfa816149df565b9050919050565b60006020820190508181036000830152614e1a81614a02565b9050919050565b60006020820190508181036000830152614e3a81614a25565b9050919050565b60006020820190508181036000830152614e5a81614a48565b9050919050565b60006020820190508181036000830152614e7a81614a6b565b9050919050565b60006020820190508181036000830152614e9a81614a8e565b9050919050565b60006020820190508181036000830152614eba81614ab1565b9050919050565b60006020820190508181036000830152614eda81614ad4565b9050919050565b60006020820190508181036000830152614efa81614af7565b9050919050565b60006020820190508181036000830152614f1a81614b1a565b9050919050565b60006020820190508181036000830152614f3a81614b3d565b9050919050565b60006020820190508181036000830152614f5a81614b83565b9050919050565b60006020820190508181036000830152614f7a81614ba6565b9050919050565b60006020820190508181036000830152614f9a81614bc9565b9050919050565b60006020820190508181036000830152614fba81614c0f565b9050919050565b6000602082019050614fd66000830184614c32565b92915050565b600060a082019050614ff16000830188614c32565b614ffe60208301876148b7565b8181036040830152615010818661482c565b905061501f606083018561481d565b61502c6080830184614c32565b9695505050505050565b600060408201905061504b6000830185614c32565b6150586020830184614c32565b9392505050565b60006020820190506150746000830184614c41565b92915050565b6000819050602082019050919050565b600081519050919050565b600081519050919050565b6000602082019050919050565b600082825260208201905092915050565b600082825260208201905092915050565b600081905092915050565b60006150e582615263565b91506150f083615263565b9250827fffffffffffffffffffffffffffffffffffffffffffffffffffffffffffffffff0382111561512557615124615351565b5b828201905092915050565b600061513b82615263565b915061514683615263565b92508261515657615155615380565b5b828204905092915050565b600061516c82615263565b915061517783615263565b9250817fffffffffffffffffffffffffffffffffffffffffffffffffffffffffffffffff04831182151516156151b0576151af615351565b5b828202905092915050565b60006151c682615263565b91506151d183615263565b9250828210156151e4576151e3615351565b5b828203905092915050565b60006151fa82615243565b9050919050565b60008115159050919050565b6000819050919050565b60007fffffffff0000000000000000000000000000000000000000000000000000000082169050919050565b600073ffffffffffffffffffffffffffffffffffffffff82169050919050565b6000819050919050565b600060ff82169050919050565b60006152858261529e565b9050919050565b600061529782615263565b9050919050565b60006152a9826152b0565b9050919050565b60006152bb82615243565b9050919050565b60005b838110156152e05780820151818401526020810190506152c5565b838111156152ef576000848401525b50505050565b600061530082615263565b9150600082141561531457615313615351565b5b600182039050919050565b6000600282049050600182168061533757607f821691505b6020821081141561534b5761534a6153af565b5b50919050565b7f4e487b7100000000000000000000000000000000000000000000000000000000600052601160045260246000fd5b7f4e487b7100000000000000000000000000000000000000000000000000000000600052601260045260246000fd5b7f4e487b7100000000000000000000000000000000000000000000000000000000600052602260045260246000fd5b7f4e487b7100000000000000000000000000000000000000000000000000000000600052603260045260246000fd5b7f4e487b7100000000000000000000000000000000000000000000000000000000600052604160045260246000fd5b600080fd5b6000601f19601f8301169050919050565b7f537472696e67733a20686578206c656e67746820696e73756666696369656e74600082015250565b7f45524332303a207472616e7366657220746f20746865207a65726f206164647260008201527f6573730000000000000000000000000000000000000000000000000000000000602082015250565b7f45524332303a206275726e20616d6f756e7420657863656564732062616c616e60008201527f6365000000000000000000000000000000000000000000000000000000000000602082015250565b7f4f776e61626c653a206e6577206f776e657220697320746865207a65726f206160008201527f6464726573730000000000000000000000000000000000000000000000000000602082015250565b7f45524332303a20617070726f766520746f20746865207a65726f20616464726560008201527f7373000000000000000000000000000000000000000000000000000000000000602082015250565b7f45524332303a207472616e7366657220616d6f756e742065786365656473206260008201527f616c616e63650000000000000000000000000000000000000000000000000000602082015250565b7f63616e6e6f7420656e6f75676820746f6b656e20666f72207377617070696e67600082015250565b7f45524332303a207472616e7366657220616d6f756e742065786365656473206160008201527f6c6c6f77616e6365000000000000000000000000000000000000000000000000602082015250565b7f4f776e61626c653a2063616c6c6572206973206e6f7420746865206f776e6572600082015250565b7f666565206e65656420746f207365742067726561746572207468616e2065717560008201527f616c203025000000000000000000000000000000000000000000000000000000602082015250565b7f5472616e7366657220616d6f756e74206d75737420626520677265617465722060008201527f7468616e207a65726f0000000000000000000000000000000000000000000000602082015250565b7f45524332303a206275726e2066726f6d20746865207a65726f2061646472657360008201527f7300000000000000000000000000000000000000000000000000000000000000602082015250565b7f3078206f72206f776e6572206973206e6f742061636365707465642068657265600082015250565b7f45524332303a207472616e736665722066726f6d20746865207a65726f20616460008201527f6472657373000000000000000000000000000000000000000000000000000000602082015250565b7f45524332303a20617070726f76652066726f6d20746865207a65726f2061646460008201527f7265737300000000000000000000000000000000000000000000000000000000602082015250565b7f666565206e65656420746f20736574206c6f776572207468616e203625000000600082015250565b7f416363657373436f6e74726f6c3a206163636f756e7420000000000000000000600082015250565b7f65787465726e616c2063616c6c206661696c6564000000000000000000000000600082015250565b7f535741504c4f434b54494d453a20494e56414c49440000000000000000000000600082015250565b7f45524332303a2064656372656173656420616c6c6f77616e63652062656c6f7760008201527f207a65726f000000000000000000000000000000000000000000000000000000602082015250565b7f206973206d697373696e6720726f6c6520000000000000000000000000000000600082015250565b7f416363657373436f6e74726f6c3a2063616e206f6e6c792072656e6f756e636560008201527f20726f6c657320666f722073656c660000000000000000000000000000000000602082015250565b6159cf816151ef565b81146159da57600080fd5b50565b6159e68161520d565b81146159f157600080fd5b50565b6159fd81615217565b8114615a0857600080fd5b50565b615a1481615263565b8114615a1f57600080fd5b5056fea164736f6c6343000807000a","opcodes":"PUSH1 0x80 PUSH1 0x40 MSTORE PUSH1 0x0 PUSH1 0xB SSTORE PUSH1 0x0 PUSH1 0xC SSTORE PUSH1 0x0 PUSH1 0x10 PUSH1 0x0 PUSH2 0x100 EXP DUP2 SLOAD DUP2 PUSH1 0xFF MUL NOT AND SWAP1 DUP4 ISZERO ISZERO MUL OR SWAP1 SSTORE POP PUSH1 0x0 PUSH1 0x11 SSTORE PUSH1 0x0 PUSH1 0x12 SSTORE CALLVALUE DUP1 ISZERO PUSH3 0x40 JUMPI PUSH1 0x0 DUP1 REVERT JUMPDEST POP PUSH1 0x40 MLOAD DUP1 PUSH1 0x40 ADD PUSH1 0x40 MSTORE DUP1 PUSH1 0xD DUP2 MSTORE PUSH1 0x20 ADD PUSH32 0x546974616E2054726164696E6700000000000000000000000000000000000000 DUP2 MSTORE POP PUSH1 0x40 MLOAD DUP1 PUSH1 0x40 ADD PUSH1 0x40 MSTORE DUP1 PUSH1 0x3 DUP2 MSTORE PUSH1 0x20 ADD PUSH32 0x5445530000000000000000000000000000000000000000000000000000000000 DUP2 MSTORE POP DUP2 PUSH1 0x3 SWAP1 DUP1 MLOAD SWAP1 PUSH1 0x20 ADD SWAP1 PUSH3 0xC5 SWAP3 SWAP2 SWAP1 PUSH3 0x924 JUMP JUMPDEST POP DUP1 PUSH1 0x4 SWAP1 DUP1 MLOAD SWAP1 PUSH1 0x20 ADD SWAP1 PUSH3 0xDE SWAP3 SWAP2 SWAP1 PUSH3 0x924 JUMP JUMPDEST POP POP POP PUSH3 0x101 PUSH3 0xF5 PUSH3 0x52A PUSH1 0x20 SHL PUSH1 0x20 SHR JUMP JUMPDEST PUSH3 0x532 PUSH1 0x20 SHL PUSH1 0x20 SHR JUMP JUMPDEST PUSH3 0x135 PUSH32 0xEB8697FEEECCEDF12EA87956B628B8E33F62A0B6AAB65AAE172BFF38C5973AE3 PUSH1 0x0 SHL PUSH3 0x5F8 PUSH1 0x20 SHL PUSH1 0x20 SHR JUMP JUMPDEST PUSH3 0x169 PUSH32 0xD78E0DAD43C40E3BE81D71F1C987C906D2359388BCCD9DE9F30A79E8A0C5C90F PUSH1 0x0 SHL PUSH3 0x5F8 PUSH1 0x20 SHL PUSH1 0x20 SHR JUMP JUMPDEST PUSH3 0x19D PUSH32 0xB191624C3FF643E7981D7F8339FF16D61B248FB8055E5EC8A869270D0DD859CC PUSH1 0x0 SHL PUSH3 0x5F8 PUSH1 0x20 SHL PUSH1 0x20 SHR JUMP JUMPDEST PUSH3 0x1AD PUSH3 0x5FB PUSH1 0x20 SHL PUSH1 0x20 SHR JUMP JUMPDEST PUSH1 0xFF AND PUSH1 0xA PUSH3 0x1BE SWAP2 SWAP1 PUSH3 0xB14 JUMP JUMPDEST PUSH4 0x5F5E100 PUSH3 0x1CF SWAP2 SWAP1 PUSH3 0xC51 JUMP JUMPDEST PUSH1 0xA DUP2 SWAP1 SSTORE POP PUSH3 0x209 PUSH32 0x1D0B26C7D44E478CF4B34DB4B2F5E27D51A79C9ED3A93421FE0C6CAD27010CA3 PUSH1 0x0 SHL PUSH3 0x5F8 PUSH1 0x20 SHL PUSH1 0x20 SHR JUMP JUMPDEST PUSH3 0x23D PUSH32 0xE5852B814DA8CBA28EE3190C8223741469B08B8FAE0E3317222CEFAEEE68A37 PUSH1 0x0 SHL PUSH3 0x5F8 PUSH1 0x20 SHL PUSH1 0x20 SHR JUMP JUMPDEST PUSH3 0x260 PUSH3 0x251 PUSH3 0x52A PUSH1 0x20 SHL PUSH1 0x20 SHR JUMP JUMPDEST PUSH1 0xA SLOAD PUSH3 0x604 PUSH1 0x20 SHL PUSH1 0x20 SHR JUMP JUMPDEST PUSH3 0x294 PUSH32 0x9AB2344E28C37325973752AA643353B719C04475D1E123BFF39769F0866FEF2 PUSH1 0x0 SHL PUSH3 0x5F8 PUSH1 0x20 SHL PUSH1 0x20 SHR JUMP JUMPDEST PUSH3 0x2C8 PUSH32 0x496151A386891A7C1FCF4D48616466ECEE36DE611B058DABBA2AEEB20C946E65 PUSH1 0x0 SHL PUSH3 0x5F8 PUSH1 0x20 SHL PUSH1 0x20 SHR JUMP JUMPDEST PUSH3 0x2EC PUSH1 0x0 DUP1 SHL PUSH3 0x2E0 PUSH3 0x52A PUSH1 0x20 SHL PUSH1 0x20 SHR JUMP JUMPDEST PUSH3 0x77D PUSH1 0x20 SHL PUSH1 0x20 SHR JUMP JUMPDEST PUSH3 0x320 PUSH32 0x2A2B85A2E6AAF6CCE5559741CD89B1A45004CE3DF8E39F90F4C539D2D8662F74 PUSH1 0x0 SHL PUSH3 0x5F8 PUSH1 0x20 SHL PUSH1 0x20 SHR JUMP JUMPDEST PUSH3 0x354 PUSH32 0x8C41D23E0D6A65CA75B45C4E71AEA37ACB12F1C7E31CAA367A397A5F5811E4D1 PUSH1 0x0 SHL PUSH3 0x5F8 PUSH1 0x20 SHL PUSH1 0x20 SHR JUMP JUMPDEST PUSH3 0x395 PUSH32 0x3C11D16CBAFFD01DF69CE1C404F6340EE057498F5F00246190EA54220576A848 PUSH3 0x389 PUSH3 0x52A PUSH1 0x20 SHL PUSH1 0x20 SHR JUMP JUMPDEST PUSH3 0x77D PUSH1 0x20 SHL PUSH1 0x20 SHR JUMP JUMPDEST PUSH3 0x3C9 PUSH32 0x381B07E1B05B934A5E8990ED376B133ABA4429DF7F4465D9902E185F6BB5120 PUSH1 0x0 SHL PUSH3 0x5F8 PUSH1 0x20 SHL PUSH1 0x20 SHR JUMP JUMPDEST PUSH3 0x3FD PUSH32 0x90C5BF8CC4F6F680A19E6C3E82223AD4BAFBA08C2B645755B60E517F187D2459 PUSH1 0x0 SHL PUSH3 0x5F8 PUSH1 0x20 SHL PUSH1 0x20 SHR JUMP JUMPDEST PUSH1 0x1 PUSH1 0xE PUSH1 0x0 PUSH3 0x413 PUSH3 0x793 PUSH1 0x20 SHL PUSH1 0x20 SHR JUMP JUMPDEST PUSH20 0xFFFFFFFFFFFFFFFFFFFFFFFFFFFFFFFFFFFFFFFF AND PUSH20 0xFFFFFFFFFFFFFFFFFFFFFFFFFFFFFFFFFFFFFFFF AND DUP2 MSTORE PUSH1 0x20 ADD SWAP1 DUP2 MSTORE PUSH1 0x20 ADD PUSH1 0x0 KECCAK256 PUSH1 0x0 PUSH2 0x100 EXP DUP2 SLOAD DUP2 PUSH1 0xFF MUL NOT AND SWAP1 DUP4 ISZERO ISZERO MUL OR SWAP1 SSTORE POP PUSH3 0x498 PUSH32 0x81912B30EE4054341D0A6973BC52CAD2C3C86AA67EE92CB8AB848D6BDBA5314A PUSH1 0x0 SHL PUSH3 0x5F8 PUSH1 0x20 SHL PUSH1 0x20 SHR JUMP JUMPDEST PUSH3 0x4CC PUSH32 0xBA9CB535097DAA3C3A9148F669B5E07B5315438D221082F38157CC807BAB89BE PUSH1 0x0 SHL PUSH3 0x5F8 PUSH1 0x20 SHL PUSH1 0x20 SHR JUMP JUMPDEST PUSH1 0x1 PUSH1 0xE PUSH1 0x0 ADDRESS PUSH20 0xFFFFFFFFFFFFFFFFFFFFFFFFFFFFFFFFFFFFFFFF AND PUSH20 0xFFFFFFFFFFFFFFFFFFFFFFFFFFFFFFFFFFFFFFFF AND DUP2 MSTORE PUSH1 0x20 ADD SWAP1 DUP2 MSTORE PUSH1 0x20 ADD PUSH1 0x0 KECCAK256 PUSH1 0x0 PUSH2 0x100 EXP DUP2 SLOAD DUP2 PUSH1 0xFF MUL NOT AND SWAP1 DUP4 ISZERO ISZERO MUL OR SWAP1 SSTORE POP PUSH3 0xD86 JUMP JUMPDEST PUSH1 0x0 CALLER SWAP1 POP SWAP1 JUMP JUMPDEST PUSH1 0x0 PUSH1 0x5 PUSH1 0x0 SWAP1 SLOAD SWAP1 PUSH2 0x100 EXP SWAP1 DIV PUSH20 0xFFFFFFFFFFFFFFFFFFFFFFFFFFFFFFFFFFFFFFFF AND SWAP1 POP DUP2 PUSH1 0x5 PUSH1 0x0 PUSH2 0x100 EXP DUP2 SLOAD DUP2 PUSH20 0xFFFFFFFFFFFFFFFFFFFFFFFFFFFFFFFFFFFFFFFF MUL NOT AND SWAP1 DUP4 PUSH20 0xFFFFFFFFFFFFFFFFFFFFFFFFFFFFFFFFFFFFFFFF AND MUL OR SWAP1 SSTORE POP DUP2 PUSH20 0xFFFFFFFFFFFFFFFFFFFFFFFFFFFFFFFFFFFFFFFF AND DUP2 PUSH20 0xFFFFFFFFFFFFFFFFFFFFFFFFFFFFFFFFFFFFFFFF AND PUSH32 0x8BE0079C531659141344CD1FD0A4F28419497F9722A3DAAFE3B4186F6B6457E0 PUSH1 0x40 MLOAD PUSH1 0x40 MLOAD DUP1 SWAP2 SUB SWAP1 LOG3 POP POP JUMP JUMPDEST POP JUMP JUMPDEST PUSH1 0x0 PUSH1 0x12 SWAP1 POP SWAP1 JUMP JUMPDEST PUSH1 0x0 PUSH20 0xFFFFFFFFFFFFFFFFFFFFFFFFFFFFFFFFFFFFFFFF AND DUP3 PUSH20 0xFFFFFFFFFFFFFFFFFFFFFFFFFFFFFFFFFFFFFFFF AND EQ ISZERO PUSH3 0x677 JUMPI PUSH1 0x40 MLOAD PUSH32 0x8C379A000000000000000000000000000000000000000000000000000000000 DUP2 MSTORE PUSH1 0x4 ADD PUSH3 0x66E SWAP1 PUSH3 0xA0C JUMP JUMPDEST PUSH1 0x40 MLOAD DUP1 SWAP2 SUB SWAP1 REVERT JUMPDEST PUSH3 0x68B PUSH1 0x0 DUP4 DUP4 PUSH3 0x7BD PUSH1 0x20 SHL PUSH1 0x20 SHR JUMP JUMPDEST DUP1 PUSH1 0x2 PUSH1 0x0 DUP3 DUP3 SLOAD PUSH3 0x69F SWAP2 SWAP1 PUSH3 0xA5C JUMP JUMPDEST SWAP3 POP POP DUP2 SWAP1 SSTORE POP DUP1 PUSH1 0x0 DUP1 DUP5 PUSH20 0xFFFFFFFFFFFFFFFFFFFFFFFFFFFFFFFFFFFFFFFF AND PUSH20 0xFFFFFFFFFFFFFFFFFFFFFFFFFFFFFFFFFFFFFFFF AND DUP2 MSTORE PUSH1 0x20 ADD SWAP1 DUP2 MSTORE PUSH1 0x20 ADD PUSH1 0x0 KECCAK256 PUSH1 0x0 DUP3 DUP3 SLOAD PUSH3 0x6F6 SWAP2 SWAP1 PUSH3 0xA5C JUMP JUMPDEST SWAP3 POP POP DUP2 SWAP1 SSTORE POP DUP2 PUSH20 0xFFFFFFFFFFFFFFFFFFFFFFFFFFFFFFFFFFFFFFFF AND PUSH1 0x0 PUSH20 0xFFFFFFFFFFFFFFFFFFFFFFFFFFFFFFFFFFFFFFFF AND PUSH32 0xDDF252AD1BE2C89B69C2B068FC378DAA952BA7F163C4A11628F55A4DF523B3EF DUP4 PUSH1 0x40 MLOAD PUSH3 0x75D SWAP2 SWAP1 PUSH3 0xA2E JUMP JUMPDEST PUSH1 0x40 MLOAD DUP1 SWAP2 SUB SWAP1 LOG3 PUSH3 0x779 PUSH1 0x0 DUP4 DUP4 PUSH3 0x7C2 PUSH1 0x20 SHL PUSH1 0x20 SHR JUMP JUMPDEST POP POP JUMP JUMPDEST PUSH3 0x78F DUP3 DUP3 PUSH3 0x7C7 PUSH1 0x20 SHL PUSH1 0x20 SHR JUMP JUMPDEST POP POP JUMP JUMPDEST PUSH1 0x0 PUSH1 0x5 PUSH1 0x0 SWAP1 SLOAD SWAP1 PUSH2 0x100 EXP SWAP1 DIV PUSH20 0xFFFFFFFFFFFFFFFFFFFFFFFFFFFFFFFFFFFFFFFF AND SWAP1 POP SWAP1 JUMP JUMPDEST POP POP POP JUMP JUMPDEST POP POP POP JUMP JUMPDEST PUSH3 0x7D9 DUP3 DUP3 PUSH3 0x8B9 PUSH1 0x20 SHL PUSH1 0x20 SHR JUMP JUMPDEST PUSH3 0x8B5 JUMPI PUSH1 0x1 PUSH1 0x6 PUSH1 0x0 DUP5 DUP2 MSTORE PUSH1 0x20 ADD SWAP1 DUP2 MSTORE PUSH1 0x20 ADD PUSH1 0x0 KECCAK256 PUSH1 0x0 ADD PUSH1 0x0 DUP4 PUSH20 0xFFFFFFFFFFFFFFFFFFFFFFFFFFFFFFFFFFFFFFFF AND PUSH20 0xFFFFFFFFFFFFFFFFFFFFFFFFFFFFFFFFFFFFFFFF AND DUP2 MSTORE PUSH1 0x20 ADD SWAP1 DUP2 MSTORE PUSH1 0x20 ADD PUSH1 0x0 KECCAK256 PUSH1 0x0 PUSH2 0x100 EXP DUP2 SLOAD DUP2 PUSH1 0xFF MUL NOT AND SWAP1 DUP4 ISZERO ISZERO MUL OR SWAP1 SSTORE POP PUSH3 0x85A PUSH3 0x52A PUSH1 0x20 SHL PUSH1 0x20 SHR JUMP JUMPDEST PUSH20 0xFFFFFFFFFFFFFFFFFFFFFFFFFFFFFFFFFFFFFFFF AND DUP2 PUSH20 0xFFFFFFFFFFFFFFFFFFFFFFFFFFFFFFFFFFFFFFFF AND DUP4 PUSH32 0x2F8788117E7EFF1D82E926EC794901D17C78024A50270940304540A733656F0D PUSH1 0x40 MLOAD PUSH1 0x40 MLOAD DUP1 SWAP2 SUB SWAP1 LOG4 JUMPDEST POP POP JUMP JUMPDEST PUSH1 0x0 PUSH1 0x6 PUSH1 0x0 DUP5 DUP2 MSTORE PUSH1 0x20 ADD SWAP1 DUP2 MSTORE PUSH1 0x20 ADD PUSH1 0x0 KECCAK256 PUSH1 0x0 ADD PUSH1 0x0 DUP4 PUSH20 0xFFFFFFFFFFFFFFFFFFFFFFFFFFFFFFFFFFFFFFFF AND PUSH20 0xFFFFFFFFFFFFFFFFFFFFFFFFFFFFFFFFFFFFFFFF AND DUP2 MSTORE PUSH1 0x20 ADD SWAP1 DUP2 MSTORE PUSH1 0x20 ADD PUSH1 0x0 KECCAK256 PUSH1 0x0 SWAP1 SLOAD SWAP1 PUSH2 0x100 EXP SWAP1 DIV PUSH1 0xFF AND SWAP1 POP SWAP3 SWAP2 POP POP JUMP JUMPDEST DUP3 DUP1 SLOAD PUSH3 0x932 SWAP1 PUSH3 0xCBC JUMP JUMPDEST SWAP1 PUSH1 0x0 MSTORE PUSH1 0x20 PUSH1 0x0 KECCAK256 SWAP1 PUSH1 0x1F ADD PUSH1 0x20 SWAP1 DIV DUP2 ADD SWAP3 DUP3 PUSH3 0x956 JUMPI PUSH1 0x0 DUP6 SSTORE PUSH3 0x9A2 JUMP JUMPDEST DUP3 PUSH1 0x1F LT PUSH3 0x971 JUMPI DUP1 MLOAD PUSH1 0xFF NOT AND DUP4 DUP1 ADD OR DUP6 SSTORE PUSH3 0x9A2 JUMP JUMPDEST DUP3 DUP1 ADD PUSH1 0x1 ADD DUP6 SSTORE DUP3 ISZERO PUSH3 0x9A2 JUMPI SWAP2 DUP3 ADD JUMPDEST DUP3 DUP2 GT ISZERO PUSH3 0x9A1 JUMPI DUP3 MLOAD DUP3 SSTORE SWAP2 PUSH1 0x20 ADD SWAP2 SWAP1 PUSH1 0x1 ADD SWAP1 PUSH3 0x984 JUMP JUMPDEST JUMPDEST POP SWAP1 POP PUSH3 0x9B1 SWAP2 SWAP1 PUSH3 0x9B5 JUMP JUMPDEST POP SWAP1 JUMP JUMPDEST JUMPDEST DUP1 DUP3 GT ISZERO PUSH3 0x9D0 JUMPI PUSH1 0x0 DUP2 PUSH1 0x0 SWAP1 SSTORE POP PUSH1 0x1 ADD PUSH3 0x9B6 JUMP JUMPDEST POP SWAP1 JUMP JUMPDEST PUSH1 0x0 PUSH3 0x9E3 PUSH1 0x1F DUP4 PUSH3 0xA4B JUMP JUMPDEST SWAP2 POP PUSH3 0x9F0 DUP3 PUSH3 0xD5D JUMP JUMPDEST PUSH1 0x20 DUP3 ADD SWAP1 POP SWAP2 SWAP1 POP JUMP JUMPDEST PUSH3 0xA06 DUP2 PUSH3 0xCB2 JUMP JUMPDEST DUP3 MSTORE POP POP JUMP JUMPDEST PUSH1 0x0 PUSH1 0x20 DUP3 ADD SWAP1 POP DUP2 DUP2 SUB PUSH1 0x0 DUP4 ADD MSTORE PUSH3 0xA27 DUP2 PUSH3 0x9D4 JUMP JUMPDEST SWAP1 POP SWAP2 SWAP1 POP JUMP JUMPDEST PUSH1 0x0 PUSH1 0x20 DUP3 ADD SWAP1 POP PUSH3 0xA45 PUSH1 0x0 DUP4 ADD DUP5 PUSH3 0x9FB JUMP JUMPDEST SWAP3 SWAP2 POP POP JUMP JUMPDEST PUSH1 0x0 DUP3 DUP3 MSTORE PUSH1 0x20 DUP3 ADD SWAP1 POP SWAP3 SWAP2 POP POP JUMP JUMPDEST PUSH1 0x0 PUSH3 0xA69 DUP3 PUSH3 0xCB2 JUMP JUMPDEST SWAP2 POP PUSH3 0xA76 DUP4 PUSH3 0xCB2 JUMP JUMPDEST SWAP3 POP DUP3 PUSH32 0xFFFFFFFFFFFFFFFFFFFFFFFFFFFFFFFFFFFFFFFFFFFFFFFFFFFFFFFFFFFFFFFF SUB DUP3 GT ISZERO PUSH3 0xAAE JUMPI PUSH3 0xAAD PUSH3 0xCF2 JUMP JUMPDEST JUMPDEST DUP3 DUP3 ADD SWAP1 POP SWAP3 SWAP2 POP POP JUMP JUMPDEST PUSH1 0x0 DUP1 DUP3 SWAP2 POP DUP4 SWAP1 POP JUMPDEST PUSH1 0x1 DUP6 GT ISZERO PUSH3 0xB0B JUMPI DUP1 DUP7 DIV DUP2 GT ISZERO PUSH3 0xAE3 JUMPI PUSH3 0xAE2 PUSH3 0xCF2 JUMP JUMPDEST JUMPDEST PUSH1 0x1 DUP6 AND ISZERO PUSH3 0xAF3 JUMPI DUP1 DUP3 MUL SWAP2 POP JUMPDEST DUP1 DUP2 MUL SWAP1 POP PUSH3 0xB03 DUP6 PUSH3 0xD50 JUMP JUMPDEST SWAP5 POP PUSH3 0xAC3 JUMP JUMPDEST SWAP5 POP SWAP5 SWAP3 POP POP POP JUMP JUMPDEST PUSH1 0x0 PUSH3 0xB21 DUP3 PUSH3 0xCB2 JUMP JUMPDEST SWAP2 POP PUSH3 0xB2E DUP4 PUSH3 0xCB2 JUMP JUMPDEST SWAP3 POP PUSH3 0xB5D PUSH32 0xFFFFFFFFFFFFFFFFFFFFFFFFFFFFFFFFFFFFFFFFFFFFFFFFFFFFFFFFFFFFFFFF DUP5 DUP5 PUSH3 0xB65 JUMP JUMPDEST SWAP1 POP SWAP3 SWAP2 POP POP JUMP JUMPDEST PUSH1 0x0 DUP3 PUSH3 0xB77 JUMPI PUSH1 0x1 SWAP1 POP PUSH3 0xC4A JUMP JUMPDEST DUP2 PUSH3 0xB87 JUMPI PUSH1 0x0 SWAP1 POP PUSH3 0xC4A JUMP JUMPDEST DUP2 PUSH1 0x1 DUP2 EQ PUSH3 0xBA0 JUMPI PUSH1 0x2 DUP2 EQ PUSH3 0xBAB JUMPI PUSH3 0xBE1 JUMP JUMPDEST PUSH1 0x1 SWAP2 POP POP PUSH3 0xC4A JUMP JUMPDEST PUSH1 0xFF DUP5 GT ISZERO PUSH3 0xBC0 JUMPI PUSH3 0xBBF PUSH3 0xCF2 JUMP JUMPDEST JUMPDEST DUP4 PUSH1 0x2 EXP SWAP2 POP DUP5 DUP3 GT ISZERO PUSH3 0xBDA JUMPI PUSH3 0xBD9 PUSH3 0xCF2 JUMP JUMPDEST JUMPDEST POP PUSH3 0xC4A JUMP JUMPDEST POP PUSH1 0x20 DUP4 LT PUSH2 0x133 DUP4 LT AND PUSH1 0x4E DUP5 LT PUSH1 0xB DUP5 LT AND OR ISZERO PUSH3 0xC1B JUMPI DUP3 DUP3 EXP SWAP1 POP DUP4 DUP2 GT ISZERO PUSH3 0xC15 JUMPI PUSH3 0xC14 PUSH3 0xCF2 JUMP JUMPDEST JUMPDEST PUSH3 0xC4A JUMP JUMPDEST PUSH3 0xC2A DUP5 DUP5 DUP5 PUSH1 0x1 PUSH3 0xAB9 JUMP JUMPDEST SWAP3 POP SWAP1 POP DUP2 DUP5 DIV DUP2 GT ISZERO PUSH3 0xC44 JUMPI PUSH3 0xC43 PUSH3 0xCF2 JUMP JUMPDEST JUMPDEST DUP2 DUP2 MUL SWAP1 POP JUMPDEST SWAP4 SWAP3 POP POP POP JUMP JUMPDEST PUSH1 0x0 PUSH3 0xC5E DUP3 PUSH3 0xCB2 JUMP JUMPDEST SWAP2 POP PUSH3 0xC6B DUP4 PUSH3 0xCB2 JUMP JUMPDEST SWAP3 POP DUP2 PUSH32 0xFFFFFFFFFFFFFFFFFFFFFFFFFFFFFFFFFFFFFFFFFFFFFFFFFFFFFFFFFFFFFFFF DIV DUP4 GT DUP3 ISZERO ISZERO AND ISZERO PUSH3 0xCA7 JUMPI PUSH3 0xCA6 PUSH3 0xCF2 JUMP JUMPDEST JUMPDEST DUP3 DUP3 MUL SWAP1 POP SWAP3 SWAP2 POP POP JUMP JUMPDEST PUSH1 0x0 DUP2 SWAP1 POP SWAP2 SWAP1 POP JUMP JUMPDEST PUSH1 0x0 PUSH1 0x2 DUP3 DIV SWAP1 POP PUSH1 0x1 DUP3 AND DUP1 PUSH3 0xCD5 JUMPI PUSH1 0x7F DUP3 AND SWAP2 POP JUMPDEST PUSH1 0x20 DUP3 LT DUP2 EQ ISZERO PUSH3 0xCEC JUMPI PUSH3 0xCEB PUSH3 0xD21 JUMP JUMPDEST JUMPDEST POP SWAP2 SWAP1 POP JUMP JUMPDEST PUSH32 0x4E487B7100000000000000000000000000000000000000000000000000000000 PUSH1 0x0 MSTORE PUSH1 0x11 PUSH1 0x4 MSTORE PUSH1 0x24 PUSH1 0x0 REVERT JUMPDEST PUSH32 0x4E487B7100000000000000000000000000000000000000000000000000000000 PUSH1 0x0 MSTORE PUSH1 0x22 PUSH1 0x4 MSTORE PUSH1 0x24 PUSH1 0x0 REVERT JUMPDEST PUSH1 0x0 DUP2 PUSH1 0x1 SHR SWAP1 POP SWAP2 SWAP1 POP JUMP JUMPDEST PUSH32 0x45524332303A206D696E7420746F20746865207A65726F206164647265737300 PUSH1 0x0 DUP3 ADD MSTORE POP JUMP JUMPDEST PUSH2 0x5A2F DUP1 PUSH3 0xD96 PUSH1 0x0 CODECOPY PUSH1 0x0 RETURN INVALID PUSH1 0x80 PUSH1 0x40 MSTORE CALLVALUE DUP1 ISZERO PUSH2 0x10 JUMPI PUSH1 0x0 DUP1 REVERT JUMPDEST POP PUSH1 0x4 CALLDATASIZE LT PUSH2 0x248 JUMPI PUSH1 0x0 CALLDATALOAD PUSH1 0xE0 SHR DUP1 PUSH4 0x91D14854 GT PUSH2 0x13B JUMPI DUP1 PUSH4 0xCE636726 GT PUSH2 0xB8 JUMPI DUP1 PUSH4 0xE34EDC14 GT PUSH2 0x7C JUMPI DUP1 PUSH4 0xE34EDC14 EQ PUSH2 0x6F0 JUMPI DUP1 PUSH4 0xE56A645E EQ PUSH2 0x70C JUMPI DUP1 PUSH4 0xE5DFFED3 EQ PUSH2 0x728 JUMPI DUP1 PUSH4 0xF2F7049C EQ PUSH2 0x746 JUMPI DUP1 PUSH4 0xF2FDE38B EQ PUSH2 0x764 JUMPI PUSH2 0x248 JUMP JUMPDEST DUP1 PUSH4 0xCE636726 EQ PUSH2 0x64D JUMPI DUP1 PUSH4 0xD547741F EQ PUSH2 0x669 JUMPI DUP1 PUSH4 0xDB8D55F1 EQ PUSH2 0x685 JUMPI DUP1 PUSH4 0xDCB5F220 EQ PUSH2 0x6A4 JUMPI DUP1 PUSH4 0xDD62ED3E EQ PUSH2 0x6C0 JUMPI PUSH2 0x248 JUMP JUMPDEST DUP1 PUSH4 0xA22D4832 GT PUSH2 0xFF JUMPI DUP1 PUSH4 0xA22D4832 EQ PUSH2 0x597 JUMPI DUP1 PUSH4 0xA457C2D7 EQ PUSH2 0x5B3 JUMPI DUP1 PUSH4 0xA9059CBB EQ PUSH2 0x5E3 JUMPI DUP1 PUSH4 0xBD9797F4 EQ PUSH2 0x613 JUMPI DUP1 PUSH4 0xCB81C229 EQ PUSH2 0x62F JUMPI PUSH2 0x248 JUMP JUMPDEST DUP1 PUSH4 0x91D14854 EQ PUSH2 0x4F3 JUMPI DUP1 PUSH4 0x95D89B41 EQ PUSH2 0x523 JUMPI DUP1 PUSH4 0x9729D64C EQ PUSH2 0x541 JUMPI DUP1 PUSH4 0x9C466F1F EQ PUSH2 0x55D JUMPI DUP1 PUSH4 0xA217FDDF EQ PUSH2 0x579 JUMPI PUSH2 0x248 JUMP JUMPDEST DUP1 PUSH4 0x36568ABE GT PUSH2 0x1C9 JUMPI DUP1 PUSH4 0x52892884 GT PUSH2 0x18D JUMPI DUP1 PUSH4 0x52892884 EQ PUSH2 0x461 JUMPI DUP1 PUSH4 0x70A08231 EQ PUSH2 0x47F JUMPI DUP1 PUSH4 0x715018A6 EQ PUSH2 0x4AF JUMPI DUP1 PUSH4 0x8DA5CB5B EQ PUSH2 0x4B9 JUMPI DUP1 PUSH4 0x9072E306 EQ PUSH2 0x4D7 JUMPI PUSH2 0x248 JUMP JUMPDEST DUP1 PUSH4 0x36568ABE EQ PUSH2 0x3BF JUMPI DUP1 PUSH4 0x39509351 EQ PUSH2 0x3DB JUMPI DUP1 PUSH4 0x42966C68 EQ PUSH2 0x40B JUMPI DUP1 PUSH4 0x437823EC EQ PUSH2 0x427 JUMPI DUP1 PUSH4 0x4489D6F8 EQ PUSH2 0x443 JUMPI PUSH2 0x248 JUMP JUMPDEST DUP1 PUSH4 0x248A9CA3 GT PUSH2 0x210 JUMPI DUP1 PUSH4 0x248A9CA3 EQ PUSH2 0x319 JUMPI DUP1 PUSH4 0x26898DA9 EQ PUSH2 0x349 JUMPI DUP1 PUSH4 0x282C51F3 EQ PUSH2 0x367 JUMPI DUP1 PUSH4 0x2F2FF15D EQ PUSH2 0x385 JUMPI DUP1 PUSH4 0x313CE567 EQ PUSH2 0x3A1 JUMPI PUSH2 0x248 JUMP JUMPDEST DUP1 PUSH4 0x1FFC9A7 EQ PUSH2 0x24D JUMPI DUP1 PUSH4 0x6FDDE03 EQ PUSH2 0x27D JUMPI DUP1 PUSH4 0x95EA7B3 EQ PUSH2 0x29B JUMPI DUP1 PUSH4 0x18160DDD EQ PUSH2 0x2CB JUMPI DUP1 PUSH4 0x23B872DD EQ PUSH2 0x2E9 JUMPI JUMPDEST PUSH1 0x0 DUP1 REVERT JUMPDEST PUSH2 0x267 PUSH1 0x4 DUP1 CALLDATASIZE SUB DUP2 ADD SWAP1 PUSH2 0x262 SWAP2 SWAP1 PUSH2 0x479C JUMP JUMPDEST PUSH2 0x780 JUMP JUMPDEST PUSH1 0x40 MLOAD PUSH2 0x274 SWAP2 SWAP1 PUSH2 0x4CCE JUMP JUMPDEST PUSH1 0x40 MLOAD DUP1 SWAP2 SUB SWAP1 RETURN JUMPDEST PUSH2 0x285 PUSH2 0x7FA JUMP JUMPDEST PUSH1 0x40 MLOAD PUSH2 0x292 SWAP2 SWAP1 PUSH2 0x4D1F JUMP JUMPDEST PUSH1 0x40 MLOAD DUP1 SWAP2 SUB SWAP1 RETURN JUMPDEST PUSH2 0x2B5 PUSH1 0x4 DUP1 CALLDATASIZE SUB DUP2 ADD SWAP1 PUSH2 0x2B0 SWAP2 SWAP1 PUSH2 0x46EF JUMP JUMPDEST PUSH2 0x88C JUMP JUMPDEST PUSH1 0x40 MLOAD PUSH2 0x2C2 SWAP2 SWAP1 PUSH2 0x4CCE JUMP JUMPDEST PUSH1 0x40 MLOAD DUP1 SWAP2 SUB SWAP1 RETURN JUMPDEST PUSH2 0x2D3 PUSH2 0x8AA JUMP JUMPDEST PUSH1 0x40 MLOAD PUSH2 0x2E0 SWAP2 SWAP1 PUSH2 0x4FC1 JUMP JUMPDEST PUSH1 0x40 MLOAD DUP1 SWAP2 SUB SWAP1 RETURN JUMPDEST PUSH2 0x303 PUSH1 0x4 DUP1 CALLDATASIZE SUB DUP2 ADD SWAP1 PUSH2 0x2FE SWAP2 SWAP1 PUSH2 0x469C JUMP JUMPDEST PUSH2 0x8B4 JUMP JUMPDEST PUSH1 0x40 MLOAD PUSH2 0x310 SWAP2 SWAP1 PUSH2 0x4CCE JUMP JUMPDEST PUSH1 0x40 MLOAD DUP1 SWAP2 SUB SWAP1 RETURN JUMPDEST PUSH2 0x333 PUSH1 0x4 DUP1 CALLDATASIZE SUB DUP2 ADD SWAP1 PUSH2 0x32E SWAP2 SWAP1 PUSH2 0x472F JUMP JUMPDEST PUSH2 0x9AC JUMP JUMPDEST PUSH1 0x40 MLOAD PUSH2 0x340 SWAP2 SWAP1 PUSH2 0x4CE9 JUMP JUMPDEST PUSH1 0x40 MLOAD DUP1 SWAP2 SUB SWAP1 RETURN JUMPDEST PUSH2 0x351 PUSH2 0x9CC JUMP JUMPDEST PUSH1 0x40 MLOAD PUSH2 0x35E SWAP2 SWAP1 PUSH2 0x4CCE JUMP JUMPDEST PUSH1 0x40 MLOAD DUP1 SWAP2 SUB SWAP1 RETURN JUMPDEST PUSH2 0x36F PUSH2 0x9DF JUMP JUMPDEST PUSH1 0x40 MLOAD PUSH2 0x37C SWAP2 SWAP1 PUSH2 0x4CE9 JUMP JUMPDEST PUSH1 0x40 MLOAD DUP1 SWAP2 SUB SWAP1 RETURN JUMPDEST PUSH2 0x39F PUSH1 0x4 DUP1 CALLDATASIZE SUB DUP2 ADD SWAP1 PUSH2 0x39A SWAP2 SWAP1 PUSH2 0x475C JUMP JUMPDEST PUSH2 0xA03 JUMP JUMPDEST STOP JUMPDEST PUSH2 0x3A9 PUSH2 0xA2C JUMP JUMPDEST PUSH1 0x40 MLOAD PUSH2 0x3B6 SWAP2 SWAP1 PUSH2 0x505F JUMP JUMPDEST PUSH1 0x40 MLOAD DUP1 SWAP2 SUB SWAP1 RETURN JUMPDEST PUSH2 0x3D9 PUSH1 0x4 DUP1 CALLDATASIZE SUB DUP2 ADD SWAP1 PUSH2 0x3D4 SWAP2 SWAP1 PUSH2 0x475C JUMP JUMPDEST PUSH2 0xA35 JUMP JUMPDEST STOP JUMPDEST PUSH2 0x3F5 PUSH1 0x4 DUP1 CALLDATASIZE SUB DUP2 ADD SWAP1 PUSH2 0x3F0 SWAP2 SWAP1 PUSH2 0x46EF JUMP JUMPDEST PUSH2 0xAB8 JUMP JUMPDEST PUSH1 0x40 MLOAD PUSH2 0x402 SWAP2 SWAP1 PUSH2 0x4CCE JUMP JUMPDEST PUSH1 0x40 MLOAD DUP1 SWAP2 SUB SWAP1 RETURN JUMPDEST PUSH2 0x425 PUSH1 0x4 DUP1 CALLDATASIZE SUB DUP2 ADD SWAP1 PUSH2 0x420 SWAP2 SWAP1 PUSH2 0x47C9 JUMP JUMPDEST PUSH2 0xB64 JUMP JUMPDEST STOP JUMPDEST PUSH2 0x441 PUSH1 0x4 DUP1 CALLDATASIZE SUB DUP2 ADD SWAP1 PUSH2 0x43C SWAP2 SWAP1 PUSH2 0x4602 JUMP JUMPDEST PUSH2 0xC78 JUMP JUMPDEST STOP JUMPDEST PUSH2 0x44B PUSH2 0xDD3 JUMP JUMPDEST PUSH1 0x40 MLOAD PUSH2 0x458 SWAP2 SWAP1 PUSH2 0x4FC1 JUMP JUMPDEST PUSH1 0x40 MLOAD DUP1 SWAP2 SUB SWAP1 RETURN JUMPDEST PUSH2 0x469 PUSH2 0xDD9 JUMP JUMPDEST PUSH1 0x40 MLOAD PUSH2 0x476 SWAP2 SWAP1 PUSH2 0x4C8A JUMP JUMPDEST PUSH1 0x40 MLOAD DUP1 SWAP2 SUB SWAP1 RETURN JUMPDEST PUSH2 0x499 PUSH1 0x4 DUP1 CALLDATASIZE SUB DUP2 ADD SWAP1 PUSH2 0x494 SWAP2 SWAP1 PUSH2 0x4602 JUMP JUMPDEST PUSH2 0xDFF JUMP JUMPDEST PUSH1 0x40 MLOAD PUSH2 0x4A6 SWAP2 SWAP1 PUSH2 0x4FC1 JUMP JUMPDEST PUSH1 0x40 MLOAD DUP1 SWAP2 SUB SWAP1 RETURN JUMPDEST PUSH2 0x4B7 PUSH2 0xE47 JUMP JUMPDEST STOP JUMPDEST PUSH2 0x4C1 PUSH2 0xECF JUMP JUMPDEST PUSH1 0x40 MLOAD PUSH2 0x4CE SWAP2 SWAP1 PUSH2 0x4C8A JUMP JUMPDEST PUSH1 0x40 MLOAD DUP1 SWAP2 SUB SWAP1 RETURN JUMPDEST PUSH2 0x4F1 PUSH1 0x4 DUP1 CALLDATASIZE SUB DUP2 ADD SWAP1 PUSH2 0x4EC SWAP2 SWAP1 PUSH2 0x47C9 JUMP JUMPDEST PUSH2 0xEF9 JUMP JUMPDEST STOP JUMPDEST PUSH2 0x50D PUSH1 0x4 DUP1 CALLDATASIZE SUB DUP2 ADD SWAP1 PUSH2 0x508 SWAP2 SWAP1 PUSH2 0x475C JUMP JUMPDEST PUSH2 0x10F7 JUMP JUMPDEST PUSH1 0x40 MLOAD PUSH2 0x51A SWAP2 SWAP1 PUSH2 0x4CCE JUMP JUMPDEST PUSH1 0x40 MLOAD DUP1 SWAP2 SUB SWAP1 RETURN JUMPDEST PUSH2 0x52B PUSH2 0x1162 JUMP JUMPDEST PUSH1 0x40 MLOAD PUSH2 0x538 SWAP2 SWAP1 PUSH2 0x4D1F JUMP JUMPDEST PUSH1 0x40 MLOAD DUP1 SWAP2 SUB SWAP1 RETURN JUMPDEST PUSH2 0x55B PUSH1 0x4 DUP1 CALLDATASIZE SUB DUP2 ADD SWAP1 PUSH2 0x556 SWAP2 SWAP1 PUSH2 0x4602 JUMP JUMPDEST PUSH2 0x11F4 JUMP JUMPDEST STOP JUMPDEST PUSH2 0x577 PUSH1 0x4 DUP1 CALLDATASIZE SUB DUP2 ADD SWAP1 PUSH2 0x572 SWAP2 SWAP1 PUSH2 0x47C9 JUMP JUMPDEST PUSH2 0x14F3 JUMP JUMPDEST STOP JUMPDEST PUSH2 0x581 PUSH2 0x16F1 JUMP JUMPDEST PUSH1 0x40 MLOAD PUSH2 0x58E SWAP2 SWAP1 PUSH2 0x4CE9 JUMP JUMPDEST PUSH1 0x40 MLOAD DUP1 SWAP2 SUB SWAP1 RETURN JUMPDEST PUSH2 0x5B1 PUSH1 0x4 DUP1 CALLDATASIZE SUB DUP2 ADD SWAP1 PUSH2 0x5AC SWAP2 SWAP1 PUSH2 0x4602 JUMP JUMPDEST PUSH2 0x16F8 JUMP JUMPDEST STOP JUMPDEST PUSH2 0x5CD PUSH1 0x4 DUP1 CALLDATASIZE SUB DUP2 ADD SWAP1 PUSH2 0x5C8 SWAP2 SWAP1 PUSH2 0x46EF JUMP JUMPDEST PUSH2 0x1947 JUMP JUMPDEST PUSH1 0x40 MLOAD PUSH2 0x5DA SWAP2 SWAP1 PUSH2 0x4CCE JUMP JUMPDEST PUSH1 0x40 MLOAD DUP1 SWAP2 SUB SWAP1 RETURN JUMPDEST PUSH2 0x5FD PUSH1 0x4 DUP1 CALLDATASIZE SUB DUP2 ADD SWAP1 PUSH2 0x5F8 SWAP2 SWAP1 PUSH2 0x46EF JUMP JUMPDEST PUSH2 0x1A32 JUMP JUMPDEST PUSH1 0x40 MLOAD PUSH2 0x60A SWAP2 SWAP1 PUSH2 0x4CCE JUMP JUMPDEST PUSH1 0x40 MLOAD DUP1 SWAP2 SUB SWAP1 RETURN JUMPDEST PUSH2 0x62D PUSH1 0x4 DUP1 CALLDATASIZE SUB DUP2 ADD SWAP1 PUSH2 0x628 SWAP2 SWAP1 PUSH2 0x47C9 JUMP JUMPDEST PUSH2 0x1A50 JUMP JUMPDEST STOP JUMPDEST PUSH2 0x637 PUSH2 0x1CB5 JUMP JUMPDEST PUSH1 0x40 MLOAD PUSH2 0x644 SWAP2 SWAP1 PUSH2 0x4FC1 JUMP JUMPDEST PUSH1 0x40 MLOAD DUP1 SWAP2 SUB SWAP1 RETURN JUMPDEST PUSH2 0x667 PUSH1 0x4 DUP1 CALLDATASIZE SUB DUP2 ADD SWAP1 PUSH2 0x662 SWAP2 SWAP1 PUSH2 0x4602 JUMP JUMPDEST PUSH2 0x1CBB JUMP JUMPDEST STOP JUMPDEST PUSH2 0x683 PUSH1 0x4 DUP1 CALLDATASIZE SUB DUP2 ADD SWAP1 PUSH2 0x67E SWAP2 SWAP1 PUSH2 0x475C JUMP JUMPDEST PUSH2 0x21DF JUMP JUMPDEST STOP JUMPDEST PUSH2 0x68D PUSH2 0x2208 JUMP JUMPDEST PUSH1 0x40 MLOAD PUSH2 0x69B SWAP3 SWAP2 SWAP1 PUSH2 0x5036 JUMP JUMPDEST PUSH1 0x40 MLOAD DUP1 SWAP2 SUB SWAP1 RETURN JUMPDEST PUSH2 0x6BE PUSH1 0x4 DUP1 CALLDATASIZE SUB DUP2 ADD SWAP1 PUSH2 0x6B9 SWAP2 SWAP1 PUSH2 0x4602 JUMP JUMPDEST PUSH2 0x229D JUMP JUMPDEST STOP JUMPDEST PUSH2 0x6DA PUSH1 0x4 DUP1 CALLDATASIZE SUB DUP2 ADD SWAP1 PUSH2 0x6D5 SWAP2 SWAP1 PUSH2 0x465C JUMP JUMPDEST PUSH2 0x25A6 JUMP JUMPDEST PUSH1 0x40 MLOAD PUSH2 0x6E7 SWAP2 SWAP1 PUSH2 0x4FC1 JUMP JUMPDEST PUSH1 0x40 MLOAD DUP1 SWAP2 SUB SWAP1 RETURN JUMPDEST PUSH2 0x70A PUSH1 0x4 DUP1 CALLDATASIZE SUB DUP2 ADD SWAP1 PUSH2 0x705 SWAP2 SWAP1 PUSH2 0x4602 JUMP JUMPDEST PUSH2 0x262D JUMP JUMPDEST STOP JUMPDEST PUSH2 0x726 PUSH1 0x4 DUP1 CALLDATASIZE SUB DUP2 ADD SWAP1 PUSH2 0x721 SWAP2 SWAP1 PUSH2 0x47C9 JUMP JUMPDEST PUSH2 0x2935 JUMP JUMPDEST STOP JUMPDEST PUSH2 0x730 PUSH2 0x2E99 JUMP JUMPDEST PUSH1 0x40 MLOAD PUSH2 0x73D SWAP2 SWAP1 PUSH2 0x4D04 JUMP JUMPDEST PUSH1 0x40 MLOAD DUP1 SWAP2 SUB SWAP1 RETURN JUMPDEST PUSH2 0x74E PUSH2 0x2EBF JUMP JUMPDEST PUSH1 0x40 MLOAD PUSH2 0x75B SWAP2 SWAP1 PUSH2 0x4C8A JUMP JUMPDEST PUSH1 0x40 MLOAD DUP1 SWAP2 SUB SWAP1 RETURN JUMPDEST PUSH2 0x77E PUSH1 0x4 DUP1 CALLDATASIZE SUB DUP2 ADD SWAP1 PUSH2 0x779 SWAP2 SWAP1 PUSH2 0x4602 JUMP JUMPDEST PUSH2 0x2EE5 JUMP JUMPDEST STOP JUMPDEST PUSH1 0x0 PUSH32 0x7965DB0B00000000000000000000000000000000000000000000000000000000 PUSH28 0xFFFFFFFFFFFFFFFFFFFFFFFFFFFFFFFFFFFFFFFFFFFFFFFFFFFFFFFF NOT AND DUP3 PUSH28 0xFFFFFFFFFFFFFFFFFFFFFFFFFFFFFFFFFFFFFFFFFFFFFFFFFFFFFFFF NOT AND EQ DUP1 PUSH2 0x7F3 JUMPI POP PUSH2 0x7F2 DUP3 PUSH2 0x2FDD JUMP JUMPDEST JUMPDEST SWAP1 POP SWAP2 SWAP1 POP JUMP JUMPDEST PUSH1 0x60 PUSH1 0x3 DUP1 SLOAD PUSH2 0x809 SWAP1 PUSH2 0x531F JUMP JUMPDEST DUP1 PUSH1 0x1F ADD PUSH1 0x20 DUP1 SWAP2 DIV MUL PUSH1 0x20 ADD PUSH1 0x40 MLOAD SWAP1 DUP2 ADD PUSH1 0x40 MSTORE DUP1 SWAP3 SWAP2 SWAP1 DUP2 DUP2 MSTORE PUSH1 0x20 ADD DUP3 DUP1 SLOAD PUSH2 0x835 SWAP1 PUSH2 0x531F JUMP JUMPDEST DUP1 ISZERO PUSH2 0x882 JUMPI DUP1 PUSH1 0x1F LT PUSH2 0x857 JUMPI PUSH2 0x100 DUP1 DUP4 SLOAD DIV MUL DUP4 MSTORE SWAP2 PUSH1 0x20 ADD SWAP2 PUSH2 0x882 JUMP JUMPDEST DUP3 ADD SWAP2 SWAP1 PUSH1 0x0 MSTORE PUSH1 0x20 PUSH1 0x0 KECCAK256 SWAP1 JUMPDEST DUP2 SLOAD DUP2 MSTORE SWAP1 PUSH1 0x1 ADD SWAP1 PUSH1 0x20 ADD DUP1 DUP4 GT PUSH2 0x865 JUMPI DUP3 SWAP1 SUB PUSH1 0x1F AND DUP3 ADD SWAP2 JUMPDEST POP POP POP POP POP SWAP1 POP SWAP1 JUMP JUMPDEST PUSH1 0x0 PUSH2 0x8A0 PUSH2 0x899 PUSH2 0x3047 JUMP JUMPDEST DUP5 DUP5 PUSH2 0x304F JUMP JUMPDEST PUSH1 0x1 SWAP1 POP SWAP3 SWAP2 POP POP JUMP JUMPDEST PUSH1 0x0 PUSH1 0x2 SLOAD SWAP1 POP SWAP1 JUMP JUMPDEST PUSH1 0x0 PUSH2 0x8C1 DUP5 DUP5 DUP5 PUSH2 0x321A JUMP JUMPDEST PUSH1 0x0 PUSH1 0x1 PUSH1 0x0 DUP7 PUSH20 0xFFFFFFFFFFFFFFFFFFFFFFFFFFFFFFFFFFFFFFFF AND PUSH20 0xFFFFFFFFFFFFFFFFFFFFFFFFFFFFFFFFFFFFFFFF AND DUP2 MSTORE PUSH1 0x20 ADD SWAP1 DUP2 MSTORE PUSH1 0x20 ADD PUSH1 0x0 KECCAK256 PUSH1 0x0 PUSH2 0x90C PUSH2 0x3047 JUMP JUMPDEST PUSH20 0xFFFFFFFFFFFFFFFFFFFFFFFFFFFFFFFFFFFFFFFF AND PUSH20 0xFFFFFFFFFFFFFFFFFFFFFFFFFFFFFFFFFFFFFFFF AND DUP2 MSTORE PUSH1 0x20 ADD SWAP1 DUP2 MSTORE PUSH1 0x20 ADD PUSH1 0x0 KECCAK256 SLOAD SWAP1 POP DUP3 DUP2 LT ISZERO PUSH2 0x98C JUMPI PUSH1 0x40 MLOAD PUSH32 0x8C379A000000000000000000000000000000000000000000000000000000000 DUP2 MSTORE PUSH1 0x4 ADD PUSH2 0x983 SWAP1 PUSH2 0x4E21 JUMP JUMPDEST PUSH1 0x40 MLOAD DUP1 SWAP2 SUB SWAP1 REVERT JUMPDEST PUSH2 0x9A0 DUP6 PUSH2 0x998 PUSH2 0x3047 JUMP JUMPDEST DUP6 DUP5 SUB PUSH2 0x304F JUMP JUMPDEST PUSH1 0x1 SWAP2 POP POP SWAP4 SWAP3 POP POP POP JUMP JUMPDEST PUSH1 0x0 PUSH1 0x6 PUSH1 0x0 DUP4 DUP2 MSTORE PUSH1 0x20 ADD SWAP1 DUP2 MSTORE PUSH1 0x20 ADD PUSH1 0x0 KECCAK256 PUSH1 0x1 ADD SLOAD SWAP1 POP SWAP2 SWAP1 POP JUMP JUMPDEST PUSH1 0x10 PUSH1 0x0 SWAP1 SLOAD SWAP1 PUSH2 0x100 EXP SWAP1 DIV PUSH1 0xFF AND DUP2 JUMP JUMPDEST PUSH32 0x3C11D16CBAFFD01DF69CE1C404F6340EE057498F5F00246190EA54220576A848 DUP2 JUMP JUMPDEST PUSH2 0xA0C DUP3 PUSH2 0x9AC JUMP JUMPDEST PUSH2 0xA1D DUP2 PUSH2 0xA18 PUSH2 0x3047 JUMP JUMPDEST PUSH2 0x3AF9 JUMP JUMPDEST PUSH2 0xA27 DUP4 DUP4 PUSH2 0x3B96 JUMP JUMPDEST POP POP POP JUMP JUMPDEST PUSH1 0x0 PUSH1 0x12 SWAP1 POP SWAP1 JUMP JUMPDEST PUSH2 0xA3D PUSH2 0x3047 JUMP JUMPDEST PUSH20 0xFFFFFFFFFFFFFFFFFFFFFFFFFFFFFFFFFFFFFFFF AND DUP2 PUSH20 0xFFFFFFFFFFFFFFFFFFFFFFFFFFFFFFFFFFFFFFFF AND EQ PUSH2 0xAAA JUMPI PUSH1 0x40 MLOAD PUSH32 0x8C379A000000000000000000000000000000000000000000000000000000000 DUP2 MSTORE PUSH1 0x4 ADD PUSH2 0xAA1 SWAP1 PUSH2 0x4FA1 JUMP JUMPDEST PUSH1 0x40 MLOAD DUP1 SWAP2 SUB SWAP1 REVERT JUMPDEST PUSH2 0xAB4 DUP3 DUP3 PUSH2 0x3C77 JUMP JUMPDEST POP POP JUMP JUMPDEST PUSH1 0x0 PUSH2 0xB5A PUSH2 0xAC5 PUSH2 0x3047 JUMP JUMPDEST DUP5 DUP5 PUSH1 0x1 PUSH1 0x0 PUSH2 0xAD3 PUSH2 0x3047 JUMP JUMPDEST PUSH20 0xFFFFFFFFFFFFFFFFFFFFFFFFFFFFFFFFFFFFFFFF AND PUSH20 0xFFFFFFFFFFFFFFFFFFFFFFFFFFFFFFFFFFFFFFFF AND DUP2 MSTORE PUSH1 0x20 ADD SWAP1 DUP2 MSTORE PUSH1 0x20 ADD PUSH1 0x0 KECCAK256 PUSH1 0x0 DUP9 PUSH20 0xFFFFFFFFFFFFFFFFFFFFFFFFFFFFFFFFFFFFFFFF AND PUSH20 0xFFFFFFFFFFFFFFFFFFFFFFFFFFFFFFFFFFFFFFFF AND DUP2 MSTORE PUSH1 0x20 ADD SWAP1 DUP2 MSTORE PUSH1 0x20 ADD PUSH1 0x0 KECCAK256 SLOAD PUSH2 0xB55 SWAP2 SWAP1 PUSH2 0x50DA JUMP JUMPDEST PUSH2 0x304F JUMP JUMPDEST PUSH1 0x1 SWAP1 POP SWAP3 SWAP2 POP POP JUMP JUMPDEST PUSH2 0xB6C PUSH2 0x3047 JUMP JUMPDEST PUSH20 0xFFFFFFFFFFFFFFFFFFFFFFFFFFFFFFFFFFFFFFFF AND PUSH2 0xB8A PUSH2 0xECF JUMP JUMPDEST PUSH20 0xFFFFFFFFFFFFFFFFFFFFFFFFFFFFFFFFFFFFFFFF AND EQ PUSH2 0xBE0 JUMPI PUSH1 0x40 MLOAD PUSH32 0x8C379A000000000000000000000000000000000000000000000000000000000 DUP2 MSTORE PUSH1 0x4 ADD PUSH2 0xBD7 SWAP1 PUSH2 0x4E41 JUMP JUMPDEST PUSH1 0x40 MLOAD DUP1 SWAP2 SUB SWAP1 REVERT JUMPDEST PUSH2 0xC0C PUSH32 0x874871A162A71D4840C7F98993FB3251652851C996B75E596E2F66DEE8BAA7F9 PUSH1 0x0 SHL PUSH2 0x3D59 JUMP JUMPDEST PUSH2 0xC38 PUSH32 0x68ECAABC630493D4AB70E690B088842F6F3AE666E7A82C9FF4D7DB991EDCB18D PUSH1 0x0 SHL PUSH2 0x3D59 JUMP JUMPDEST PUSH2 0xC64 PUSH32 0x230CF1BA6A719D7E2D36CE293483374951C55A9A4587BE1B0F0BA733C5A13C6B PUSH1 0x0 SHL PUSH2 0x3D59 JUMP JUMPDEST PUSH2 0xC75 PUSH2 0xC6F PUSH2 0x3047 JUMP JUMPDEST DUP3 PUSH2 0x3D5C JUMP JUMPDEST POP JUMP JUMPDEST PUSH2 0xC80 PUSH2 0x3047 JUMP JUMPDEST PUSH20 0xFFFFFFFFFFFFFFFFFFFFFFFFFFFFFFFFFFFFFFFF AND PUSH2 0xC9E PUSH2 0xECF JUMP JUMPDEST PUSH20 0xFFFFFFFFFFFFFFFFFFFFFFFFFFFFFFFFFFFFFFFF AND EQ PUSH2 0xCF4 JUMPI PUSH1 0x40 MLOAD PUSH32 0x8C379A000000000000000000000000000000000000000000000000000000000 DUP2 MSTORE PUSH1 0x4 ADD PUSH2 0xCEB SWAP1 PUSH2 0x4E41 JUMP JUMPDEST PUSH1 0x40 MLOAD DUP1 SWAP2 SUB SWAP1 REVERT JUMPDEST PUSH2 0xD20 PUSH32 0xCC9BB4BFB50F8753D0B3805423E1B795B9C015D77FF8B6315C882227E98790F7 PUSH1 0x0 SHL PUSH2 0x3D59 JUMP JUMPDEST PUSH2 0xD4C PUSH32 0xB60CC414CCD45705EC809EF12C8B98F546E361B2F31F66A1F4D240F388C2DBEF PUSH1 0x0 SHL PUSH2 0x3D59 JUMP JUMPDEST PUSH2 0xD78 PUSH32 0xBDD4467206EA05C384952926D9E6524D032A38F748E3A07ACB20648EDDB652C PUSH1 0x0 SHL PUSH2 0x3D59 JUMP JUMPDEST PUSH1 0x1 PUSH1 0xE PUSH1 0x0 DUP4 PUSH20 0xFFFFFFFFFFFFFFFFFFFFFFFFFFFFFFFFFFFFFFFF AND PUSH20 0xFFFFFFFFFFFFFFFFFFFFFFFFFFFFFFFFFFFFFFFF AND DUP2 MSTORE PUSH1 0x20 ADD SWAP1 DUP2 MSTORE PUSH1 0x20 ADD PUSH1 0x0 KECCAK256 PUSH1 0x0 PUSH2 0x100 EXP DUP2 SLOAD DUP2 PUSH1 0xFF MUL NOT AND SWAP1 DUP4 ISZERO ISZERO MUL OR SWAP1 SSTORE POP POP JUMP JUMPDEST PUSH1 0x12 SLOAD DUP2 JUMP JUMPDEST PUSH1 0x9 PUSH1 0x0 SWAP1 SLOAD SWAP1 PUSH2 0x100 EXP SWAP1 DIV PUSH20 0xFFFFFFFFFFFFFFFFFFFFFFFFFFFFFFFFFFFFFFFF AND DUP2 JUMP JUMPDEST PUSH1 0x0 DUP1 PUSH1 0x0 DUP4 PUSH20 0xFFFFFFFFFFFFFFFFFFFFFFFFFFFFFFFFFFFFFFFF AND PUSH20 0xFFFFFFFFFFFFFFFFFFFFFFFFFFFFFFFFFFFFFFFF AND DUP2 MSTORE PUSH1 0x20 ADD SWAP1 DUP2 MSTORE PUSH1 0x20 ADD PUSH1 0x0 KECCAK256 SLOAD SWAP1 POP SWAP2 SWAP1 POP JUMP JUMPDEST PUSH2 0xE4F PUSH2 0x3047 JUMP JUMPDEST PUSH20 0xFFFFFFFFFFFFFFFFFFFFFFFFFFFFFFFFFFFFFFFF AND PUSH2 0xE6D PUSH2 0xECF JUMP JUMPDEST PUSH20 0xFFFFFFFFFFFFFFFFFFFFFFFFFFFFFFFFFFFFFFFF AND EQ PUSH2 0xEC3 JUMPI PUSH1 0x40 MLOAD PUSH32 0x8C379A000000000000000000000000000000000000000000000000000000000 DUP2 MSTORE PUSH1 0x4 ADD PUSH2 0xEBA SWAP1 PUSH2 0x4E41 JUMP JUMPDEST PUSH1 0x40 MLOAD DUP1 SWAP2 SUB SWAP1 REVERT JUMPDEST PUSH2 0xECD PUSH1 0x0 PUSH2 0x3F33 JUMP JUMPDEST JUMP JUMPDEST PUSH1 0x0 PUSH1 0x5 PUSH1 0x0 SWAP1 SLOAD SWAP1 PUSH2 0x100 EXP SWAP1 DIV PUSH20 0xFFFFFFFFFFFFFFFFFFFFFFFFFFFFFFFFFFFFFFFF AND SWAP1 POP SWAP1 JUMP JUMPDEST PUSH2 0xF01 PUSH2 0x3047 JUMP JUMPDEST PUSH20 0xFFFFFFFFFFFFFFFFFFFFFFFFFFFFFFFFFFFFFFFF AND PUSH2 0xF1F PUSH2 0xECF JUMP JUMPDEST PUSH20 0xFFFFFFFFFFFFFFFFFFFFFFFFFFFFFFFFFFFFFFFF AND EQ PUSH2 0xF75 JUMPI PUSH1 0x40 MLOAD PUSH32 0x8C379A000000000000000000000000000000000000000000000000000000000 DUP2 MSTORE PUSH1 0x4 ADD PUSH2 0xF6C SWAP1 PUSH2 0x4E41 JUMP JUMPDEST PUSH1 0x40 MLOAD DUP1 SWAP2 SUB SWAP1 REVERT JUMPDEST PUSH2 0xFA1 PUSH32 0xFF23F575DDF82A89CDA38F6E25D8DD84D551B5D3EA4E3C433BBDCE2AB55C4C6C PUSH1 0x0 SHL PUSH2 0x3D59 JUMP JUMPDEST PUSH2 0xFCD PUSH32 0xFA7648D0999C65C1558697C161BA7E49F75747C9A493C4EA6CA969254F05C0B4 PUSH1 0x0 SHL PUSH2 0x3D59 JUMP JUMPDEST PUSH2 0xFF9 PUSH32 0xE303D1B7CC0589BF11C929684CBA5A976DB5FD144526C19840AEE8C8291951B6 PUSH1 0x0 SHL PUSH2 0x3D59 JUMP JUMPDEST PUSH2 0x1025 PUSH32 0xA1E79FD50C2063573979E1EBF1D4993035057BE88F704F5C8C0DEA5112F34584 PUSH1 0x0 SHL PUSH2 0x3D59 JUMP JUMPDEST PUSH1 0x0 DUP2 LT ISZERO PUSH2 0x1069 JUMPI PUSH1 0x40 MLOAD PUSH32 0x8C379A000000000000000000000000000000000000000000000000000000000 DUP2 MSTORE PUSH1 0x4 ADD PUSH2 0x1060 SWAP1 PUSH2 0x4E61 JUMP JUMPDEST PUSH1 0x40 MLOAD DUP1 SWAP2 SUB SWAP1 REVERT JUMPDEST PUSH2 0x1095 PUSH32 0x2D6D8168589661B245AD05210F2615C1DB13CF05693E3A25E1E78FEC21BC3235 PUSH1 0x0 SHL PUSH2 0x3D59 JUMP JUMPDEST PUSH2 0x10C1 PUSH32 0x8EACBD449C4D901C8A7A53B755EFB3D9D459AD58E7C7DA4C8BBA68190E29544D PUSH1 0x0 SHL PUSH2 0x3D59 JUMP JUMPDEST PUSH2 0x10ED PUSH32 0x235DBBD88AFF0B673E281581964F59B7EE6708B4BA0B6A4ABCB0685C1F28C817 PUSH1 0x0 SHL PUSH2 0x3D59 JUMP JUMPDEST DUP1 PUSH1 0xB DUP2 SWAP1 SSTORE POP POP JUMP JUMPDEST PUSH1 0x0 PUSH1 0x6 PUSH1 0x0 DUP5 DUP2 MSTORE PUSH1 0x20 ADD SWAP1 DUP2 MSTORE PUSH1 0x20 ADD PUSH1 0x0 KECCAK256 PUSH1 0x0 ADD PUSH1 0x0 DUP4 PUSH20 0xFFFFFFFFFFFFFFFFFFFFFFFFFFFFFFFFFFFFFFFF AND PUSH20 0xFFFFFFFFFFFFFFFFFFFFFFFFFFFFFFFFFFFFFFFF AND DUP2 MSTORE PUSH1 0x20 ADD SWAP1 DUP2 MSTORE PUSH1 0x20 ADD PUSH1 0x0 KECCAK256 PUSH1 0x0 SWAP1 SLOAD SWAP1 PUSH2 0x100 EXP SWAP1 DIV PUSH1 0xFF AND SWAP1 POP SWAP3 SWAP2 POP POP JUMP JUMPDEST PUSH1 0x60 PUSH1 0x4 DUP1 SLOAD PUSH2 0x1171 SWAP1 PUSH2 0x531F JUMP JUMPDEST DUP1 PUSH1 0x1F ADD PUSH1 0x20 DUP1 SWAP2 DIV MUL PUSH1 0x20 ADD PUSH1 0x40 MLOAD SWAP1 DUP2 ADD PUSH1 0x40 MSTORE DUP1 SWAP3 SWAP2 SWAP1 DUP2 DUP2 MSTORE PUSH1 0x20 ADD DUP3 DUP1 SLOAD PUSH2 0x119D SWAP1 PUSH2 0x531F JUMP JUMPDEST DUP1 ISZERO PUSH2 0x11EA JUMPI DUP1 PUSH1 0x1F LT PUSH2 0x11BF JUMPI PUSH2 0x100 DUP1 DUP4 SLOAD DIV MUL DUP4 MSTORE SWAP2 PUSH1 0x20 ADD SWAP2 PUSH2 0x11EA JUMP JUMPDEST DUP3 ADD SWAP2 SWAP1 PUSH1 0x0 MSTORE PUSH1 0x20 PUSH1 0x0 KECCAK256 SWAP1 JUMPDEST DUP2 SLOAD DUP2 MSTORE SWAP1 PUSH1 0x1 ADD SWAP1 PUSH1 0x20 ADD DUP1 DUP4 GT PUSH2 0x11CD JUMPI DUP3 SWAP1 SUB PUSH1 0x1F AND DUP3 ADD SWAP2 JUMPDEST POP POP POP POP POP SWAP1 POP SWAP1 JUMP JUMPDEST PUSH2 0x11FC PUSH2 0x3047 JUMP JUMPDEST PUSH20 0xFFFFFFFFFFFFFFFFFFFFFFFFFFFFFFFFFFFFFFFF AND PUSH2 0x121A PUSH2 0xECF JUMP JUMPDEST PUSH20 0xFFFFFFFFFFFFFFFFFFFFFFFFFFFFFFFFFFFFFFFF AND EQ PUSH2 0x1270 JUMPI PUSH1 0x40 MLOAD PUSH32 0x8C379A000000000000000000000000000000000000000000000000000000000 DUP2 MSTORE PUSH1 0x4 ADD PUSH2 0x1267 SWAP1 PUSH2 0x4E41 JUMP JUMPDEST PUSH1 0x40 MLOAD DUP1 SWAP2 SUB SWAP1 REVERT JUMPDEST PUSH2 0x129C PUSH32 0xF0E5F5A062FB01CA110E048F65B9252393A563E8E194786E887BC99C82A638C7 PUSH1 0x0 SHL PUSH2 0x3D59 JUMP JUMPDEST PUSH2 0x12C8 PUSH32 0xB6661620E6FB1DCB4A87D781B8B0B726081DD7B87DBBD1BB78C1B198517F83AC PUSH1 0x0 SHL PUSH2 0x3D59 JUMP JUMPDEST PUSH2 0x12F4 PUSH32 0x87FAE9FC1605AAE09D8965A862ADCECDA40CEAE54E93465D2C8D062DFFF7CA60 PUSH1 0x0 SHL PUSH2 0x3D59 JUMP JUMPDEST PUSH2 0x1320 PUSH32 0x9640FACC8901AAC0EABCE1F5364D56CE0695165847471018064C255FB02DB2ED PUSH1 0x0 SHL PUSH2 0x3D59 JUMP JUMPDEST PUSH1 0x0 PUSH20 0xFFFFFFFFFFFFFFFFFFFFFFFFFFFFFFFFFFFFFFFF AND DUP2 PUSH20 0xFFFFFFFFFFFFFFFFFFFFFFFFFFFFFFFFFFFFFFFF AND EQ ISZERO PUSH2 0x1390 JUMPI PUSH1 0x40 MLOAD PUSH32 0x8C379A000000000000000000000000000000000000000000000000000000000 DUP2 MSTORE PUSH1 0x4 ADD PUSH2 0x1387 SWAP1 PUSH2 0x4EC1 JUMP JUMPDEST PUSH1 0x40 MLOAD DUP1 SWAP2 SUB SWAP1 REVERT JUMPDEST PUSH2 0x13BC PUSH32 0xB93863268E433FD79D20E2B653708360B570BF98470AE49BBED77CA7C0A7D485 PUSH1 0x0 SHL PUSH2 0x3D59 JUMP JUMPDEST PUSH2 0x13E8 PUSH32 0x155E65C3BB6BEE1B5A8306BEEE811D2DDE625EB5E815CC300BAD1E3745EE309B PUSH1 0x0 SHL PUSH2 0x3D59 JUMP JUMPDEST PUSH2 0x1414 PUSH32 0x55DD95CAD26E6CB6884B2AE14DF4ADDD9553AA2EB8C044FEDB9BBDD7E1EC0E3B PUSH1 0x0 SHL PUSH2 0x3D59 JUMP JUMPDEST DUP1 PUSH1 0x8 PUSH1 0x0 PUSH2 0x100 EXP DUP2 SLOAD DUP2 PUSH20 0xFFFFFFFFFFFFFFFFFFFFFFFFFFFFFFFFFFFFFFFF MUL NOT AND SWAP1 DUP4 PUSH20 0xFFFFFFFFFFFFFFFFFFFFFFFFFFFFFFFFFFFFFFFF AND MUL OR SWAP1 SSTORE POP PUSH2 0x1481 PUSH32 0x8485E14467BEC9AF88EDD6176FEF347C81912742931BAF041E908EEA5A08B96F PUSH1 0x0 SHL PUSH2 0x3D59 JUMP JUMPDEST PUSH2 0x14AD PUSH32 0x3C0CE189A26F414BE6A5C769BB7D154F1512BFDC3293D94C2616A678951B3E87 PUSH1 0x0 SHL PUSH2 0x3D59 JUMP JUMPDEST DUP1 PUSH20 0xFFFFFFFFFFFFFFFFFFFFFFFFFFFFFFFFFFFFFFFF AND PUSH32 0xF7BF2342F244EDC4DDC8B8C9C59859B32D0CF0FDBA77897F8080DB836B8FC15 PUSH1 0x40 MLOAD PUSH1 0x40 MLOAD DUP1 SWAP2 SUB SWAP1 LOG2 POP JUMP JUMPDEST PUSH2 0x14FB PUSH2 0x3047 JUMP JUMPDEST PUSH20 0xFFFFFFFFFFFFFFFFFFFFFFFFFFFFFFFFFFFFFFFF AND PUSH2 0x1519 PUSH2 0xECF JUMP JUMPDEST PUSH20 0xFFFFFFFFFFFFFFFFFFFFFFFFFFFFFFFFFFFFFFFF AND EQ PUSH2 0x156F JUMPI PUSH1 0x40 MLOAD PUSH32 0x8C379A000000000000000000000000000000000000000000000000000000000 DUP2 MSTORE PUSH1 0x4 ADD PUSH2 0x1566 SWAP1 PUSH2 0x4E41 JUMP JUMPDEST PUSH1 0x40 MLOAD DUP1 SWAP2 SUB SWAP1 REVERT JUMPDEST PUSH2 0x159B PUSH32 0xFE8FFB44FB47BE877889CA12E262A2883968EAAA1947C78B9C84C42303FDD63E PUSH1 0x0 SHL PUSH2 0x3D59 JUMP JUMPDEST PUSH2 0x15C7 PUSH32 0x5E2AA41913A216A3676256395C8C85D655E27700C32D414A2CDA1ADC9042EA61 PUSH1 0x0 SHL PUSH2 0x3D59 JUMP JUMPDEST PUSH2 0x15F3 PUSH32 0x92EB3184E64A0A829D38BB248EB310849B44318C65D529C37D06E56729702C7C PUSH1 0x0 SHL PUSH2 0x3D59 JUMP JUMPDEST PUSH2 0x161F PUSH32 0xA0B95BACC6F44946CA54AD22E6FAD4D6D72BDF0329F0E68BBBCD20AB8D83DAD3 PUSH1 0x0 SHL PUSH2 0x3D59 JUMP JUMPDEST PUSH1 0x6 DUP2 GT ISZERO PUSH2 0x1663 JUMPI PUSH1 0x40 MLOAD PUSH32 0x8C379A000000000000000000000000000000000000000000000000000000000 DUP2 MSTORE PUSH1 0x4 ADD PUSH2 0x165A SWAP1 PUSH2 0x4F21 JUMP JUMPDEST PUSH1 0x40 MLOAD DUP1 SWAP2 SUB SWAP1 REVERT JUMPDEST PUSH2 0x168F PUSH32 0x6262603B1EF5DD1AAA6E7F2C9A811699040EC0BE8969C1BC3C47F5CD5CB2AB66 PUSH1 0x0 SHL PUSH2 0x3D59 JUMP JUMPDEST PUSH2 0x16BB PUSH32 0xA8AF5B6C89846BA6A2D4B0B37B04F5831E6BA0C9CA452135003F9DDCA69DC9BF PUSH1 0x0 SHL PUSH2 0x3D59 JUMP JUMPDEST PUSH2 0x16E7 PUSH32 0x773FA97560635F12D90AE3B5747F025B3CE03C9681BA5102B57B14E9732F582C PUSH1 0x0 SHL PUSH2 0x3D59 JUMP JUMPDEST DUP1 PUSH1 0xC DUP2 SWAP1 SSTORE POP POP JUMP JUMPDEST PUSH1 0x0 DUP1 SHL DUP2 JUMP JUMPDEST PUSH2 0x1700 PUSH2 0x3047 JUMP JUMPDEST PUSH20 0xFFFFFFFFFFFFFFFFFFFFFFFFFFFFFFFFFFFFFFFF AND PUSH2 0x171E PUSH2 0xECF JUMP JUMPDEST PUSH20 0xFFFFFFFFFFFFFFFFFFFFFFFFFFFFFFFFFFFFFFFF AND EQ PUSH2 0x1774 JUMPI PUSH1 0x40 MLOAD PUSH32 0x8C379A000000000000000000000000000000000000000000000000000000000 DUP2 MSTORE PUSH1 0x4 ADD PUSH2 0x176B SWAP1 PUSH2 0x4E41 JUMP JUMPDEST PUSH1 0x40 MLOAD DUP1 SWAP2 SUB SWAP1 REVERT JUMPDEST PUSH2 0x17A0 PUSH32 0x95743098B908F8D4200CDBA1EF3D0E626804B4DB8DC58930115232F982025D6F PUSH1 0x0 SHL PUSH2 0x3D59 JUMP JUMPDEST PUSH2 0x17CC PUSH32 0x89E878BE3ADE5AA6C83140E87F655D349879C23EF1808BC85EFFD7A21B3DD195 PUSH1 0x0 SHL PUSH2 0x3D59 JUMP JUMPDEST PUSH2 0x17F8 PUSH32 0xCD3444BFB51978C7853DCD71C82E907581460EF996B688011C1262806FF0F84A PUSH1 0x0 SHL PUSH2 0x3D59 JUMP JUMPDEST PUSH2 0x1824 PUSH32 0xAB1FF83E49B642F1D55D495298CC0E2ED28801AAF0945FBC13F3C457C8E61CC8 PUSH1 0x0 SHL PUSH2 0x3D59 JUMP JUMPDEST PUSH1 0x0 PUSH20 0xFFFFFFFFFFFFFFFFFFFFFFFFFFFFFFFFFFFFFFFF AND PUSH1 0x9 PUSH1 0x0 SWAP1 SLOAD SWAP1 PUSH2 0x100 EXP SWAP1 DIV PUSH20 0xFFFFFFFFFFFFFFFFFFFFFFFFFFFFFFFFFFFFFFFF AND PUSH20 0xFFFFFFFFFFFFFFFFFFFFFFFFFFFFFFFFFFFFFFFF AND EQ PUSH2 0x187F JUMPI PUSH1 0x0 DUP1 REVERT JUMPDEST PUSH2 0x18AB PUSH32 0xA858F45B1B59F3ADDFECF565ACFC29B6F2458D78398DA3BC46AA60A301B20713 PUSH1 0x0 SHL PUSH2 0x3D59 JUMP JUMPDEST PUSH2 0x18D7 PUSH32 0x37D4C084FCEA657AC17C94ED1A1C7B04DB733E32DF13C3A3AD629C7927F3FA0E PUSH1 0x0 SHL PUSH2 0x3D59 JUMP JUMPDEST PUSH2 0x1903 PUSH32 0xCCCE66C20238B683F5B33AA8390AB58BBAEC5B792EE3F35D0588A2AC2B348102 PUSH1 0x0 SHL PUSH2 0x3D59 JUMP JUMPDEST DUP1 PUSH1 0x9 PUSH1 0x0 PUSH2 0x100 EXP DUP2 SLOAD DUP2 PUSH20 0xFFFFFFFFFFFFFFFFFFFFFFFFFFFFFFFFFFFFFFFF MUL NOT AND SWAP1 DUP4 PUSH20 0xFFFFFFFFFFFFFFFFFFFFFFFFFFFFFFFFFFFFFFFF AND MUL OR SWAP1 SSTORE POP POP JUMP JUMPDEST PUSH1 0x0 DUP1 PUSH1 0x1 PUSH1 0x0 PUSH2 0x1956 PUSH2 0x3047 JUMP JUMPDEST PUSH20 0xFFFFFFFFFFFFFFFFFFFFFFFFFFFFFFFFFFFFFFFF AND PUSH20 0xFFFFFFFFFFFFFFFFFFFFFFFFFFFFFFFFFFFFFFFF AND DUP2 MSTORE PUSH1 0x20 ADD SWAP1 DUP2 MSTORE PUSH1 0x20 ADD PUSH1 0x0 KECCAK256 PUSH1 0x0 DUP6 PUSH20 0xFFFFFFFFFFFFFFFFFFFFFFFFFFFFFFFFFFFFFFFF AND PUSH20 0xFFFFFFFFFFFFFFFFFFFFFFFFFFFFFFFFFFFFFFFF AND DUP2 MSTORE PUSH1 0x20 ADD SWAP1 DUP2 MSTORE PUSH1 0x20 ADD PUSH1 0x0 KECCAK256 SLOAD SWAP1 POP DUP3 DUP2 LT ISZERO PUSH2 0x1A13 JUMPI PUSH1 0x40 MLOAD PUSH32 0x8C379A000000000000000000000000000000000000000000000000000000000 DUP2 MSTORE PUSH1 0x4 ADD PUSH2 0x1A0A SWAP1 PUSH2 0x4F81 JUMP JUMPDEST PUSH1 0x40 MLOAD DUP1 SWAP2 SUB SWAP1 REVERT JUMPDEST PUSH2 0x1A27 PUSH2 0x1A1E PUSH2 0x3047 JUMP JUMPDEST DUP6 DUP6 DUP5 SUB PUSH2 0x304F JUMP JUMPDEST PUSH1 0x1 SWAP2 POP POP SWAP3 SWAP2 POP POP JUMP JUMPDEST PUSH1 0x0 PUSH2 0x1A46 PUSH2 0x1A3F PUSH2 0x3047 JUMP JUMPDEST DUP5 DUP5 PUSH2 0x321A JUMP JUMPDEST PUSH1 0x1 SWAP1 POP SWAP3 SWAP2 POP POP JUMP JUMPDEST PUSH2 0x1A58 PUSH2 0x3047 JUMP JUMPDEST PUSH20 0xFFFFFFFFFFFFFFFFFFFFFFFFFFFFFFFFFFFFFFFF AND PUSH2 0x1A76 PUSH2 0xECF JUMP JUMPDEST PUSH20 0xFFFFFFFFFFFFFFFFFFFFFFFFFFFFFFFFFFFFFFFF AND EQ PUSH2 0x1ACC JUMPI PUSH1 0x40 MLOAD PUSH32 0x8C379A000000000000000000000000000000000000000000000000000000000 DUP2 MSTORE PUSH1 0x4 ADD PUSH2 0x1AC3 SWAP1 PUSH2 0x4E41 JUMP JUMPDEST PUSH1 0x40 MLOAD DUP1 SWAP2 SUB SWAP1 REVERT JUMPDEST PUSH2 0x1AF8 PUSH32 0xA981DD2EC8CC204A4F5DE975E11F086EB282597D9FD965789DF5A55DE60BEAC6 PUSH1 0x0 SHL PUSH2 0x3D59 JUMP JUMPDEST PUSH2 0x1B24 PUSH32 0x31A7415C31DA047DF5E1E4808A28CC2570907639808266CADA354D4A4A769A35 PUSH1 0x0 SHL PUSH2 0x3D59 JUMP JUMPDEST PUSH2 0x1B50 PUSH32 0x86A35F02B35A9D937E52C3D6ECC0CFAAE00E8AFBC2E79DDD4F49BA9035D88D41 PUSH1 0x0 SHL PUSH2 0x3D59 JUMP JUMPDEST PUSH1 0x0 PUSH2 0x1B5B ADDRESS PUSH2 0xDFF JUMP JUMPDEST SWAP1 POP PUSH2 0x1B89 PUSH32 0xCCEAE568273AF8EFD3221F4808DD64619424E80E310BD760FC429FEA71291F34 PUSH1 0x0 SHL PUSH2 0x3D59 JUMP JUMPDEST PUSH2 0x1BB5 PUSH32 0xFE99F1B917360AC8D691D3CB26A21928161305B08929E74787770A872A50562F PUSH1 0x0 SHL PUSH2 0x3D59 JUMP JUMPDEST PUSH2 0x1BE1 PUSH32 0x3B7EE4F7D52D212CC7E232A7826EBFD6D215BD3392CF2930706DA9D54B24DD30 PUSH1 0x0 SHL PUSH2 0x3D59 JUMP JUMPDEST DUP1 DUP3 GT ISZERO PUSH2 0x1C24 JUMPI PUSH1 0x40 MLOAD PUSH32 0x8C379A000000000000000000000000000000000000000000000000000000000 DUP2 MSTORE PUSH1 0x4 ADD PUSH2 0x1C1B SWAP1 PUSH2 0x4E01 JUMP JUMPDEST PUSH1 0x40 MLOAD DUP1 SWAP2 SUB SWAP1 REVERT JUMPDEST PUSH2 0x1C50 PUSH32 0xD72BA3018C22A603110D612854925DFE5F1B7EF2233675C64B258FC0628D6AC1 PUSH1 0x0 SHL PUSH2 0x3D59 JUMP JUMPDEST PUSH2 0x1C7C PUSH32 0xFDABD829A6ED7553AAFFC8B559CC7B64D4F4DB556864A57CA48C3C6082DC9A12 PUSH1 0x0 SHL PUSH2 0x3D59 JUMP JUMPDEST PUSH2 0x1CA8 PUSH32 0x1E29BE510FF09BEBC81ADFEBD8B13E8DF5E7DE827CB00D4F9523BC2594ACCF3 PUSH1 0x0 SHL PUSH2 0x3D59 JUMP JUMPDEST PUSH2 0x1CB1 DUP3 PUSH2 0x2935 JUMP JUMPDEST POP POP JUMP JUMPDEST PUSH1 0x11 SLOAD DUP2 JUMP JUMPDEST PUSH2 0x1CC3 PUSH2 0x3047 JUMP JUMPDEST PUSH20 0xFFFFFFFFFFFFFFFFFFFFFFFFFFFFFFFFFFFFFFFF AND PUSH2 0x1CE1 PUSH2 0xECF JUMP JUMPDEST PUSH20 0xFFFFFFFFFFFFFFFFFFFFFFFFFFFFFFFFFFFFFFFF AND EQ PUSH2 0x1D37 JUMPI PUSH1 0x40 MLOAD PUSH32 0x8C379A000000000000000000000000000000000000000000000000000000000 DUP2 MSTORE PUSH1 0x4 ADD PUSH2 0x1D2E SWAP1 PUSH2 0x4E41 JUMP JUMPDEST PUSH1 0x40 MLOAD DUP1 SWAP2 SUB SWAP1 REVERT JUMPDEST PUSH2 0x1D63 PUSH32 0x91D2D85651DD1F145BDEB46814358F467E8AD1D8515F9C765C9BD943788C52D2 PUSH1 0x0 SHL PUSH2 0x3D59 JUMP JUMPDEST PUSH2 0x1D8F PUSH32 0x9FFA4BD692A9C614209B8F3F21001371E7D3ECCFF5DB3A3C6C5BA65CB7769C13 PUSH1 0x0 SHL PUSH2 0x3D59 JUMP JUMPDEST PUSH2 0x1DBB PUSH32 0x189619229FFAB062228ADC4A2BFDBE074B3122FF6865D318BD58A7B222CA0695 PUSH1 0x0 SHL PUSH2 0x3D59 JUMP JUMPDEST PUSH2 0x1DE7 PUSH32 0xDAA7E504C0454A40DEC64B84EF6873F708EA08D9E4C9F9BC798566A30C415FA5 PUSH1 0x0 SHL PUSH2 0x3D59 JUMP JUMPDEST PUSH1 0x11 SLOAD TIMESTAMP LT ISZERO PUSH2 0x1E2C JUMPI PUSH1 0x40 MLOAD PUSH32 0x8C379A000000000000000000000000000000000000000000000000000000000 DUP2 MSTORE PUSH1 0x4 ADD PUSH2 0x1E23 SWAP1 PUSH2 0x4F61 JUMP JUMPDEST PUSH1 0x40 MLOAD DUP1 SWAP2 SUB SWAP1 REVERT JUMPDEST PUSH2 0x1E58 PUSH32 0x223C71E359F2F064CFF9C97E9CE2A3D74779DCD4D489A03C38FD207300D29B90 PUSH1 0x0 SHL PUSH2 0x3D59 JUMP JUMPDEST PUSH2 0x1E84 PUSH32 0x96F04C50155C52583DB175507EACAE22784788DA63664E85BA59E5A84A332D18 PUSH1 0x0 SHL PUSH2 0x3D59 JUMP JUMPDEST PUSH2 0x1EB0 PUSH32 0x961C83ED8D02582E554AF49AE76A0232E674F1F2D8BFC6AD1E3FD6C02B3744C4 PUSH1 0x0 SHL PUSH2 0x3D59 JUMP JUMPDEST PUSH1 0x0 DUP2 SWAP1 POP PUSH2 0x1EE1 PUSH32 0xE6704977EF99598FDBC27C8E6B06B1EE8F9A95EB69C02197FEA6F941E45E12B3 PUSH1 0x0 SHL PUSH2 0x3D59 JUMP JUMPDEST PUSH2 0x1F0D PUSH32 0xBF8AECFB69334D46B4895EFD0757AE0912DB4E40D75C8AD907A37301435492A3 PUSH1 0x0 SHL PUSH2 0x3D59 JUMP JUMPDEST DUP1 PUSH20 0xFFFFFFFFFFFFFFFFFFFFFFFFFFFFFFFFFFFFFFFF AND PUSH4 0xC45A0155 PUSH1 0x40 MLOAD DUP2 PUSH4 0xFFFFFFFF AND PUSH1 0xE0 SHL DUP2 MSTORE PUSH1 0x4 ADD PUSH1 0x20 PUSH1 0x40 MLOAD DUP1 DUP4 SUB DUP2 DUP7 DUP1 EXTCODESIZE ISZERO DUP1 ISZERO PUSH2 0x1F53 JUMPI PUSH1 0x0 DUP1 REVERT JUMPDEST POP GAS STATICCALL ISZERO DUP1 ISZERO PUSH2 0x1F67 JUMPI RETURNDATASIZE PUSH1 0x0 DUP1 RETURNDATACOPY RETURNDATASIZE PUSH1 0x0 REVERT JUMPDEST POP POP POP POP PUSH1 0x40 MLOAD RETURNDATASIZE PUSH1 0x1F NOT PUSH1 0x1F DUP3 ADD AND DUP3 ADD DUP1 PUSH1 0x40 MSTORE POP DUP2 ADD SWAP1 PUSH2 0x1F8B SWAP2 SWAP1 PUSH2 0x462F JUMP JUMPDEST PUSH20 0xFFFFFFFFFFFFFFFFFFFFFFFFFFFFFFFFFFFFFFFF AND PUSH4 0xC9C65396 ADDRESS DUP4 PUSH20 0xFFFFFFFFFFFFFFFFFFFFFFFFFFFFFFFFFFFFFFFF AND PUSH4 0xAD5C4648 PUSH1 0x40 MLOAD DUP2 PUSH4 0xFFFFFFFF AND PUSH1 0xE0 SHL DUP2 MSTORE PUSH1 0x4 ADD PUSH1 0x20 PUSH1 0x40 MLOAD DUP1 DUP4 SUB DUP2 DUP7 DUP1 EXTCODESIZE ISZERO DUP1 ISZERO PUSH2 0x1FED JUMPI PUSH1 0x0 DUP1 REVERT JUMPDEST POP GAS STATICCALL ISZERO DUP1 ISZERO PUSH2 0x2001 JUMPI RETURNDATASIZE PUSH1 0x0 DUP1 RETURNDATACOPY RETURNDATASIZE PUSH1 0x0 REVERT JUMPDEST POP POP POP POP PUSH1 0x40 MLOAD RETURNDATASIZE PUSH1 0x1F NOT PUSH1 0x1F DUP3 ADD AND DUP3 ADD DUP1 PUSH1 0x40 MSTORE POP DUP2 ADD SWAP1 PUSH2 0x2025 SWAP2 SWAP1 PUSH2 0x462F JUMP JUMPDEST PUSH1 0x40 MLOAD DUP4 PUSH4 0xFFFFFFFF AND PUSH1 0xE0 SHL DUP2 MSTORE PUSH1 0x4 ADD PUSH2 0x2042 SWAP3 SWAP2 SWAP1 PUSH2 0x4CA5 JUMP JUMPDEST PUSH1 0x20 PUSH1 0x40 MLOAD DUP1 DUP4 SUB DUP2 PUSH1 0x0 DUP8 DUP1 EXTCODESIZE ISZERO DUP1 ISZERO PUSH2 0x205C JUMPI PUSH1 0x0 DUP1 REVERT JUMPDEST POP GAS CALL ISZERO DUP1 ISZERO PUSH2 0x2070 JUMPI RETURNDATASIZE PUSH1 0x0 DUP1 RETURNDATACOPY RETURNDATASIZE PUSH1 0x0 REVERT JUMPDEST POP POP POP POP PUSH1 0x40 MLOAD RETURNDATASIZE PUSH1 0x1F NOT PUSH1 0x1F DUP3 ADD AND DUP3 ADD DUP1 PUSH1 0x40 MSTORE POP DUP2 ADD SWAP1 PUSH2 0x2094 SWAP2 SWAP1 PUSH2 0x462F JUMP JUMPDEST PUSH1 0x9 PUSH1 0x0 PUSH2 0x100 EXP DUP2 SLOAD DUP2 PUSH20 0xFFFFFFFFFFFFFFFFFFFFFFFFFFFFFFFFFFFFFFFF MUL NOT AND SWAP1 DUP4 PUSH20 0xFFFFFFFFFFFFFFFFFFFFFFFFFFFFFFFFFFFFFFFF AND MUL OR SWAP1 SSTORE POP PUSH2 0x2100 PUSH32 0xCA9BD43F80C2A971F2CFE0E9B0218EC1335ECC00F2ED2717B5A2C89AF1C07117 PUSH1 0x0 SHL PUSH2 0x3D59 JUMP JUMPDEST PUSH2 0x212C PUSH32 0x21BC6DDF697E488C5CB420B2160A971E6B206DF2B46936B93DBE3C785C5D82BA PUSH1 0x0 SHL PUSH2 0x3D59 JUMP JUMPDEST DUP1 PUSH1 0x7 PUSH1 0x0 PUSH2 0x100 EXP DUP2 SLOAD DUP2 PUSH20 0xFFFFFFFFFFFFFFFFFFFFFFFFFFFFFFFFFFFFFFFF MUL NOT AND SWAP1 DUP4 PUSH20 0xFFFFFFFFFFFFFFFFFFFFFFFFFFFFFFFFFFFFFFFF AND MUL OR SWAP1 SSTORE POP PUSH2 0x2199 PUSH32 0xFF8CF1E870F3363C2FF0FA945F2ABBAAFE871ADA7033F9C146B65BE77CF80967 PUSH1 0x0 SHL PUSH2 0x3D59 JUMP JUMPDEST PUSH2 0x21C5 PUSH32 0x979BE8BB75D0FA0A76EFBCDE128EF15D4446834784C670447BCA242EAF8FCAF6 PUSH1 0x0 SHL PUSH2 0x3D59 JUMP JUMPDEST PUSH4 0x1E13380 TIMESTAMP PUSH2 0x21D5 SWAP2 SWAP1 PUSH2 0x50DA JUMP JUMPDEST PUSH1 0x11 DUP2 SWAP1 SSTORE POP POP POP JUMP JUMPDEST PUSH2 0x21E8 DUP3 PUSH2 0x9AC JUMP JUMPDEST PUSH2 0x21F9 DUP2 PUSH2 0x21F4 PUSH2 0x3047 JUMP JUMPDEST PUSH2 0x3AF9 JUMP JUMPDEST PUSH2 0x2203 DUP4 DUP4 PUSH2 0x3C77 JUMP JUMPDEST POP POP POP JUMP JUMPDEST PUSH1 0x0 DUP1 PUSH2 0x2237 PUSH32 0x80EABDAE698C5DB4F436826A925BDD55305944C4067B3E42FE75B5BE6C50CEB3 PUSH1 0x0 SHL PUSH2 0x3D59 JUMP JUMPDEST PUSH2 0x2263 PUSH32 0x7591C0E4924D7D011D2534F5CBE6BE13838FC9B28F484D14D68A0D0B34D9D814 PUSH1 0x0 SHL PUSH2 0x3D59 JUMP JUMPDEST PUSH2 0x228F PUSH32 0x5314CB37AB76C25674B9242D28C274B87479C8741C5E954A3C6EA106C1C44BE1 PUSH1 0x0 SHL PUSH2 0x3D59 JUMP JUMPDEST PUSH1 0xB SLOAD PUSH1 0xC SLOAD SWAP2 POP SWAP2 POP SWAP1 SWAP2 JUMP JUMPDEST PUSH2 0x22A5 PUSH2 0x3047 JUMP JUMPDEST PUSH20 0xFFFFFFFFFFFFFFFFFFFFFFFFFFFFFFFFFFFFFFFF AND PUSH2 0x22C3 PUSH2 0xECF JUMP JUMPDEST PUSH20 0xFFFFFFFFFFFFFFFFFFFFFFFFFFFFFFFFFFFFFFFF AND EQ PUSH2 0x2319 JUMPI PUSH1 0x40 MLOAD PUSH32 0x8C379A000000000000000000000000000000000000000000000000000000000 DUP2 MSTORE PUSH1 0x4 ADD PUSH2 0x2310 SWAP1 PUSH2 0x4E41 JUMP JUMPDEST PUSH1 0x40 MLOAD DUP1 SWAP2 SUB SWAP1 REVERT JUMPDEST PUSH2 0x2345 PUSH32 0x8208650BB6A6FB778F85313AE1E4E6B97FFB73D58C45D7483E687AB3B35222A4 PUSH1 0x0 SHL PUSH2 0x3D59 JUMP JUMPDEST PUSH2 0x2371 PUSH32 0x3FC74D5C6EF0DE4EF0034B01DF01171F34B94CBBE971D9857527568EE01AD43D PUSH1 0x0 SHL PUSH2 0x3D59 JUMP JUMPDEST PUSH2 0x239D PUSH32 0xA59DD7A2A6056BC862CA5B25D3106A4E7D176149D5E3DD9ECCEBA5272304CB9F PUSH1 0x0 SHL PUSH2 0x3D59 JUMP JUMPDEST PUSH2 0x23C9 PUSH32 0x2B83B6D533E9E54F218B64F517F33F19CC42EBB3FFED13F69C2B9BB26D896C82 PUSH1 0x0 SHL PUSH2 0x3D59 JUMP JUMPDEST PUSH1 0xD PUSH1 0x0 DUP3 PUSH20 0xFFFFFFFFFFFFFFFFFFFFFFFFFFFFFFFFFFFFFFFF AND PUSH20 0xFFFFFFFFFFFFFFFFFFFFFFFFFFFFFFFFFFFFFFFF AND DUP2 MSTORE PUSH1 0x20 ADD SWAP1 DUP2 MSTORE PUSH1 0x20 ADD PUSH1 0x0 KECCAK256 PUSH1 0x0 SWAP1 SLOAD SWAP1 PUSH2 0x100 EXP SWAP1 DIV PUSH1 0xFF AND ISZERO PUSH2 0x2420 JUMPI PUSH1 0x0 DUP1 REVERT JUMPDEST PUSH2 0x244C PUSH32 0x88445042B4076121FD2DE6EF58176A062ED545C9E9A87A23A2B100D024E84900 PUSH1 0x0 SHL PUSH2 0x3D59 JUMP JUMPDEST PUSH2 0x2478 PUSH32 0x69E00AD23A9F763D3F2B6B18DDC6C7F4C287AFD1E6BCE66A622DFFD342A38208 PUSH1 0x0 SHL PUSH2 0x3D59 JUMP JUMPDEST PUSH2 0x24A4 PUSH32 0xEF95EF12BFB0EADE85A8D8C1980B76CA4E17CB053033828CC99DDF66B89865ED PUSH1 0x0 SHL PUSH2 0x3D59 JUMP JUMPDEST PUSH1 0x1 PUSH1 0xD PUSH1 0x0 DUP4 PUSH20 0xFFFFFFFFFFFFFFFFFFFFFFFFFFFFFFFFFFFFFFFF AND PUSH20 0xFFFFFFFFFFFFFFFFFFFFFFFFFFFFFFFFFFFFFFFF AND DUP2 MSTORE PUSH1 0x20 ADD SWAP1 DUP2 MSTORE PUSH1 0x20 ADD PUSH1 0x0 KECCAK256 PUSH1 0x0 PUSH2 0x100 EXP DUP2 SLOAD DUP2 PUSH1 0xFF MUL NOT AND SWAP1 DUP4 ISZERO ISZERO MUL OR SWAP1 SSTORE POP PUSH2 0x2528 PUSH32 0x4CAD42BAA7FC5485E5B4A7509DBC1189CD8E280F55EBEEED3D9B8BF397C26D0D PUSH1 0x0 SHL PUSH2 0x3D59 JUMP JUMPDEST PUSH2 0x2554 PUSH32 0x96BCD9683C0A0E05563B47E48C3DBB1FC10F6ECF910984A728D2B14FF385166 PUSH1 0x0 SHL PUSH2 0x3D59 JUMP JUMPDEST DUP1 PUSH20 0xFFFFFFFFFFFFFFFFFFFFFFFFFFFFFFFFFFFFFFFF AND PUSH32 0xFD1D4AA2C8AD064E5488483008A99152737DB29CC4D0F88D3B7B080F8D73CC82 PUSH1 0x1 PUSH1 0x40 MLOAD PUSH2 0x259B SWAP2 SWAP1 PUSH2 0x4CCE JUMP JUMPDEST PUSH1 0x40 MLOAD DUP1 SWAP2 SUB SWAP1 LOG2 POP JUMP JUMPDEST PUSH1 0x0 PUSH1 0x1 PUSH1 0x0 DUP5 PUSH20 0xFFFFFFFFFFFFFFFFFFFFFFFFFFFFFFFFFFFFFFFF AND PUSH20 0xFFFFFFFFFFFFFFFFFFFFFFFFFFFFFFFFFFFFFFFF AND DUP2 MSTORE PUSH1 0x20 ADD SWAP1 DUP2 MSTORE PUSH1 0x20 ADD PUSH1 0x0 KECCAK256 PUSH1 0x0 DUP4 PUSH20 0xFFFFFFFFFFFFFFFFFFFFFFFFFFFFFFFFFFFFFFFF AND PUSH20 0xFFFFFFFFFFFFFFFFFFFFFFFFFFFFFFFFFFFFFFFF AND DUP2 MSTORE PUSH1 0x20 ADD SWAP1 DUP2 MSTORE PUSH1 0x20 ADD PUSH1 0x0 KECCAK256 SLOAD SWAP1 POP SWAP3 SWAP2 POP POP JUMP JUMPDEST PUSH2 0x2635 PUSH2 0x3047 JUMP JUMPDEST PUSH20 0xFFFFFFFFFFFFFFFFFFFFFFFFFFFFFFFFFFFFFFFF AND PUSH2 0x2653 PUSH2 0xECF JUMP JUMPDEST PUSH20 0xFFFFFFFFFFFFFFFFFFFFFFFFFFFFFFFFFFFFFFFF AND EQ PUSH2 0x26A9 JUMPI PUSH1 0x40 MLOAD PUSH32 0x8C379A000000000000000000000000000000000000000000000000000000000 DUP2 MSTORE PUSH1 0x4 ADD PUSH2 0x26A0 SWAP1 PUSH2 0x4E41 JUMP JUMPDEST PUSH1 0x40 MLOAD DUP1 SWAP2 SUB SWAP1 REVERT JUMPDEST PUSH2 0x26D5 PUSH32 0x5EB5AB14DA192167F553AD7DBFAE042D3E72B04F3EA98354816388A7663C09BB PUSH1 0x0 SHL PUSH2 0x3D59 JUMP JUMPDEST PUSH2 0x2701 PUSH32 0xF8C18E39B27788C09204922AE5E52A7B746753AE8EAFB2D4E5624E33A72E1805 PUSH1 0x0 SHL PUSH2 0x3D59 JUMP JUMPDEST PUSH2 0x272D PUSH32 0x818F9367C9275165CDEFFB20DCABEC2B8039E511DEB6EA96BEA26F08C2D46D12 PUSH1 0x0 SHL PUSH2 0x3D59 JUMP JUMPDEST PUSH2 0x2759 PUSH32 0x3D273B36F9CA6BA76ACFC1272A90B72E6D660E080D3C0F5A137E344F5010A8F9 PUSH1 0x0 SHL PUSH2 0x3D59 JUMP JUMPDEST PUSH1 0xD PUSH1 0x0 DUP3 PUSH20 0xFFFFFFFFFFFFFFFFFFFFFFFFFFFFFFFFFFFFFFFF AND PUSH20 0xFFFFFFFFFFFFFFFFFFFFFFFFFFFFFFFFFFFFFFFF AND DUP2 MSTORE PUSH1 0x20 ADD SWAP1 DUP2 MSTORE PUSH1 0x20 ADD PUSH1 0x0 KECCAK256 PUSH1 0x0 SWAP1 SLOAD SWAP1 PUSH2 0x100 EXP SWAP1 DIV PUSH1 0xFF AND PUSH2 0x27AF JUMPI PUSH1 0x0 DUP1 REVERT JUMPDEST PUSH2 0x27DB PUSH32 0x61049E27960F247886E081C48510C98A807BF9856B20C7C09DF8532D3630DDBD PUSH1 0x0 SHL PUSH2 0x3D59 JUMP JUMPDEST PUSH2 0x2807 PUSH32 0xC4662402D740049F98674B9D30C6EB5F27A881314F2AA18FFBA81ECD2B9EF15D PUSH1 0x0 SHL PUSH2 0x3D59 JUMP JUMPDEST PUSH2 0x2833 PUSH32 0x9363172B3C4AE25591766B76D0E211E3A60E447CD7EAB7A8C79A907E095A4BA9 PUSH1 0x0 SHL PUSH2 0x3D59 JUMP JUMPDEST PUSH1 0x0 PUSH1 0xD PUSH1 0x0 DUP4 PUSH20 0xFFFFFFFFFFFFFFFFFFFFFFFFFFFFFFFFFFFFFFFF AND PUSH20 0xFFFFFFFFFFFFFFFFFFFFFFFFFFFFFFFFFFFFFFFF AND DUP2 MSTORE PUSH1 0x20 ADD SWAP1 DUP2 MSTORE PUSH1 0x20 ADD PUSH1 0x0 KECCAK256 PUSH1 0x0 PUSH2 0x100 EXP DUP2 SLOAD DUP2 PUSH1 0xFF MUL NOT AND SWAP1 DUP4 ISZERO ISZERO MUL OR SWAP1 SSTORE POP PUSH2 0x28B7 PUSH32 0x90C333B632FC37C9330E039B314A3F72FC91BE7C34479D3CD8913EA74F2FF9B8 PUSH1 0x0 SHL PUSH2 0x3D59 JUMP JUMPDEST PUSH2 0x28E3 PUSH32 0x57243B59AA5A19C7DB0F05BBABE2986F88EBA1BCED8FD99352EB615DA07C5450 PUSH1 0x0 SHL PUSH2 0x3D59 JUMP JUMPDEST DUP1 PUSH20 0xFFFFFFFFFFFFFFFFFFFFFFFFFFFFFFFFFFFFFFFF AND PUSH32 0xFD1D4AA2C8AD064E5488483008A99152737DB29CC4D0F88D3B7B080F8D73CC82 PUSH1 0x0 PUSH1 0x40 MLOAD PUSH2 0x292A SWAP2 SWAP1 PUSH2 0x4CCE JUMP JUMPDEST PUSH1 0x40 MLOAD DUP1 SWAP2 SUB SWAP1 LOG2 POP JUMP JUMPDEST PUSH2 0x293D PUSH2 0x3047 JUMP JUMPDEST PUSH20 0xFFFFFFFFFFFFFFFFFFFFFFFFFFFFFFFFFFFFFFFF AND PUSH2 0x295B PUSH2 0xECF JUMP JUMPDEST PUSH20 0xFFFFFFFFFFFFFFFFFFFFFFFFFFFFFFFFFFFFFFFF AND EQ PUSH2 0x29B1 JUMPI PUSH1 0x40 MLOAD PUSH32 0x8C379A000000000000000000000000000000000000000000000000000000000 DUP2 MSTORE PUSH1 0x4 ADD PUSH2 0x29A8 SWAP1 PUSH2 0x4E41 JUMP JUMPDEST PUSH1 0x40 MLOAD DUP1 SWAP2 SUB SWAP1 REVERT JUMPDEST PUSH2 0x29DD PUSH32 0x14F77654CC92C8D4169FEC5808B3C36912A600EAA8FA5BCAAA967D7F750050B5 PUSH1 0x0 SHL PUSH2 0x3D59 JUMP JUMPDEST PUSH2 0x2A09 PUSH32 0xBC1BEB35FEC1EEF73844A671B0D6616961E5CE7E3987E68646003644BE6D9065 PUSH1 0x0 SHL PUSH2 0x3D59 JUMP JUMPDEST PUSH2 0x2A35 PUSH32 0x3A9591AD92B173B1E2E410F46377A02484164743BBF15CACB8EAF9DC4B81D66 PUSH1 0x0 SHL PUSH2 0x3D59 JUMP JUMPDEST PUSH1 0x0 PUSH1 0x2 PUSH8 0xFFFFFFFFFFFFFFFF DUP2 GT ISZERO PUSH2 0x2A52 JUMPI PUSH2 0x2A51 PUSH2 0x540D JUMP JUMPDEST JUMPDEST PUSH1 0x40 MLOAD SWAP1 DUP1 DUP3 MSTORE DUP1 PUSH1 0x20 MUL PUSH1 0x20 ADD DUP3 ADD PUSH1 0x40 MSTORE DUP1 ISZERO PUSH2 0x2A80 JUMPI DUP2 PUSH1 0x20 ADD PUSH1 0x20 DUP3 MUL DUP1 CALLDATASIZE DUP4 CALLDATACOPY DUP1 DUP3 ADD SWAP2 POP POP SWAP1 POP JUMPDEST POP SWAP1 POP PUSH2 0x2AAF PUSH32 0x783B62AAFDB5E4E90C1AD23A76431D61A200DB9541F66DC031375104CE774B98 PUSH1 0x0 SHL PUSH2 0x3D59 JUMP JUMPDEST PUSH2 0x2ADB PUSH32 0x4016F4A1253FBCE6072A93086DB178BF49AD87F85A682F2CCD5225FD46A6BEFA PUSH1 0x0 SHL PUSH2 0x3D59 JUMP JUMPDEST ADDRESS DUP2 PUSH1 0x0 DUP2 MLOAD DUP2 LT PUSH2 0x2AF0 JUMPI PUSH2 0x2AEF PUSH2 0x53DE JUMP JUMPDEST JUMPDEST PUSH1 0x20 MUL PUSH1 0x20 ADD ADD SWAP1 PUSH20 0xFFFFFFFFFFFFFFFFFFFFFFFFFFFFFFFFFFFFFFFF AND SWAP1 DUP2 PUSH20 0xFFFFFFFFFFFFFFFFFFFFFFFFFFFFFFFFFFFFFFFF AND DUP2 MSTORE POP POP PUSH2 0x2B56 PUSH32 0x2EA0711EB4F84F97C0FCDC427FA2C5AAB8E342CF7338507DEA31CF4BB59CFE16 PUSH1 0x0 SHL PUSH2 0x3D59 JUMP JUMPDEST PUSH2 0x2B82 PUSH32 0x9611DCC0353F4130E3B7445BC25F254B71BB6AB3C5D5ECE5C74E78C141775723 PUSH1 0x0 SHL PUSH2 0x3D59 JUMP JUMPDEST PUSH1 0x7 PUSH1 0x0 SWAP1 SLOAD SWAP1 PUSH2 0x100 EXP SWAP1 DIV PUSH20 0xFFFFFFFFFFFFFFFFFFFFFFFFFFFFFFFFFFFFFFFF AND PUSH20 0xFFFFFFFFFFFFFFFFFFFFFFFFFFFFFFFFFFFFFFFF AND PUSH4 0xAD5C4648 PUSH1 0x40 MLOAD DUP2 PUSH4 0xFFFFFFFF AND PUSH1 0xE0 SHL DUP2 MSTORE PUSH1 0x4 ADD PUSH1 0x20 PUSH1 0x40 MLOAD DUP1 DUP4 SUB DUP2 DUP7 DUP1 EXTCODESIZE ISZERO DUP1 ISZERO PUSH2 0x2BEA JUMPI PUSH1 0x0 DUP1 REVERT JUMPDEST POP GAS STATICCALL ISZERO DUP1 ISZERO PUSH2 0x2BFE JUMPI RETURNDATASIZE PUSH1 0x0 DUP1 RETURNDATACOPY RETURNDATASIZE PUSH1 0x0 REVERT JUMPDEST POP POP POP POP PUSH1 0x40 MLOAD RETURNDATASIZE PUSH1 0x1F NOT PUSH1 0x1F DUP3 ADD AND DUP3 ADD DUP1 PUSH1 0x40 MSTORE POP DUP2 ADD SWAP1 PUSH2 0x2C22 SWAP2 SWAP1 PUSH2 0x462F JUMP JUMPDEST DUP2 PUSH1 0x1 DUP2 MLOAD DUP2 LT PUSH2 0x2C36 JUMPI PUSH2 0x2C35 PUSH2 0x53DE JUMP JUMPDEST JUMPDEST PUSH1 0x20 MUL PUSH1 0x20 ADD ADD SWAP1 PUSH20 0xFFFFFFFFFFFFFFFFFFFFFFFFFFFFFFFFFFFFFFFF AND SWAP1 DUP2 PUSH20 0xFFFFFFFFFFFFFFFFFFFFFFFFFFFFFFFFFFFFFFFF AND DUP2 MSTORE POP POP PUSH2 0x2C9C PUSH32 0x49BC151AB909544EB501ABCE1E163B7E43E69903E091B86FD79E93062AA7FFEB PUSH1 0x0 SHL PUSH2 0x3D59 JUMP JUMPDEST PUSH2 0x2CC8 PUSH32 0xCFEF6C3CB07CA0B9E64A4BD95F56D7BABE9EB6A18C5FC8E7E54F58471E8AB656 PUSH1 0x0 SHL PUSH2 0x3D59 JUMP JUMPDEST PUSH2 0x2CF5 ADDRESS PUSH1 0x7 PUSH1 0x0 SWAP1 SLOAD SWAP1 PUSH2 0x100 EXP SWAP1 DIV PUSH20 0xFFFFFFFFFFFFFFFFFFFFFFFFFFFFFFFFFFFFFFFF AND DUP5 PUSH2 0x304F JUMP JUMPDEST PUSH2 0x2D21 PUSH32 0xBC1DDB574D46E47D5C76ECA663A2F05BAA044A5368DED37590F2BEE54107BF49 PUSH1 0x0 SHL PUSH2 0x3D59 JUMP JUMPDEST PUSH2 0x2D4D PUSH32 0xF82C9006B6FD15B505F7C0E189C9C16FE610F8A7A08135EA0F2ECACAB1B4A148 PUSH1 0x0 SHL PUSH2 0x3D59 JUMP JUMPDEST PUSH1 0x7 PUSH1 0x0 SWAP1 SLOAD SWAP1 PUSH2 0x100 EXP SWAP1 DIV PUSH20 0xFFFFFFFFFFFFFFFFFFFFFFFFFFFFFFFFFFFFFFFF AND PUSH20 0xFFFFFFFFFFFFFFFFFFFFFFFFFFFFFFFFFFFFFFFF AND PUSH4 0x791AC947 DUP4 PUSH1 0x0 DUP5 PUSH1 0x8 PUSH1 0x0 SWAP1 SLOAD SWAP1 PUSH2 0x100 EXP SWAP1 DIV PUSH20 0xFFFFFFFFFFFFFFFFFFFFFFFFFFFFFFFFFFFFFFFF AND TIMESTAMP PUSH1 0x40 MLOAD DUP7 PUSH4 0xFFFFFFFF AND PUSH1 0xE0 SHL DUP2 MSTORE PUSH1 0x4 ADD PUSH2 0x2DD3 SWAP6 SWAP5 SWAP4 SWAP3 SWAP2 SWAP1 PUSH2 0x4FDC JUMP JUMPDEST PUSH1 0x0 PUSH1 0x40 MLOAD DUP1 DUP4 SUB DUP2 PUSH1 0x0 DUP8 DUP1 EXTCODESIZE ISZERO DUP1 ISZERO PUSH2 0x2DED JUMPI PUSH1 0x0 DUP1 REVERT JUMPDEST POP GAS CALL SWAP3 POP POP POP DUP1 ISZERO PUSH2 0x2DFE JUMPI POP PUSH1 0x1 JUMPDEST PUSH2 0x2E94 JUMPI PUSH2 0x2E2E PUSH32 0x18E3323504035F329D1B727CF6B856F52098AF379271A44614256FF6EBD399C1 PUSH1 0x0 SHL PUSH2 0x3D59 JUMP JUMPDEST PUSH2 0x2E5A PUSH32 0x2E17429F5EF1B1683F393207017EB79534FF35334DBAF9934880FB21F234037A PUSH1 0x0 SHL PUSH2 0x3D59 JUMP JUMPDEST PUSH32 0xCF34EF537AC33EE1AC626CA1587A0A7E8E51561E5514F8CB36AFA1C5102B3BAB PUSH1 0x40 MLOAD PUSH2 0x2E87 SWAP1 PUSH2 0x4F41 JUMP JUMPDEST PUSH1 0x40 MLOAD DUP1 SWAP2 SUB SWAP1 LOG1 PUSH2 0x2E95 JUMP JUMPDEST JUMPDEST POP POP JUMP JUMPDEST PUSH1 0x7 PUSH1 0x0 SWAP1 SLOAD SWAP1 PUSH2 0x100 EXP SWAP1 DIV PUSH20 0xFFFFFFFFFFFFFFFFFFFFFFFFFFFFFFFFFFFFFFFF AND DUP2 JUMP JUMPDEST PUSH1 0x8 PUSH1 0x0 SWAP1 SLOAD SWAP1 PUSH2 0x100 EXP SWAP1 DIV PUSH20 0xFFFFFFFFFFFFFFFFFFFFFFFFFFFFFFFFFFFFFFFF AND DUP2 JUMP JUMPDEST PUSH2 0x2EED PUSH2 0x3047 JUMP JUMPDEST PUSH20 0xFFFFFFFFFFFFFFFFFFFFFFFFFFFFFFFFFFFFFFFF AND PUSH2 0x2F0B PUSH2 0xECF JUMP JUMPDEST PUSH20 0xFFFFFFFFFFFFFFFFFFFFFFFFFFFFFFFFFFFFFFFF AND EQ PUSH2 0x2F61 JUMPI PUSH1 0x40 MLOAD PUSH32 0x8C379A000000000000000000000000000000000000000000000000000000000 DUP2 MSTORE PUSH1 0x4 ADD PUSH2 0x2F58 SWAP1 PUSH2 0x4E41 JUMP JUMPDEST PUSH1 0x40 MLOAD DUP1 SWAP2 SUB SWAP1 REVERT JUMPDEST PUSH1 0x0 PUSH20 0xFFFFFFFFFFFFFFFFFFFFFFFFFFFFFFFFFFFFFFFF AND DUP2 PUSH20 0xFFFFFFFFFFFFFFFFFFFFFFFFFFFFFFFFFFFFFFFF AND EQ ISZERO PUSH2 0x2FD1 JUMPI PUSH1 0x40 MLOAD PUSH32 0x8C379A000000000000000000000000000000000000000000000000000000000 DUP2 MSTORE PUSH1 0x4 ADD PUSH2 0x2FC8 SWAP1 PUSH2 0x4DA1 JUMP JUMPDEST PUSH1 0x40 MLOAD DUP1 SWAP2 SUB SWAP1 REVERT JUMPDEST PUSH2 0x2FDA DUP2 PUSH2 0x3F33 JUMP JUMPDEST POP JUMP JUMPDEST PUSH1 0x0 PUSH32 0x1FFC9A700000000000000000000000000000000000000000000000000000000 PUSH28 0xFFFFFFFFFFFFFFFFFFFFFFFFFFFFFFFFFFFFFFFFFFFFFFFFFFFFFFFF NOT AND DUP3 PUSH28 0xFFFFFFFFFFFFFFFFFFFFFFFFFFFFFFFFFFFFFFFFFFFFFFFFFFFFFFFF NOT AND EQ SWAP1 POP SWAP2 SWAP1 POP JUMP JUMPDEST PUSH1 0x0 CALLER SWAP1 POP SWAP1 JUMP JUMPDEST PUSH1 0x0 PUSH20 0xFFFFFFFFFFFFFFFFFFFFFFFFFFFFFFFFFFFFFFFF AND DUP4 PUSH20 0xFFFFFFFFFFFFFFFFFFFFFFFFFFFFFFFFFFFFFFFF AND EQ ISZERO PUSH2 0x30BF JUMPI PUSH1 0x40 MLOAD PUSH32 0x8C379A000000000000000000000000000000000000000000000000000000000 DUP2 MSTORE PUSH1 0x4 ADD PUSH2 0x30B6 SWAP1 PUSH2 0x4F01 JUMP JUMPDEST PUSH1 0x40 MLOAD DUP1 SWAP2 SUB SWAP1 REVERT JUMPDEST PUSH1 0x0 PUSH20 0xFFFFFFFFFFFFFFFFFFFFFFFFFFFFFFFFFFFFFFFF AND DUP3 PUSH20 0xFFFFFFFFFFFFFFFFFFFFFFFFFFFFFFFFFFFFFFFF AND EQ ISZERO PUSH2 0x312F JUMPI PUSH1 0x40 MLOAD PUSH32 0x8C379A000000000000000000000000000000000000000000000000000000000 DUP2 MSTORE PUSH1 0x4 ADD PUSH2 0x3126 SWAP1 PUSH2 0x4DC1 JUMP JUMPDEST PUSH1 0x40 MLOAD DUP1 SWAP2 SUB SWAP1 REVERT JUMPDEST DUP1 PUSH1 0x1 PUSH1 0x0 DUP6 PUSH20 0xFFFFFFFFFFFFFFFFFFFFFFFFFFFFFFFFFFFFFFFF AND PUSH20 0xFFFFFFFFFFFFFFFFFFFFFFFFFFFFFFFFFFFFFFFF AND DUP2 MSTORE PUSH1 0x20 ADD SWAP1 DUP2 MSTORE PUSH1 0x20 ADD PUSH1 0x0 KECCAK256 PUSH1 0x0 DUP5 PUSH20 0xFFFFFFFFFFFFFFFFFFFFFFFFFFFFFFFFFFFFFFFF AND PUSH20 0xFFFFFFFFFFFFFFFFFFFFFFFFFFFFFFFFFFFFFFFF AND DUP2 MSTORE PUSH1 0x20 ADD SWAP1 DUP2 MSTORE PUSH1 0x20 ADD PUSH1 0x0 KECCAK256 DUP2 SWAP1 SSTORE POP DUP2 PUSH20 0xFFFFFFFFFFFFFFFFFFFFFFFFFFFFFFFFFFFFFFFF AND DUP4 PUSH20 0xFFFFFFFFFFFFFFFFFFFFFFFFFFFFFFFFFFFFFFFF AND PUSH32 0x8C5BE1E5EBEC7D5BD14F71427D1E84F3DD0314C0F7B2291E5B200AC8C7C3B925 DUP4 PUSH1 0x40 MLOAD PUSH2 0x320D SWAP2 SWAP1 PUSH2 0x4FC1 JUMP JUMPDEST PUSH1 0x40 MLOAD DUP1 SWAP2 SUB SWAP1 LOG3 POP POP POP JUMP JUMPDEST PUSH2 0x3246 PUSH32 0x53281432CD0C552183553F8F9DA1C1E1512E8F8CE86FDC41041200E80EF7255 PUSH1 0x0 SHL PUSH2 0x3D59 JUMP JUMPDEST PUSH2 0x3272 PUSH32 0xFF869C270C001B3DC468854AD56D7CF01DAB3A91A7E23630692B8E3D348E19DE PUSH1 0x0 SHL PUSH2 0x3D59 JUMP JUMPDEST PUSH2 0x329E PUSH32 0x79494500391633C9FBB769DFE3ECB2B3CD8DC9F3DF60E7CDB08DFA2DDB8AB2D1 PUSH1 0x0 SHL PUSH2 0x3D59 JUMP JUMPDEST PUSH2 0x32CA PUSH32 0x359A9FA7E94CD2BBF587E464E7A6C33D39104D33D528458185121395522A30BE PUSH1 0x0 SHL PUSH2 0x3D59 JUMP JUMPDEST PUSH1 0x0 PUSH20 0xFFFFFFFFFFFFFFFFFFFFFFFFFFFFFFFFFFFFFFFF AND DUP4 PUSH20 0xFFFFFFFFFFFFFFFFFFFFFFFFFFFFFFFFFFFFFFFF AND EQ ISZERO PUSH2 0x333A JUMPI PUSH1 0x40 MLOAD PUSH32 0x8C379A000000000000000000000000000000000000000000000000000000000 DUP2 MSTORE PUSH1 0x4 ADD PUSH2 0x3331 SWAP1 PUSH2 0x4EE1 JUMP JUMPDEST PUSH1 0x40 MLOAD DUP1 SWAP2 SUB SWAP1 REVERT JUMPDEST PUSH2 0x3366 PUSH32 0x30E073747E86D7419FF3AD135A6B8A02624545BE57F6595DFF9FDAB5FB2A7BB7 PUSH1 0x0 SHL PUSH2 0x3D59 JUMP JUMPDEST PUSH2 0x3392 PUSH32 0xEAA402665F1525DCA802A0C2BEAD9489076E30A549D09B0D876E6A19022FDB0A PUSH1 0x0 SHL PUSH2 0x3D59 JUMP JUMPDEST PUSH2 0x33BE PUSH32 0x91982D7609ADFBB4600126D697F20E61E20E0C5CD1BE4E63D1325B73C30B619D PUSH1 0x0 SHL PUSH2 0x3D59 JUMP JUMPDEST PUSH2 0x33EA PUSH32 0x795B13E2D9E12BA324CCAC9AEDD3A743C54F4F9530AE93D62BDA0E78E64F765E PUSH1 0x0 SHL PUSH2 0x3D59 JUMP JUMPDEST PUSH1 0x0 PUSH20 0xFFFFFFFFFFFFFFFFFFFFFFFFFFFFFFFFFFFFFFFF AND DUP3 PUSH20 0xFFFFFFFFFFFFFFFFFFFFFFFFFFFFFFFFFFFFFFFF AND EQ ISZERO PUSH2 0x345A JUMPI PUSH1 0x40 MLOAD PUSH32 0x8C379A000000000000000000000000000000000000000000000000000000000 DUP2 MSTORE PUSH1 0x4 ADD PUSH2 0x3451 SWAP1 PUSH2 0x4D61 JUMP JUMPDEST PUSH1 0x40 MLOAD DUP1 SWAP2 SUB SWAP1 REVERT JUMPDEST PUSH2 0x3486 PUSH32 0x5BE9ACC3CDCC8DC5AAC64C9CE5F64986FCE74A03D2022B1DF1BAA3E41205C0CE PUSH1 0x0 SHL PUSH2 0x3D59 JUMP JUMPDEST PUSH2 0x34B2 PUSH32 0xB06591F0503ADFF195110193B284C48C9E3E845D69B9497FCB95104A0EE2370 PUSH1 0x0 SHL PUSH2 0x3D59 JUMP JUMPDEST PUSH2 0x34DE PUSH32 0xF1A4F8573300DEB6AC04447B89AC45B4871F8EB230267E8BD9E79998DC6A2877 PUSH1 0x0 SHL PUSH2 0x3D59 JUMP JUMPDEST PUSH2 0x350A PUSH32 0x6809965B6D5A3B595CA4562FE23942C7AEEE26CA95340AB79D97EAE2976FA8A0 PUSH1 0x0 SHL PUSH2 0x3D59 JUMP JUMPDEST PUSH1 0x0 DUP2 GT PUSH2 0x354D JUMPI PUSH1 0x40 MLOAD PUSH32 0x8C379A000000000000000000000000000000000000000000000000000000000 DUP2 MSTORE PUSH1 0x4 ADD PUSH2 0x3544 SWAP1 PUSH2 0x4E81 JUMP JUMPDEST PUSH1 0x40 MLOAD DUP1 SWAP2 SUB SWAP1 REVERT JUMPDEST PUSH2 0x3579 PUSH32 0x16A34063858514359FA2DCFC20449CEF17A18E424F52C9EA7C5C1EE742123C25 PUSH1 0x0 SHL PUSH2 0x3D59 JUMP JUMPDEST PUSH2 0x35A5 PUSH32 0x1246824C4160BCEA34A76E9BF37FDC681657D76963327A65DF1A705E50A3509B PUSH1 0x0 SHL PUSH2 0x3D59 JUMP JUMPDEST PUSH2 0x35D1 PUSH32 0xC5CB343F6098F974670C51136F34284136E87207C6F59F927F929CF05E9BB811 PUSH1 0x0 SHL PUSH2 0x3D59 JUMP JUMPDEST PUSH1 0x0 PUSH2 0x35FF PUSH32 0x11CBB33DCAD5151A1798A1A2437B5C1E4E47C16250527F887803B32ECEF19900 PUSH1 0x0 SHL PUSH2 0x3D59 JUMP JUMPDEST PUSH2 0x362B PUSH32 0xCF8DEB65E5FC2DFE3B03BC4ED178431BA01E51C5A1F1D020DC68D2004EFA7876 PUSH1 0x0 SHL PUSH2 0x3D59 JUMP JUMPDEST PUSH1 0xD PUSH1 0x0 DUP6 PUSH20 0xFFFFFFFFFFFFFFFFFFFFFFFFFFFFFFFFFFFFFFFF AND PUSH20 0xFFFFFFFFFFFFFFFFFFFFFFFFFFFFFFFFFFFFFFFF AND DUP2 MSTORE PUSH1 0x20 ADD SWAP1 DUP2 MSTORE PUSH1 0x20 ADD PUSH1 0x0 KECCAK256 PUSH1 0x0 SWAP1 SLOAD SWAP1 PUSH2 0x100 EXP SWAP1 DIV PUSH1 0xFF AND ISZERO DUP1 PUSH2 0x36CE JUMPI POP PUSH1 0xD PUSH1 0x0 DUP5 PUSH20 0xFFFFFFFFFFFFFFFFFFFFFFFFFFFFFFFFFFFFFFFF AND PUSH20 0xFFFFFFFFFFFFFFFFFFFFFFFFFFFFFFFFFFFFFFFF AND DUP2 MSTORE PUSH1 0x20 ADD SWAP1 DUP2 MSTORE PUSH1 0x20 ADD PUSH1 0x0 KECCAK256 PUSH1 0x0 SWAP1 SLOAD SWAP1 PUSH2 0x100 EXP SWAP1 DIV PUSH1 0xFF AND ISZERO JUMPDEST ISZERO PUSH2 0x386D JUMPI PUSH2 0x36FF PUSH32 0xEE74511D782791863B14DD42AB6A31AD70D6DA404CC7C73526721FF3D0185DA5 PUSH1 0x0 SHL PUSH2 0x3D59 JUMP JUMPDEST PUSH2 0x372B PUSH32 0xD77A7E6DA8D34A5656D9798E5C1A5DFC3F9B3F3C4D83F53F6BB82B1BC066BB41 PUSH1 0x0 SHL PUSH2 0x3D59 JUMP JUMPDEST PUSH2 0x3757 PUSH32 0xB8BDCCD8BD21B7FDA0F746D07413CA0658AD985D026EAF1E3B1EA10B5146440D PUSH1 0x0 SHL PUSH2 0x3D59 JUMP JUMPDEST PUSH1 0x9 PUSH1 0x0 SWAP1 SLOAD SWAP1 PUSH2 0x100 EXP SWAP1 DIV PUSH20 0xFFFFFFFFFFFFFFFFFFFFFFFFFFFFFFFFFFFFFFFF AND PUSH20 0xFFFFFFFFFFFFFFFFFFFFFFFFFFFFFFFFFFFFFFFF AND DUP4 PUSH20 0xFFFFFFFFFFFFFFFFFFFFFFFFFFFFFFFFFFFFFFFF AND EQ ISZERO PUSH2 0x383B JUMPI PUSH2 0x37D9 PUSH32 0x3BA0319B38CFBE6E4832DD29EEBCA59F530EE39E1AD7D372873466CD607EE573 PUSH1 0x0 SHL PUSH2 0x3D59 JUMP JUMPDEST PUSH2 0x3805 PUSH32 0x7F578CB08E39E8FC934142422FB9F5D1DE4D0DE8FB2C2B5399601ACD3978FAE6 PUSH1 0x0 SHL PUSH2 0x3D59 JUMP JUMPDEST PUSH2 0x3831 PUSH32 0xBA0CFBA50C7A2BCC7438B12453D456F0C96A52C198451701C6DCF639C5DB0822 PUSH1 0x0 SHL PUSH2 0x3D59 JUMP JUMPDEST PUSH1 0xC SLOAD SWAP1 POP PUSH2 0x3868 JUMP JUMPDEST PUSH2 0x3867 PUSH32 0x88D6B04DA6F31100D3E0C59651C91C01D39C367058179B9C86CEA4264BACA990 PUSH1 0x0 SHL PUSH2 0x3D59 JUMP JUMPDEST JUMPDEST PUSH2 0x389A JUMP JUMPDEST PUSH2 0x3899 PUSH32 0xC119F2E807BAE09EA6073B67F519EBB2A6EFD0C003B893D6293FD69A8E7B9715 PUSH1 0x0 SHL PUSH2 0x3D59 JUMP JUMPDEST JUMPDEST PUSH2 0x38C6 PUSH32 0x2818A3834E447A167422CBF2B00118813570AA76F4A9F84435158964867F14CC PUSH1 0x0 SHL PUSH2 0x3D59 JUMP JUMPDEST PUSH2 0x38F2 PUSH32 0x28ECB9A93087752A7AEC2097887AEC12E9A571C5EC76AD60F94B635927ABB0D4 PUSH1 0x0 SHL PUSH2 0x3D59 JUMP JUMPDEST PUSH1 0x0 DUP2 GT ISZERO PUSH2 0x3A63 JUMPI PUSH2 0x3927 PUSH32 0x64FF359C8CFB0E50332484850933A19369EBCFB21D9E57D4FE25730068403E77 PUSH1 0x0 SHL PUSH2 0x3D59 JUMP JUMPDEST PUSH2 0x3953 PUSH32 0x61BA160DC4BCFB5266A9966C187D29D20788CA52879FC2AF3C9C9780D9C4B03B PUSH1 0x0 SHL PUSH2 0x3D59 JUMP JUMPDEST PUSH2 0x397F PUSH32 0x5D541F27A5A2372779F327060051D1DADF89CDAE00AAC6554358BC176912A445 PUSH1 0x0 SHL PUSH2 0x3D59 JUMP JUMPDEST PUSH1 0x0 PUSH2 0x398B DUP4 DUP4 PUSH2 0x3FF9 JUMP JUMPDEST SWAP1 POP PUSH2 0x39B9 PUSH32 0xEEA4210F50B3FF0C83EB35AF2632A78B79B1AC16FEB325CF5FED6E91D82BC36F PUSH1 0x0 SHL PUSH2 0x3D59 JUMP JUMPDEST PUSH2 0x39E5 PUSH32 0x54B2F344E0DE0AF165D70FF1E84AAB963F259EB060D9F36EE9D2855B9899CD0F PUSH1 0x0 SHL PUSH2 0x3D59 JUMP JUMPDEST PUSH2 0x39F0 DUP6 ADDRESS DUP4 PUSH2 0x40A6 JUMP JUMPDEST PUSH2 0x3A1C PUSH32 0x9711B1C06C8A25E9B99904E4D592065372AB4655D00BB8B7C52CCBB8F5DC4267 PUSH1 0x0 SHL PUSH2 0x3D59 JUMP JUMPDEST PUSH2 0x3A48 PUSH32 0x55AFBDFEFB24AB319B2A7A86D87613C1F40681BBFB21A3E396138B7A6C7BCD9F PUSH1 0x0 SHL PUSH2 0x3D59 JUMP JUMPDEST PUSH2 0x3A5B DUP2 DUP5 PUSH2 0x4327 SWAP1 SWAP2 SWAP1 PUSH4 0xFFFFFFFF AND JUMP JUMPDEST SWAP3 POP POP PUSH2 0x3A90 JUMP JUMPDEST PUSH2 0x3A8F PUSH32 0x48D6D04818AA232157FBA296726362097BF6D8350B984FE990C13D9CF865F036 PUSH1 0x0 SHL PUSH2 0x3D59 JUMP JUMPDEST JUMPDEST PUSH2 0x3ABC PUSH32 0xAB855E124E713DE6169C5EBCA0CB18EB3C0C438BA9653F1161A3EEC924B8DE61 PUSH1 0x0 SHL PUSH2 0x3D59 JUMP JUMPDEST PUSH2 0x3AE8 PUSH32 0xCFF2E869C8052436B75F5E775B6DECE6819CDB1FEA36C9D9AA53CD6502DB630D PUSH1 0x0 SHL PUSH2 0x3D59 JUMP JUMPDEST PUSH2 0x3AF3 DUP5 DUP5 DUP5 PUSH2 0x40A6 JUMP JUMPDEST POP POP POP POP JUMP JUMPDEST PUSH2 0x3B03 DUP3 DUP3 PUSH2 0x10F7 JUMP JUMPDEST PUSH2 0x3B92 JUMPI PUSH2 0x3B28 DUP2 PUSH20 0xFFFFFFFFFFFFFFFFFFFFFFFFFFFFFFFFFFFFFFFF AND PUSH1 0x14 PUSH2 0x433D JUMP JUMPDEST PUSH2 0x3B36 DUP4 PUSH1 0x0 SHR PUSH1 0x20 PUSH2 0x433D JUMP JUMPDEST PUSH1 0x40 MLOAD PUSH1 0x20 ADD PUSH2 0x3B47 SWAP3 SWAP2 SWAP1 PUSH2 0x4C50 JUMP JUMPDEST PUSH1 0x40 MLOAD PUSH1 0x20 DUP2 DUP4 SUB SUB DUP2 MSTORE SWAP1 PUSH1 0x40 MSTORE PUSH1 0x40 MLOAD PUSH32 0x8C379A000000000000000000000000000000000000000000000000000000000 DUP2 MSTORE PUSH1 0x4 ADD PUSH2 0x3B89 SWAP2 SWAP1 PUSH2 0x4D1F JUMP JUMPDEST PUSH1 0x40 MLOAD DUP1 SWAP2 SUB SWAP1 REVERT JUMPDEST POP POP JUMP JUMPDEST PUSH2 0x3BA0 DUP3 DUP3 PUSH2 0x10F7 JUMP JUMPDEST PUSH2 0x3C73 JUMPI PUSH1 0x1 PUSH1 0x6 PUSH1 0x0 DUP5 DUP2 MSTORE PUSH1 0x20 ADD SWAP1 DUP2 MSTORE PUSH1 0x20 ADD PUSH1 0x0 KECCAK256 PUSH1 0x0 ADD PUSH1 0x0 DUP4 PUSH20 0xFFFFFFFFFFFFFFFFFFFFFFFFFFFFFFFFFFFFFFFF AND PUSH20 0xFFFFFFFFFFFFFFFFFFFFFFFFFFFFFFFFFFFFFFFF AND DUP2 MSTORE PUSH1 0x20 ADD SWAP1 DUP2 MSTORE PUSH1 0x20 ADD PUSH1 0x0 KECCAK256 PUSH1 0x0 PUSH2 0x100 EXP DUP2 SLOAD DUP2 PUSH1 0xFF MUL NOT AND SWAP1 DUP4 ISZERO ISZERO MUL OR SWAP1 SSTORE POP PUSH2 0x3C18 PUSH2 0x3047 JUMP JUMPDEST PUSH20 0xFFFFFFFFFFFFFFFFFFFFFFFFFFFFFFFFFFFFFFFF AND DUP2 PUSH20 0xFFFFFFFFFFFFFFFFFFFFFFFFFFFFFFFFFFFFFFFF AND DUP4 PUSH32 0x2F8788117E7EFF1D82E926EC794901D17C78024A50270940304540A733656F0D PUSH1 0x40 MLOAD PUSH1 0x40 MLOAD DUP1 SWAP2 SUB SWAP1 LOG4 JUMPDEST POP POP JUMP JUMPDEST PUSH2 0x3C81 DUP3 DUP3 PUSH2 0x10F7 JUMP JUMPDEST ISZERO PUSH2 0x3D55 JUMPI PUSH1 0x0 PUSH1 0x6 PUSH1 0x0 DUP5 DUP2 MSTORE PUSH1 0x20 ADD SWAP1 DUP2 MSTORE PUSH1 0x20 ADD PUSH1 0x0 KECCAK256 PUSH1 0x0 ADD PUSH1 0x0 DUP4 PUSH20 0xFFFFFFFFFFFFFFFFFFFFFFFFFFFFFFFFFFFFFFFF AND PUSH20 0xFFFFFFFFFFFFFFFFFFFFFFFFFFFFFFFFFFFFFFFF AND DUP2 MSTORE PUSH1 0x20 ADD SWAP1 DUP2 MSTORE PUSH1 0x20 ADD PUSH1 0x0 KECCAK256 PUSH1 0x0 PUSH2 0x100 EXP DUP2 SLOAD DUP2 PUSH1 0xFF MUL NOT AND SWAP1 DUP4 ISZERO ISZERO MUL OR SWAP1 SSTORE POP PUSH2 0x3CFA PUSH2 0x3047 JUMP JUMPDEST PUSH20 0xFFFFFFFFFFFFFFFFFFFFFFFFFFFFFFFFFFFFFFFF AND DUP2 PUSH20 0xFFFFFFFFFFFFFFFFFFFFFFFFFFFFFFFFFFFFFFFF AND DUP4 PUSH32 0xF6391F5C32D9C69D2A47EA670B442974B53935D1EDC7FD64EB21E047A839171B PUSH1 0x40 MLOAD PUSH1 0x40 MLOAD DUP1 SWAP2 SUB SWAP1 LOG4 JUMPDEST POP POP JUMP JUMPDEST POP JUMP JUMPDEST PUSH1 0x0 PUSH20 0xFFFFFFFFFFFFFFFFFFFFFFFFFFFFFFFFFFFFFFFF AND DUP3 PUSH20 0xFFFFFFFFFFFFFFFFFFFFFFFFFFFFFFFFFFFFFFFF AND EQ ISZERO PUSH2 0x3DCC JUMPI PUSH1 0x40 MLOAD PUSH32 0x8C379A000000000000000000000000000000000000000000000000000000000 DUP2 MSTORE PUSH1 0x4 ADD PUSH2 0x3DC3 SWAP1 PUSH2 0x4EA1 JUMP JUMPDEST PUSH1 0x40 MLOAD DUP1 SWAP2 SUB SWAP1 REVERT JUMPDEST PUSH2 0x3DD8 DUP3 PUSH1 0x0 DUP4 PUSH2 0x4579 JUMP JUMPDEST PUSH1 0x0 DUP1 PUSH1 0x0 DUP5 PUSH20 0xFFFFFFFFFFFFFFFFFFFFFFFFFFFFFFFFFFFFFFFF AND PUSH20 0xFFFFFFFFFFFFFFFFFFFFFFFFFFFFFFFFFFFFFFFF AND DUP2 MSTORE PUSH1 0x20 ADD SWAP1 DUP2 MSTORE PUSH1 0x20 ADD PUSH1 0x0 KECCAK256 SLOAD SWAP1 POP DUP2 DUP2 LT ISZERO PUSH2 0x3E5E JUMPI PUSH1 0x40 MLOAD PUSH32 0x8C379A000000000000000000000000000000000000000000000000000000000 DUP2 MSTORE PUSH1 0x4 ADD PUSH2 0x3E55 SWAP1 PUSH2 0x4D81 JUMP JUMPDEST PUSH1 0x40 MLOAD DUP1 SWAP2 SUB SWAP1 REVERT JUMPDEST DUP2 DUP2 SUB PUSH1 0x0 DUP1 DUP6 PUSH20 0xFFFFFFFFFFFFFFFFFFFFFFFFFFFFFFFFFFFFFFFF AND PUSH20 0xFFFFFFFFFFFFFFFFFFFFFFFFFFFFFFFFFFFFFFFF AND DUP2 MSTORE PUSH1 0x20 ADD SWAP1 DUP2 MSTORE PUSH1 0x20 ADD PUSH1 0x0 KECCAK256 DUP2 SWAP1 SSTORE POP DUP2 PUSH1 0x2 PUSH1 0x0 DUP3 DUP3 SLOAD PUSH2 0x3EB5 SWAP2 SWAP1 PUSH2 0x51BB JUMP JUMPDEST SWAP3 POP POP DUP2 SWAP1 SSTORE POP PUSH1 0x0 PUSH20 0xFFFFFFFFFFFFFFFFFFFFFFFFFFFFFFFFFFFFFFFF AND DUP4 PUSH20 0xFFFFFFFFFFFFFFFFFFFFFFFFFFFFFFFFFFFFFFFF AND PUSH32 0xDDF252AD1BE2C89B69C2B068FC378DAA952BA7F163C4A11628F55A4DF523B3EF DUP5 PUSH1 0x40 MLOAD PUSH2 0x3F1A SWAP2 SWAP1 PUSH2 0x4FC1 JUMP JUMPDEST PUSH1 0x40 MLOAD DUP1 SWAP2 SUB SWAP1 LOG3 PUSH2 0x3F2E DUP4 PUSH1 0x0 DUP5 PUSH2 0x457E JUMP JUMPDEST POP POP POP JUMP JUMPDEST PUSH1 0x0 PUSH1 0x5 PUSH1 0x0 SWAP1 SLOAD SWAP1 PUSH2 0x100 EXP SWAP1 DIV PUSH20 0xFFFFFFFFFFFFFFFFFFFFFFFFFFFFFFFFFFFFFFFF AND SWAP1 POP DUP2 PUSH1 0x5 PUSH1 0x0 PUSH2 0x100 EXP DUP2 SLOAD DUP2 PUSH20 0xFFFFFFFFFFFFFFFFFFFFFFFFFFFFFFFFFFFFFFFF MUL NOT AND SWAP1 DUP4 PUSH20 0xFFFFFFFFFFFFFFFFFFFFFFFFFFFFFFFFFFFFFFFF AND MUL OR SWAP1 SSTORE POP DUP2 PUSH20 0xFFFFFFFFFFFFFFFFFFFFFFFFFFFFFFFFFFFFFFFF AND DUP2 PUSH20 0xFFFFFFFFFFFFFFFFFFFFFFFFFFFFFFFFFFFFFFFF AND PUSH32 0x8BE0079C531659141344CD1FD0A4F28419497F9722A3DAAFE3B4186F6B6457E0 PUSH1 0x40 MLOAD PUSH1 0x40 MLOAD DUP1 SWAP2 SUB SWAP1 LOG3 POP POP JUMP JUMPDEST PUSH1 0x0 PUSH2 0x4027 PUSH32 0x1083802C199CCF3B199E4B4FC079DCC57D881F3E55B32C2C3E39D0B486545D4C PUSH1 0x0 SHL PUSH2 0x3D59 JUMP JUMPDEST PUSH2 0x4053 PUSH32 0x46335D69D91E95C1F260086C57556E654E09EB434A6A778368CB9232A292C200 PUSH1 0x0 SHL PUSH2 0x3D59 JUMP JUMPDEST PUSH2 0x407F PUSH32 0xD7440CD80B0E8B2676A63A8A099128530853EA3E7B2F2DA192A2A845DDB8FE8 PUSH1 0x0 SHL PUSH2 0x3D59 JUMP JUMPDEST PUSH2 0x409E PUSH1 0x64 DUP4 DUP6 PUSH2 0x4090 SWAP2 SWAP1 PUSH2 0x5161 JUMP JUMPDEST PUSH2 0x4583 SWAP1 SWAP2 SWAP1 PUSH4 0xFFFFFFFF AND JUMP JUMPDEST SWAP1 POP SWAP3 SWAP2 POP POP JUMP JUMPDEST PUSH1 0x0 PUSH20 0xFFFFFFFFFFFFFFFFFFFFFFFFFFFFFFFFFFFFFFFF AND DUP4 PUSH20 0xFFFFFFFFFFFFFFFFFFFFFFFFFFFFFFFFFFFFFFFF AND EQ ISZERO PUSH2 0x4116 JUMPI PUSH1 0x40 MLOAD PUSH32 0x8C379A000000000000000000000000000000000000000000000000000000000 DUP2 MSTORE PUSH1 0x4 ADD PUSH2 0x410D SWAP1 PUSH2 0x4EE1 JUMP JUMPDEST PUSH1 0x40 MLOAD DUP1 SWAP2 SUB SWAP1 REVERT JUMPDEST PUSH1 0x0 PUSH20 0xFFFFFFFFFFFFFFFFFFFFFFFFFFFFFFFFFFFFFFFF AND DUP3 PUSH20 0xFFFFFFFFFFFFFFFFFFFFFFFFFFFFFFFFFFFFFFFF AND EQ ISZERO PUSH2 0x4186 JUMPI PUSH1 0x40 MLOAD PUSH32 0x8C379A000000000000000000000000000000000000000000000000000000000 DUP2 MSTORE PUSH1 0x4 ADD PUSH2 0x417D SWAP1 PUSH2 0x4D61 JUMP JUMPDEST PUSH1 0x40 MLOAD DUP1 SWAP2 SUB SWAP1 REVERT JUMPDEST PUSH2 0x4191 DUP4 DUP4 DUP4 PUSH2 0x4579 JUMP JUMPDEST PUSH1 0x0 DUP1 PUSH1 0x0 DUP6 PUSH20 0xFFFFFFFFFFFFFFFFFFFFFFFFFFFFFFFFFFFFFFFF AND PUSH20 0xFFFFFFFFFFFFFFFFFFFFFFFFFFFFFFFFFFFFFFFF AND DUP2 MSTORE PUSH1 0x20 ADD SWAP1 DUP2 MSTORE PUSH1 0x20 ADD PUSH1 0x0 KECCAK256 SLOAD SWAP1 POP DUP2 DUP2 LT ISZERO PUSH2 0x4217 JUMPI PUSH1 0x40 MLOAD PUSH32 0x8C379A000000000000000000000000000000000000000000000000000000000 DUP2 MSTORE PUSH1 0x4 ADD PUSH2 0x420E SWAP1 PUSH2 0x4DE1 JUMP JUMPDEST PUSH1 0x40 MLOAD DUP1 SWAP2 SUB SWAP1 REVERT JUMPDEST DUP2 DUP2 SUB PUSH1 0x0 DUP1 DUP7 PUSH20 0xFFFFFFFFFFFFFFFFFFFFFFFFFFFFFFFFFFFFFFFF AND PUSH20 0xFFFFFFFFFFFFFFFFFFFFFFFFFFFFFFFFFFFFFFFF AND DUP2 MSTORE PUSH1 0x20 ADD SWAP1 DUP2 MSTORE PUSH1 0x20 ADD PUSH1 0x0 KECCAK256 DUP2 SWAP1 SSTORE POP DUP2 PUSH1 0x0 DUP1 DUP6 PUSH20 0xFFFFFFFFFFFFFFFFFFFFFFFFFFFFFFFFFFFFFFFF AND PUSH20 0xFFFFFFFFFFFFFFFFFFFFFFFFFFFFFFFFFFFFFFFF AND DUP2 MSTORE PUSH1 0x20 ADD SWAP1 DUP2 MSTORE PUSH1 0x20 ADD PUSH1 0x0 KECCAK256 PUSH1 0x0 DUP3 DUP3 SLOAD PUSH2 0x42AA SWAP2 SWAP1 PUSH2 0x50DA JUMP JUMPDEST SWAP3 POP POP DUP2 SWAP1 SSTORE POP DUP3 PUSH20 0xFFFFFFFFFFFFFFFFFFFFFFFFFFFFFFFFFFFFFFFF AND DUP5 PUSH20 0xFFFFFFFFFFFFFFFFFFFFFFFFFFFFFFFFFFFFFFFF AND PUSH32 0xDDF252AD1BE2C89B69C2B068FC378DAA952BA7F163C4A11628F55A4DF523B3EF DUP5 PUSH1 0x40 MLOAD PUSH2 0x430E SWAP2 SWAP1 PUSH2 0x4FC1 JUMP JUMPDEST PUSH1 0x40 MLOAD DUP1 SWAP2 SUB SWAP1 LOG3 PUSH2 0x4321 DUP5 DUP5 DUP5 PUSH2 0x457E JUMP JUMPDEST POP POP POP POP JUMP JUMPDEST PUSH1 0x0 DUP2 DUP4 PUSH2 0x4335 SWAP2 SWAP1 PUSH2 0x51BB JUMP JUMPDEST SWAP1 POP SWAP3 SWAP2 POP POP JUMP JUMPDEST PUSH1 0x60 PUSH1 0x0 PUSH1 0x2 DUP4 PUSH1 0x2 PUSH2 0x4350 SWAP2 SWAP1 PUSH2 0x5161 JUMP JUMPDEST PUSH2 0x435A SWAP2 SWAP1 PUSH2 0x50DA JUMP JUMPDEST PUSH8 0xFFFFFFFFFFFFFFFF DUP2 GT ISZERO PUSH2 0x4373 JUMPI PUSH2 0x4372 PUSH2 0x540D JUMP JUMPDEST JUMPDEST PUSH1 0x40 MLOAD SWAP1 DUP1 DUP3 MSTORE DUP1 PUSH1 0x1F ADD PUSH1 0x1F NOT AND PUSH1 0x20 ADD DUP3 ADD PUSH1 0x40 MSTORE DUP1 ISZERO PUSH2 0x43A5 JUMPI DUP2 PUSH1 0x20 ADD PUSH1 0x1 DUP3 MUL DUP1 CALLDATASIZE DUP4 CALLDATACOPY DUP1 DUP3 ADD SWAP2 POP POP SWAP1 POP JUMPDEST POP SWAP1 POP PUSH32 0x3000000000000000000000000000000000000000000000000000000000000000 DUP2 PUSH1 0x0 DUP2 MLOAD DUP2 LT PUSH2 0x43DD JUMPI PUSH2 0x43DC PUSH2 0x53DE JUMP JUMPDEST JUMPDEST PUSH1 0x20 ADD ADD SWAP1 PUSH31 0xFFFFFFFFFFFFFFFFFFFFFFFFFFFFFFFFFFFFFFFFFFFFFFFFFFFFFFFFFFFFFF NOT AND SWAP1 DUP2 PUSH1 0x0 BYTE SWAP1 MSTORE8 POP PUSH32 0x7800000000000000000000000000000000000000000000000000000000000000 DUP2 PUSH1 0x1 DUP2 MLOAD DUP2 LT PUSH2 0x4441 JUMPI PUSH2 0x4440 PUSH2 0x53DE JUMP JUMPDEST JUMPDEST PUSH1 0x20 ADD ADD SWAP1 PUSH31 0xFFFFFFFFFFFFFFFFFFFFFFFFFFFFFFFFFFFFFFFFFFFFFFFFFFFFFFFFFFFFFF NOT AND SWAP1 DUP2 PUSH1 0x0 BYTE SWAP1 MSTORE8 POP PUSH1 0x0 PUSH1 0x1 DUP5 PUSH1 0x2 PUSH2 0x4481 SWAP2 SWAP1 PUSH2 0x5161 JUMP JUMPDEST PUSH2 0x448B SWAP2 SWAP1 PUSH2 0x50DA JUMP JUMPDEST SWAP1 POP JUMPDEST PUSH1 0x1 DUP2 GT ISZERO PUSH2 0x452B JUMPI PUSH32 0x3031323334353637383961626364656600000000000000000000000000000000 PUSH1 0xF DUP7 AND PUSH1 0x10 DUP2 LT PUSH2 0x44CD JUMPI PUSH2 0x44CC PUSH2 0x53DE JUMP JUMPDEST JUMPDEST BYTE PUSH1 0xF8 SHL DUP3 DUP3 DUP2 MLOAD DUP2 LT PUSH2 0x44E4 JUMPI PUSH2 0x44E3 PUSH2 0x53DE JUMP JUMPDEST JUMPDEST PUSH1 0x20 ADD ADD SWAP1 PUSH31 0xFFFFFFFFFFFFFFFFFFFFFFFFFFFFFFFFFFFFFFFFFFFFFFFFFFFFFFFFFFFFFF NOT AND SWAP1 DUP2 PUSH1 0x0 BYTE SWAP1 MSTORE8 POP PUSH1 0x4 DUP6 SWAP1 SHR SWAP5 POP DUP1 PUSH2 0x4524 SWAP1 PUSH2 0x52F5 JUMP JUMPDEST SWAP1 POP PUSH2 0x448E JUMP JUMPDEST POP PUSH1 0x0 DUP5 EQ PUSH2 0x456F JUMPI PUSH1 0x40 MLOAD PUSH32 0x8C379A000000000000000000000000000000000000000000000000000000000 DUP2 MSTORE PUSH1 0x4 ADD PUSH2 0x4566 SWAP1 PUSH2 0x4D41 JUMP JUMPDEST PUSH1 0x40 MLOAD DUP1 SWAP2 SUB SWAP1 REVERT JUMPDEST DUP1 SWAP2 POP POP SWAP3 SWAP2 POP POP JUMP JUMPDEST POP POP POP JUMP JUMPDEST POP POP POP JUMP JUMPDEST PUSH1 0x0 DUP2 DUP4 PUSH2 0x4591 SWAP2 SWAP1 PUSH2 0x5130 JUMP JUMPDEST SWAP1 POP SWAP3 SWAP2 POP POP JUMP JUMPDEST PUSH1 0x0 DUP2 CALLDATALOAD SWAP1 POP PUSH2 0x45A8 DUP2 PUSH2 0x59C6 JUMP JUMPDEST SWAP3 SWAP2 POP POP JUMP JUMPDEST PUSH1 0x0 DUP2 MLOAD SWAP1 POP PUSH2 0x45BD DUP2 PUSH2 0x59C6 JUMP JUMPDEST SWAP3 SWAP2 POP POP JUMP JUMPDEST PUSH1 0x0 DUP2 CALLDATALOAD SWAP1 POP PUSH2 0x45D2 DUP2 PUSH2 0x59DD JUMP JUMPDEST SWAP3 SWAP2 POP POP JUMP JUMPDEST PUSH1 0x0 DUP2 CALLDATALOAD SWAP1 POP PUSH2 0x45E7 DUP2 PUSH2 0x59F4 JUMP JUMPDEST SWAP3 SWAP2 POP POP JUMP JUMPDEST PUSH1 0x0 DUP2 CALLDATALOAD SWAP1 POP PUSH2 0x45FC DUP2 PUSH2 0x5A0B JUMP JUMPDEST SWAP3 SWAP2 POP POP JUMP JUMPDEST PUSH1 0x0 PUSH1 0x20 DUP3 DUP5 SUB SLT ISZERO PUSH2 0x4618 JUMPI PUSH2 0x4617 PUSH2 0x543C JUMP JUMPDEST JUMPDEST PUSH1 0x0 PUSH2 0x4626 DUP5 DUP3 DUP6 ADD PUSH2 0x4599 JUMP JUMPDEST SWAP2 POP POP SWAP3 SWAP2 POP POP JUMP JUMPDEST PUSH1 0x0 PUSH1 0x20 DUP3 DUP5 SUB SLT ISZERO PUSH2 0x4645 JUMPI PUSH2 0x4644 PUSH2 0x543C JUMP JUMPDEST JUMPDEST PUSH1 0x0 PUSH2 0x4653 DUP5 DUP3 DUP6 ADD PUSH2 0x45AE JUMP JUMPDEST SWAP2 POP POP SWAP3 SWAP2 POP POP JUMP JUMPDEST PUSH1 0x0 DUP1 PUSH1 0x40 DUP4 DUP6 SUB SLT ISZERO PUSH2 0x4673 JUMPI PUSH2 0x4672 PUSH2 0x543C JUMP JUMPDEST JUMPDEST PUSH1 0x0 PUSH2 0x4681 DUP6 DUP3 DUP7 ADD PUSH2 0x4599 JUMP JUMPDEST SWAP3 POP POP PUSH1 0x20 PUSH2 0x4692 DUP6 DUP3 DUP7 ADD PUSH2 0x4599 JUMP JUMPDEST SWAP2 POP POP SWAP3 POP SWAP3 SWAP1 POP JUMP JUMPDEST PUSH1 0x0 DUP1 PUSH1 0x0 PUSH1 0x60 DUP5 DUP7 SUB SLT ISZERO PUSH2 0x46B5 JUMPI PUSH2 0x46B4 PUSH2 0x543C JUMP JUMPDEST JUMPDEST PUSH1 0x0 PUSH2 0x46C3 DUP7 DUP3 DUP8 ADD PUSH2 0x4599 JUMP JUMPDEST SWAP4 POP POP PUSH1 0x20 PUSH2 0x46D4 DUP7 DUP3 DUP8 ADD PUSH2 0x4599 JUMP JUMPDEST SWAP3 POP POP PUSH1 0x40 PUSH2 0x46E5 DUP7 DUP3 DUP8 ADD PUSH2 0x45ED JUMP JUMPDEST SWAP2 POP POP SWAP3 POP SWAP3 POP SWAP3 JUMP JUMPDEST PUSH1 0x0 DUP1 PUSH1 0x40 DUP4 DUP6 SUB SLT ISZERO PUSH2 0x4706 JUMPI PUSH2 0x4705 PUSH2 0x543C JUMP JUMPDEST JUMPDEST PUSH1 0x0 PUSH2 0x4714 DUP6 DUP3 DUP7 ADD PUSH2 0x4599 JUMP JUMPDEST SWAP3 POP POP PUSH1 0x20 PUSH2 0x4725 DUP6 DUP3 DUP7 ADD PUSH2 0x45ED JUMP JUMPDEST SWAP2 POP POP SWAP3 POP SWAP3 SWAP1 POP JUMP JUMPDEST PUSH1 0x0 PUSH1 0x20 DUP3 DUP5 SUB SLT ISZERO PUSH2 0x4745 JUMPI PUSH2 0x4744 PUSH2 0x543C JUMP JUMPDEST JUMPDEST PUSH1 0x0 PUSH2 0x4753 DUP5 DUP3 DUP6 ADD PUSH2 0x45C3 JUMP JUMPDEST SWAP2 POP POP SWAP3 SWAP2 POP POP JUMP JUMPDEST PUSH1 0x0 DUP1 PUSH1 0x40 DUP4 DUP6 SUB SLT ISZERO PUSH2 0x4773 JUMPI PUSH2 0x4772 PUSH2 0x543C JUMP JUMPDEST JUMPDEST PUSH1 0x0 PUSH2 0x4781 DUP6 DUP3 DUP7 ADD PUSH2 0x45C3 JUMP JUMPDEST SWAP3 POP POP PUSH1 0x20 PUSH2 0x4792 DUP6 DUP3 DUP7 ADD PUSH2 0x4599 JUMP JUMPDEST SWAP2 POP POP SWAP3 POP SWAP3 SWAP1 POP JUMP JUMPDEST PUSH1 0x0 PUSH1 0x20 DUP3 DUP5 SUB SLT ISZERO PUSH2 0x47B2 JUMPI PUSH2 0x47B1 PUSH2 0x543C JUMP JUMPDEST JUMPDEST PUSH1 0x0 PUSH2 0x47C0 DUP5 DUP3 DUP6 ADD PUSH2 0x45D8 JUMP JUMPDEST SWAP2 POP POP SWAP3 SWAP2 POP POP JUMP JUMPDEST PUSH1 0x0 PUSH1 0x20 DUP3 DUP5 SUB SLT ISZERO PUSH2 0x47DF JUMPI PUSH2 0x47DE PUSH2 0x543C JUMP JUMPDEST JUMPDEST PUSH1 0x0 PUSH2 0x47ED DUP5 DUP3 DUP6 ADD PUSH2 0x45ED JUMP JUMPDEST SWAP2 POP POP SWAP3 SWAP2 POP POP JUMP JUMPDEST PUSH1 0x0 PUSH2 0x4802 DUP4 DUP4 PUSH2 0x480E JUMP JUMPDEST PUSH1 0x20 DUP4 ADD SWAP1 POP SWAP3 SWAP2 POP POP JUMP JUMPDEST PUSH2 0x4817 DUP2 PUSH2 0x51EF JUMP JUMPDEST DUP3 MSTORE POP POP JUMP JUMPDEST PUSH2 0x4826 DUP2 PUSH2 0x51EF JUMP JUMPDEST DUP3 MSTORE POP POP JUMP JUMPDEST PUSH1 0x0 PUSH2 0x4837 DUP3 PUSH2 0x508A JUMP JUMPDEST PUSH2 0x4841 DUP2 DUP6 PUSH2 0x50AD JUMP JUMPDEST SWAP4 POP PUSH2 0x484C DUP4 PUSH2 0x507A JUMP JUMPDEST DUP1 PUSH1 0x0 JUMPDEST DUP4 DUP2 LT ISZERO PUSH2 0x487D JUMPI DUP2 MLOAD PUSH2 0x4864 DUP9 DUP3 PUSH2 0x47F6 JUMP JUMPDEST SWAP8 POP PUSH2 0x486F DUP4 PUSH2 0x50A0 JUMP JUMPDEST SWAP3 POP POP PUSH1 0x1 DUP2 ADD SWAP1 POP PUSH2 0x4850 JUMP JUMPDEST POP DUP6 SWAP4 POP POP POP POP SWAP3 SWAP2 POP POP JUMP JUMPDEST PUSH2 0x4893 DUP2 PUSH2 0x5201 JUMP JUMPDEST DUP3 MSTORE POP POP JUMP JUMPDEST PUSH2 0x48A2 DUP2 PUSH2 0x520D JUMP JUMPDEST DUP3 MSTORE POP POP JUMP JUMPDEST PUSH2 0x48B1 DUP2 PUSH2 0x527A JUMP JUMPDEST DUP3 MSTORE POP POP JUMP JUMPDEST PUSH2 0x48C0 DUP2 PUSH2 0x528C JUMP JUMPDEST DUP3 MSTORE POP POP JUMP JUMPDEST PUSH1 0x0 PUSH2 0x48D1 DUP3 PUSH2 0x5095 JUMP JUMPDEST PUSH2 0x48DB DUP2 DUP6 PUSH2 0x50BE JUMP JUMPDEST SWAP4 POP PUSH2 0x48EB DUP2 DUP6 PUSH1 0x20 DUP7 ADD PUSH2 0x52C2 JUMP JUMPDEST PUSH2 0x48F4 DUP2 PUSH2 0x5441 JUMP JUMPDEST DUP5 ADD SWAP2 POP POP SWAP3 SWAP2 POP POP JUMP JUMPDEST PUSH1 0x0 PUSH2 0x490A DUP3 PUSH2 0x5095 JUMP JUMPDEST PUSH2 0x4914 DUP2 DUP6 PUSH2 0x50CF JUMP JUMPDEST SWAP4 POP PUSH2 0x4924 DUP2 DUP6 PUSH1 0x20 DUP7 ADD PUSH2 0x52C2 JUMP JUMPDEST DUP1 DUP5 ADD SWAP2 POP POP SWAP3 SWAP2 POP POP JUMP JUMPDEST PUSH1 0x0 PUSH2 0x493D PUSH1 0x20 DUP4 PUSH2 0x50BE JUMP JUMPDEST SWAP2 POP PUSH2 0x4948 DUP3 PUSH2 0x5452 JUMP JUMPDEST PUSH1 0x20 DUP3 ADD SWAP1 POP SWAP2 SWAP1 POP JUMP JUMPDEST PUSH1 0x0 PUSH2 0x4960 PUSH1 0x23 DUP4 PUSH2 0x50BE JUMP JUMPDEST SWAP2 POP PUSH2 0x496B DUP3 PUSH2 0x547B JUMP JUMPDEST PUSH1 0x40 DUP3 ADD SWAP1 POP SWAP2 SWAP1 POP JUMP JUMPDEST PUSH1 0x0 PUSH2 0x4983 PUSH1 0x22 DUP4 PUSH2 0x50BE JUMP JUMPDEST SWAP2 POP PUSH2 0x498E DUP3 PUSH2 0x54CA JUMP JUMPDEST PUSH1 0x40 DUP3 ADD SWAP1 POP SWAP2 SWAP1 POP JUMP JUMPDEST PUSH1 0x0 PUSH2 0x49A6 PUSH1 0x26 DUP4 PUSH2 0x50BE JUMP JUMPDEST SWAP2 POP PUSH2 0x49B1 DUP3 PUSH2 0x5519 JUMP JUMPDEST PUSH1 0x40 DUP3 ADD SWAP1 POP SWAP2 SWAP1 POP JUMP JUMPDEST PUSH1 0x0 PUSH2 0x49C9 PUSH1 0x22 DUP4 PUSH2 0x50BE JUMP JUMPDEST SWAP2 POP PUSH2 0x49D4 DUP3 PUSH2 0x5568 JUMP JUMPDEST PUSH1 0x40 DUP3 ADD SWAP1 POP SWAP2 SWAP1 POP JUMP JUMPDEST PUSH1 0x0 PUSH2 0x49EC PUSH1 0x26 DUP4 PUSH2 0x50BE JUMP JUMPDEST SWAP2 POP PUSH2 0x49F7 DUP3 PUSH2 0x55B7 JUMP JUMPDEST PUSH1 0x40 DUP3 ADD SWAP1 POP SWAP2 SWAP1 POP JUMP JUMPDEST PUSH1 0x0 PUSH2 0x4A0F PUSH1 0x20 DUP4 PUSH2 0x50BE JUMP JUMPDEST SWAP2 POP PUSH2 0x4A1A DUP3 PUSH2 0x5606 JUMP JUMPDEST PUSH1 0x20 DUP3 ADD SWAP1 POP SWAP2 SWAP1 POP JUMP JUMPDEST PUSH1 0x0 PUSH2 0x4A32 PUSH1 0x28 DUP4 PUSH2 0x50BE JUMP JUMPDEST SWAP2 POP PUSH2 0x4A3D DUP3 PUSH2 0x562F JUMP JUMPDEST PUSH1 0x40 DUP3 ADD SWAP1 POP SWAP2 SWAP1 POP JUMP JUMPDEST PUSH1 0x0 PUSH2 0x4A55 PUSH1 0x20 DUP4 PUSH2 0x50BE JUMP JUMPDEST SWAP2 POP PUSH2 0x4A60 DUP3 PUSH2 0x567E JUMP JUMPDEST PUSH1 0x20 DUP3 ADD SWAP1 POP SWAP2 SWAP1 POP JUMP JUMPDEST PUSH1 0x0 PUSH2 0x4A78 PUSH1 0x25 DUP4 PUSH2 0x50BE JUMP JUMPDEST SWAP2 POP PUSH2 0x4A83 DUP3 PUSH2 0x56A7 JUMP JUMPDEST PUSH1 0x40 DUP3 ADD SWAP1 POP SWAP2 SWAP1 POP JUMP JUMPDEST PUSH1 0x0 PUSH2 0x4A9B PUSH1 0x29 DUP4 PUSH2 0x50BE JUMP JUMPDEST SWAP2 POP PUSH2 0x4AA6 DUP3 PUSH2 0x56F6 JUMP JUMPDEST PUSH1 0x40 DUP3 ADD SWAP1 POP SWAP2 SWAP1 POP JUMP JUMPDEST PUSH1 0x0 PUSH2 0x4ABE PUSH1 0x21 DUP4 PUSH2 0x50BE JUMP JUMPDEST SWAP2 POP PUSH2 0x4AC9 DUP3 PUSH2 0x5745 JUMP JUMPDEST PUSH1 0x40 DUP3 ADD SWAP1 POP SWAP2 SWAP1 POP JUMP JUMPDEST PUSH1 0x0 PUSH2 0x4AE1 PUSH1 0x20 DUP4 PUSH2 0x50BE JUMP JUMPDEST SWAP2 POP PUSH2 0x4AEC DUP3 PUSH2 0x5794 JUMP JUMPDEST PUSH1 0x20 DUP3 ADD SWAP1 POP SWAP2 SWAP1 POP JUMP JUMPDEST PUSH1 0x0 PUSH2 0x4B04 PUSH1 0x25 DUP4 PUSH2 0x50BE JUMP JUMPDEST SWAP2 POP PUSH2 0x4B0F DUP3 PUSH2 0x57BD JUMP JUMPDEST PUSH1 0x40 DUP3 ADD SWAP1 POP SWAP2 SWAP1 POP JUMP JUMPDEST PUSH1 0x0 PUSH2 0x4B27 PUSH1 0x24 DUP4 PUSH2 0x50BE JUMP JUMPDEST SWAP2 POP PUSH2 0x4B32 DUP3 PUSH2 0x580C JUMP JUMPDEST PUSH1 0x40 DUP3 ADD SWAP1 POP SWAP2 SWAP1 POP JUMP JUMPDEST PUSH1 0x0 PUSH2 0x4B4A PUSH1 0x1D DUP4 PUSH2 0x50BE JUMP JUMPDEST SWAP2 POP PUSH2 0x4B55 DUP3 PUSH2 0x585B JUMP JUMPDEST PUSH1 0x20 DUP3 ADD SWAP1 POP SWAP2 SWAP1 POP JUMP JUMPDEST PUSH1 0x0 PUSH2 0x4B6D PUSH1 0x17 DUP4 PUSH2 0x50CF JUMP JUMPDEST SWAP2 POP PUSH2 0x4B78 DUP3 PUSH2 0x5884 JUMP JUMPDEST PUSH1 0x17 DUP3 ADD SWAP1 POP SWAP2 SWAP1 POP JUMP JUMPDEST PUSH1 0x0 PUSH2 0x4B90 PUSH1 0x14 DUP4 PUSH2 0x50BE JUMP JUMPDEST SWAP2 POP PUSH2 0x4B9B DUP3 PUSH2 0x58AD JUMP JUMPDEST PUSH1 0x20 DUP3 ADD SWAP1 POP SWAP2 SWAP1 POP JUMP JUMPDEST PUSH1 0x0 PUSH2 0x4BB3 PUSH1 0x15 DUP4 PUSH2 0x50BE JUMP JUMPDEST SWAP2 POP PUSH2 0x4BBE DUP3 PUSH2 0x58D6 JUMP JUMPDEST PUSH1 0x20 DUP3 ADD SWAP1 POP SWAP2 SWAP1 POP JUMP JUMPDEST PUSH1 0x0 PUSH2 0x4BD6 PUSH1 0x25 DUP4 PUSH2 0x50BE JUMP JUMPDEST SWAP2 POP PUSH2 0x4BE1 DUP3 PUSH2 0x58FF JUMP JUMPDEST PUSH1 0x40 DUP3 ADD SWAP1 POP SWAP2 SWAP1 POP JUMP JUMPDEST PUSH1 0x0 PUSH2 0x4BF9 PUSH1 0x11 DUP4 PUSH2 0x50CF JUMP JUMPDEST SWAP2 POP PUSH2 0x4C04 DUP3 PUSH2 0x594E JUMP JUMPDEST PUSH1 0x11 DUP3 ADD SWAP1 POP SWAP2 SWAP1 POP JUMP JUMPDEST PUSH1 0x0 PUSH2 0x4C1C PUSH1 0x2F DUP4 PUSH2 0x50BE JUMP JUMPDEST SWAP2 POP PUSH2 0x4C27 DUP3 PUSH2 0x5977 JUMP JUMPDEST PUSH1 0x40 DUP3 ADD SWAP1 POP SWAP2 SWAP1 POP JUMP JUMPDEST PUSH2 0x4C3B DUP2 PUSH2 0x5263 JUMP JUMPDEST DUP3 MSTORE POP POP JUMP JUMPDEST PUSH2 0x4C4A DUP2 PUSH2 0x526D JUMP JUMPDEST DUP3 MSTORE POP POP JUMP JUMPDEST PUSH1 0x0 PUSH2 0x4C5B DUP3 PUSH2 0x4B60 JUMP JUMPDEST SWAP2 POP PUSH2 0x4C67 DUP3 DUP6 PUSH2 0x48FF JUMP JUMPDEST SWAP2 POP PUSH2 0x4C72 DUP3 PUSH2 0x4BEC JUMP JUMPDEST SWAP2 POP PUSH2 0x4C7E DUP3 DUP5 PUSH2 0x48FF JUMP JUMPDEST SWAP2 POP DUP2 SWAP1 POP SWAP4 SWAP3 POP POP POP JUMP JUMPDEST PUSH1 0x0 PUSH1 0x20 DUP3 ADD SWAP1 POP PUSH2 0x4C9F PUSH1 0x0 DUP4 ADD DUP5 PUSH2 0x481D JUMP JUMPDEST SWAP3 SWAP2 POP POP JUMP JUMPDEST PUSH1 0x0 PUSH1 0x40 DUP3 ADD SWAP1 POP PUSH2 0x4CBA PUSH1 0x0 DUP4 ADD DUP6 PUSH2 0x481D JUMP JUMPDEST PUSH2 0x4CC7 PUSH1 0x20 DUP4 ADD DUP5 PUSH2 0x481D JUMP JUMPDEST SWAP4 SWAP3 POP POP POP JUMP JUMPDEST PUSH1 0x0 PUSH1 0x20 DUP3 ADD SWAP1 POP PUSH2 0x4CE3 PUSH1 0x0 DUP4 ADD DUP5 PUSH2 0x488A JUMP JUMPDEST SWAP3 SWAP2 POP POP JUMP JUMPDEST PUSH1 0x0 PUSH1 0x20 DUP3 ADD SWAP1 POP PUSH2 0x4CFE PUSH1 0x0 DUP4 ADD DUP5 PUSH2 0x4899 JUMP JUMPDEST SWAP3 SWAP2 POP POP JUMP JUMPDEST PUSH1 0x0 PUSH1 0x20 DUP3 ADD SWAP1 POP PUSH2 0x4D19 PUSH1 0x0 DUP4 ADD DUP5 PUSH2 0x48A8 JUMP JUMPDEST SWAP3 SWAP2 POP POP JUMP JUMPDEST PUSH1 0x0 PUSH1 0x20 DUP3 ADD SWAP1 POP DUP2 DUP2 SUB PUSH1 0x0 DUP4 ADD MSTORE PUSH2 0x4D39 DUP2 DUP5 PUSH2 0x48C6 JUMP JUMPDEST SWAP1 POP SWAP3 SWAP2 POP POP JUMP JUMPDEST PUSH1 0x0 PUSH1 0x20 DUP3 ADD SWAP1 POP DUP2 DUP2 SUB PUSH1 0x0 DUP4 ADD MSTORE PUSH2 0x4D5A DUP2 PUSH2 0x4930 JUMP JUMPDEST SWAP1 POP SWAP2 SWAP1 POP JUMP JUMPDEST PUSH1 0x0 PUSH1 0x20 DUP3 ADD SWAP1 POP DUP2 DUP2 SUB PUSH1 0x0 DUP4 ADD MSTORE PUSH2 0x4D7A DUP2 PUSH2 0x4953 JUMP JUMPDEST SWAP1 POP SWAP2 SWAP1 POP JUMP JUMPDEST PUSH1 0x0 PUSH1 0x20 DUP3 ADD SWAP1 POP DUP2 DUP2 SUB PUSH1 0x0 DUP4 ADD MSTORE PUSH2 0x4D9A DUP2 PUSH2 0x4976 JUMP JUMPDEST SWAP1 POP SWAP2 SWAP1 POP JUMP JUMPDEST PUSH1 0x0 PUSH1 0x20 DUP3 ADD SWAP1 POP DUP2 DUP2 SUB PUSH1 0x0 DUP4 ADD MSTORE PUSH2 0x4DBA DUP2 PUSH2 0x4999 JUMP JUMPDEST SWAP1 POP SWAP2 SWAP1 POP JUMP JUMPDEST PUSH1 0x0 PUSH1 0x20 DUP3 ADD SWAP1 POP DUP2 DUP2 SUB PUSH1 0x0 DUP4 ADD MSTORE PUSH2 0x4DDA DUP2 PUSH2 0x49BC JUMP JUMPDEST SWAP1 POP SWAP2 SWAP1 POP JUMP JUMPDEST PUSH1 0x0 PUSH1 0x20 DUP3 ADD SWAP1 POP DUP2 DUP2 SUB PUSH1 0x0 DUP4 ADD MSTORE PUSH2 0x4DFA DUP2 PUSH2 0x49DF JUMP JUMPDEST SWAP1 POP SWAP2 SWAP1 POP JUMP JUMPDEST PUSH1 0x0 PUSH1 0x20 DUP3 ADD SWAP1 POP DUP2 DUP2 SUB PUSH1 0x0 DUP4 ADD MSTORE PUSH2 0x4E1A DUP2 PUSH2 0x4A02 JUMP JUMPDEST SWAP1 POP SWAP2 SWAP1 POP JUMP JUMPDEST PUSH1 0x0 PUSH1 0x20 DUP3 ADD SWAP1 POP DUP2 DUP2 SUB PUSH1 0x0 DUP4 ADD MSTORE PUSH2 0x4E3A DUP2 PUSH2 0x4A25 JUMP JUMPDEST SWAP1 POP SWAP2 SWAP1 POP JUMP JUMPDEST PUSH1 0x0 PUSH1 0x20 DUP3 ADD SWAP1 POP DUP2 DUP2 SUB PUSH1 0x0 DUP4 ADD MSTORE PUSH2 0x4E5A DUP2 PUSH2 0x4A48 JUMP JUMPDEST SWAP1 POP SWAP2 SWAP1 POP JUMP JUMPDEST PUSH1 0x0 PUSH1 0x20 DUP3 ADD SWAP1 POP DUP2 DUP2 SUB PUSH1 0x0 DUP4 ADD MSTORE PUSH2 0x4E7A DUP2 PUSH2 0x4A6B JUMP JUMPDEST SWAP1 POP SWAP2 SWAP1 POP JUMP JUMPDEST PUSH1 0x0 PUSH1 0x20 DUP3 ADD SWAP1 POP DUP2 DUP2 SUB PUSH1 0x0 DUP4 ADD MSTORE PUSH2 0x4E9A DUP2 PUSH2 0x4A8E JUMP JUMPDEST SWAP1 POP SWAP2 SWAP1 POP JUMP JUMPDEST PUSH1 0x0 PUSH1 0x20 DUP3 ADD SWAP1 POP DUP2 DUP2 SUB PUSH1 0x0 DUP4 ADD MSTORE PUSH2 0x4EBA DUP2 PUSH2 0x4AB1 JUMP JUMPDEST SWAP1 POP SWAP2 SWAP1 POP JUMP JUMPDEST PUSH1 0x0 PUSH1 0x20 DUP3 ADD SWAP1 POP DUP2 DUP2 SUB PUSH1 0x0 DUP4 ADD MSTORE PUSH2 0x4EDA DUP2 PUSH2 0x4AD4 JUMP JUMPDEST SWAP1 POP SWAP2 SWAP1 POP JUMP JUMPDEST PUSH1 0x0 PUSH1 0x20 DUP3 ADD SWAP1 POP DUP2 DUP2 SUB PUSH1 0x0 DUP4 ADD MSTORE PUSH2 0x4EFA DUP2 PUSH2 0x4AF7 JUMP JUMPDEST SWAP1 POP SWAP2 SWAP1 POP JUMP JUMPDEST PUSH1 0x0 PUSH1 0x20 DUP3 ADD SWAP1 POP DUP2 DUP2 SUB PUSH1 0x0 DUP4 ADD MSTORE PUSH2 0x4F1A DUP2 PUSH2 0x4B1A JUMP JUMPDEST SWAP1 POP SWAP2 SWAP1 POP JUMP JUMPDEST PUSH1 0x0 PUSH1 0x20 DUP3 ADD SWAP1 POP DUP2 DUP2 SUB PUSH1 0x0 DUP4 ADD MSTORE PUSH2 0x4F3A DUP2 PUSH2 0x4B3D JUMP JUMPDEST SWAP1 POP SWAP2 SWAP1 POP JUMP JUMPDEST PUSH1 0x0 PUSH1 0x20 DUP3 ADD SWAP1 POP DUP2 DUP2 SUB PUSH1 0x0 DUP4 ADD MSTORE PUSH2 0x4F5A DUP2 PUSH2 0x4B83 JUMP JUMPDEST SWAP1 POP SWAP2 SWAP1 POP JUMP JUMPDEST PUSH1 0x0 PUSH1 0x20 DUP3 ADD SWAP1 POP DUP2 DUP2 SUB PUSH1 0x0 DUP4 ADD MSTORE PUSH2 0x4F7A DUP2 PUSH2 0x4BA6 JUMP JUMPDEST SWAP1 POP SWAP2 SWAP1 POP JUMP JUMPDEST PUSH1 0x0 PUSH1 0x20 DUP3 ADD SWAP1 POP DUP2 DUP2 SUB PUSH1 0x0 DUP4 ADD MSTORE PUSH2 0x4F9A DUP2 PUSH2 0x4BC9 JUMP JUMPDEST SWAP1 POP SWAP2 SWAP1 POP JUMP JUMPDEST PUSH1 0x0 PUSH1 0x20 DUP3 ADD SWAP1 POP DUP2 DUP2 SUB PUSH1 0x0 DUP4 ADD MSTORE PUSH2 0x4FBA DUP2 PUSH2 0x4C0F JUMP JUMPDEST SWAP1 POP SWAP2 SWAP1 POP JUMP JUMPDEST PUSH1 0x0 PUSH1 0x20 DUP3 ADD SWAP1 POP PUSH2 0x4FD6 PUSH1 0x0 DUP4 ADD DUP5 PUSH2 0x4C32 JUMP JUMPDEST SWAP3 SWAP2 POP POP JUMP JUMPDEST PUSH1 0x0 PUSH1 0xA0 DUP3 ADD SWAP1 POP PUSH2 0x4FF1 PUSH1 0x0 DUP4 ADD DUP9 PUSH2 0x4C32 JUMP JUMPDEST PUSH2 0x4FFE PUSH1 0x20 DUP4 ADD DUP8 PUSH2 0x48B7 JUMP JUMPDEST DUP2 DUP2 SUB PUSH1 0x40 DUP4 ADD MSTORE PUSH2 0x5010 DUP2 DUP7 PUSH2 0x482C JUMP JUMPDEST SWAP1 POP PUSH2 0x501F PUSH1 0x60 DUP4 ADD DUP6 PUSH2 0x481D JUMP JUMPDEST PUSH2 0x502C PUSH1 0x80 DUP4 ADD DUP5 PUSH2 0x4C32 JUMP JUMPDEST SWAP7 SWAP6 POP POP POP POP POP POP JUMP JUMPDEST PUSH1 0x0 PUSH1 0x40 DUP3 ADD SWAP1 POP PUSH2 0x504B PUSH1 0x0 DUP4 ADD DUP6 PUSH2 0x4C32 JUMP JUMPDEST PUSH2 0x5058 PUSH1 0x20 DUP4 ADD DUP5 PUSH2 0x4C32 JUMP JUMPDEST SWAP4 SWAP3 POP POP POP JUMP JUMPDEST PUSH1 0x0 PUSH1 0x20 DUP3 ADD SWAP1 POP PUSH2 0x5074 PUSH1 0x0 DUP4 ADD DUP5 PUSH2 0x4C41 JUMP JUMPDEST SWAP3 SWAP2 POP POP JUMP JUMPDEST PUSH1 0x0 DUP2 SWAP1 POP PUSH1 0x20 DUP3 ADD SWAP1 POP SWAP2 SWAP1 POP JUMP JUMPDEST PUSH1 0x0 DUP2 MLOAD SWAP1 POP SWAP2 SWAP1 POP JUMP JUMPDEST PUSH1 0x0 DUP2 MLOAD SWAP1 POP SWAP2 SWAP1 POP JUMP JUMPDEST PUSH1 0x0 PUSH1 0x20 DUP3 ADD SWAP1 POP SWAP2 SWAP1 POP JUMP JUMPDEST PUSH1 0x0 DUP3 DUP3 MSTORE PUSH1 0x20 DUP3 ADD SWAP1 POP SWAP3 SWAP2 POP POP JUMP JUMPDEST PUSH1 0x0 DUP3 DUP3 MSTORE PUSH1 0x20 DUP3 ADD SWAP1 POP SWAP3 SWAP2 POP POP JUMP JUMPDEST PUSH1 0x0 DUP2 SWAP1 POP SWAP3 SWAP2 POP POP JUMP JUMPDEST PUSH1 0x0 PUSH2 0x50E5 DUP3 PUSH2 0x5263 JUMP JUMPDEST SWAP2 POP PUSH2 0x50F0 DUP4 PUSH2 0x5263 JUMP JUMPDEST SWAP3 POP DUP3 PUSH32 0xFFFFFFFFFFFFFFFFFFFFFFFFFFFFFFFFFFFFFFFFFFFFFFFFFFFFFFFFFFFFFFFF SUB DUP3 GT ISZERO PUSH2 0x5125 JUMPI PUSH2 0x5124 PUSH2 0x5351 JUMP JUMPDEST JUMPDEST DUP3 DUP3 ADD SWAP1 POP SWAP3 SWAP2 POP POP JUMP JUMPDEST PUSH1 0x0 PUSH2 0x513B DUP3 PUSH2 0x5263 JUMP JUMPDEST SWAP2 POP PUSH2 0x5146 DUP4 PUSH2 0x5263 JUMP JUMPDEST SWAP3 POP DUP3 PUSH2 0x5156 JUMPI PUSH2 0x5155 PUSH2 0x5380 JUMP JUMPDEST JUMPDEST DUP3 DUP3 DIV SWAP1 POP SWAP3 SWAP2 POP POP JUMP JUMPDEST PUSH1 0x0 PUSH2 0x516C DUP3 PUSH2 0x5263 JUMP JUMPDEST SWAP2 POP PUSH2 0x5177 DUP4 PUSH2 0x5263 JUMP JUMPDEST SWAP3 POP DUP2 PUSH32 0xFFFFFFFFFFFFFFFFFFFFFFFFFFFFFFFFFFFFFFFFFFFFFFFFFFFFFFFFFFFFFFFF DIV DUP4 GT DUP3 ISZERO ISZERO AND ISZERO PUSH2 0x51B0 JUMPI PUSH2 0x51AF PUSH2 0x5351 JUMP JUMPDEST JUMPDEST DUP3 DUP3 MUL SWAP1 POP SWAP3 SWAP2 POP POP JUMP JUMPDEST PUSH1 0x0 PUSH2 0x51C6 DUP3 PUSH2 0x5263 JUMP JUMPDEST SWAP2 POP PUSH2 0x51D1 DUP4 PUSH2 0x5263 JUMP JUMPDEST SWAP3 POP DUP3 DUP3 LT ISZERO PUSH2 0x51E4 JUMPI PUSH2 0x51E3 PUSH2 0x5351 JUMP JUMPDEST JUMPDEST DUP3 DUP3 SUB SWAP1 POP SWAP3 SWAP2 POP POP JUMP JUMPDEST PUSH1 0x0 PUSH2 0x51FA DUP3 PUSH2 0x5243 JUMP JUMPDEST SWAP1 POP SWAP2 SWAP1 POP JUMP JUMPDEST PUSH1 0x0 DUP2 ISZERO ISZERO SWAP1 POP SWAP2 SWAP1 POP JUMP JUMPDEST PUSH1 0x0 DUP2 SWAP1 POP SWAP2 SWAP1 POP JUMP JUMPDEST PUSH1 0x0 PUSH32 0xFFFFFFFF00000000000000000000000000000000000000000000000000000000 DUP3 AND SWAP1 POP SWAP2 SWAP1 POP JUMP JUMPDEST PUSH1 0x0 PUSH20 0xFFFFFFFFFFFFFFFFFFFFFFFFFFFFFFFFFFFFFFFF DUP3 AND SWAP1 POP SWAP2 SWAP1 POP JUMP JUMPDEST PUSH1 0x0 DUP2 SWAP1 POP SWAP2 SWAP1 POP JUMP JUMPDEST PUSH1 0x0 PUSH1 0xFF DUP3 AND SWAP1 POP SWAP2 SWAP1 POP JUMP JUMPDEST PUSH1 0x0 PUSH2 0x5285 DUP3 PUSH2 0x529E JUMP JUMPDEST SWAP1 POP SWAP2 SWAP1 POP JUMP JUMPDEST PUSH1 0x0 PUSH2 0x5297 DUP3 PUSH2 0x5263 JUMP JUMPDEST SWAP1 POP SWAP2 SWAP1 POP JUMP JUMPDEST PUSH1 0x0 PUSH2 0x52A9 DUP3 PUSH2 0x52B0 JUMP JUMPDEST SWAP1 POP SWAP2 SWAP1 POP JUMP JUMPDEST PUSH1 0x0 PUSH2 0x52BB DUP3 PUSH2 0x5243 JUMP JUMPDEST SWAP1 POP SWAP2 SWAP1 POP JUMP JUMPDEST PUSH1 0x0 JUMPDEST DUP4 DUP2 LT ISZERO PUSH2 0x52E0 JUMPI DUP1 DUP3 ADD MLOAD DUP2 DUP5 ADD MSTORE PUSH1 0x20 DUP2 ADD SWAP1 POP PUSH2 0x52C5 JUMP JUMPDEST DUP4 DUP2 GT ISZERO PUSH2 0x52EF JUMPI PUSH1 0x0 DUP5 DUP5 ADD MSTORE JUMPDEST POP POP POP POP JUMP JUMPDEST PUSH1 0x0 PUSH2 0x5300 DUP3 PUSH2 0x5263 JUMP JUMPDEST SWAP2 POP PUSH1 0x0 DUP3 EQ ISZERO PUSH2 0x5314 JUMPI PUSH2 0x5313 PUSH2 0x5351 JUMP JUMPDEST JUMPDEST PUSH1 0x1 DUP3 SUB SWAP1 POP SWAP2 SWAP1 POP JUMP JUMPDEST PUSH1 0x0 PUSH1 0x2 DUP3 DIV SWAP1 POP PUSH1 0x1 DUP3 AND DUP1 PUSH2 0x5337 JUMPI PUSH1 0x7F DUP3 AND SWAP2 POP JUMPDEST PUSH1 0x20 DUP3 LT DUP2 EQ ISZERO PUSH2 0x534B JUMPI PUSH2 0x534A PUSH2 0x53AF JUMP JUMPDEST JUMPDEST POP SWAP2 SWAP1 POP JUMP JUMPDEST PUSH32 0x4E487B7100000000000000000000000000000000000000000000000000000000 PUSH1 0x0 MSTORE PUSH1 0x11 PUSH1 0x4 MSTORE PUSH1 0x24 PUSH1 0x0 REVERT JUMPDEST PUSH32 0x4E487B7100000000000000000000000000000000000000000000000000000000 PUSH1 0x0 MSTORE PUSH1 0x12 PUSH1 0x4 MSTORE PUSH1 0x24 PUSH1 0x0 REVERT JUMPDEST PUSH32 0x4E487B7100000000000000000000000000000000000000000000000000000000 PUSH1 0x0 MSTORE PUSH1 0x22 PUSH1 0x4 MSTORE PUSH1 0x24 PUSH1 0x0 REVERT JUMPDEST PUSH32 0x4E487B7100000000000000000000000000000000000000000000000000000000 PUSH1 0x0 MSTORE PUSH1 0x32 PUSH1 0x4 MSTORE PUSH1 0x24 PUSH1 0x0 REVERT JUMPDEST PUSH32 0x4E487B7100000000000000000000000000000000000000000000000000000000 PUSH1 0x0 MSTORE PUSH1 0x41 PUSH1 0x4 MSTORE PUSH1 0x24 PUSH1 0x0 REVERT JUMPDEST PUSH1 0x0 DUP1 REVERT JUMPDEST PUSH1 0x0 PUSH1 0x1F NOT PUSH1 0x1F DUP4 ADD AND SWAP1 POP SWAP2 SWAP1 POP JUMP JUMPDEST PUSH32 0x537472696E67733A20686578206C656E67746820696E73756666696369656E74 PUSH1 0x0 DUP3 ADD MSTORE POP JUMP JUMPDEST PUSH32 0x45524332303A207472616E7366657220746F20746865207A65726F2061646472 PUSH1 0x0 DUP3 ADD MSTORE PUSH32 0x6573730000000000000000000000000000000000000000000000000000000000 PUSH1 0x20 DUP3 ADD MSTORE POP JUMP JUMPDEST PUSH32 0x45524332303A206275726E20616D6F756E7420657863656564732062616C616E PUSH1 0x0 DUP3 ADD MSTORE PUSH32 0x6365000000000000000000000000000000000000000000000000000000000000 PUSH1 0x20 DUP3 ADD MSTORE POP JUMP JUMPDEST PUSH32 0x4F776E61626C653A206E6577206F776E657220697320746865207A65726F2061 PUSH1 0x0 DUP3 ADD MSTORE PUSH32 0x6464726573730000000000000000000000000000000000000000000000000000 PUSH1 0x20 DUP3 ADD MSTORE POP JUMP JUMPDEST PUSH32 0x45524332303A20617070726F766520746F20746865207A65726F206164647265 PUSH1 0x0 DUP3 ADD MSTORE PUSH32 0x7373000000000000000000000000000000000000000000000000000000000000 PUSH1 0x20 DUP3 ADD MSTORE POP JUMP JUMPDEST PUSH32 0x45524332303A207472616E7366657220616D6F756E7420657863656564732062 PUSH1 0x0 DUP3 ADD MSTORE PUSH32 0x616C616E63650000000000000000000000000000000000000000000000000000 PUSH1 0x20 DUP3 ADD MSTORE POP JUMP JUMPDEST PUSH32 0x63616E6E6F7420656E6F75676820746F6B656E20666F72207377617070696E67 PUSH1 0x0 DUP3 ADD MSTORE POP JUMP JUMPDEST PUSH32 0x45524332303A207472616E7366657220616D6F756E7420657863656564732061 PUSH1 0x0 DUP3 ADD MSTORE PUSH32 0x6C6C6F77616E6365000000000000000000000000000000000000000000000000 PUSH1 0x20 DUP3 ADD MSTORE POP JUMP JUMPDEST PUSH32 0x4F776E61626C653A2063616C6C6572206973206E6F7420746865206F776E6572 PUSH1 0x0 DUP3 ADD MSTORE POP JUMP JUMPDEST PUSH32 0x666565206E65656420746F207365742067726561746572207468616E20657175 PUSH1 0x0 DUP3 ADD MSTORE PUSH32 0x616C203025000000000000000000000000000000000000000000000000000000 PUSH1 0x20 DUP3 ADD MSTORE POP JUMP JUMPDEST PUSH32 0x5472616E7366657220616D6F756E74206D757374206265206772656174657220 PUSH1 0x0 DUP3 ADD MSTORE PUSH32 0x7468616E207A65726F0000000000000000000000000000000000000000000000 PUSH1 0x20 DUP3 ADD MSTORE POP JUMP JUMPDEST PUSH32 0x45524332303A206275726E2066726F6D20746865207A65726F20616464726573 PUSH1 0x0 DUP3 ADD MSTORE PUSH32 0x7300000000000000000000000000000000000000000000000000000000000000 PUSH1 0x20 DUP3 ADD MSTORE POP JUMP JUMPDEST PUSH32 0x3078206F72206F776E6572206973206E6F742061636365707465642068657265 PUSH1 0x0 DUP3 ADD MSTORE POP JUMP JUMPDEST PUSH32 0x45524332303A207472616E736665722066726F6D20746865207A65726F206164 PUSH1 0x0 DUP3 ADD MSTORE PUSH32 0x6472657373000000000000000000000000000000000000000000000000000000 PUSH1 0x20 DUP3 ADD MSTORE POP JUMP JUMPDEST PUSH32 0x45524332303A20617070726F76652066726F6D20746865207A65726F20616464 PUSH1 0x0 DUP3 ADD MSTORE PUSH32 0x7265737300000000000000000000000000000000000000000000000000000000 PUSH1 0x20 DUP3 ADD MSTORE POP JUMP JUMPDEST PUSH32 0x666565206E65656420746F20736574206C6F776572207468616E203625000000 PUSH1 0x0 DUP3 ADD MSTORE POP JUMP JUMPDEST PUSH32 0x416363657373436F6E74726F6C3A206163636F756E7420000000000000000000 PUSH1 0x0 DUP3 ADD MSTORE POP JUMP JUMPDEST PUSH32 0x65787465726E616C2063616C6C206661696C6564000000000000000000000000 PUSH1 0x0 DUP3 ADD MSTORE POP JUMP JUMPDEST PUSH32 0x535741504C4F434B54494D453A20494E56414C49440000000000000000000000 PUSH1 0x0 DUP3 ADD MSTORE POP JUMP JUMPDEST PUSH32 0x45524332303A2064656372656173656420616C6C6F77616E63652062656C6F77 PUSH1 0x0 DUP3 ADD MSTORE PUSH32 0x207A65726F000000000000000000000000000000000000000000000000000000 PUSH1 0x20 DUP3 ADD MSTORE POP JUMP JUMPDEST PUSH32 0x206973206D697373696E6720726F6C6520000000000000000000000000000000 PUSH1 0x0 DUP3 ADD MSTORE POP JUMP JUMPDEST PUSH32 0x416363657373436F6E74726F6C3A2063616E206F6E6C792072656E6F756E6365 PUSH1 0x0 DUP3 ADD MSTORE PUSH32 0x20726F6C657320666F722073656C660000000000000000000000000000000000 PUSH1 0x20 DUP3 ADD MSTORE POP JUMP JUMPDEST PUSH2 0x59CF DUP2 PUSH2 0x51EF JUMP JUMPDEST DUP2 EQ PUSH2 0x59DA JUMPI PUSH1 0x0 DUP1 REVERT JUMPDEST POP JUMP JUMPDEST PUSH2 0x59E6 DUP2 PUSH2 0x520D JUMP JUMPDEST DUP2 EQ PUSH2 0x59F1 JUMPI PUSH1 0x0 DUP1 REVERT JUMPDEST POP JUMP JUMPDEST PUSH2 0x59FD DUP2 PUSH2 0x5217 JUMP JUMPDEST DUP2 EQ PUSH2 0x5A08 JUMPI PUSH1 0x0 DUP1 REVERT JUMPDEST POP JUMP JUMPDEST PUSH2 0x5A14 DUP2 PUSH2 0x5263 JUMP JUMPDEST DUP2 EQ PUSH2 0x5A1F JUMPI PUSH1 0x0 DUP1 REVERT JUMPDEST POP JUMP INVALID LOG1 PUSH5 0x736F6C6343 STOP ADDMOD SMOD STOP EXP "},"methodIdentifiers":{"BURNER_ROLE()":"282c51f3","DEFAULT_ADMIN_ROLE()":"a217fddf","allowance(address,address)":"dd62ed3e","approve(address,uint256)":"095ea7b3","balanceOf(address)":"70a08231","blacklistTime()":"4489d6f8","bpEnabled()":"26898da9","burn(uint256)":"42966c68","decimals()":"313ce567","decreaseAllowance(address,uint256)":"a457c2d7","excludeFromFee(address)":"437823ec","getFees()":"db8d55f1","getRoleAdmin(bytes32)":"248a9ca3","grantRole(bytes32,address)":"2f2ff15d","hasRole(bytes32,address)":"91d14854","increaseAllowance(address,uint256)":"39509351","initSwap(address)":"ce636726","name()":"06fdde03","owner()":"8da5cb5b","pancakeswapV2Pair()":"52892884","pancakeswapV2Router()":"e5dffed3","removeWhiteLists(address)":"e34edc14","renounceOwnership()":"715018a6","renounceRole(bytes32,address)":"36568abe","revokeRole(bytes32,address)":"d547741f","setBuyFeeRate(uint256)":"9072e306","setPairAddress(address)":"a22d4832","setSellFeeRate(uint256)":"9c466f1f","setSwapBalance(address)":"9729d64c","setWhiteLists(address)":"dcb5f220","supportsInterface(bytes4)":"01ffc9a7","swapBalanceAddress()":"f2f7049c","swapLockTime()":"cb81c229","swapTokensForETH(uint256)":"e56a645e","symbol()":"95d89b41","totalSupply()":"18160ddd","transfer(address,uint256)":"a9059cbb","transferFrom(address,address,uint256)":"23b872dd","transferOwnership(address)":"f2fde38b","updateSwapBalance(uint256)":"bd9797f4"}},"storageLayout":{"storage":[{"astId":502,"contract":"contracts/TESToken.sol:TESToken","label":"_balances","offset":0,"slot":"0","type":"t_mapping(t_address,t_uint256)"},{"astId":508,"contract":"contracts/TESToken.sol:TESToken","label":"_allowances","offset":0,"slot":"1","type":"t_mapping(t_address,t_mapping(t_address,t_uint256))"},{"astId":510,"contract":"contracts/TESToken.sol:TESToken","label":"_totalSupply","offset":0,"slot":"2","type":"t_uint256"},{"astId":512,"contract":"contracts/TESToken.sol:TESToken","label":"_name","offset":0,"slot":"3","type":"t_string_storage"},{"astId":514,"contract":"contracts/TESToken.sol:TESToken","label":"_symbol","offset":0,"slot":"4","type":"t_string_storage"},{"astId":389,"contract":"contracts/TESToken.sol:TESToken","label":"_owner","offset":0,"slot":"5","type":"t_address"},{"astId":24,"contract":"contracts/TESToken.sol:TESToken","label":"_roles","offset":0,"slot":"6","type":"t_mapping(t_bytes32,t_struct(RoleData)19_storage)"},{"astId":2236,"contract":"contracts/TESToken.sol:TESToken","label":"pancakeswapV2Router","offset":0,"slot":"7","type":"t_contract(IUniswapV2Router02)2167"},{"astId":2238,"contract":"contracts/TESToken.sol:TESToken","label":"swapBalanceAddress","offset":0,"slot":"8","type":"t_address"},{"astId":2240,"contract":"contracts/TESToken.sol:TESToken","label":"pancakeswapV2Pair","offset":0,"slot":"9","type":"t_address"},{"astId":2242,"contract":"contracts/TESToken.sol:TESToken","label":"maxSupply","offset":0,"slot":"10","type":"t_uint256"},{"astId":2245,"contract":"contracts/TESToken.sol:TESToken","label":"_buyFeeForRate","offset":0,"slot":"11","type":"t_uint256"},{"astId":2248,"contract":"contracts/TESToken.sol:TESToken","label":"_sellFeeForRate","offset":0,"slot":"12","type":"t_uint256"},{"astId":2252,"contract":"contracts/TESToken.sol:TESToken","label":"whiteList","offset":0,"slot":"13","type":"t_mapping(t_address,t_bool)"},{"astId":2256,"contract":"contracts/TESToken.sol:TESToken","label":"_isExcludedFromFee","offset":0,"slot":"14","type":"t_mapping(t_address,t_bool)"},{"astId":2260,"contract":"contracts/TESToken.sol:TESToken","label":"_isExcluded","offset":0,"slot":"15","type":"t_mapping(t_address,t_bool)"},{"astId":2263,"contract":"contracts/TESToken.sol:TESToken","label":"bpEnabled","offset":0,"slot":"16","type":"t_bool"},{"astId":2266,"contract":"contracts/TESToken.sol:TESToken","label":"swapLockTime","offset":0,"slot":"17","type":"t_uint256"},{"astId":2269,"contract":"contracts/TESToken.sol:TESToken","label":"blacklistTime","offset":0,"slot":"18","type":"t_uint256"}],"types":{"t_address":{"encoding":"inplace","label":"address","numberOfBytes":"20"},"t_bool":{"encoding":"inplace","label":"bool","numberOfBytes":"1"},"t_bytes32":{"encoding":"inplace","label":"bytes32","numberOfBytes":"32"},"t_contract(IUniswapV2Router02)2167":{"encoding":"inplace","label":"contract IUniswapV2Router02","numberOfBytes":"20"},"t_mapping(t_address,t_bool)":{"encoding":"mapping","key":"t_address","label":"mapping(address => bool)","numberOfBytes":"32","value":"t_bool"},"t_mapping(t_address,t_mapping(t_address,t_uint256))":{"encoding":"mapping","key":"t_address","label":"mapping(address => mapping(address => uint256))","numberOfBytes":"32","value":"t_mapping(t_address,t_uint256)"},"t_mapping(t_address,t_uint256)":{"encoding":"mapping","key":"t_address","label":"mapping(address => uint256)","numberOfBytes":"32","value":"t_uint256"},"t_mapping(t_bytes32,t_struct(RoleData)19_storage)":{"encoding":"mapping","key":"t_bytes32","label":"mapping(bytes32 => struct AccessControl.RoleData)","numberOfBytes":"32","value":"t_struct(RoleData)19_storage"},"t_string_storage":{"encoding":"bytes","label":"string","numberOfBytes":"32"},"t_struct(RoleData)19_storage":{"encoding":"inplace","label":"struct AccessControl.RoleData","members":[{"astId":16,"contract":"contracts/TESToken.sol:TESToken","label":"members","offset":0,"slot":"0","type":"t_mapping(t_address,t_bool)"},{"astId":18,"contract":"contracts/TESToken.sol:TESToken","label":"adminRole","offset":0,"slot":"1","type":"t_bytes32"}],"numberOfBytes":"64"},"t_uint256":{"encoding":"inplace","label":"uint256","numberOfBytes":"32"}}},"userdoc":{"kind":"user","methods":{"constructor":{"notice":"Constructor that gives msg.sender all of existing tokens."}},"version":1}}}}