{
  "_format": "hh-sol-artifact-1",
  "contractName": "TESToken",
  "sourceName": "contracts/TESToken.sol",
  "abi": [
    {
      "inputs": [],
      "stateMutability": "nonpayable",
      "type": "constructor"
    },
    {
      "anonymous": false,
      "inputs": [
        {
          "indexed": true,
          "internalType": "address",
          "name": "owner",
          "type": "address"
        },
        {
          "indexed": true,
          "internalType": "address",
          "name": "spender",
          "type": "address"
        },
        {
          "indexed": false,
          "internalType": "uint256",
          "name": "value",
          "type": "uint256"
        }
      ],
      "name": "Approval",
      "type": "event"
    },
    {
      "anonymous": false,
      "inputs": [
        {
          "indexed": true,
          "internalType": "address",
          "name": "addr",
          "type": "address"
        }
      ],
      "name": "EventChangeSwapBalanceAddress",
      "type": "event"
    },
    {
      "anonymous": false,
      "inputs": [
        {
          "indexed": true,
          "internalType": "address",
          "name": "target",
          "type": "address"
        },
        {
          "indexed": false,
          "internalType": "bool",
          "name": "state",
          "type": "bool"
        }
      ],
      "name": "EventWhiteList",
      "type": "event"
    },
    {
      "anonymous": false,
      "inputs": [
        {
          "indexed": false,
          "internalType": "string",
          "name": "message",
          "type": "string"
        }
      ],
      "name": "Log",
      "type": "event"
    },
    {
      "anonymous": false,
      "inputs": [
        {
          "indexed": true,
          "internalType": "address",
          "name": "previousOwner",
          "type": "address"
        },
        {
          "indexed": true,
          "internalType": "address",
          "name": "newOwner",
          "type": "address"
        }
      ],
      "name": "OwnershipTransferred",
      "type": "event"
    },
    {
      "anonymous": false,
      "inputs": [
        {
          "indexed": true,
          "internalType": "bytes32",
          "name": "role",
          "type": "bytes32"
        },
        {
          "indexed": true,
          "internalType": "bytes32",
          "name": "previousAdminRole",
          "type": "bytes32"
        },
        {
          "indexed": true,
          "internalType": "bytes32",
          "name": "newAdminRole",
          "type": "bytes32"
        }
      ],
      "name": "RoleAdminChanged",
      "type": "event"
    },
    {
      "anonymous": false,
      "inputs": [
        {
          "indexed": true,
          "internalType": "bytes32",
          "name": "role",
          "type": "bytes32"
        },
        {
          "indexed": true,
          "internalType": "address",
          "name": "account",
          "type": "address"
        },
        {
          "indexed": true,
          "internalType": "address",
          "name": "sender",
          "type": "address"
        }
      ],
      "name": "RoleGranted",
      "type": "event"
    },
    {
      "anonymous": false,
      "inputs": [
        {
          "indexed": true,
          "internalType": "bytes32",
          "name": "role",
          "type": "bytes32"
        },
        {
          "indexed": true,
          "internalType": "address",
          "name": "account",
          "type": "address"
        },
        {
          "indexed": true,
          "internalType": "address",
          "name": "sender",
          "type": "address"
        }
      ],
      "name": "RoleRevoked",
      "type": "event"
    },
    {
      "anonymous": false,
      "inputs": [
        {
          "indexed": true,
          "internalType": "address",
          "name": "from",
          "type": "address"
        },
        {
          "indexed": true,
          "internalType": "address",
          "name": "to",
          "type": "address"
        },
        {
          "indexed": false,
          "internalType": "uint256",
          "name": "value",
          "type": "uint256"
        }
      ],
      "name": "Transfer",
      "type": "event"
    },
    {
      "inputs": [],
      "name": "AlwaysEnableTransferFee",
      "outputs": [
        {
          "internalType": "bool",
          "name": "",
          "type": "bool"
        }
      ],
      "stateMutability": "view",
      "type": "function"
    },
    {
      "inputs": [],
      "name": "BURNER_ROLE",
      "outputs": [
        {
          "internalType": "bytes32",
          "name": "",
          "type": "bytes32"
        }
      ],
      "stateMutability": "view",
      "type": "function"
    },
    {
      "inputs": [],
      "name": "DEFAULT_ADMIN_ROLE",
      "outputs": [
        {
          "internalType": "bytes32",
          "name": "",
          "type": "bytes32"
        }
      ],
      "stateMutability": "view",
      "type": "function"
    },
    {
      "inputs": [
        {
          "internalType": "address",
          "name": "owner",
          "type": "address"
        },
        {
          "internalType": "address",
          "name": "spender",
          "type": "address"
        }
      ],
      "name": "allowance",
      "outputs": [
        {
          "internalType": "uint256",
          "name": "",
          "type": "uint256"
        }
      ],
      "stateMutability": "view",
      "type": "function"
    },
    {
      "inputs": [
        {
          "internalType": "address",
          "name": "spender",
          "type": "address"
        },
        {
          "internalType": "uint256",
          "name": "amount",
          "type": "uint256"
        }
      ],
      "name": "approve",
      "outputs": [
        {
          "internalType": "bool",
          "name": "",
          "type": "bool"
        }
      ],
      "stateMutability": "nonpayable",
      "type": "function"
    },
    {
      "inputs": [
        {
          "internalType": "address",
          "name": "account",
          "type": "address"
        }
      ],
      "name": "balanceOf",
      "outputs": [
        {
          "internalType": "uint256",
          "name": "",
          "type": "uint256"
        }
      ],
      "stateMutability": "view",
      "type": "function"
    },
    {
      "inputs": [
        {
          "internalType": "uint256",
          "name": "amount",
          "type": "uint256"
        }
      ],
      "name": "burn",
      "outputs": [],
      "stateMutability": "nonpayable",
      "type": "function"
    },
    {
      "inputs": [],
      "name": "decimals",
      "outputs": [
        {
          "internalType": "uint8",
          "name": "",
          "type": "uint8"
        }
      ],
      "stateMutability": "view",
      "type": "function"
    },
    {
      "inputs": [
        {
          "internalType": "address",
          "name": "spender",
          "type": "address"
        },
        {
          "internalType": "uint256",
          "name": "subtractedValue",
          "type": "uint256"
        }
      ],
      "name": "decreaseAllowance",
      "outputs": [
        {
          "internalType": "bool",
          "name": "",
          "type": "bool"
        }
      ],
      "stateMutability": "nonpayable",
      "type": "function"
    },
    {
      "inputs": [],
      "name": "getFees",
      "outputs": [
        {
          "internalType": "uint256",
          "name": "buyFee",
          "type": "uint256"
        },
        {
          "internalType": "uint256",
          "name": "sellFee",
          "type": "uint256"
        }
      ],
      "stateMutability": "view",
      "type": "function"
    },
    {
      "inputs": [
        {
          "internalType": "bytes32",
          "name": "role",
          "type": "bytes32"
        }
      ],
      "name": "getRoleAdmin",
      "outputs": [
        {
          "internalType": "bytes32",
          "name": "",
          "type": "bytes32"
        }
      ],
      "stateMutability": "view",
      "type": "function"
    },
    {
      "inputs": [
        {
          "internalType": "bytes32",
          "name": "role",
          "type": "bytes32"
        },
        {
          "internalType": "address",
          "name": "account",
          "type": "address"
        }
      ],
      "name": "grantRole",
      "outputs": [],
      "stateMutability": "nonpayable",
      "type": "function"
    },
    {
      "inputs": [
        {
          "internalType": "bytes32",
          "name": "role",
          "type": "bytes32"
        },
        {
          "internalType": "address",
          "name": "account",
          "type": "address"
        }
      ],
      "name": "hasRole",
      "outputs": [
        {
          "internalType": "bool",
          "name": "",
          "type": "bool"
        }
      ],
      "stateMutability": "view",
      "type": "function"
    },
    {
      "inputs": [
        {
          "internalType": "address",
          "name": "spender",
          "type": "address"
        },
        {
          "internalType": "uint256",
          "name": "addedValue",
          "type": "uint256"
        }
      ],
      "name": "increaseAllowance",
      "outputs": [
        {
          "internalType": "bool",
          "name": "",
          "type": "bool"
        }
      ],
      "stateMutability": "nonpayable",
      "type": "function"
    },
    {
      "inputs": [
        {
          "internalType": "address",
          "name": "routerAddress",
          "type": "address"
        }
      ],
      "name": "initSwap",
      "outputs": [],
      "stateMutability": "nonpayable",
      "type": "function"
    },
    {
      "inputs": [],
      "name": "name",
      "outputs": [
        {
          "internalType": "string",
          "name": "",
          "type": "string"
        }
      ],
      "stateMutability": "view",
      "type": "function"
    },
    {
      "inputs": [],
      "name": "owner",
      "outputs": [
        {
          "internalType": "address",
          "name": "",
          "type": "address"
        }
      ],
      "stateMutability": "view",
      "type": "function"
    },
    {
      "inputs": [],
      "name": "pancakeswapV2Pair",
      "outputs": [
        {
          "internalType": "address",
          "name": "",
          "type": "address"
        }
      ],
      "stateMutability": "view",
      "type": "function"
    },
    {
      "inputs": [],
      "name": "pancakeswapV2Router",
      "outputs": [
        {
          "internalType": "contract IUniswapV2Router02",
          "name": "",
          "type": "address"
        }
      ],
      "stateMutability": "view",
      "type": "function"
    },
    {
      "inputs": [
        {
          "internalType": "address",
          "name": "target",
          "type": "address"
        }
      ],
      "name": "removeWhiteLists",
      "outputs": [],
      "stateMutability": "nonpayable",
      "type": "function"
    },
    {
      "inputs": [],
      "name": "renounceOwnership",
      "outputs": [],
      "stateMutability": "nonpayable",
      "type": "function"
    },
    {
      "inputs": [
        {
          "internalType": "bytes32",
          "name": "role",
          "type": "bytes32"
        },
        {
          "internalType": "address",
          "name": "account",
          "type": "address"
        }
      ],
      "name": "renounceRole",
      "outputs": [],
      "stateMutability": "nonpayable",
      "type": "function"
    },
    {
      "inputs": [
        {
          "internalType": "bytes32",
          "name": "role",
          "type": "bytes32"
        },
        {
          "internalType": "address",
          "name": "account",
          "type": "address"
        }
      ],
      "name": "revokeRole",
      "outputs": [],
      "stateMutability": "nonpayable",
      "type": "function"
    },
    {
      "inputs": [
        {
          "internalType": "uint256",
          "name": "fee",
          "type": "uint256"
        }
      ],
      "name": "setBuyFeeRate",
      "outputs": [],
      "stateMutability": "nonpayable",
      "type": "function"
    },
    {
      "inputs": [
        {
          "internalType": "bool",
          "name": "fee",
          "type": "bool"
        }
      ],
      "name": "setEnableTransferFee",
      "outputs": [],
      "stateMutability": "nonpayable",
      "type": "function"
    },
    {
      "inputs": [
        {
          "internalType": "address",
          "name": "pairAddress",
          "type": "address"
        }
      ],
      "name": "setPairAddress",
      "outputs": [],
      "stateMutability": "nonpayable",
      "type": "function"
    },
    {
      "inputs": [
        {
          "internalType": "uint256",
          "name": "fee",
          "type": "uint256"
        }
      ],
      "name": "setSellFeeRate",
      "outputs": [],
      "stateMutability": "nonpayable",
      "type": "function"
    },
    {
      "inputs": [
        {
          "internalType": "address",
          "name": "_swapBalanceAddress",
          "type": "address"
        }
      ],
      "name": "setSwapBalance",
      "outputs": [],
      "stateMutability": "nonpayable",
      "type": "function"
    },
    {
      "inputs": [
        {
          "internalType": "address",
          "name": "target",
          "type": "address"
        }
      ],
      "name": "setWhiteLists",
      "outputs": [],
      "stateMutability": "nonpayable",
      "type": "function"
    },
    {
      "inputs": [
        {
          "internalType": "bytes4",
          "name": "interfaceId",
          "type": "bytes4"
        }
      ],
      "name": "supportsInterface",
      "outputs": [
        {
          "internalType": "bool",
          "name": "",
          "type": "bool"
        }
      ],
      "stateMutability": "view",
      "type": "function"
    },
    {
      "inputs": [],
      "name": "swapBalanceAddress",
      "outputs": [
        {
          "internalType": "address",
          "name": "",
          "type": "address"
        }
      ],
      "stateMutability": "view",
      "type": "function"
    },
    {
      "inputs": [],
      "name": "swapLockTime",
      "outputs": [
        {
          "internalType": "uint256",
          "name": "",
          "type": "uint256"
        }
      ],
      "stateMutability": "view",
      "type": "function"
    },
    {
      "inputs": [
        {
          "internalType": "uint256",
          "name": "tokenAmount",
          "type": "uint256"
        }
      ],
      "name": "swapTokensForETH",
      "outputs": [],
      "stateMutability": "nonpayable",
      "type": "function"
    },
    {
      "inputs": [],
      "name": "symbol",
      "outputs": [
        {
          "internalType": "string",
          "name": "",
          "type": "string"
        }
      ],
      "stateMutability": "view",
      "type": "function"
    },
    {
      "inputs": [],
      "name": "totalSupply",
      "outputs": [
        {
          "internalType": "uint256",
          "name": "",
          "type": "uint256"
        }
      ],
      "stateMutability": "view",
      "type": "function"
    },
    {
      "inputs": [
        {
          "internalType": "address",
          "name": "recipient",
          "type": "address"
        },
        {
          "internalType": "uint256",
          "name": "amount",
          "type": "uint256"
        }
      ],
      "name": "transfer",
      "outputs": [
        {
          "internalType": "bool",
          "name": "",
          "type": "bool"
        }
      ],
      "stateMutability": "nonpayable",
      "type": "function"
    },
    {
      "inputs": [
        {
          "internalType": "address",
          "name": "sender",
          "type": "address"
        },
        {
          "internalType": "address",
          "name": "recipient",
          "type": "address"
        },
        {
          "internalType": "uint256",
          "name": "amount",
          "type": "uint256"
        }
      ],
      "name": "transferFrom",
      "outputs": [
        {
          "internalType": "bool",
          "name": "",
          "type": "bool"
        }
      ],
      "stateMutability": "nonpayable",
      "type": "function"
    },
    {
      "inputs": [
        {
          "internalType": "address",
          "name": "newOwner",
          "type": "address"
        }
      ],
      "name": "transferOwnership",
      "outputs": [],
      "stateMutability": "nonpayable",
      "type": "function"
    },
    {
      "inputs": [
        {
          "internalType": "uint256",
          "name": "amount",
          "type": "uint256"
        }
      ],
      "name": "updateSwapBalance",
      "outputs": [],
      "stateMutability": "nonpayable",
      "type": "function"
    },
    {
      "stateMutability": "payable",
      "type": "receive"
    }
  ],
  "bytecode": "0x60806040526000600b556000600c556000600d60006101000a81548160ff0219169083151502179055506000600f553480156200003b57600080fd5b506040518060400160405280600d81526020017f546974616e2054726164696e67000000000000000000000000000000000000008152506040518060400160405280600381526020017f54455300000000000000000000000000000000000000000000000000000000008152508160039080519060200190620000c092919062000766565b508060049080519060200190620000d992919062000766565b505050620000fc620000f06200039660201b60201c565b6200039e60201b60201c565b620001307f0e5852b814da8cba28ee3190c8223741469b08b8fae0e3317222cefaeee68a3760001b6200046460201b60201c565b620001647f09ab2344e28c37325973752aa643353b719c04475d1e123bff39769f0866fef260001b6200046460201b60201c565b620001987f496151a386891a7c1fcf4d48616466ecee36de611b058dabba2aeeb20c946e6560001b6200046460201b60201c565b620001a86200046760201b60201c565b60ff16600a620001b9919062000956565b6305f5e100620001ca919062000a93565b600a81905550620002047f2a2b85a2e6aaf6cce5559741cd89b1a45004ce3df8e39f90f4c539d2d8662f7460001b6200046460201b60201c565b620002387f8c41d23e0d6a65ca75b45c4e71aea37acb12f1c7e31caa367a397a5f5811e4d160001b6200046460201b60201c565b6200025b6200024c6200039660201b60201c565b600a546200047060201b60201c565b6200028f7f0381b07e1b05b934a5e8990ed376b133aba4429df7f4465d9902e185f6bb512060001b6200046460201b60201c565b620002c37f90c5bf8cc4f6f680a19e6c3e82223ad4bafba08c2b645755b60e517f187d245960001b6200046460201b60201c565b620002e76000801b620002db6200039660201b60201c565b620005e960201b60201c565b6200031b7f81912b30ee4054341d0a6973bc52cad2c3c86aa67ee92cb8ab848d6bdba5314a60001b6200046460201b60201c565b6200034f7fba9cb535097daa3c3a9148f669b5e07b5315438d221082f38157cc807bab89be60001b6200046460201b60201c565b620003907f3c11d16cbaffd01df69ce1c404f6340ee057498f5f00246190ea54220576a848620003846200039660201b60201c565b620005e960201b60201c565b62000bc8565b600033905090565b6000600560009054906101000a900473ffffffffffffffffffffffffffffffffffffffff16905081600560006101000a81548173ffffffffffffffffffffffffffffffffffffffff021916908373ffffffffffffffffffffffffffffffffffffffff1602179055508173ffffffffffffffffffffffffffffffffffffffff168173ffffffffffffffffffffffffffffffffffffffff167f8be0079c531659141344cd1fd0a4f28419497f9722a3daafe3b4186f6b6457e060405160405180910390a35050565b50565b60006012905090565b600073ffffffffffffffffffffffffffffffffffffffff168273ffffffffffffffffffffffffffffffffffffffff161415620004e3576040517f08c379a0000000000000000000000000000000000000000000000000000000008152600401620004da906200084e565b60405180910390fd5b620004f760008383620005ff60201b60201c565b80600260008282546200050b91906200089e565b92505081905550806000808473ffffffffffffffffffffffffffffffffffffffff1673ffffffffffffffffffffffffffffffffffffffff16815260200190815260200160002060008282546200056291906200089e565b925050819055508173ffffffffffffffffffffffffffffffffffffffff16600073ffffffffffffffffffffffffffffffffffffffff167fddf252ad1be2c89b69c2b068fc378daa952ba7f163c4a11628f55a4df523b3ef83604051620005c9919062000870565b60405180910390a3620005e5600083836200060460201b60201c565b5050565b620005fb82826200060960201b60201c565b5050565b505050565b505050565b6200061b8282620006fb60201b60201c565b620006f75760016006600084815260200190815260200160002060000160008373ffffffffffffffffffffffffffffffffffffffff1673ffffffffffffffffffffffffffffffffffffffff16815260200190815260200160002060006101000a81548160ff0219169083151502179055506200069c6200039660201b60201c565b73ffffffffffffffffffffffffffffffffffffffff168173ffffffffffffffffffffffffffffffffffffffff16837f2f8788117e7eff1d82e926ec794901d17c78024a50270940304540a733656f0d60405160405180910390a45b5050565b60006006600084815260200190815260200160002060000160008373ffffffffffffffffffffffffffffffffffffffff1673ffffffffffffffffffffffffffffffffffffffff16815260200190815260200160002060009054906101000a900460ff16905092915050565b828054620007749062000afe565b90600052602060002090601f016020900481019282620007985760008555620007e4565b82601f10620007b357805160ff1916838001178555620007e4565b82800160010185558215620007e4579182015b82811115620007e3578251825591602001919060010190620007c6565b5b509050620007f39190620007f7565b5090565b5b8082111562000812576000816000905550600101620007f8565b5090565b600062000825601f836200088d565b9150620008328262000b9f565b602082019050919050565b620008488162000af4565b82525050565b60006020820190508181036000830152620008698162000816565b9050919050565b60006020820190506200088760008301846200083d565b92915050565b600082825260208201905092915050565b6000620008ab8262000af4565b9150620008b88362000af4565b9250827fffffffffffffffffffffffffffffffffffffffffffffffffffffffffffffffff03821115620008f057620008ef62000b34565b5b828201905092915050565b6000808291508390505b60018511156200094d5780860481111562000925576200092462000b34565b5b6001851615620009355780820291505b8081029050620009458562000b92565b945062000905565b94509492505050565b6000620009638262000af4565b9150620009708362000af4565b92506200099f7fffffffffffffffffffffffffffffffffffffffffffffffffffffffffffffffff8484620009a7565b905092915050565b600082620009b9576001905062000a8c565b81620009c9576000905062000a8c565b8160018114620009e25760028114620009ed5762000a23565b600191505062000a8c565b60ff84111562000a025762000a0162000b34565b5b8360020a91508482111562000a1c5762000a1b62000b34565b5b5062000a8c565b5060208310610133831016604e8410600b841016171562000a5d5782820a90508381111562000a575762000a5662000b34565b5b62000a8c565b62000a6c8484846001620008fb565b9250905081840481111562000a865762000a8562000b34565b5b81810290505b9392505050565b600062000aa08262000af4565b915062000aad8362000af4565b9250817fffffffffffffffffffffffffffffffffffffffffffffffffffffffffffffffff048311821515161562000ae95762000ae862000b34565b5b828202905092915050565b6000819050919050565b6000600282049050600182168062000b1757607f821691505b6020821081141562000b2e5762000b2d62000b63565b5b50919050565b7f4e487b7100000000000000000000000000000000000000000000000000000000600052601160045260246000fd5b7f4e487b7100000000000000000000000000000000000000000000000000000000600052602260045260246000fd5b60008160011c9050919050565b7f45524332303a206d696e7420746f20746865207a65726f206164647265737300600082015250565b615c428062000bd86000396000f3fe6080604052600436106102345760003560e01c806391d148541161012e578063ce636726116100ab578063e34edc141161006f578063e34edc141461087f578063e56a645e146108a8578063e5dffed3146108d1578063f2f7049c146108fc578063f2fde38b146109275761023b565b8063ce6367261461079b578063d547741f146107c4578063db8d55f1146107ed578063dcb5f22014610819578063dd62ed3e146108425761023b565b8063a22d4832116100f2578063a22d4832146106a4578063a457c2d7146106cd578063a9059cbb1461070a578063bd9797f414610747578063cb81c229146107705761023b565b806391d14854146105bf57806395d89b41146105fc5780639729d64c146106275780639c466f1f14610650578063a217fddf146106795761023b565b806336568abe116101bc578063715018a611610180578063715018a61461050057806379594736146105175780638d101205146105405780638da5cb5b1461056b5780639072e306146105965761023b565b806336568abe14610409578063395093511461043257806342966c681461046f578063528928841461049857806370a08231146104c35761023b565b806323b872dd1161020357806323b872dd14610310578063248a9ca31461034d578063282c51f31461038a5780632f2ff15d146103b5578063313ce567146103de5761023b565b806301ffc9a71461024057806306fdde031461027d578063095ea7b3146102a857806318160ddd146102e55761023b565b3661023b57005b600080fd5b34801561024c57600080fd5b5061026760048036038101906102629190614998565b610950565b6040516102749190614eca565b60405180910390f35b34801561028957600080fd5b506102926109ca565b60405161029f9190614f1b565b60405180910390f35b3480156102b457600080fd5b506102cf60048036038101906102ca91906148be565b610a5c565b6040516102dc9190614eca565b60405180910390f35b3480156102f157600080fd5b506102fa610a7a565b60405161030791906151bd565b60405180910390f35b34801561031c57600080fd5b506103376004803603810190610332919061486b565b610a84565b6040516103449190614eca565b60405180910390f35b34801561035957600080fd5b50610374600480360381019061036f919061492b565b610b7c565b6040516103819190614ee5565b60405180910390f35b34801561039657600080fd5b5061039f610b9c565b6040516103ac9190614ee5565b60405180910390f35b3480156103c157600080fd5b506103dc60048036038101906103d79190614958565b610bc0565b005b3480156103ea57600080fd5b506103f3610be9565b604051610400919061525b565b60405180910390f35b34801561041557600080fd5b50610430600480360381019061042b9190614958565b610bf2565b005b34801561043e57600080fd5b50610459600480360381019061045491906148be565b610c75565b6040516104669190614eca565b60405180910390f35b34801561047b57600080fd5b50610496600480360381019061049191906149c5565b610d21565b005b3480156104a457600080fd5b506104ad610e35565b6040516104ba9190614e86565b60405180910390f35b3480156104cf57600080fd5b506104ea60048036038101906104e591906147d1565b610e5b565b6040516104f791906151bd565b60405180910390f35b34801561050c57600080fd5b50610515610ea3565b005b34801561052357600080fd5b5061053e600480360381019061053991906148fe565b610f2b565b005b34801561054c57600080fd5b50610555611048565b6040516105629190614eca565b60405180910390f35b34801561057757600080fd5b5061058061105b565b60405161058d9190614e86565b60405180910390f35b3480156105a257600080fd5b506105bd60048036038101906105b891906149c5565b611085565b005b3480156105cb57600080fd5b506105e660048036038101906105e19190614958565b611283565b6040516105f39190614eca565b60405180910390f35b34801561060857600080fd5b506106116112ee565b60405161061e9190614f1b565b60405180910390f35b34801561063357600080fd5b5061064e600480360381019061064991906147d1565b611380565b005b34801561065c57600080fd5b50610677600480360381019061067291906149c5565b61167f565b005b34801561068557600080fd5b5061068e61187d565b60405161069b9190614ee5565b60405180910390f35b3480156106b057600080fd5b506106cb60048036038101906106c691906147d1565b611884565b005b3480156106d957600080fd5b506106f460048036038101906106ef91906148be565b611ad3565b6040516107019190614eca565b60405180910390f35b34801561071657600080fd5b50610731600480360381019061072c91906148be565b611bbe565b60405161073e9190614eca565b60405180910390f35b34801561075357600080fd5b5061076e600480360381019061076991906149c5565b611bdc565b005b34801561077c57600080fd5b50610785611e41565b60405161079291906151bd565b60405180910390f35b3480156107a757600080fd5b506107c260048036038101906107bd91906147d1565b611e47565b005b3480156107d057600080fd5b506107eb60048036038101906107e69190614958565b61236b565b005b3480156107f957600080fd5b50610802612394565b604051610810929190615232565b60405180910390f35b34801561082557600080fd5b50610840600480360381019061083b91906147d1565b612429565b005b34801561084e57600080fd5b506108696004803603810190610864919061482b565b612732565b60405161087691906151bd565b60405180910390f35b34801561088b57600080fd5b506108a660048036038101906108a191906147d1565b6127b9565b005b3480156108b457600080fd5b506108cf60048036038101906108ca91906149c5565b612ac1565b005b3480156108dd57600080fd5b506108e6613025565b6040516108f39190614f00565b60405180910390f35b34801561090857600080fd5b5061091161304b565b60405161091e9190614e86565b60405180910390f35b34801561093357600080fd5b5061094e600480360381019061094991906147d1565b613071565b005b60007f7965db0b000000000000000000000000000000000000000000000000000000007bffffffffffffffffffffffffffffffffffffffffffffffffffffffff1916827bffffffffffffffffffffffffffffffffffffffffffffffffffffffff191614806109c357506109c282613169565b5b9050919050565b6060600380546109d99061551b565b80601f0160208091040260200160405190810160405280929190818152602001828054610a059061551b565b8015610a525780601f10610a2757610100808354040283529160200191610a52565b820191906000526020600020905b815481529060010190602001808311610a3557829003601f168201915b5050505050905090565b6000610a70610a696131d3565b84846131db565b6001905092915050565b6000600254905090565b6000610a918484846133a6565b6000600160008673ffffffffffffffffffffffffffffffffffffffff1673ffffffffffffffffffffffffffffffffffffffff1681526020019081526020016000206000610adc6131d3565b73ffffffffffffffffffffffffffffffffffffffff1673ffffffffffffffffffffffffffffffffffffffff16815260200190815260200160002054905082811015610b5c576040517f08c379a0000000000000000000000000000000000000000000000000000000008152600401610b539061501d565b60405180910390fd5b610b7085610b686131d3565b8584036131db565b60019150509392505050565b600060066000838152602001908152602001600020600101549050919050565b7f3c11d16cbaffd01df69ce1c404f6340ee057498f5f00246190ea54220576a84881565b610bc982610b7c565b610bda81610bd56131d3565b613cb3565b610be48383613d50565b505050565b60006012905090565b610bfa6131d3565b73ffffffffffffffffffffffffffffffffffffffff168173ffffffffffffffffffffffffffffffffffffffff1614610c67576040517f08c379a0000000000000000000000000000000000000000000000000000000008152600401610c5e9061519d565b60405180910390fd5b610c718282613e31565b5050565b6000610d17610c826131d3565b848460016000610c906131d3565b73ffffffffffffffffffffffffffffffffffffffff1673ffffffffffffffffffffffffffffffffffffffff16815260200190815260200160002060008873ffffffffffffffffffffffffffffffffffffffff1673ffffffffffffffffffffffffffffffffffffffff16815260200190815260200160002054610d1291906152d6565b6131db565b6001905092915050565b610d296131d3565b73ffffffffffffffffffffffffffffffffffffffff16610d4761105b565b73ffffffffffffffffffffffffffffffffffffffff1614610d9d576040517f08c379a0000000000000000000000000000000000000000000000000000000008152600401610d949061503d565b60405180910390fd5b610dc97f874871a162a71d4840c7f98993fb3251652851c996b75e596e2f66dee8baa7f960001b613f13565b610df57f68ecaabc630493d4ab70e690b088842f6f3ae666e7a82c9ff4d7db991edcb18d60001b613f13565b610e217f230cf1ba6a719d7e2d36ce293483374951c55a9a4587be1b0f0ba733c5a13c6b60001b613f13565b610e32610e2c6131d3565b82613f16565b50565b600960009054906101000a900473ffffffffffffffffffffffffffffffffffffffff1681565b60008060008373ffffffffffffffffffffffffffffffffffffffff1673ffffffffffffffffffffffffffffffffffffffff168152602001908152602001600020549050919050565b610eab6131d3565b73ffffffffffffffffffffffffffffffffffffffff16610ec961105b565b73ffffffffffffffffffffffffffffffffffffffff1614610f1f576040517f08c379a0000000000000000000000000000000000000000000000000000000008152600401610f169061503d565b60405180910390fd5b610f2960006140ed565b565b610f336131d3565b73ffffffffffffffffffffffffffffffffffffffff16610f5161105b565b73ffffffffffffffffffffffffffffffffffffffff1614610fa7576040517f08c379a0000000000000000000000000000000000000000000000000000000008152600401610f9e9061503d565b60405180910390fd5b610fd37fa858f45b1b59f3addfecf565acfc29b6f2458d78398da3bc46aa60a301b2071360001b613f13565b610fff7f37d4c084fcea657ac17c94ed1a1c7b04db733e32df13c3a3ad629c7927f3fa0e60001b613f13565b61102b7fccce66c20238b683f5b33aa8390ab58bbaec5b792ee3f35d0588a2ac2b34810260001b613f13565b80600d60006101000a81548160ff02191690831515021790555050565b600d60009054906101000a900460ff1681565b6000600560009054906101000a900473ffffffffffffffffffffffffffffffffffffffff16905090565b61108d6131d3565b73ffffffffffffffffffffffffffffffffffffffff166110ab61105b565b73ffffffffffffffffffffffffffffffffffffffff1614611101576040517f08c379a00000000000000000000000000000000000000000000000000000000081526004016110f89061503d565b60405180910390fd5b61112d7fff23f575ddf82a89cda38f6e25d8dd84d551b5d3ea4e3c433bbdce2ab55c4c6c60001b613f13565b6111597ffa7648d0999c65c1558697c161ba7e49f75747c9a493c4ea6ca969254f05c0b460001b613f13565b6111857fe303d1b7cc0589bf11c929684cba5a976db5fd144526c19840aee8c8291951b660001b613f13565b6111b17fa1e79fd50c2063573979e1ebf1d4993035057be88f704f5c8c0dea5112f3458460001b613f13565b60008110156111f5576040517f08c379a00000000000000000000000000000000000000000000000000000000081526004016111ec9061505d565b60405180910390fd5b6112217f2d6d8168589661b245ad05210f2615c1db13cf05693e3a25e1e78fec21bc323560001b613f13565b61124d7f8eacbd449c4d901c8a7a53b755efb3d9d459ad58e7c7da4c8bba68190e29544d60001b613f13565b6112797f235dbbd88aff0b673e281581964f59b7ee6708b4ba0b6a4abcb0685c1f28c81760001b613f13565b80600b8190555050565b60006006600084815260200190815260200160002060000160008373ffffffffffffffffffffffffffffffffffffffff1673ffffffffffffffffffffffffffffffffffffffff16815260200190815260200160002060009054906101000a900460ff16905092915050565b6060600480546112fd9061551b565b80601f01602080910402602001604051908101604052809291908181526020018280546113299061551b565b80156113765780601f1061134b57610100808354040283529160200191611376565b820191906000526020600020905b81548152906001019060200180831161135957829003601f168201915b5050505050905090565b6113886131d3565b73ffffffffffffffffffffffffffffffffffffffff166113a661105b565b73ffffffffffffffffffffffffffffffffffffffff16146113fc576040517f08c379a00000000000000000000000000000000000000000000000000000000081526004016113f39061503d565b60405180910390fd5b6114287ff0e5f5a062fb01ca110e048f65b9252393a563e8e194786e887bc99c82a638c760001b613f13565b6114547fb6661620e6fb1dcb4a87d781b8b0b726081dd7b87dbbd1bb78c1b198517f83ac60001b613f13565b6114807f87fae9fc1605aae09d8965a862adcecda40ceae54e93465d2c8d062dfff7ca6060001b613f13565b6114ac7f9640facc8901aac0eabce1f5364d56ce0695165847471018064c255fb02db2ed60001b613f13565b600073ffffffffffffffffffffffffffffffffffffffff168173ffffffffffffffffffffffffffffffffffffffff16141561151c576040517f08c379a0000000000000000000000000000000000000000000000000000000008152600401611513906150bd565b60405180910390fd5b6115487fb93863268e433fd79d20e2b653708360b570bf98470ae49bbed77ca7c0a7d48560001b613f13565b6115747f155e65c3bb6bee1b5a8306beee811d2dde625eb5e815cc300bad1e3745ee309b60001b613f13565b6115a07f55dd95cad26e6cb6884b2ae14df4addd9553aa2eb8c044fedb9bbdd7e1ec0e3b60001b613f13565b80600860006101000a81548173ffffffffffffffffffffffffffffffffffffffff021916908373ffffffffffffffffffffffffffffffffffffffff16021790555061160d7f8485e14467bec9af88edd6176fef347c81912742931baf041e908eea5a08b96f60001b613f13565b6116397f3c0ce189a26f414be6a5c769bb7d154f1512bfdc3293d94c2616a678951b3e8760001b613f13565b8073ffffffffffffffffffffffffffffffffffffffff167f0f7bf2342f244edc4ddc8b8c9c59859b32d0cf0fdba77897f8080db836b8fc1560405160405180910390a250565b6116876131d3565b73ffffffffffffffffffffffffffffffffffffffff166116a561105b565b73ffffffffffffffffffffffffffffffffffffffff16146116fb576040517f08c379a00000000000000000000000000000000000000000000000000000000081526004016116f29061503d565b60405180910390fd5b6117277ffe8ffb44fb47be877889ca12e262a2883968eaaa1947c78b9c84c42303fdd63e60001b613f13565b6117537f5e2aa41913a216a3676256395c8c85d655e27700c32d414a2cda1adc9042ea6160001b613f13565b61177f7f92eb3184e64a0a829d38bb248eb310849b44318c65d529c37d06e56729702c7c60001b613f13565b6117ab7fa0b95bacc6f44946ca54ad22e6fad4d6d72bdf0329f0e68bbbcd20ab8d83dad360001b613f13565b60068111156117ef576040517f08c379a00000000000000000000000000000000000000000000000000000000081526004016117e69061511d565b60405180910390fd5b61181b7f6262603b1ef5dd1aaa6e7f2c9a811699040ec0be8969c1bc3c47f5cd5cb2ab6660001b613f13565b6118477fa8af5b6c89846ba6a2d4b0b37b04f5831e6ba0c9ca452135003f9ddca69dc9bf60001b613f13565b6118737f773fa97560635f12d90ae3b5747f025b3ce03c9681ba5102b57b14e9732f582c60001b613f13565b80600c8190555050565b6000801b81565b61188c6131d3565b73ffffffffffffffffffffffffffffffffffffffff166118aa61105b565b73ffffffffffffffffffffffffffffffffffffffff1614611900576040517f08c379a00000000000000000000000000000000000000000000000000000000081526004016118f79061503d565b60405180910390fd5b61192c7fcc9bb4bfb50f8753d0b3805423e1b795b9c015d77ff8b6315c882227e98790f760001b613f13565b6119587fb60cc414ccd45705ec809ef12c8b98f546e361b2f31f66a1f4d240f388c2dbef60001b613f13565b6119847f0bdd4467206ea05c384952926d9e6524d032a38f748e3a07acb20648eddb652c60001b613f13565b6119b07f95743098b908f8d4200cdba1ef3d0e626804b4db8dc58930115232f982025d6f60001b613f13565b600073ffffffffffffffffffffffffffffffffffffffff16600960009054906101000a900473ffffffffffffffffffffffffffffffffffffffff1673ffffffffffffffffffffffffffffffffffffffff1614611a0b57600080fd5b611a377f89e878be3ade5aa6c83140e87f655d349879c23ef1808bc85effd7a21b3dd19560001b613f13565b611a637fcd3444bfb51978c7853dcd71c82e907581460ef996b688011c1262806ff0f84a60001b613f13565b611a8f7fab1ff83e49b642f1d55d495298cc0e2ed28801aaf0945fbc13f3c457c8e61cc860001b613f13565b80600960006101000a81548173ffffffffffffffffffffffffffffffffffffffff021916908373ffffffffffffffffffffffffffffffffffffffff16021790555050565b60008060016000611ae26131d3565b73ffffffffffffffffffffffffffffffffffffffff1673ffffffffffffffffffffffffffffffffffffffff16815260200190815260200160002060008573ffffffffffffffffffffffffffffffffffffffff1673ffffffffffffffffffffffffffffffffffffffff16815260200190815260200160002054905082811015611b9f576040517f08c379a0000000000000000000000000000000000000000000000000000000008152600401611b969061517d565b60405180910390fd5b611bb3611baa6131d3565b858584036131db565b600191505092915050565b6000611bd2611bcb6131d3565b84846133a6565b6001905092915050565b611be46131d3565b73ffffffffffffffffffffffffffffffffffffffff16611c0261105b565b73ffffffffffffffffffffffffffffffffffffffff1614611c58576040517f08c379a0000000000000000000000000000000000000000000000000000000008152600401611c4f9061503d565b60405180910390fd5b611c847fa981dd2ec8cc204a4f5de975e11f086eb282597d9fd965789df5a55de60beac660001b613f13565b611cb07f31a7415c31da047df5e1e4808a28cc2570907639808266cada354d4a4a769a3560001b613f13565b611cdc7f86a35f02b35a9d937e52c3d6ecc0cfaae00e8afbc2e79ddd4f49ba9035d88d4160001b613f13565b6000611ce730610e5b565b9050611d157fcceae568273af8efd3221f4808dd64619424e80e310bd760fc429fea71291f3460001b613f13565b611d417ffe99f1b917360ac8d691d3cb26a21928161305b08929e74787770a872a50562f60001b613f13565b611d6d7f3b7ee4f7d52d212cc7e232a7826ebfd6d215bd3392cf2930706da9d54b24dd3060001b613f13565b80821115611db0576040517f08c379a0000000000000000000000000000000000000000000000000000000008152600401611da790614ffd565b60405180910390fd5b611ddc7fd72ba3018c22a603110d612854925dfe5f1b7ef2233675c64b258fc0628d6ac160001b613f13565b611e087ffdabd829a6ed7553aaffc8b559cc7b64d4f4db556864a57ca48c3c6082dc9a1260001b613f13565b611e347f01e29be510ff09bebc81adfebd8b13e8df5e7de827cb00d4f9523bc2594accf360001b613f13565b611e3d82612ac1565b5050565b600f5481565b611e4f6131d3565b73ffffffffffffffffffffffffffffffffffffffff16611e6d61105b565b73ffffffffffffffffffffffffffffffffffffffff1614611ec3576040517f08c379a0000000000000000000000000000000000000000000000000000000008152600401611eba9061503d565b60405180910390fd5b611eef7f91d2d85651dd1f145bdeb46814358f467e8ad1d8515f9c765c9bd943788c52d260001b613f13565b611f1b7f9ffa4bd692a9c614209b8f3f21001371e7d3eccff5db3a3c6c5ba65cb7769c1360001b613f13565b611f477f189619229ffab062228adc4a2bfdbe074b3122ff6865d318bd58a7b222ca069560001b613f13565b611f737fdaa7e504c0454a40dec64b84ef6873f708ea08d9e4c9f9bc798566a30c415fa560001b613f13565b600f54421015611fb8576040517f08c379a0000000000000000000000000000000000000000000000000000000008152600401611faf9061515d565b60405180910390fd5b611fe47f223c71e359f2f064cff9c97e9ce2a3d74779dcd4d489a03c38fd207300d29b9060001b613f13565b6120107f96f04c50155c52583db175507eacae22784788da63664e85ba59e5a84a332d1860001b613f13565b61203c7f961c83ed8d02582e554af49ae76a0232e674f1f2d8bfc6ad1e3fd6c02b3744c460001b613f13565b600081905061206d7fe6704977ef99598fdbc27c8e6b06b1ee8f9a95eb69c02197fea6f941e45e12b360001b613f13565b6120997fbf8aecfb69334d46b4895efd0757ae0912db4e40d75c8ad907a37301435492a360001b613f13565b8073ffffffffffffffffffffffffffffffffffffffff1663c45a01556040518163ffffffff1660e01b815260040160206040518083038186803b1580156120df57600080fd5b505afa1580156120f3573d6000803e3d6000fd5b505050506040513d601f19601f8201168201806040525081019061211791906147fe565b73ffffffffffffffffffffffffffffffffffffffff1663c9c65396308373ffffffffffffffffffffffffffffffffffffffff1663ad5c46486040518163ffffffff1660e01b815260040160206040518083038186803b15801561217957600080fd5b505afa15801561218d573d6000803e3d6000fd5b505050506040513d601f19601f820116820180604052508101906121b191906147fe565b6040518363ffffffff1660e01b81526004016121ce929190614ea1565b602060405180830381600087803b1580156121e857600080fd5b505af11580156121fc573d6000803e3d6000fd5b505050506040513d601f19601f8201168201806040525081019061222091906147fe565b600960006101000a81548173ffffffffffffffffffffffffffffffffffffffff021916908373ffffffffffffffffffffffffffffffffffffffff16021790555061228c7fca9bd43f80c2a971f2cfe0e9b0218ec1335ecc00f2ed2717b5a2c89af1c0711760001b613f13565b6122b87f21bc6ddf697e488c5cb420b2160a971e6b206df2b46936b93dbe3c785c5d82ba60001b613f13565b80600760006101000a81548173ffffffffffffffffffffffffffffffffffffffff021916908373ffffffffffffffffffffffffffffffffffffffff1602179055506123257fff8cf1e870f3363c2ff0fa945f2abbaafe871ada7033f9c146b65be77cf8096760001b613f13565b6123517f979be8bb75d0fa0a76efbcde128ef15d4446834784c670447bca242eaf8fcaf660001b613f13565b6301e133804261236191906152d6565b600f819055505050565b61237482610b7c565b612385816123806131d3565b613cb3565b61238f8383613e31565b505050565b6000806123c37f80eabdae698c5db4f436826a925bdd55305944c4067b3e42fe75b5be6c50ceb360001b613f13565b6123ef7f7591c0e4924d7d011d2534f5cbe6be13838fc9b28f484d14d68a0d0b34d9d81460001b613f13565b61241b7f5314cb37ab76c25674b9242d28c274b87479c8741c5e954a3c6ea106c1c44be160001b613f13565b600b54600c54915091509091565b6124316131d3565b73ffffffffffffffffffffffffffffffffffffffff1661244f61105b565b73ffffffffffffffffffffffffffffffffffffffff16146124a5576040517f08c379a000000000000000000000000000000000000000000000000000000000815260040161249c9061503d565b60405180910390fd5b6124d17f8208650bb6a6fb778f85313ae1e4e6b97ffb73d58c45d7483e687ab3b35222a460001b613f13565b6124fd7f3fc74d5c6ef0de4ef0034b01df01171f34b94cbbe971d9857527568ee01ad43d60001b613f13565b6125297fa59dd7a2a6056bc862ca5b25d3106a4e7d176149d5e3dd9ecceba5272304cb9f60001b613f13565b6125557f2b83b6d533e9e54f218b64f517f33f19cc42ebb3ffed13f69c2b9bb26d896c8260001b613f13565b600e60008273ffffffffffffffffffffffffffffffffffffffff1673ffffffffffffffffffffffffffffffffffffffff16815260200190815260200160002060009054906101000a900460ff16156125ac57600080fd5b6125d87f88445042b4076121fd2de6ef58176a062ed545c9e9a87a23a2b100d024e8490060001b613f13565b6126047f69e00ad23a9f763d3f2b6b18ddc6c7f4c287afd1e6bce66a622dffd342a3820860001b613f13565b6126307fef95ef12bfb0eade85a8d8c1980b76ca4e17cb053033828cc99ddf66b89865ed60001b613f13565b6001600e60008373ffffffffffffffffffffffffffffffffffffffff1673ffffffffffffffffffffffffffffffffffffffff16815260200190815260200160002060006101000a81548160ff0219169083151502179055506126b47f4cad42baa7fc5485e5b4a7509dbc1189cd8e280f55ebeeed3d9b8bf397c26d0d60001b613f13565b6126e07f096bcd9683c0a0e05563b47e48c3dbb1fc10f6ecf910984a728d2b14ff38516660001b613f13565b8073ffffffffffffffffffffffffffffffffffffffff167ffd1d4aa2c8ad064e5488483008a99152737db29cc4d0f88d3b7b080f8d73cc8260016040516127279190614eca565b60405180910390a250565b6000600160008473ffffffffffffffffffffffffffffffffffffffff1673ffffffffffffffffffffffffffffffffffffffff16815260200190815260200160002060008373ffffffffffffffffffffffffffffffffffffffff1673ffffffffffffffffffffffffffffffffffffffff16815260200190815260200160002054905092915050565b6127c16131d3565b73ffffffffffffffffffffffffffffffffffffffff166127df61105b565b73ffffffffffffffffffffffffffffffffffffffff1614612835576040517f08c379a000000000000000000000000000000000000000000000000000000000815260040161282c9061503d565b60405180910390fd5b6128617f5eb5ab14da192167f553ad7dbfae042d3e72b04f3ea98354816388a7663c09bb60001b613f13565b61288d7ff8c18e39b27788c09204922ae5e52a7b746753ae8eafb2d4e5624e33a72e180560001b613f13565b6128b97f818f9367c9275165cdeffb20dcabec2b8039e511deb6ea96bea26f08c2d46d1260001b613f13565b6128e57f3d273b36f9ca6ba76acfc1272a90b72e6d660e080d3c0f5a137e344f5010a8f960001b613f13565b600e60008273ffffffffffffffffffffffffffffffffffffffff1673ffffffffffffffffffffffffffffffffffffffff16815260200190815260200160002060009054906101000a900460ff1661293b57600080fd5b6129677f61049e27960f247886e081c48510c98a807bf9856b20c7c09df8532d3630ddbd60001b613f13565b6129937fc4662402d740049f98674b9d30c6eb5f27a881314f2aa18ffba81ecd2b9ef15d60001b613f13565b6129bf7f9363172b3c4ae25591766b76d0e211e3a60e447cd7eab7a8c79a907e095a4ba960001b613f13565b6000600e60008373ffffffffffffffffffffffffffffffffffffffff1673ffffffffffffffffffffffffffffffffffffffff16815260200190815260200160002060006101000a81548160ff021916908315150217905550612a437f90c333b632fc37c9330e039b314a3f72fc91be7c34479d3cd8913ea74f2ff9b860001b613f13565b612a6f7f57243b59aa5a19c7db0f05bbabe2986f88eba1bced8fd99352eb615da07c545060001b613f13565b8073ffffffffffffffffffffffffffffffffffffffff167ffd1d4aa2c8ad064e5488483008a99152737db29cc4d0f88d3b7b080f8d73cc826000604051612ab69190614eca565b60405180910390a250565b612ac96131d3565b73ffffffffffffffffffffffffffffffffffffffff16612ae761105b565b73ffffffffffffffffffffffffffffffffffffffff1614612b3d576040517f08c379a0000000000000000000000000000000000000000000000000000000008152600401612b349061503d565b60405180910390fd5b612b697f14f77654cc92c8d4169fec5808b3c36912a600eaa8fa5bcaaa967d7f750050b560001b613f13565b612b957fbc1beb35fec1eef73844a671b0d6616961e5ce7e3987e68646003644be6d906560001b613f13565b612bc17f03a9591ad92b173b1e2e410f46377a02484164743bbf15cacb8eaf9dc4b81d6660001b613f13565b6000600267ffffffffffffffff811115612bde57612bdd615609565b5b604051908082528060200260200182016040528015612c0c5781602001602082028036833780820191505090505b509050612c3b7f783b62aafdb5e4e90c1ad23a76431d61a200db9541f66dc031375104ce774b9860001b613f13565b612c677f4016f4a1253fbce6072a93086db178bf49ad87f85a682f2ccd5225fd46a6befa60001b613f13565b3081600081518110612c7c57612c7b6155da565b5b602002602001019073ffffffffffffffffffffffffffffffffffffffff16908173ffffffffffffffffffffffffffffffffffffffff1681525050612ce27f2ea0711eb4f84f97c0fcdc427fa2c5aab8e342cf7338507dea31cf4bb59cfe1660001b613f13565b612d0e7f9611dcc0353f4130e3b7445bc25f254b71bb6ab3c5d5ece5c74e78c14177572360001b613f13565b600760009054906101000a900473ffffffffffffffffffffffffffffffffffffffff1673ffffffffffffffffffffffffffffffffffffffff1663ad5c46486040518163ffffffff1660e01b815260040160206040518083038186803b158015612d7657600080fd5b505afa158015612d8a573d6000803e3d6000fd5b505050506040513d601f19601f82011682018060405250810190612dae91906147fe565b81600181518110612dc257612dc16155da565b5b602002602001019073ffffffffffffffffffffffffffffffffffffffff16908173ffffffffffffffffffffffffffffffffffffffff1681525050612e287f49bc151ab909544eb501abce1e163b7e43e69903e091b86fd79e93062aa7ffeb60001b613f13565b612e547fcfef6c3cb07ca0b9e64a4bd95f56d7babe9eb6a18c5fc8e7e54f58471e8ab65660001b613f13565b612e8130600760009054906101000a900473ffffffffffffffffffffffffffffffffffffffff16846131db565b612ead7fbc1ddb574d46e47d5c76eca663a2f05baa044a5368ded37590f2bee54107bf4960001b613f13565b612ed97ff82c9006b6fd15b505f7c0e189c9c16fe610f8a7a08135ea0f2ecacab1b4a14860001b613f13565b600760009054906101000a900473ffffffffffffffffffffffffffffffffffffffff1673ffffffffffffffffffffffffffffffffffffffff1663791ac94783600084600860009054906101000a900473ffffffffffffffffffffffffffffffffffffffff16426040518663ffffffff1660e01b8152600401612f5f9594939291906151d8565b600060405180830381600087803b158015612f7957600080fd5b505af1925050508015612f8a575060015b61302057612fba7f18e3323504035f329d1b727cf6b856f52098af379271a44614256ff6ebd399c160001b613f13565b612fe67f2e17429f5ef1b1683f393207017eb79534ff35334dbaf9934880fb21f234037a60001b613f13565b7fcf34ef537ac33ee1ac626ca1587a0a7e8e51561e5514f8cb36afa1c5102b3bab6040516130139061513d565b60405180910390a1613021565b5b5050565b600760009054906101000a900473ffffffffffffffffffffffffffffffffffffffff1681565b600860009054906101000a900473ffffffffffffffffffffffffffffffffffffffff1681565b6130796131d3565b73ffffffffffffffffffffffffffffffffffffffff1661309761105b565b73ffffffffffffffffffffffffffffffffffffffff16146130ed576040517f08c379a00000000000000000000000000000000000000000000000000000000081526004016130e49061503d565b60405180910390fd5b600073ffffffffffffffffffffffffffffffffffffffff168173ffffffffffffffffffffffffffffffffffffffff16141561315d576040517f08c379a000000000000000000000000000000000000000000000000000000000815260040161315490614f9d565b60405180910390fd5b613166816140ed565b50565b60007f01ffc9a7000000000000000000000000000000000000000000000000000000007bffffffffffffffffffffffffffffffffffffffffffffffffffffffff1916827bffffffffffffffffffffffffffffffffffffffffffffffffffffffff1916149050919050565b600033905090565b600073ffffffffffffffffffffffffffffffffffffffff168373ffffffffffffffffffffffffffffffffffffffff16141561324b576040517f08c379a0000000000000000000000000000000000000000000000000000000008152600401613242906150fd565b60405180910390fd5b600073ffffffffffffffffffffffffffffffffffffffff168273ffffffffffffffffffffffffffffffffffffffff1614156132bb576040517f08c379a00000000000000000000000000000000000000000000000000000000081526004016132b290614fbd565b60405180910390fd5b80600160008573ffffffffffffffffffffffffffffffffffffffff1673ffffffffffffffffffffffffffffffffffffffff16815260200190815260200160002060008473ffffffffffffffffffffffffffffffffffffffff1673ffffffffffffffffffffffffffffffffffffffff168152602001908152602001600020819055508173ffffffffffffffffffffffffffffffffffffffff168373ffffffffffffffffffffffffffffffffffffffff167f8c5be1e5ebec7d5bd14f71427d1e84f3dd0314c0f7b2291e5b200ac8c7c3b9258360405161339991906151bd565b60405180910390a3505050565b6133d27f053281432cd0c552183553f8f9da1c1e1512e8f8ce86fdc41041200e80ef725560001b613f13565b6133fe7fff869c270c001b3dc468854ad56d7cf01dab3a91a7e23630692b8e3d348e19de60001b613f13565b61342a7f79494500391633c9fbb769dfe3ecb2b3cd8dc9f3df60e7cdb08dfa2ddb8ab2d160001b613f13565b6134567f359a9fa7e94cd2bbf587e464e7a6c33d39104d33d528458185121395522a30be60001b613f13565b600073ffffffffffffffffffffffffffffffffffffffff168373ffffffffffffffffffffffffffffffffffffffff1614156134c6576040517f08c379a00000000000000000000000000000000000000000000000000000000081526004016134bd906150dd565b60405180910390fd5b6134f27f30e073747e86d7419ff3ad135a6b8a02624545be57f6595dff9fdab5fb2a7bb760001b613f13565b61351e7feaa402665f1525dca802a0c2bead9489076e30a549d09b0d876e6a19022fdb0a60001b613f13565b61354a7f91982d7609adfbb4600126d697f20e61e20e0c5cd1be4e63d1325b73c30b619d60001b613f13565b6135767f795b13e2d9e12ba324ccac9aedd3a743c54f4f9530ae93d62bda0e78e64f765e60001b613f13565b600073ffffffffffffffffffffffffffffffffffffffff168273ffffffffffffffffffffffffffffffffffffffff1614156135e6576040517f08c379a00000000000000000000000000000000000000000000000000000000081526004016135dd90614f5d565b60405180910390fd5b6136127f5be9acc3cdcc8dc5aac64c9ce5f64986fce74a03d2022b1df1baa3e41205c0ce60001b613f13565b61363e7f0b06591f0503adff195110193b284c48c9e3e845d69b9497fcb95104a0ee237060001b613f13565b61366a7ff1a4f8573300deb6ac04447b89ac45b4871f8eb230267e8bd9e79998dc6a287760001b613f13565b6136967f6809965b6d5a3b595ca4562fe23942c7aeee26ca95340ab79d97eae2976fa8a060001b613f13565b600081116136d9576040517f08c379a00000000000000000000000000000000000000000000000000000000081526004016136d09061507d565b60405180910390fd5b6137057f16a34063858514359fa2dcfc20449cef17a18e424f52c9ea7c5c1ee742123c2560001b613f13565b6137317f1246824c4160bcea34a76e9bf37fdc681657d76963327a65df1a705e50a3509b60001b613f13565b61375d7fc5cb343f6098f974670c51136f34284136e87207c6f59f927f929cf05e9bb81160001b613f13565b600061378b7f11cbb33dcad5151a1798a1a2437b5c1e4e47c16250527f887803b32ecef1990060001b613f13565b6137b77fcf8deb65e5fc2dfe3b03bc4ed178431ba01e51c5a1f1d020dc68d2004efa787660001b613f13565b600e60008573ffffffffffffffffffffffffffffffffffffffff1673ffffffffffffffffffffffffffffffffffffffff16815260200190815260200160002060009054906101000a900460ff16158061385a5750600e60008473ffffffffffffffffffffffffffffffffffffffff1673ffffffffffffffffffffffffffffffffffffffff16815260200190815260200160002060009054906101000a900460ff16155b806138715750600d60009054906101000a900460ff165b15613a27576138a27fee74511d782791863b14dd42ab6a31ad70d6da404cc7c73526721ff3d0185da560001b613f13565b6138ce7fd77a7e6da8d34a5656d9798e5c1a5dfc3f9b3f3c4d83f53f6bb82b1bc066bb4160001b613f13565b6138fa7fb8bdccd8bd21b7fda0f746d07413ca0658ad985d026eaf1e3b1ea10b5146440d60001b613f13565b600960009054906101000a900473ffffffffffffffffffffffffffffffffffffffff1673ffffffffffffffffffffffffffffffffffffffff168373ffffffffffffffffffffffffffffffffffffffff1614806139625750600d60009054906101000a900460ff165b156139f5576139937f3ba0319b38cfbe6e4832dd29eebca59f530ee39e1ad7d372873466cd607ee57360001b613f13565b6139bf7f7f578cb08e39e8fc934142422fb9f5d1de4d0de8fb2c2b5399601acd3978fae660001b613f13565b6139eb7fba0cfba50c7a2bcc7438b12453d456f0c96a52c198451701c6dcf639c5db082260001b613f13565b600c549050613a22565b613a217f88d6b04da6f31100d3e0c59651c91c01d39c367058179b9c86cea4264baca99060001b613f13565b5b613a54565b613a537fc119f2e807bae09ea6073b67f519ebb2a6efd0c003b893d6293fd69a8e7b971560001b613f13565b5b613a807f2818a3834e447a167422cbf2b00118813570aa76f4a9f84435158964867f14cc60001b613f13565b613aac7f28ecb9a93087752a7aec2097887aec12e9a571c5ec76ad60f94b635927abb0d460001b613f13565b6000811115613c1d57613ae17f64ff359c8cfb0e50332484850933a19369ebcfb21d9e57d4fe25730068403e7760001b613f13565b613b0d7f61ba160dc4bcfb5266a9966c187d29d20788ca52879fc2af3c9c9780d9c4b03b60001b613f13565b613b397f5d541f27a5a2372779f327060051d1dadf89cdae00aac6554358bc176912a44560001b613f13565b6000613b4583836141b3565b9050613b737feea4210f50b3ff0c83eb35af2632a78b79b1ac16feb325cf5fed6e91d82bc36f60001b613f13565b613b9f7f54b2f344e0de0af165d70ff1e84aab963f259eb060d9f36ee9d2855b9899cd0f60001b613f13565b613baa853083614260565b613bd67f9711b1c06c8a25e9b99904e4d592065372ab4655d00bb8b7c52ccbb8f5dc426760001b613f13565b613c027f55afbdfefb24ab319b2a7a86d87613c1f40681bbfb21a3e396138b7a6c7bcd9f60001b613f13565b613c1581846144e190919063ffffffff16565b925050613c4a565b613c497f48d6d04818aa232157fba296726362097bf6d8350b984fe990c13d9cf865f03660001b613f13565b5b613c767fab855e124e713de6169c5ebca0cb18eb3c0c438ba9653f1161a3eec924b8de6160001b613f13565b613ca27fcff2e869c8052436b75f5e775b6dece6819cdb1fea36c9d9aa53cd6502db630d60001b613f13565b613cad848484614260565b50505050565b613cbd8282611283565b613d4c57613ce28173ffffffffffffffffffffffffffffffffffffffff1660146144f7565b613cf08360001c60206144f7565b604051602001613d01929190614e4c565b6040516020818303038152906040526040517f08c379a0000000000000000000000000000000000000000000000000000000008152600401613d439190614f1b565b60405180910390fd5b5050565b613d5a8282611283565b613e2d5760016006600084815260200190815260200160002060000160008373ffffffffffffffffffffffffffffffffffffffff1673ffffffffffffffffffffffffffffffffffffffff16815260200190815260200160002060006101000a81548160ff021916908315150217905550613dd26131d3565b73ffffffffffffffffffffffffffffffffffffffff168173ffffffffffffffffffffffffffffffffffffffff16837f2f8788117e7eff1d82e926ec794901d17c78024a50270940304540a733656f0d60405160405180910390a45b5050565b613e3b8282611283565b15613f0f5760006006600084815260200190815260200160002060000160008373ffffffffffffffffffffffffffffffffffffffff1673ffffffffffffffffffffffffffffffffffffffff16815260200190815260200160002060006101000a81548160ff021916908315150217905550613eb46131d3565b73ffffffffffffffffffffffffffffffffffffffff168173ffffffffffffffffffffffffffffffffffffffff16837ff6391f5c32d9c69d2a47ea670b442974b53935d1edc7fd64eb21e047a839171b60405160405180910390a45b5050565b50565b600073ffffffffffffffffffffffffffffffffffffffff168273ffffffffffffffffffffffffffffffffffffffff161415613f86576040517f08c379a0000000000000000000000000000000000000000000000000000000008152600401613f7d9061509d565b60405180910390fd5b613f9282600083614733565b60008060008473ffffffffffffffffffffffffffffffffffffffff1673ffffffffffffffffffffffffffffffffffffffff16815260200190815260200160002054905081811015614018576040517f08c379a000000000000000000000000000000000000000000000000000000000815260040161400f90614f7d565b60405180910390fd5b8181036000808573ffffffffffffffffffffffffffffffffffffffff1673ffffffffffffffffffffffffffffffffffffffff16815260200190815260200160002081905550816002600082825461406f91906153b7565b92505081905550600073ffffffffffffffffffffffffffffffffffffffff168373ffffffffffffffffffffffffffffffffffffffff167fddf252ad1be2c89b69c2b068fc378daa952ba7f163c4a11628f55a4df523b3ef846040516140d491906151bd565b60405180910390a36140e883600084614738565b505050565b6000600560009054906101000a900473ffffffffffffffffffffffffffffffffffffffff16905081600560006101000a81548173ffffffffffffffffffffffffffffffffffffffff021916908373ffffffffffffffffffffffffffffffffffffffff1602179055508173ffffffffffffffffffffffffffffffffffffffff168173ffffffffffffffffffffffffffffffffffffffff167f8be0079c531659141344cd1fd0a4f28419497f9722a3daafe3b4186f6b6457e060405160405180910390a35050565b60006141e17f1083802c199ccf3b199e4b4fc079dcc57d881f3e55b32c2c3e39d0b486545d4c60001b613f13565b61420d7f46335d69d91e95c1f260086c57556e654e09eb434a6a778368cb9232a292c20060001b613f13565b6142397f0d7440cd80b0e8b2676a63a8a099128530853ea3e7b2f2da192a2a845ddb8fe860001b613f13565b6142586064838561424a919061535d565b61473d90919063ffffffff16565b905092915050565b600073ffffffffffffffffffffffffffffffffffffffff168373ffffffffffffffffffffffffffffffffffffffff1614156142d0576040517f08c379a00000000000000000000000000000000000000000000000000000000081526004016142c7906150dd565b60405180910390fd5b600073ffffffffffffffffffffffffffffffffffffffff168273ffffffffffffffffffffffffffffffffffffffff161415614340576040517f08c379a000000000000000000000000000000000000000000000000000000000815260040161433790614f5d565b60405180910390fd5b61434b838383614733565b60008060008573ffffffffffffffffffffffffffffffffffffffff1673ffffffffffffffffffffffffffffffffffffffff168152602001908152602001600020549050818110156143d1576040517f08c379a00000000000000000000000000000000000000000000000000000000081526004016143c890614fdd565b60405180910390fd5b8181036000808673ffffffffffffffffffffffffffffffffffffffff1673ffffffffffffffffffffffffffffffffffffffff16815260200190815260200160002081905550816000808573ffffffffffffffffffffffffffffffffffffffff1673ffffffffffffffffffffffffffffffffffffffff168152602001908152602001600020600082825461446491906152d6565b925050819055508273ffffffffffffffffffffffffffffffffffffffff168473ffffffffffffffffffffffffffffffffffffffff167fddf252ad1be2c89b69c2b068fc378daa952ba7f163c4a11628f55a4df523b3ef846040516144c891906151bd565b60405180910390a36144db848484614738565b50505050565b600081836144ef91906153b7565b905092915050565b60606000600283600261450a919061535d565b61451491906152d6565b67ffffffffffffffff81111561452d5761452c615609565b5b6040519080825280601f01601f19166020018201604052801561455f5781602001600182028036833780820191505090505b5090507f300000000000000000000000000000000000000000000000000000000000000081600081518110614597576145966155da565b5b60200101907effffffffffffffffffffffffffffffffffffffffffffffffffffffffffffff1916908160001a9053507f7800000000000000000000000000000000000000000000000000000000000000816001815181106145fb576145fa6155da565b5b60200101907effffffffffffffffffffffffffffffffffffffffffffffffffffffffffffff1916908160001a9053506000600184600261463b919061535d565b61464591906152d6565b90505b60018111156146e5577f3031323334353637383961626364656600000000000000000000000000000000600f861660108110614687576146866155da565b5b1a60f81b82828151811061469e5761469d6155da565b5b60200101907effffffffffffffffffffffffffffffffffffffffffffffffffffffffffffff1916908160001a905350600485901c9450806146de906154f1565b9050614648565b5060008414614729576040517f08c379a000000000000000000000000000000000000000000000000000000000815260040161472090614f3d565b60405180910390fd5b8091505092915050565b505050565b505050565b6000818361474b919061532c565b905092915050565b60008135905061476281615bc2565b92915050565b60008151905061477781615bc2565b92915050565b60008135905061478c81615bd9565b92915050565b6000813590506147a181615bf0565b92915050565b6000813590506147b681615c07565b92915050565b6000813590506147cb81615c1e565b92915050565b6000602082840312156147e7576147e6615638565b5b60006147f584828501614753565b91505092915050565b60006020828403121561481457614813615638565b5b600061482284828501614768565b91505092915050565b6000806040838503121561484257614841615638565b5b600061485085828601614753565b925050602061486185828601614753565b9150509250929050565b60008060006060848603121561488457614883615638565b5b600061489286828701614753565b93505060206148a386828701614753565b92505060406148b4868287016147bc565b9150509250925092565b600080604083850312156148d5576148d4615638565b5b60006148e385828601614753565b92505060206148f4858286016147bc565b9150509250929050565b60006020828403121561491457614913615638565b5b60006149228482850161477d565b91505092915050565b60006020828403121561494157614940615638565b5b600061494f84828501614792565b91505092915050565b6000806040838503121561496f5761496e615638565b5b600061497d85828601614792565b925050602061498e85828601614753565b9150509250929050565b6000602082840312156149ae576149ad615638565b5b60006149bc848285016147a7565b91505092915050565b6000602082840312156149db576149da615638565b5b60006149e9848285016147bc565b91505092915050565b60006149fe8383614a0a565b60208301905092915050565b614a13816153eb565b82525050565b614a22816153eb565b82525050565b6000614a3382615286565b614a3d81856152a9565b9350614a4883615276565b8060005b83811015614a79578151614a6088826149f2565b9750614a6b8361529c565b925050600181019050614a4c565b5085935050505092915050565b614a8f816153fd565b82525050565b614a9e81615409565b82525050565b614aad81615476565b82525050565b614abc81615488565b82525050565b6000614acd82615291565b614ad781856152ba565b9350614ae78185602086016154be565b614af08161563d565b840191505092915050565b6000614b0682615291565b614b1081856152cb565b9350614b208185602086016154be565b80840191505092915050565b6000614b396020836152ba565b9150614b448261564e565b602082019050919050565b6000614b5c6023836152ba565b9150614b6782615677565b604082019050919050565b6000614b7f6022836152ba565b9150614b8a826156c6565b604082019050919050565b6000614ba26026836152ba565b9150614bad82615715565b604082019050919050565b6000614bc56022836152ba565b9150614bd082615764565b604082019050919050565b6000614be86026836152ba565b9150614bf3826157b3565b604082019050919050565b6000614c0b6020836152ba565b9150614c1682615802565b602082019050919050565b6000614c2e6028836152ba565b9150614c398261582b565b604082019050919050565b6000614c516020836152ba565b9150614c5c8261587a565b602082019050919050565b6000614c746025836152ba565b9150614c7f826158a3565b604082019050919050565b6000614c976029836152ba565b9150614ca2826158f2565b604082019050919050565b6000614cba6021836152ba565b9150614cc582615941565b604082019050919050565b6000614cdd6020836152ba565b9150614ce882615990565b602082019050919050565b6000614d006025836152ba565b9150614d0b826159b9565b604082019050919050565b6000614d236024836152ba565b9150614d2e82615a08565b604082019050919050565b6000614d46601d836152ba565b9150614d5182615a57565b602082019050919050565b6000614d696017836152cb565b9150614d7482615a80565b601782019050919050565b6000614d8c6014836152ba565b9150614d9782615aa9565b602082019050919050565b6000614daf6015836152ba565b9150614dba82615ad2565b602082019050919050565b6000614dd26025836152ba565b9150614ddd82615afb565b604082019050919050565b6000614df56011836152cb565b9150614e0082615b4a565b601182019050919050565b6000614e18602f836152ba565b9150614e2382615b73565b604082019050919050565b614e378161545f565b82525050565b614e4681615469565b82525050565b6000614e5782614d5c565b9150614e638285614afb565b9150614e6e82614de8565b9150614e7a8284614afb565b91508190509392505050565b6000602082019050614e9b6000830184614a19565b92915050565b6000604082019050614eb66000830185614a19565b614ec36020830184614a19565b9392505050565b6000602082019050614edf6000830184614a86565b92915050565b6000602082019050614efa6000830184614a95565b92915050565b6000602082019050614f156000830184614aa4565b92915050565b60006020820190508181036000830152614f358184614ac2565b905092915050565b60006020820190508181036000830152614f5681614b2c565b9050919050565b60006020820190508181036000830152614f7681614b4f565b9050919050565b60006020820190508181036000830152614f9681614b72565b9050919050565b60006020820190508181036000830152614fb681614b95565b9050919050565b60006020820190508181036000830152614fd681614bb8565b9050919050565b60006020820190508181036000830152614ff681614bdb565b9050919050565b6000602082019050818103600083015261501681614bfe565b9050919050565b6000602082019050818103600083015261503681614c21565b9050919050565b6000602082019050818103600083015261505681614c44565b9050919050565b6000602082019050818103600083015261507681614c67565b9050919050565b6000602082019050818103600083015261509681614c8a565b9050919050565b600060208201905081810360008301526150b681614cad565b9050919050565b600060208201905081810360008301526150d681614cd0565b9050919050565b600060208201905081810360008301526150f681614cf3565b9050919050565b6000602082019050818103600083015261511681614d16565b9050919050565b6000602082019050818103600083015261513681614d39565b9050919050565b6000602082019050818103600083015261515681614d7f565b9050919050565b6000602082019050818103600083015261517681614da2565b9050919050565b6000602082019050818103600083015261519681614dc5565b9050919050565b600060208201905081810360008301526151b681614e0b565b9050919050565b60006020820190506151d26000830184614e2e565b92915050565b600060a0820190506151ed6000830188614e2e565b6151fa6020830187614ab3565b818103604083015261520c8186614a28565b905061521b6060830185614a19565b6152286080830184614e2e565b9695505050505050565b60006040820190506152476000830185614e2e565b6152546020830184614e2e565b9392505050565b60006020820190506152706000830184614e3d565b92915050565b6000819050602082019050919050565b600081519050919050565b600081519050919050565b6000602082019050919050565b600082825260208201905092915050565b600082825260208201905092915050565b600081905092915050565b60006152e18261545f565b91506152ec8361545f565b9250827fffffffffffffffffffffffffffffffffffffffffffffffffffffffffffffffff038211156153215761532061554d565b5b828201905092915050565b60006153378261545f565b91506153428361545f565b9250826153525761535161557c565b5b828204905092915050565b60006153688261545f565b91506153738361545f565b9250817fffffffffffffffffffffffffffffffffffffffffffffffffffffffffffffffff04831182151516156153ac576153ab61554d565b5b828202905092915050565b60006153c28261545f565b91506153cd8361545f565b9250828210156153e0576153df61554d565b5b828203905092915050565b60006153f68261543f565b9050919050565b60008115159050919050565b6000819050919050565b60007fffffffff0000000000000000000000000000000000000000000000000000000082169050919050565b600073ffffffffffffffffffffffffffffffffffffffff82169050919050565b6000819050919050565b600060ff82169050919050565b60006154818261549a565b9050919050565b60006154938261545f565b9050919050565b60006154a5826154ac565b9050919050565b60006154b78261543f565b9050919050565b60005b838110156154dc5780820151818401526020810190506154c1565b838111156154eb576000848401525b50505050565b60006154fc8261545f565b915060008214156155105761550f61554d565b5b600182039050919050565b6000600282049050600182168061553357607f821691505b60208210811415615547576155466155ab565b5b50919050565b7f4e487b7100000000000000000000000000000000000000000000000000000000600052601160045260246000fd5b7f4e487b7100000000000000000000000000000000000000000000000000000000600052601260045260246000fd5b7f4e487b7100000000000000000000000000000000000000000000000000000000600052602260045260246000fd5b7f4e487b7100000000000000000000000000000000000000000000000000000000600052603260045260246000fd5b7f4e487b7100000000000000000000000000000000000000000000000000000000600052604160045260246000fd5b600080fd5b6000601f19601f8301169050919050565b7f537472696e67733a20686578206c656e67746820696e73756666696369656e74600082015250565b7f45524332303a207472616e7366657220746f20746865207a65726f206164647260008201527f6573730000000000000000000000000000000000000000000000000000000000602082015250565b7f45524332303a206275726e20616d6f756e7420657863656564732062616c616e60008201527f6365000000000000000000000000000000000000000000000000000000000000602082015250565b7f4f776e61626c653a206e6577206f776e657220697320746865207a65726f206160008201527f6464726573730000000000000000000000000000000000000000000000000000602082015250565b7f45524332303a20617070726f766520746f20746865207a65726f20616464726560008201527f7373000000000000000000000000000000000000000000000000000000000000602082015250565b7f45524332303a207472616e7366657220616d6f756e742065786365656473206260008201527f616c616e63650000000000000000000000000000000000000000000000000000602082015250565b7f63616e6e6f7420656e6f75676820746f6b656e20666f72207377617070696e67600082015250565b7f45524332303a207472616e7366657220616d6f756e742065786365656473206160008201527f6c6c6f77616e6365000000000000000000000000000000000000000000000000602082015250565b7f4f776e61626c653a2063616c6c6572206973206e6f7420746865206f776e6572600082015250565b7f666565206e65656420746f207365742067726561746572207468616e2065717560008201527f616c203025000000000000000000000000000000000000000000000000000000602082015250565b7f5472616e7366657220616d6f756e74206d75737420626520677265617465722060008201527f7468616e207a65726f0000000000000000000000000000000000000000000000602082015250565b7f45524332303a206275726e2066726f6d20746865207a65726f2061646472657360008201527f7300000000000000000000000000000000000000000000000000000000000000602082015250565b7f3078206f72206f776e6572206973206e6f742061636365707465642068657265600082015250565b7f45524332303a207472616e736665722066726f6d20746865207a65726f20616460008201527f6472657373000000000000000000000000000000000000000000000000000000602082015250565b7f45524332303a20617070726f76652066726f6d20746865207a65726f2061646460008201527f7265737300000000000000000000000000000000000000000000000000000000602082015250565b7f666565206e65656420746f20736574206c6f776572207468616e203625000000600082015250565b7f416363657373436f6e74726f6c3a206163636f756e7420000000000000000000600082015250565b7f65787465726e616c2063616c6c206661696c6564000000000000000000000000600082015250565b7f535741504c4f434b54494d453a20494e56414c49440000000000000000000000600082015250565b7f45524332303a2064656372656173656420616c6c6f77616e63652062656c6f7760008201527f207a65726f000000000000000000000000000000000000000000000000000000602082015250565b7f206973206d697373696e6720726f6c6520000000000000000000000000000000600082015250565b7f416363657373436f6e74726f6c3a2063616e206f6e6c792072656e6f756e636560008201527f20726f6c657320666f722073656c660000000000000000000000000000000000602082015250565b615bcb816153eb565b8114615bd657600080fd5b50565b615be2816153fd565b8114615bed57600080fd5b50565b615bf981615409565b8114615c0457600080fd5b50565b615c1081615413565b8114615c1b57600080fd5b50565b615c278161545f565b8114615c3257600080fd5b5056fea164736f6c6343000807000a",
  "linkReferences": {},
  "deployedLinkReferences": {}
}