{
  "_format": "hh-sol-artifact-1",
  "contractName": "TESToken",
  "sourceName": "contracts/TESToken.sol",
  "abi": [
    {
      "inputs": [],
      "stateMutability": "nonpayable",
      "type": "constructor"
    },
    {
      "anonymous": false,
      "inputs": [
        {
          "indexed": true,
          "internalType": "address",
          "name": "owner",
          "type": "address"
        },
        {
          "indexed": true,
          "internalType": "address",
          "name": "spender",
          "type": "address"
        },
        {
          "indexed": false,
          "internalType": "uint256",
          "name": "value",
          "type": "uint256"
        }
      ],
      "name": "Approval",
      "type": "event"
    },
    {
      "anonymous": false,
      "inputs": [
        {
          "indexed": true,
          "internalType": "address",
          "name": "addr",
          "type": "address"
        }
      ],
      "name": "EventChangeSwapBalanceAddress",
      "type": "event"
    },
    {
      "anonymous": false,
      "inputs": [
        {
          "indexed": true,
          "internalType": "address",
          "name": "target",
          "type": "address"
        },
        {
          "indexed": false,
          "internalType": "bool",
          "name": "state",
          "type": "bool"
        }
      ],
      "name": "EventWhiteList",
      "type": "event"
    },
    {
      "anonymous": false,
      "inputs": [
        {
          "indexed": false,
          "internalType": "string",
          "name": "message",
          "type": "string"
        }
      ],
      "name": "Log",
      "type": "event"
    },
    {
      "anonymous": false,
      "inputs": [
        {
          "indexed": true,
          "internalType": "address",
          "name": "previousOwner",
          "type": "address"
        },
        {
          "indexed": true,
          "internalType": "address",
          "name": "newOwner",
          "type": "address"
        }
      ],
      "name": "OwnershipTransferred",
      "type": "event"
    },
    {
      "anonymous": false,
      "inputs": [
        {
          "indexed": true,
          "internalType": "bytes32",
          "name": "role",
          "type": "bytes32"
        },
        {
          "indexed": true,
          "internalType": "bytes32",
          "name": "previousAdminRole",
          "type": "bytes32"
        },
        {
          "indexed": true,
          "internalType": "bytes32",
          "name": "newAdminRole",
          "type": "bytes32"
        }
      ],
      "name": "RoleAdminChanged",
      "type": "event"
    },
    {
      "anonymous": false,
      "inputs": [
        {
          "indexed": true,
          "internalType": "bytes32",
          "name": "role",
          "type": "bytes32"
        },
        {
          "indexed": true,
          "internalType": "address",
          "name": "account",
          "type": "address"
        },
        {
          "indexed": true,
          "internalType": "address",
          "name": "sender",
          "type": "address"
        }
      ],
      "name": "RoleGranted",
      "type": "event"
    },
    {
      "anonymous": false,
      "inputs": [
        {
          "indexed": true,
          "internalType": "bytes32",
          "name": "role",
          "type": "bytes32"
        },
        {
          "indexed": true,
          "internalType": "address",
          "name": "account",
          "type": "address"
        },
        {
          "indexed": true,
          "internalType": "address",
          "name": "sender",
          "type": "address"
        }
      ],
      "name": "RoleRevoked",
      "type": "event"
    },
    {
      "anonymous": false,
      "inputs": [
        {
          "indexed": true,
          "internalType": "address",
          "name": "from",
          "type": "address"
        },
        {
          "indexed": true,
          "internalType": "address",
          "name": "to",
          "type": "address"
        },
        {
          "indexed": false,
          "internalType": "uint256",
          "name": "value",
          "type": "uint256"
        }
      ],
      "name": "Transfer",
      "type": "event"
    },
    {
      "inputs": [],
      "name": "BURNER_ROLE",
      "outputs": [
        {
          "internalType": "bytes32",
          "name": "",
          "type": "bytes32"
        }
      ],
      "stateMutability": "view",
      "type": "function"
    },
    {
      "inputs": [],
      "name": "DEFAULT_ADMIN_ROLE",
      "outputs": [
        {
          "internalType": "bytes32",
          "name": "",
          "type": "bytes32"
        }
      ],
      "stateMutability": "view",
      "type": "function"
    },
    {
      "inputs": [
        {
          "internalType": "address",
          "name": "owner",
          "type": "address"
        },
        {
          "internalType": "address",
          "name": "spender",
          "type": "address"
        }
      ],
      "name": "allowance",
      "outputs": [
        {
          "internalType": "uint256",
          "name": "",
          "type": "uint256"
        }
      ],
      "stateMutability": "view",
      "type": "function"
    },
    {
      "inputs": [
        {
          "internalType": "address",
          "name": "spender",
          "type": "address"
        },
        {
          "internalType": "uint256",
          "name": "amount",
          "type": "uint256"
        }
      ],
      "name": "approve",
      "outputs": [
        {
          "internalType": "bool",
          "name": "",
          "type": "bool"
        }
      ],
      "stateMutability": "nonpayable",
      "type": "function"
    },
    {
      "inputs": [
        {
          "internalType": "address",
          "name": "account",
          "type": "address"
        }
      ],
      "name": "balanceOf",
      "outputs": [
        {
          "internalType": "uint256",
          "name": "",
          "type": "uint256"
        }
      ],
      "stateMutability": "view",
      "type": "function"
    },
    {
      "inputs": [],
      "name": "blacklistTime",
      "outputs": [
        {
          "internalType": "uint256",
          "name": "",
          "type": "uint256"
        }
      ],
      "stateMutability": "view",
      "type": "function"
    },
    {
      "inputs": [],
      "name": "bpEnabled",
      "outputs": [
        {
          "internalType": "bool",
          "name": "",
          "type": "bool"
        }
      ],
      "stateMutability": "view",
      "type": "function"
    },
    {
      "inputs": [
        {
          "internalType": "uint256",
          "name": "amount",
          "type": "uint256"
        }
      ],
      "name": "burn",
      "outputs": [],
      "stateMutability": "nonpayable",
      "type": "function"
    },
    {
      "inputs": [],
      "name": "decimals",
      "outputs": [
        {
          "internalType": "uint8",
          "name": "",
          "type": "uint8"
        }
      ],
      "stateMutability": "view",
      "type": "function"
    },
    {
      "inputs": [
        {
          "internalType": "address",
          "name": "spender",
          "type": "address"
        },
        {
          "internalType": "uint256",
          "name": "subtractedValue",
          "type": "uint256"
        }
      ],
      "name": "decreaseAllowance",
      "outputs": [
        {
          "internalType": "bool",
          "name": "",
          "type": "bool"
        }
      ],
      "stateMutability": "nonpayable",
      "type": "function"
    },
    {
      "inputs": [
        {
          "internalType": "address",
          "name": "account",
          "type": "address"
        }
      ],
      "name": "excludeFromFee",
      "outputs": [],
      "stateMutability": "nonpayable",
      "type": "function"
    },
    {
      "inputs": [],
      "name": "getFees",
      "outputs": [
        {
          "internalType": "uint256",
          "name": "buyFee",
          "type": "uint256"
        },
        {
          "internalType": "uint256",
          "name": "sellFee",
          "type": "uint256"
        }
      ],
      "stateMutability": "view",
      "type": "function"
    },
    {
      "inputs": [
        {
          "internalType": "bytes32",
          "name": "role",
          "type": "bytes32"
        }
      ],
      "name": "getRoleAdmin",
      "outputs": [
        {
          "internalType": "bytes32",
          "name": "",
          "type": "bytes32"
        }
      ],
      "stateMutability": "view",
      "type": "function"
    },
    {
      "inputs": [
        {
          "internalType": "bytes32",
          "name": "role",
          "type": "bytes32"
        },
        {
          "internalType": "address",
          "name": "account",
          "type": "address"
        }
      ],
      "name": "grantRole",
      "outputs": [],
      "stateMutability": "nonpayable",
      "type": "function"
    },
    {
      "inputs": [
        {
          "internalType": "bytes32",
          "name": "role",
          "type": "bytes32"
        },
        {
          "internalType": "address",
          "name": "account",
          "type": "address"
        }
      ],
      "name": "hasRole",
      "outputs": [
        {
          "internalType": "bool",
          "name": "",
          "type": "bool"
        }
      ],
      "stateMutability": "view",
      "type": "function"
    },
    {
      "inputs": [
        {
          "internalType": "address",
          "name": "spender",
          "type": "address"
        },
        {
          "internalType": "uint256",
          "name": "addedValue",
          "type": "uint256"
        }
      ],
      "name": "increaseAllowance",
      "outputs": [
        {
          "internalType": "bool",
          "name": "",
          "type": "bool"
        }
      ],
      "stateMutability": "nonpayable",
      "type": "function"
    },
    {
      "inputs": [
        {
          "internalType": "address",
          "name": "routerAddress",
          "type": "address"
        }
      ],
      "name": "initSwap",
      "outputs": [],
      "stateMutability": "nonpayable",
      "type": "function"
    },
    {
      "inputs": [],
      "name": "name",
      "outputs": [
        {
          "internalType": "string",
          "name": "",
          "type": "string"
        }
      ],
      "stateMutability": "view",
      "type": "function"
    },
    {
      "inputs": [],
      "name": "owner",
      "outputs": [
        {
          "internalType": "address",
          "name": "",
          "type": "address"
        }
      ],
      "stateMutability": "view",
      "type": "function"
    },
    {
      "inputs": [],
      "name": "pancakeswapV2Pair",
      "outputs": [
        {
          "internalType": "address",
          "name": "",
          "type": "address"
        }
      ],
      "stateMutability": "view",
      "type": "function"
    },
    {
      "inputs": [],
      "name": "pancakeswapV2Router",
      "outputs": [
        {
          "internalType": "contract IUniswapV2Router02",
          "name": "",
          "type": "address"
        }
      ],
      "stateMutability": "view",
      "type": "function"
    },
    {
      "inputs": [
        {
          "internalType": "address",
          "name": "target",
          "type": "address"
        }
      ],
      "name": "removeWhiteLists",
      "outputs": [],
      "stateMutability": "nonpayable",
      "type": "function"
    },
    {
      "inputs": [],
      "name": "renounceOwnership",
      "outputs": [],
      "stateMutability": "nonpayable",
      "type": "function"
    },
    {
      "inputs": [
        {
          "internalType": "bytes32",
          "name": "role",
          "type": "bytes32"
        },
        {
          "internalType": "address",
          "name": "account",
          "type": "address"
        }
      ],
      "name": "renounceRole",
      "outputs": [],
      "stateMutability": "nonpayable",
      "type": "function"
    },
    {
      "inputs": [
        {
          "internalType": "bytes32",
          "name": "role",
          "type": "bytes32"
        },
        {
          "internalType": "address",
          "name": "account",
          "type": "address"
        }
      ],
      "name": "revokeRole",
      "outputs": [],
      "stateMutability": "nonpayable",
      "type": "function"
    },
    {
      "inputs": [
        {
          "internalType": "uint256",
          "name": "fee",
          "type": "uint256"
        }
      ],
      "name": "setBuyFeeRate",
      "outputs": [],
      "stateMutability": "nonpayable",
      "type": "function"
    },
    {
      "inputs": [
        {
          "internalType": "address",
          "name": "pairAddress",
          "type": "address"
        }
      ],
      "name": "setPairAddress",
      "outputs": [],
      "stateMutability": "nonpayable",
      "type": "function"
    },
    {
      "inputs": [
        {
          "internalType": "uint256",
          "name": "fee",
          "type": "uint256"
        }
      ],
      "name": "setSellFeeRate",
      "outputs": [],
      "stateMutability": "nonpayable",
      "type": "function"
    },
    {
      "inputs": [
        {
          "internalType": "address",
          "name": "_swapBalanceAddress",
          "type": "address"
        }
      ],
      "name": "setSwapBalance",
      "outputs": [],
      "stateMutability": "nonpayable",
      "type": "function"
    },
    {
      "inputs": [
        {
          "internalType": "address",
          "name": "target",
          "type": "address"
        }
      ],
      "name": "setWhiteLists",
      "outputs": [],
      "stateMutability": "nonpayable",
      "type": "function"
    },
    {
      "inputs": [
        {
          "internalType": "bytes4",
          "name": "interfaceId",
          "type": "bytes4"
        }
      ],
      "name": "supportsInterface",
      "outputs": [
        {
          "internalType": "bool",
          "name": "",
          "type": "bool"
        }
      ],
      "stateMutability": "view",
      "type": "function"
    },
    {
      "inputs": [],
      "name": "swapBalanceAddress",
      "outputs": [
        {
          "internalType": "address",
          "name": "",
          "type": "address"
        }
      ],
      "stateMutability": "view",
      "type": "function"
    },
    {
      "inputs": [],
      "name": "swapLockTime",
      "outputs": [
        {
          "internalType": "uint256",
          "name": "",
          "type": "uint256"
        }
      ],
      "stateMutability": "view",
      "type": "function"
    },
    {
      "inputs": [
        {
          "internalType": "uint256",
          "name": "tokenAmount",
          "type": "uint256"
        }
      ],
      "name": "swapTokensForETH",
      "outputs": [],
      "stateMutability": "nonpayable",
      "type": "function"
    },
    {
      "inputs": [],
      "name": "symbol",
      "outputs": [
        {
          "internalType": "string",
          "name": "",
          "type": "string"
        }
      ],
      "stateMutability": "view",
      "type": "function"
    },
    {
      "inputs": [],
      "name": "totalSupply",
      "outputs": [
        {
          "internalType": "uint256",
          "name": "",
          "type": "uint256"
        }
      ],
      "stateMutability": "view",
      "type": "function"
    },
    {
      "inputs": [
        {
          "internalType": "address",
          "name": "recipient",
          "type": "address"
        },
        {
          "internalType": "uint256",
          "name": "amount",
          "type": "uint256"
        }
      ],
      "name": "transfer",
      "outputs": [
        {
          "internalType": "bool",
          "name": "",
          "type": "bool"
        }
      ],
      "stateMutability": "nonpayable",
      "type": "function"
    },
    {
      "inputs": [
        {
          "internalType": "address",
          "name": "sender",
          "type": "address"
        },
        {
          "internalType": "address",
          "name": "recipient",
          "type": "address"
        },
        {
          "internalType": "uint256",
          "name": "amount",
          "type": "uint256"
        }
      ],
      "name": "transferFrom",
      "outputs": [
        {
          "internalType": "bool",
          "name": "",
          "type": "bool"
        }
      ],
      "stateMutability": "nonpayable",
      "type": "function"
    },
    {
      "inputs": [
        {
          "internalType": "address",
          "name": "newOwner",
          "type": "address"
        }
      ],
      "name": "transferOwnership",
      "outputs": [],
      "stateMutability": "nonpayable",
      "type": "function"
    },
    {
      "inputs": [
        {
          "internalType": "uint256",
          "name": "amount",
          "type": "uint256"
        }
      ],
      "name": "updateSwapBalance",
      "outputs": [],
      "stateMutability": "nonpayable",
      "type": "function"
    }
  ],
  "bytecode": "0x60806040526000600b556000600c556000601060006101000a81548160ff021916908315150217905550600060115560006012553480156200004057600080fd5b506040518060400160405280600d81526020017f546974616e2054726164696e67000000000000000000000000000000000000008152506040518060400160405280600381526020017f54455300000000000000000000000000000000000000000000000000000000008152508160039080519060200190620000c592919062000924565b508060049080519060200190620000de92919062000924565b50505062000101620000f56200052a60201b60201c565b6200053260201b60201c565b620001357feb8697feeeccedf12ea87956b628b8e33f62a0b6aab65aae172bff38c5973ae360001b620005f860201b60201c565b620001697fd78e0dad43c40e3be81d71f1c987c906d2359388bccd9de9f30a79e8a0c5c90f60001b620005f860201b60201c565b6200019d7fb191624c3ff643e7981d7f8339ff16d61b248fb8055e5ec8a869270d0dd859cc60001b620005f860201b60201c565b620001ad620005fb60201b60201c565b60ff16600a620001be919062000b14565b6305f5e100620001cf919062000c51565b600a81905550620002097f1d0b26c7d44e478cf4b34db4b2f5e27d51a79c9ed3a93421fe0c6cad27010ca360001b620005f860201b60201c565b6200023d7f0e5852b814da8cba28ee3190c8223741469b08b8fae0e3317222cefaeee68a3760001b620005f860201b60201c565b62000260620002516200052a60201b60201c565b600a546200060460201b60201c565b620002947f09ab2344e28c37325973752aa643353b719c04475d1e123bff39769f0866fef260001b620005f860201b60201c565b620002c87f496151a386891a7c1fcf4d48616466ecee36de611b058dabba2aeeb20c946e6560001b620005f860201b60201c565b620002ec6000801b620002e06200052a60201b60201c565b6200077d60201b60201c565b620003207f2a2b85a2e6aaf6cce5559741cd89b1a45004ce3df8e39f90f4c539d2d8662f7460001b620005f860201b60201c565b620003547f8c41d23e0d6a65ca75b45c4e71aea37acb12f1c7e31caa367a397a5f5811e4d160001b620005f860201b60201c565b620003957f3c11d16cbaffd01df69ce1c404f6340ee057498f5f00246190ea54220576a848620003896200052a60201b60201c565b6200077d60201b60201c565b620003c97f0381b07e1b05b934a5e8990ed376b133aba4429df7f4465d9902e185f6bb512060001b620005f860201b60201c565b620003fd7f90c5bf8cc4f6f680a19e6c3e82223ad4bafba08c2b645755b60e517f187d245960001b620005f860201b60201c565b6001600e6000620004136200079360201b60201c565b73ffffffffffffffffffffffffffffffffffffffff1673ffffffffffffffffffffffffffffffffffffffff16815260200190815260200160002060006101000a81548160ff021916908315150217905550620004987f81912b30ee4054341d0a6973bc52cad2c3c86aa67ee92cb8ab848d6bdba5314a60001b620005f860201b60201c565b620004cc7fba9cb535097daa3c3a9148f669b5e07b5315438d221082f38157cc807bab89be60001b620005f860201b60201c565b6001600e60003073ffffffffffffffffffffffffffffffffffffffff1673ffffffffffffffffffffffffffffffffffffffff16815260200190815260200160002060006101000a81548160ff02191690831515021790555062000d86565b600033905090565b6000600560009054906101000a900473ffffffffffffffffffffffffffffffffffffffff16905081600560006101000a81548173ffffffffffffffffffffffffffffffffffffffff021916908373ffffffffffffffffffffffffffffffffffffffff1602179055508173ffffffffffffffffffffffffffffffffffffffff168173ffffffffffffffffffffffffffffffffffffffff167f8be0079c531659141344cd1fd0a4f28419497f9722a3daafe3b4186f6b6457e060405160405180910390a35050565b50565b60006012905090565b600073ffffffffffffffffffffffffffffffffffffffff168273ffffffffffffffffffffffffffffffffffffffff16141562000677576040517f08c379a00000000000000000000000000000000000000000000000000000000081526004016200066e9062000a0c565b60405180910390fd5b6200068b60008383620007bd60201b60201c565b80600260008282546200069f919062000a5c565b92505081905550806000808473ffffffffffffffffffffffffffffffffffffffff1673ffffffffffffffffffffffffffffffffffffffff1681526020019081526020016000206000828254620006f6919062000a5c565b925050819055508173ffffffffffffffffffffffffffffffffffffffff16600073ffffffffffffffffffffffffffffffffffffffff167fddf252ad1be2c89b69c2b068fc378daa952ba7f163c4a11628f55a4df523b3ef836040516200075d919062000a2e565b60405180910390a36200077960008383620007c260201b60201c565b5050565b6200078f8282620007c760201b60201c565b5050565b6000600560009054906101000a900473ffffffffffffffffffffffffffffffffffffffff16905090565b505050565b505050565b620007d98282620008b960201b60201c565b620008b55760016006600084815260200190815260200160002060000160008373ffffffffffffffffffffffffffffffffffffffff1673ffffffffffffffffffffffffffffffffffffffff16815260200190815260200160002060006101000a81548160ff0219169083151502179055506200085a6200052a60201b60201c565b73ffffffffffffffffffffffffffffffffffffffff168173ffffffffffffffffffffffffffffffffffffffff16837f2f8788117e7eff1d82e926ec794901d17c78024a50270940304540a733656f0d60405160405180910390a45b5050565b60006006600084815260200190815260200160002060000160008373ffffffffffffffffffffffffffffffffffffffff1673ffffffffffffffffffffffffffffffffffffffff16815260200190815260200160002060009054906101000a900460ff16905092915050565b828054620009329062000cbc565b90600052602060002090601f016020900481019282620009565760008555620009a2565b82601f106200097157805160ff1916838001178555620009a2565b82800160010185558215620009a2579182015b82811115620009a157825182559160200191906001019062000984565b5b509050620009b19190620009b5565b5090565b5b80821115620009d0576000816000905550600101620009b6565b5090565b6000620009e3601f8362000a4b565b9150620009f08262000d5d565b602082019050919050565b62000a068162000cb2565b82525050565b6000602082019050818103600083015262000a2781620009d4565b9050919050565b600060208201905062000a456000830184620009fb565b92915050565b600082825260208201905092915050565b600062000a698262000cb2565b915062000a768362000cb2565b9250827fffffffffffffffffffffffffffffffffffffffffffffffffffffffffffffffff0382111562000aae5762000aad62000cf2565b5b828201905092915050565b6000808291508390505b600185111562000b0b5780860481111562000ae35762000ae262000cf2565b5b600185161562000af35780820291505b808102905062000b038562000d50565b945062000ac3565b94509492505050565b600062000b218262000cb2565b915062000b2e8362000cb2565b925062000b5d7fffffffffffffffffffffffffffffffffffffffffffffffffffffffffffffffff848462000b65565b905092915050565b60008262000b77576001905062000c4a565b8162000b87576000905062000c4a565b816001811462000ba0576002811462000bab5762000be1565b600191505062000c4a565b60ff84111562000bc05762000bbf62000cf2565b5b8360020a91508482111562000bda5762000bd962000cf2565b5b5062000c4a565b5060208310610133831016604e8410600b841016171562000c1b5782820a90508381111562000c155762000c1462000cf2565b5b62000c4a565b62000c2a848484600162000ab9565b9250905081840481111562000c445762000c4362000cf2565b5b81810290505b9392505050565b600062000c5e8262000cb2565b915062000c6b8362000cb2565b9250817fffffffffffffffffffffffffffffffffffffffffffffffffffffffffffffffff048311821515161562000ca75762000ca662000cf2565b5b828202905092915050565b6000819050919050565b6000600282049050600182168062000cd557607f821691505b6020821081141562000cec5762000ceb62000d21565b5b50919050565b7f4e487b7100000000000000000000000000000000000000000000000000000000600052601160045260246000fd5b7f4e487b7100000000000000000000000000000000000000000000000000000000600052602260045260246000fd5b60008160011c9050919050565b7f45524332303a206d696e7420746f20746865207a65726f206164647265737300600082015250565b615a2f8062000d966000396000f3fe608060405234801561001057600080fd5b50600436106102485760003560e01c806391d148541161013b578063ce636726116100b8578063e34edc141161007c578063e34edc14146106f0578063e56a645e1461070c578063e5dffed314610728578063f2f7049c14610746578063f2fde38b1461076457610248565b8063ce6367261461064d578063d547741f14610669578063db8d55f114610685578063dcb5f220146106a4578063dd62ed3e146106c057610248565b8063a22d4832116100ff578063a22d483214610597578063a457c2d7146105b3578063a9059cbb146105e3578063bd9797f414610613578063cb81c2291461062f57610248565b806391d14854146104f357806395d89b41146105235780639729d64c146105415780639c466f1f1461055d578063a217fddf1461057957610248565b806336568abe116101c9578063528928841161018d578063528928841461046157806370a082311461047f578063715018a6146104af5780638da5cb5b146104b95780639072e306146104d757610248565b806336568abe146103bf57806339509351146103db57806342966c681461040b578063437823ec146104275780634489d6f81461044357610248565b8063248a9ca311610210578063248a9ca31461031957806326898da914610349578063282c51f3146103675780632f2ff15d14610385578063313ce567146103a157610248565b806301ffc9a71461024d57806306fdde031461027d578063095ea7b31461029b57806318160ddd146102cb57806323b872dd146102e9575b600080fd5b6102676004803603810190610262919061479c565b610780565b6040516102749190614cce565b60405180910390f35b6102856107fa565b6040516102929190614d1f565b60405180910390f35b6102b560048036038101906102b091906146ef565b61088c565b6040516102c29190614cce565b60405180910390f35b6102d36108aa565b6040516102e09190614fc1565b60405180910390f35b61030360048036038101906102fe919061469c565b6108b4565b6040516103109190614cce565b60405180910390f35b610333600480360381019061032e919061472f565b6109ac565b6040516103409190614ce9565b60405180910390f35b6103516109cc565b60405161035e9190614cce565b60405180910390f35b61036f6109df565b60405161037c9190614ce9565b60405180910390f35b61039f600480360381019061039a919061475c565b610a03565b005b6103a9610a2c565b6040516103b6919061505f565b60405180910390f35b6103d960048036038101906103d4919061475c565b610a35565b005b6103f560048036038101906103f091906146ef565b610ab8565b6040516104029190614cce565b60405180910390f35b610425600480360381019061042091906147c9565b610b64565b005b610441600480360381019061043c9190614602565b610c78565b005b61044b610dd3565b6040516104589190614fc1565b60405180910390f35b610469610dd9565b6040516104769190614c8a565b60405180910390f35b61049960048036038101906104949190614602565b610dff565b6040516104a69190614fc1565b60405180910390f35b6104b7610e47565b005b6104c1610ecf565b6040516104ce9190614c8a565b60405180910390f35b6104f160048036038101906104ec91906147c9565b610ef9565b005b61050d6004803603810190610508919061475c565b6110f7565b60405161051a9190614cce565b60405180910390f35b61052b611162565b6040516105389190614d1f565b60405180910390f35b61055b60048036038101906105569190614602565b6111f4565b005b610577600480360381019061057291906147c9565b6114f3565b005b6105816116f1565b60405161058e9190614ce9565b60405180910390f35b6105b160048036038101906105ac9190614602565b6116f8565b005b6105cd60048036038101906105c891906146ef565b611947565b6040516105da9190614cce565b60405180910390f35b6105fd60048036038101906105f891906146ef565b611a32565b60405161060a9190614cce565b60405180910390f35b61062d600480360381019061062891906147c9565b611a50565b005b610637611cb5565b6040516106449190614fc1565b60405180910390f35b61066760048036038101906106629190614602565b611cbb565b005b610683600480360381019061067e919061475c565b6121df565b005b61068d612208565b60405161069b929190615036565b60405180910390f35b6106be60048036038101906106b99190614602565b61229d565b005b6106da60048036038101906106d5919061465c565b6125a6565b6040516106e79190614fc1565b60405180910390f35b61070a60048036038101906107059190614602565b61262d565b005b610726600480360381019061072191906147c9565b612935565b005b610730612e99565b60405161073d9190614d04565b60405180910390f35b61074e612ebf565b60405161075b9190614c8a565b60405180910390f35b61077e60048036038101906107799190614602565b612ee5565b005b60007f7965db0b000000000000000000000000000000000000000000000000000000007bffffffffffffffffffffffffffffffffffffffffffffffffffffffff1916827bffffffffffffffffffffffffffffffffffffffffffffffffffffffff191614806107f357506107f282612fdd565b5b9050919050565b6060600380546108099061531f565b80601f01602080910402602001604051908101604052809291908181526020018280546108359061531f565b80156108825780601f1061085757610100808354040283529160200191610882565b820191906000526020600020905b81548152906001019060200180831161086557829003601f168201915b5050505050905090565b60006108a0610899613047565b848461304f565b6001905092915050565b6000600254905090565b60006108c184848461321a565b6000600160008673ffffffffffffffffffffffffffffffffffffffff1673ffffffffffffffffffffffffffffffffffffffff168152602001908152602001600020600061090c613047565b73ffffffffffffffffffffffffffffffffffffffff1673ffffffffffffffffffffffffffffffffffffffff1681526020019081526020016000205490508281101561098c576040517f08c379a000000000000000000000000000000000000000000000000000000000815260040161098390614e21565b60405180910390fd5b6109a085610998613047565b85840361304f565b60019150509392505050565b600060066000838152602001908152602001600020600101549050919050565b601060009054906101000a900460ff1681565b7f3c11d16cbaffd01df69ce1c404f6340ee057498f5f00246190ea54220576a84881565b610a0c826109ac565b610a1d81610a18613047565b613af9565b610a278383613b96565b505050565b60006012905090565b610a3d613047565b73ffffffffffffffffffffffffffffffffffffffff168173ffffffffffffffffffffffffffffffffffffffff1614610aaa576040517f08c379a0000000000000000000000000000000000000000000000000000000008152600401610aa190614fa1565b60405180910390fd5b610ab48282613c77565b5050565b6000610b5a610ac5613047565b848460016000610ad3613047565b73ffffffffffffffffffffffffffffffffffffffff1673ffffffffffffffffffffffffffffffffffffffff16815260200190815260200160002060008873ffffffffffffffffffffffffffffffffffffffff1673ffffffffffffffffffffffffffffffffffffffff16815260200190815260200160002054610b5591906150da565b61304f565b6001905092915050565b610b6c613047565b73ffffffffffffffffffffffffffffffffffffffff16610b8a610ecf565b73ffffffffffffffffffffffffffffffffffffffff1614610be0576040517f08c379a0000000000000000000000000000000000000000000000000000000008152600401610bd790614e41565b60405180910390fd5b610c0c7f874871a162a71d4840c7f98993fb3251652851c996b75e596e2f66dee8baa7f960001b613d59565b610c387f68ecaabc630493d4ab70e690b088842f6f3ae666e7a82c9ff4d7db991edcb18d60001b613d59565b610c647f230cf1ba6a719d7e2d36ce293483374951c55a9a4587be1b0f0ba733c5a13c6b60001b613d59565b610c75610c6f613047565b82613d5c565b50565b610c80613047565b73ffffffffffffffffffffffffffffffffffffffff16610c9e610ecf565b73ffffffffffffffffffffffffffffffffffffffff1614610cf4576040517f08c379a0000000000000000000000000000000000000000000000000000000008152600401610ceb90614e41565b60405180910390fd5b610d207fcc9bb4bfb50f8753d0b3805423e1b795b9c015d77ff8b6315c882227e98790f760001b613d59565b610d4c7fb60cc414ccd45705ec809ef12c8b98f546e361b2f31f66a1f4d240f388c2dbef60001b613d59565b610d787f0bdd4467206ea05c384952926d9e6524d032a38f748e3a07acb20648eddb652c60001b613d59565b6001600e60008373ffffffffffffffffffffffffffffffffffffffff1673ffffffffffffffffffffffffffffffffffffffff16815260200190815260200160002060006101000a81548160ff02191690831515021790555050565b60125481565b600960009054906101000a900473ffffffffffffffffffffffffffffffffffffffff1681565b60008060008373ffffffffffffffffffffffffffffffffffffffff1673ffffffffffffffffffffffffffffffffffffffff168152602001908152602001600020549050919050565b610e4f613047565b73ffffffffffffffffffffffffffffffffffffffff16610e6d610ecf565b73ffffffffffffffffffffffffffffffffffffffff1614610ec3576040517f08c379a0000000000000000000000000000000000000000000000000000000008152600401610eba90614e41565b60405180910390fd5b610ecd6000613f33565b565b6000600560009054906101000a900473ffffffffffffffffffffffffffffffffffffffff16905090565b610f01613047565b73ffffffffffffffffffffffffffffffffffffffff16610f1f610ecf565b73ffffffffffffffffffffffffffffffffffffffff1614610f75576040517f08c379a0000000000000000000000000000000000000000000000000000000008152600401610f6c90614e41565b60405180910390fd5b610fa17fff23f575ddf82a89cda38f6e25d8dd84d551b5d3ea4e3c433bbdce2ab55c4c6c60001b613d59565b610fcd7ffa7648d0999c65c1558697c161ba7e49f75747c9a493c4ea6ca969254f05c0b460001b613d59565b610ff97fe303d1b7cc0589bf11c929684cba5a976db5fd144526c19840aee8c8291951b660001b613d59565b6110257fa1e79fd50c2063573979e1ebf1d4993035057be88f704f5c8c0dea5112f3458460001b613d59565b6000811015611069576040517f08c379a000000000000000000000000000000000000000000000000000000000815260040161106090614e61565b60405180910390fd5b6110957f2d6d8168589661b245ad05210f2615c1db13cf05693e3a25e1e78fec21bc323560001b613d59565b6110c17f8eacbd449c4d901c8a7a53b755efb3d9d459ad58e7c7da4c8bba68190e29544d60001b613d59565b6110ed7f235dbbd88aff0b673e281581964f59b7ee6708b4ba0b6a4abcb0685c1f28c81760001b613d59565b80600b8190555050565b60006006600084815260200190815260200160002060000160008373ffffffffffffffffffffffffffffffffffffffff1673ffffffffffffffffffffffffffffffffffffffff16815260200190815260200160002060009054906101000a900460ff16905092915050565b6060600480546111719061531f565b80601f016020809104026020016040519081016040528092919081815260200182805461119d9061531f565b80156111ea5780601f106111bf576101008083540402835291602001916111ea565b820191906000526020600020905b8154815290600101906020018083116111cd57829003601f168201915b5050505050905090565b6111fc613047565b73ffffffffffffffffffffffffffffffffffffffff1661121a610ecf565b73ffffffffffffffffffffffffffffffffffffffff1614611270576040517f08c379a000000000000000000000000000000000000000000000000000000000815260040161126790614e41565b60405180910390fd5b61129c7ff0e5f5a062fb01ca110e048f65b9252393a563e8e194786e887bc99c82a638c760001b613d59565b6112c87fb6661620e6fb1dcb4a87d781b8b0b726081dd7b87dbbd1bb78c1b198517f83ac60001b613d59565b6112f47f87fae9fc1605aae09d8965a862adcecda40ceae54e93465d2c8d062dfff7ca6060001b613d59565b6113207f9640facc8901aac0eabce1f5364d56ce0695165847471018064c255fb02db2ed60001b613d59565b600073ffffffffffffffffffffffffffffffffffffffff168173ffffffffffffffffffffffffffffffffffffffff161415611390576040517f08c379a000000000000000000000000000000000000000000000000000000000815260040161138790614ec1565b60405180910390fd5b6113bc7fb93863268e433fd79d20e2b653708360b570bf98470ae49bbed77ca7c0a7d48560001b613d59565b6113e87f155e65c3bb6bee1b5a8306beee811d2dde625eb5e815cc300bad1e3745ee309b60001b613d59565b6114147f55dd95cad26e6cb6884b2ae14df4addd9553aa2eb8c044fedb9bbdd7e1ec0e3b60001b613d59565b80600860006101000a81548173ffffffffffffffffffffffffffffffffffffffff021916908373ffffffffffffffffffffffffffffffffffffffff1602179055506114817f8485e14467bec9af88edd6176fef347c81912742931baf041e908eea5a08b96f60001b613d59565b6114ad7f3c0ce189a26f414be6a5c769bb7d154f1512bfdc3293d94c2616a678951b3e8760001b613d59565b8073ffffffffffffffffffffffffffffffffffffffff167f0f7bf2342f244edc4ddc8b8c9c59859b32d0cf0fdba77897f8080db836b8fc1560405160405180910390a250565b6114fb613047565b73ffffffffffffffffffffffffffffffffffffffff16611519610ecf565b73ffffffffffffffffffffffffffffffffffffffff161461156f576040517f08c379a000000000000000000000000000000000000000000000000000000000815260040161156690614e41565b60405180910390fd5b61159b7ffe8ffb44fb47be877889ca12e262a2883968eaaa1947c78b9c84c42303fdd63e60001b613d59565b6115c77f5e2aa41913a216a3676256395c8c85d655e27700c32d414a2cda1adc9042ea6160001b613d59565b6115f37f92eb3184e64a0a829d38bb248eb310849b44318c65d529c37d06e56729702c7c60001b613d59565b61161f7fa0b95bacc6f44946ca54ad22e6fad4d6d72bdf0329f0e68bbbcd20ab8d83dad360001b613d59565b6006811115611663576040517f08c379a000000000000000000000000000000000000000000000000000000000815260040161165a90614f21565b60405180910390fd5b61168f7f6262603b1ef5dd1aaa6e7f2c9a811699040ec0be8969c1bc3c47f5cd5cb2ab6660001b613d59565b6116bb7fa8af5b6c89846ba6a2d4b0b37b04f5831e6ba0c9ca452135003f9ddca69dc9bf60001b613d59565b6116e77f773fa97560635f12d90ae3b5747f025b3ce03c9681ba5102b57b14e9732f582c60001b613d59565b80600c8190555050565b6000801b81565b611700613047565b73ffffffffffffffffffffffffffffffffffffffff1661171e610ecf565b73ffffffffffffffffffffffffffffffffffffffff1614611774576040517f08c379a000000000000000000000000000000000000000000000000000000000815260040161176b90614e41565b60405180910390fd5b6117a07f95743098b908f8d4200cdba1ef3d0e626804b4db8dc58930115232f982025d6f60001b613d59565b6117cc7f89e878be3ade5aa6c83140e87f655d349879c23ef1808bc85effd7a21b3dd19560001b613d59565b6117f87fcd3444bfb51978c7853dcd71c82e907581460ef996b688011c1262806ff0f84a60001b613d59565b6118247fab1ff83e49b642f1d55d495298cc0e2ed28801aaf0945fbc13f3c457c8e61cc860001b613d59565b600073ffffffffffffffffffffffffffffffffffffffff16600960009054906101000a900473ffffffffffffffffffffffffffffffffffffffff1673ffffffffffffffffffffffffffffffffffffffff161461187f57600080fd5b6118ab7fa858f45b1b59f3addfecf565acfc29b6f2458d78398da3bc46aa60a301b2071360001b613d59565b6118d77f37d4c084fcea657ac17c94ed1a1c7b04db733e32df13c3a3ad629c7927f3fa0e60001b613d59565b6119037fccce66c20238b683f5b33aa8390ab58bbaec5b792ee3f35d0588a2ac2b34810260001b613d59565b80600960006101000a81548173ffffffffffffffffffffffffffffffffffffffff021916908373ffffffffffffffffffffffffffffffffffffffff16021790555050565b60008060016000611956613047565b73ffffffffffffffffffffffffffffffffffffffff1673ffffffffffffffffffffffffffffffffffffffff16815260200190815260200160002060008573ffffffffffffffffffffffffffffffffffffffff1673ffffffffffffffffffffffffffffffffffffffff16815260200190815260200160002054905082811015611a13576040517f08c379a0000000000000000000000000000000000000000000000000000000008152600401611a0a90614f81565b60405180910390fd5b611a27611a1e613047565b8585840361304f565b600191505092915050565b6000611a46611a3f613047565b848461321a565b6001905092915050565b611a58613047565b73ffffffffffffffffffffffffffffffffffffffff16611a76610ecf565b73ffffffffffffffffffffffffffffffffffffffff1614611acc576040517f08c379a0000000000000000000000000000000000000000000000000000000008152600401611ac390614e41565b60405180910390fd5b611af87fa981dd2ec8cc204a4f5de975e11f086eb282597d9fd965789df5a55de60beac660001b613d59565b611b247f31a7415c31da047df5e1e4808a28cc2570907639808266cada354d4a4a769a3560001b613d59565b611b507f86a35f02b35a9d937e52c3d6ecc0cfaae00e8afbc2e79ddd4f49ba9035d88d4160001b613d59565b6000611b5b30610dff565b9050611b897fcceae568273af8efd3221f4808dd64619424e80e310bd760fc429fea71291f3460001b613d59565b611bb57ffe99f1b917360ac8d691d3cb26a21928161305b08929e74787770a872a50562f60001b613d59565b611be17f3b7ee4f7d52d212cc7e232a7826ebfd6d215bd3392cf2930706da9d54b24dd3060001b613d59565b80821115611c24576040517f08c379a0000000000000000000000000000000000000000000000000000000008152600401611c1b90614e01565b60405180910390fd5b611c507fd72ba3018c22a603110d612854925dfe5f1b7ef2233675c64b258fc0628d6ac160001b613d59565b611c7c7ffdabd829a6ed7553aaffc8b559cc7b64d4f4db556864a57ca48c3c6082dc9a1260001b613d59565b611ca87f01e29be510ff09bebc81adfebd8b13e8df5e7de827cb00d4f9523bc2594accf360001b613d59565b611cb182612935565b5050565b60115481565b611cc3613047565b73ffffffffffffffffffffffffffffffffffffffff16611ce1610ecf565b73ffffffffffffffffffffffffffffffffffffffff1614611d37576040517f08c379a0000000000000000000000000000000000000000000000000000000008152600401611d2e90614e41565b60405180910390fd5b611d637f91d2d85651dd1f145bdeb46814358f467e8ad1d8515f9c765c9bd943788c52d260001b613d59565b611d8f7f9ffa4bd692a9c614209b8f3f21001371e7d3eccff5db3a3c6c5ba65cb7769c1360001b613d59565b611dbb7f189619229ffab062228adc4a2bfdbe074b3122ff6865d318bd58a7b222ca069560001b613d59565b611de77fdaa7e504c0454a40dec64b84ef6873f708ea08d9e4c9f9bc798566a30c415fa560001b613d59565b601154421015611e2c576040517f08c379a0000000000000000000000000000000000000000000000000000000008152600401611e2390614f61565b60405180910390fd5b611e587f223c71e359f2f064cff9c97e9ce2a3d74779dcd4d489a03c38fd207300d29b9060001b613d59565b611e847f96f04c50155c52583db175507eacae22784788da63664e85ba59e5a84a332d1860001b613d59565b611eb07f961c83ed8d02582e554af49ae76a0232e674f1f2d8bfc6ad1e3fd6c02b3744c460001b613d59565b6000819050611ee17fe6704977ef99598fdbc27c8e6b06b1ee8f9a95eb69c02197fea6f941e45e12b360001b613d59565b611f0d7fbf8aecfb69334d46b4895efd0757ae0912db4e40d75c8ad907a37301435492a360001b613d59565b8073ffffffffffffffffffffffffffffffffffffffff1663c45a01556040518163ffffffff1660e01b815260040160206040518083038186803b158015611f5357600080fd5b505afa158015611f67573d6000803e3d6000fd5b505050506040513d601f19601f82011682018060405250810190611f8b919061462f565b73ffffffffffffffffffffffffffffffffffffffff1663c9c65396308373ffffffffffffffffffffffffffffffffffffffff1663ad5c46486040518163ffffffff1660e01b815260040160206040518083038186803b158015611fed57600080fd5b505afa158015612001573d6000803e3d6000fd5b505050506040513d601f19601f82011682018060405250810190612025919061462f565b6040518363ffffffff1660e01b8152600401612042929190614ca5565b602060405180830381600087803b15801561205c57600080fd5b505af1158015612070573d6000803e3d6000fd5b505050506040513d601f19601f82011682018060405250810190612094919061462f565b600960006101000a81548173ffffffffffffffffffffffffffffffffffffffff021916908373ffffffffffffffffffffffffffffffffffffffff1602179055506121007fca9bd43f80c2a971f2cfe0e9b0218ec1335ecc00f2ed2717b5a2c89af1c0711760001b613d59565b61212c7f21bc6ddf697e488c5cb420b2160a971e6b206df2b46936b93dbe3c785c5d82ba60001b613d59565b80600760006101000a81548173ffffffffffffffffffffffffffffffffffffffff021916908373ffffffffffffffffffffffffffffffffffffffff1602179055506121997fff8cf1e870f3363c2ff0fa945f2abbaafe871ada7033f9c146b65be77cf8096760001b613d59565b6121c57f979be8bb75d0fa0a76efbcde128ef15d4446834784c670447bca242eaf8fcaf660001b613d59565b6301e13380426121d591906150da565b6011819055505050565b6121e8826109ac565b6121f9816121f4613047565b613af9565b6122038383613c77565b505050565b6000806122377f80eabdae698c5db4f436826a925bdd55305944c4067b3e42fe75b5be6c50ceb360001b613d59565b6122637f7591c0e4924d7d011d2534f5cbe6be13838fc9b28f484d14d68a0d0b34d9d81460001b613d59565b61228f7f5314cb37ab76c25674b9242d28c274b87479c8741c5e954a3c6ea106c1c44be160001b613d59565b600b54600c54915091509091565b6122a5613047565b73ffffffffffffffffffffffffffffffffffffffff166122c3610ecf565b73ffffffffffffffffffffffffffffffffffffffff1614612319576040517f08c379a000000000000000000000000000000000000000000000000000000000815260040161231090614e41565b60405180910390fd5b6123457f8208650bb6a6fb778f85313ae1e4e6b97ffb73d58c45d7483e687ab3b35222a460001b613d59565b6123717f3fc74d5c6ef0de4ef0034b01df01171f34b94cbbe971d9857527568ee01ad43d60001b613d59565b61239d7fa59dd7a2a6056bc862ca5b25d3106a4e7d176149d5e3dd9ecceba5272304cb9f60001b613d59565b6123c97f2b83b6d533e9e54f218b64f517f33f19cc42ebb3ffed13f69c2b9bb26d896c8260001b613d59565b600d60008273ffffffffffffffffffffffffffffffffffffffff1673ffffffffffffffffffffffffffffffffffffffff16815260200190815260200160002060009054906101000a900460ff161561242057600080fd5b61244c7f88445042b4076121fd2de6ef58176a062ed545c9e9a87a23a2b100d024e8490060001b613d59565b6124787f69e00ad23a9f763d3f2b6b18ddc6c7f4c287afd1e6bce66a622dffd342a3820860001b613d59565b6124a47fef95ef12bfb0eade85a8d8c1980b76ca4e17cb053033828cc99ddf66b89865ed60001b613d59565b6001600d60008373ffffffffffffffffffffffffffffffffffffffff1673ffffffffffffffffffffffffffffffffffffffff16815260200190815260200160002060006101000a81548160ff0219169083151502179055506125287f4cad42baa7fc5485e5b4a7509dbc1189cd8e280f55ebeeed3d9b8bf397c26d0d60001b613d59565b6125547f096bcd9683c0a0e05563b47e48c3dbb1fc10f6ecf910984a728d2b14ff38516660001b613d59565b8073ffffffffffffffffffffffffffffffffffffffff167ffd1d4aa2c8ad064e5488483008a99152737db29cc4d0f88d3b7b080f8d73cc82600160405161259b9190614cce565b60405180910390a250565b6000600160008473ffffffffffffffffffffffffffffffffffffffff1673ffffffffffffffffffffffffffffffffffffffff16815260200190815260200160002060008373ffffffffffffffffffffffffffffffffffffffff1673ffffffffffffffffffffffffffffffffffffffff16815260200190815260200160002054905092915050565b612635613047565b73ffffffffffffffffffffffffffffffffffffffff16612653610ecf565b73ffffffffffffffffffffffffffffffffffffffff16146126a9576040517f08c379a00000000000000000000000000000000000000000000000000000000081526004016126a090614e41565b60405180910390fd5b6126d57f5eb5ab14da192167f553ad7dbfae042d3e72b04f3ea98354816388a7663c09bb60001b613d59565b6127017ff8c18e39b27788c09204922ae5e52a7b746753ae8eafb2d4e5624e33a72e180560001b613d59565b61272d7f818f9367c9275165cdeffb20dcabec2b8039e511deb6ea96bea26f08c2d46d1260001b613d59565b6127597f3d273b36f9ca6ba76acfc1272a90b72e6d660e080d3c0f5a137e344f5010a8f960001b613d59565b600d60008273ffffffffffffffffffffffffffffffffffffffff1673ffffffffffffffffffffffffffffffffffffffff16815260200190815260200160002060009054906101000a900460ff166127af57600080fd5b6127db7f61049e27960f247886e081c48510c98a807bf9856b20c7c09df8532d3630ddbd60001b613d59565b6128077fc4662402d740049f98674b9d30c6eb5f27a881314f2aa18ffba81ecd2b9ef15d60001b613d59565b6128337f9363172b3c4ae25591766b76d0e211e3a60e447cd7eab7a8c79a907e095a4ba960001b613d59565b6000600d60008373ffffffffffffffffffffffffffffffffffffffff1673ffffffffffffffffffffffffffffffffffffffff16815260200190815260200160002060006101000a81548160ff0219169083151502179055506128b77f90c333b632fc37c9330e039b314a3f72fc91be7c34479d3cd8913ea74f2ff9b860001b613d59565b6128e37f57243b59aa5a19c7db0f05bbabe2986f88eba1bced8fd99352eb615da07c545060001b613d59565b8073ffffffffffffffffffffffffffffffffffffffff167ffd1d4aa2c8ad064e5488483008a99152737db29cc4d0f88d3b7b080f8d73cc82600060405161292a9190614cce565b60405180910390a250565b61293d613047565b73ffffffffffffffffffffffffffffffffffffffff1661295b610ecf565b73ffffffffffffffffffffffffffffffffffffffff16146129b1576040517f08c379a00000000000000000000000000000000000000000000000000000000081526004016129a890614e41565b60405180910390fd5b6129dd7f14f77654cc92c8d4169fec5808b3c36912a600eaa8fa5bcaaa967d7f750050b560001b613d59565b612a097fbc1beb35fec1eef73844a671b0d6616961e5ce7e3987e68646003644be6d906560001b613d59565b612a357f03a9591ad92b173b1e2e410f46377a02484164743bbf15cacb8eaf9dc4b81d6660001b613d59565b6000600267ffffffffffffffff811115612a5257612a5161540d565b5b604051908082528060200260200182016040528015612a805781602001602082028036833780820191505090505b509050612aaf7f783b62aafdb5e4e90c1ad23a76431d61a200db9541f66dc031375104ce774b9860001b613d59565b612adb7f4016f4a1253fbce6072a93086db178bf49ad87f85a682f2ccd5225fd46a6befa60001b613d59565b3081600081518110612af057612aef6153de565b5b602002602001019073ffffffffffffffffffffffffffffffffffffffff16908173ffffffffffffffffffffffffffffffffffffffff1681525050612b567f2ea0711eb4f84f97c0fcdc427fa2c5aab8e342cf7338507dea31cf4bb59cfe1660001b613d59565b612b827f9611dcc0353f4130e3b7445bc25f254b71bb6ab3c5d5ece5c74e78c14177572360001b613d59565b600760009054906101000a900473ffffffffffffffffffffffffffffffffffffffff1673ffffffffffffffffffffffffffffffffffffffff1663ad5c46486040518163ffffffff1660e01b815260040160206040518083038186803b158015612bea57600080fd5b505afa158015612bfe573d6000803e3d6000fd5b505050506040513d601f19601f82011682018060405250810190612c22919061462f565b81600181518110612c3657612c356153de565b5b602002602001019073ffffffffffffffffffffffffffffffffffffffff16908173ffffffffffffffffffffffffffffffffffffffff1681525050612c9c7f49bc151ab909544eb501abce1e163b7e43e69903e091b86fd79e93062aa7ffeb60001b613d59565b612cc87fcfef6c3cb07ca0b9e64a4bd95f56d7babe9eb6a18c5fc8e7e54f58471e8ab65660001b613d59565b612cf530600760009054906101000a900473ffffffffffffffffffffffffffffffffffffffff168461304f565b612d217fbc1ddb574d46e47d5c76eca663a2f05baa044a5368ded37590f2bee54107bf4960001b613d59565b612d4d7ff82c9006b6fd15b505f7c0e189c9c16fe610f8a7a08135ea0f2ecacab1b4a14860001b613d59565b600760009054906101000a900473ffffffffffffffffffffffffffffffffffffffff1673ffffffffffffffffffffffffffffffffffffffff1663791ac94783600084600860009054906101000a900473ffffffffffffffffffffffffffffffffffffffff16426040518663ffffffff1660e01b8152600401612dd3959493929190614fdc565b600060405180830381600087803b158015612ded57600080fd5b505af1925050508015612dfe575060015b612e9457612e2e7f18e3323504035f329d1b727cf6b856f52098af379271a44614256ff6ebd399c160001b613d59565b612e5a7f2e17429f5ef1b1683f393207017eb79534ff35334dbaf9934880fb21f234037a60001b613d59565b7fcf34ef537ac33ee1ac626ca1587a0a7e8e51561e5514f8cb36afa1c5102b3bab604051612e8790614f41565b60405180910390a1612e95565b5b5050565b600760009054906101000a900473ffffffffffffffffffffffffffffffffffffffff1681565b600860009054906101000a900473ffffffffffffffffffffffffffffffffffffffff1681565b612eed613047565b73ffffffffffffffffffffffffffffffffffffffff16612f0b610ecf565b73ffffffffffffffffffffffffffffffffffffffff1614612f61576040517f08c379a0000000000000000000000000000000000000000000000000000000008152600401612f5890614e41565b60405180910390fd5b600073ffffffffffffffffffffffffffffffffffffffff168173ffffffffffffffffffffffffffffffffffffffff161415612fd1576040517f08c379a0000000000000000000000000000000000000000000000000000000008152600401612fc890614da1565b60405180910390fd5b612fda81613f33565b50565b60007f01ffc9a7000000000000000000000000000000000000000000000000000000007bffffffffffffffffffffffffffffffffffffffffffffffffffffffff1916827bffffffffffffffffffffffffffffffffffffffffffffffffffffffff1916149050919050565b600033905090565b600073ffffffffffffffffffffffffffffffffffffffff168373ffffffffffffffffffffffffffffffffffffffff1614156130bf576040517f08c379a00000000000000000000000000000000000000000000000000000000081526004016130b690614f01565b60405180910390fd5b600073ffffffffffffffffffffffffffffffffffffffff168273ffffffffffffffffffffffffffffffffffffffff16141561312f576040517f08c379a000000000000000000000000000000000000000000000000000000000815260040161312690614dc1565b60405180910390fd5b80600160008573ffffffffffffffffffffffffffffffffffffffff1673ffffffffffffffffffffffffffffffffffffffff16815260200190815260200160002060008473ffffffffffffffffffffffffffffffffffffffff1673ffffffffffffffffffffffffffffffffffffffff168152602001908152602001600020819055508173ffffffffffffffffffffffffffffffffffffffff168373ffffffffffffffffffffffffffffffffffffffff167f8c5be1e5ebec7d5bd14f71427d1e84f3dd0314c0f7b2291e5b200ac8c7c3b9258360405161320d9190614fc1565b60405180910390a3505050565b6132467f053281432cd0c552183553f8f9da1c1e1512e8f8ce86fdc41041200e80ef725560001b613d59565b6132727fff869c270c001b3dc468854ad56d7cf01dab3a91a7e23630692b8e3d348e19de60001b613d59565b61329e7f79494500391633c9fbb769dfe3ecb2b3cd8dc9f3df60e7cdb08dfa2ddb8ab2d160001b613d59565b6132ca7f359a9fa7e94cd2bbf587e464e7a6c33d39104d33d528458185121395522a30be60001b613d59565b600073ffffffffffffffffffffffffffffffffffffffff168373ffffffffffffffffffffffffffffffffffffffff16141561333a576040517f08c379a000000000000000000000000000000000000000000000000000000000815260040161333190614ee1565b60405180910390fd5b6133667f30e073747e86d7419ff3ad135a6b8a02624545be57f6595dff9fdab5fb2a7bb760001b613d59565b6133927feaa402665f1525dca802a0c2bead9489076e30a549d09b0d876e6a19022fdb0a60001b613d59565b6133be7f91982d7609adfbb4600126d697f20e61e20e0c5cd1be4e63d1325b73c30b619d60001b613d59565b6133ea7f795b13e2d9e12ba324ccac9aedd3a743c54f4f9530ae93d62bda0e78e64f765e60001b613d59565b600073ffffffffffffffffffffffffffffffffffffffff168273ffffffffffffffffffffffffffffffffffffffff16141561345a576040517f08c379a000000000000000000000000000000000000000000000000000000000815260040161345190614d61565b60405180910390fd5b6134867f5be9acc3cdcc8dc5aac64c9ce5f64986fce74a03d2022b1df1baa3e41205c0ce60001b613d59565b6134b27f0b06591f0503adff195110193b284c48c9e3e845d69b9497fcb95104a0ee237060001b613d59565b6134de7ff1a4f8573300deb6ac04447b89ac45b4871f8eb230267e8bd9e79998dc6a287760001b613d59565b61350a7f6809965b6d5a3b595ca4562fe23942c7aeee26ca95340ab79d97eae2976fa8a060001b613d59565b6000811161354d576040517f08c379a000000000000000000000000000000000000000000000000000000000815260040161354490614e81565b60405180910390fd5b6135797f16a34063858514359fa2dcfc20449cef17a18e424f52c9ea7c5c1ee742123c2560001b613d59565b6135a57f1246824c4160bcea34a76e9bf37fdc681657d76963327a65df1a705e50a3509b60001b613d59565b6135d17fc5cb343f6098f974670c51136f34284136e87207c6f59f927f929cf05e9bb81160001b613d59565b60006135ff7f11cbb33dcad5151a1798a1a2437b5c1e4e47c16250527f887803b32ecef1990060001b613d59565b61362b7fcf8deb65e5fc2dfe3b03bc4ed178431ba01e51c5a1f1d020dc68d2004efa787660001b613d59565b600d60008573ffffffffffffffffffffffffffffffffffffffff1673ffffffffffffffffffffffffffffffffffffffff16815260200190815260200160002060009054906101000a900460ff1615806136ce5750600d60008473ffffffffffffffffffffffffffffffffffffffff1673ffffffffffffffffffffffffffffffffffffffff16815260200190815260200160002060009054906101000a900460ff16155b1561386d576136ff7fee74511d782791863b14dd42ab6a31ad70d6da404cc7c73526721ff3d0185da560001b613d59565b61372b7fd77a7e6da8d34a5656d9798e5c1a5dfc3f9b3f3c4d83f53f6bb82b1bc066bb4160001b613d59565b6137577fb8bdccd8bd21b7fda0f746d07413ca0658ad985d026eaf1e3b1ea10b5146440d60001b613d59565b600960009054906101000a900473ffffffffffffffffffffffffffffffffffffffff1673ffffffffffffffffffffffffffffffffffffffff168373ffffffffffffffffffffffffffffffffffffffff16141561383b576137d97f3ba0319b38cfbe6e4832dd29eebca59f530ee39e1ad7d372873466cd607ee57360001b613d59565b6138057f7f578cb08e39e8fc934142422fb9f5d1de4d0de8fb2c2b5399601acd3978fae660001b613d59565b6138317fba0cfba50c7a2bcc7438b12453d456f0c96a52c198451701c6dcf639c5db082260001b613d59565b600c549050613868565b6138677f88d6b04da6f31100d3e0c59651c91c01d39c367058179b9c86cea4264baca99060001b613d59565b5b61389a565b6138997fc119f2e807bae09ea6073b67f519ebb2a6efd0c003b893d6293fd69a8e7b971560001b613d59565b5b6138c67f2818a3834e447a167422cbf2b00118813570aa76f4a9f84435158964867f14cc60001b613d59565b6138f27f28ecb9a93087752a7aec2097887aec12e9a571c5ec76ad60f94b635927abb0d460001b613d59565b6000811115613a63576139277f64ff359c8cfb0e50332484850933a19369ebcfb21d9e57d4fe25730068403e7760001b613d59565b6139537f61ba160dc4bcfb5266a9966c187d29d20788ca52879fc2af3c9c9780d9c4b03b60001b613d59565b61397f7f5d541f27a5a2372779f327060051d1dadf89cdae00aac6554358bc176912a44560001b613d59565b600061398b8383613ff9565b90506139b97feea4210f50b3ff0c83eb35af2632a78b79b1ac16feb325cf5fed6e91d82bc36f60001b613d59565b6139e57f54b2f344e0de0af165d70ff1e84aab963f259eb060d9f36ee9d2855b9899cd0f60001b613d59565b6139f08530836140a6565b613a1c7f9711b1c06c8a25e9b99904e4d592065372ab4655d00bb8b7c52ccbb8f5dc426760001b613d59565b613a487f55afbdfefb24ab319b2a7a86d87613c1f40681bbfb21a3e396138b7a6c7bcd9f60001b613d59565b613a5b818461432790919063ffffffff16565b925050613a90565b613a8f7f48d6d04818aa232157fba296726362097bf6d8350b984fe990c13d9cf865f03660001b613d59565b5b613abc7fab855e124e713de6169c5ebca0cb18eb3c0c438ba9653f1161a3eec924b8de6160001b613d59565b613ae87fcff2e869c8052436b75f5e775b6dece6819cdb1fea36c9d9aa53cd6502db630d60001b613d59565b613af38484846140a6565b50505050565b613b0382826110f7565b613b9257613b288173ffffffffffffffffffffffffffffffffffffffff16601461433d565b613b368360001c602061433d565b604051602001613b47929190614c50565b6040516020818303038152906040526040517f08c379a0000000000000000000000000000000000000000000000000000000008152600401613b899190614d1f565b60405180910390fd5b5050565b613ba082826110f7565b613c735760016006600084815260200190815260200160002060000160008373ffffffffffffffffffffffffffffffffffffffff1673ffffffffffffffffffffffffffffffffffffffff16815260200190815260200160002060006101000a81548160ff021916908315150217905550613c18613047565b73ffffffffffffffffffffffffffffffffffffffff168173ffffffffffffffffffffffffffffffffffffffff16837f2f8788117e7eff1d82e926ec794901d17c78024a50270940304540a733656f0d60405160405180910390a45b5050565b613c8182826110f7565b15613d555760006006600084815260200190815260200160002060000160008373ffffffffffffffffffffffffffffffffffffffff1673ffffffffffffffffffffffffffffffffffffffff16815260200190815260200160002060006101000a81548160ff021916908315150217905550613cfa613047565b73ffffffffffffffffffffffffffffffffffffffff168173ffffffffffffffffffffffffffffffffffffffff16837ff6391f5c32d9c69d2a47ea670b442974b53935d1edc7fd64eb21e047a839171b60405160405180910390a45b5050565b50565b600073ffffffffffffffffffffffffffffffffffffffff168273ffffffffffffffffffffffffffffffffffffffff161415613dcc576040517f08c379a0000000000000000000000000000000000000000000000000000000008152600401613dc390614ea1565b60405180910390fd5b613dd882600083614579565b60008060008473ffffffffffffffffffffffffffffffffffffffff1673ffffffffffffffffffffffffffffffffffffffff16815260200190815260200160002054905081811015613e5e576040517f08c379a0000000000000000000000000000000000000000000000000000000008152600401613e5590614d81565b60405180910390fd5b8181036000808573ffffffffffffffffffffffffffffffffffffffff1673ffffffffffffffffffffffffffffffffffffffff168152602001908152602001600020819055508160026000828254613eb591906151bb565b92505081905550600073ffffffffffffffffffffffffffffffffffffffff168373ffffffffffffffffffffffffffffffffffffffff167fddf252ad1be2c89b69c2b068fc378daa952ba7f163c4a11628f55a4df523b3ef84604051613f1a9190614fc1565b60405180910390a3613f2e8360008461457e565b505050565b6000600560009054906101000a900473ffffffffffffffffffffffffffffffffffffffff16905081600560006101000a81548173ffffffffffffffffffffffffffffffffffffffff021916908373ffffffffffffffffffffffffffffffffffffffff1602179055508173ffffffffffffffffffffffffffffffffffffffff168173ffffffffffffffffffffffffffffffffffffffff167f8be0079c531659141344cd1fd0a4f28419497f9722a3daafe3b4186f6b6457e060405160405180910390a35050565b60006140277f1083802c199ccf3b199e4b4fc079dcc57d881f3e55b32c2c3e39d0b486545d4c60001b613d59565b6140537f46335d69d91e95c1f260086c57556e654e09eb434a6a778368cb9232a292c20060001b613d59565b61407f7f0d7440cd80b0e8b2676a63a8a099128530853ea3e7b2f2da192a2a845ddb8fe860001b613d59565b61409e606483856140909190615161565b61458390919063ffffffff16565b905092915050565b600073ffffffffffffffffffffffffffffffffffffffff168373ffffffffffffffffffffffffffffffffffffffff161415614116576040517f08c379a000000000000000000000000000000000000000000000000000000000815260040161410d90614ee1565b60405180910390fd5b600073ffffffffffffffffffffffffffffffffffffffff168273ffffffffffffffffffffffffffffffffffffffff161415614186576040517f08c379a000000000000000000000000000000000000000000000000000000000815260040161417d90614d61565b60405180910390fd5b614191838383614579565b60008060008573ffffffffffffffffffffffffffffffffffffffff1673ffffffffffffffffffffffffffffffffffffffff16815260200190815260200160002054905081811015614217576040517f08c379a000000000000000000000000000000000000000000000000000000000815260040161420e90614de1565b60405180910390fd5b8181036000808673ffffffffffffffffffffffffffffffffffffffff1673ffffffffffffffffffffffffffffffffffffffff16815260200190815260200160002081905550816000808573ffffffffffffffffffffffffffffffffffffffff1673ffffffffffffffffffffffffffffffffffffffff16815260200190815260200160002060008282546142aa91906150da565b925050819055508273ffffffffffffffffffffffffffffffffffffffff168473ffffffffffffffffffffffffffffffffffffffff167fddf252ad1be2c89b69c2b068fc378daa952ba7f163c4a11628f55a4df523b3ef8460405161430e9190614fc1565b60405180910390a361432184848461457e565b50505050565b6000818361433591906151bb565b905092915050565b6060600060028360026143509190615161565b61435a91906150da565b67ffffffffffffffff8111156143735761437261540d565b5b6040519080825280601f01601f1916602001820160405280156143a55781602001600182028036833780820191505090505b5090507f3000000000000000000000000000000000000000000000000000000000000000816000815181106143dd576143dc6153de565b5b60200101907effffffffffffffffffffffffffffffffffffffffffffffffffffffffffffff1916908160001a9053507f780000000000000000000000000000000000000000000000000000000000000081600181518110614441576144406153de565b5b60200101907effffffffffffffffffffffffffffffffffffffffffffffffffffffffffffff1916908160001a905350600060018460026144819190615161565b61448b91906150da565b90505b600181111561452b577f3031323334353637383961626364656600000000000000000000000000000000600f8616601081106144cd576144cc6153de565b5b1a60f81b8282815181106144e4576144e36153de565b5b60200101907effffffffffffffffffffffffffffffffffffffffffffffffffffffffffffff1916908160001a905350600485901c945080614524906152f5565b905061448e565b506000841461456f576040517f08c379a000000000000000000000000000000000000000000000000000000000815260040161456690614d41565b60405180910390fd5b8091505092915050565b505050565b505050565b600081836145919190615130565b905092915050565b6000813590506145a8816159c6565b92915050565b6000815190506145bd816159c6565b92915050565b6000813590506145d2816159dd565b92915050565b6000813590506145e7816159f4565b92915050565b6000813590506145fc81615a0b565b92915050565b6000602082840312156146185761461761543c565b5b600061462684828501614599565b91505092915050565b6000602082840312156146455761464461543c565b5b6000614653848285016145ae565b91505092915050565b600080604083850312156146735761467261543c565b5b600061468185828601614599565b925050602061469285828601614599565b9150509250929050565b6000806000606084860312156146b5576146b461543c565b5b60006146c386828701614599565b93505060206146d486828701614599565b92505060406146e5868287016145ed565b9150509250925092565b600080604083850312156147065761470561543c565b5b600061471485828601614599565b9250506020614725858286016145ed565b9150509250929050565b6000602082840312156147455761474461543c565b5b6000614753848285016145c3565b91505092915050565b600080604083850312156147735761477261543c565b5b6000614781858286016145c3565b925050602061479285828601614599565b9150509250929050565b6000602082840312156147b2576147b161543c565b5b60006147c0848285016145d8565b91505092915050565b6000602082840312156147df576147de61543c565b5b60006147ed848285016145ed565b91505092915050565b6000614802838361480e565b60208301905092915050565b614817816151ef565b82525050565b614826816151ef565b82525050565b60006148378261508a565b61484181856150ad565b935061484c8361507a565b8060005b8381101561487d57815161486488826147f6565b975061486f836150a0565b925050600181019050614850565b5085935050505092915050565b61489381615201565b82525050565b6148a28161520d565b82525050565b6148b18161527a565b82525050565b6148c08161528c565b82525050565b60006148d182615095565b6148db81856150be565b93506148eb8185602086016152c2565b6148f481615441565b840191505092915050565b600061490a82615095565b61491481856150cf565b93506149248185602086016152c2565b80840191505092915050565b600061493d6020836150be565b915061494882615452565b602082019050919050565b60006149606023836150be565b915061496b8261547b565b604082019050919050565b60006149836022836150be565b915061498e826154ca565b604082019050919050565b60006149a66026836150be565b91506149b182615519565b604082019050919050565b60006149c96022836150be565b91506149d482615568565b604082019050919050565b60006149ec6026836150be565b91506149f7826155b7565b604082019050919050565b6000614a0f6020836150be565b9150614a1a82615606565b602082019050919050565b6000614a326028836150be565b9150614a3d8261562f565b604082019050919050565b6000614a556020836150be565b9150614a608261567e565b602082019050919050565b6000614a786025836150be565b9150614a83826156a7565b604082019050919050565b6000614a9b6029836150be565b9150614aa6826156f6565b604082019050919050565b6000614abe6021836150be565b9150614ac982615745565b604082019050919050565b6000614ae16020836150be565b9150614aec82615794565b602082019050919050565b6000614b046025836150be565b9150614b0f826157bd565b604082019050919050565b6000614b276024836150be565b9150614b328261580c565b604082019050919050565b6000614b4a601d836150be565b9150614b558261585b565b602082019050919050565b6000614b6d6017836150cf565b9150614b7882615884565b601782019050919050565b6000614b906014836150be565b9150614b9b826158ad565b602082019050919050565b6000614bb36015836150be565b9150614bbe826158d6565b602082019050919050565b6000614bd66025836150be565b9150614be1826158ff565b604082019050919050565b6000614bf96011836150cf565b9150614c048261594e565b601182019050919050565b6000614c1c602f836150be565b9150614c2782615977565b604082019050919050565b614c3b81615263565b82525050565b614c4a8161526d565b82525050565b6000614c5b82614b60565b9150614c6782856148ff565b9150614c7282614bec565b9150614c7e82846148ff565b91508190509392505050565b6000602082019050614c9f600083018461481d565b92915050565b6000604082019050614cba600083018561481d565b614cc7602083018461481d565b9392505050565b6000602082019050614ce3600083018461488a565b92915050565b6000602082019050614cfe6000830184614899565b92915050565b6000602082019050614d1960008301846148a8565b92915050565b60006020820190508181036000830152614d3981846148c6565b905092915050565b60006020820190508181036000830152614d5a81614930565b9050919050565b60006020820190508181036000830152614d7a81614953565b9050919050565b60006020820190508181036000830152614d9a81614976565b9050919050565b60006020820190508181036000830152614dba81614999565b9050919050565b60006020820190508181036000830152614dda816149bc565b9050919050565b60006020820190508181036000830152614dfa816149df565b9050919050565b60006020820190508181036000830152614e1a81614a02565b9050919050565b60006020820190508181036000830152614e3a81614a25565b9050919050565b60006020820190508181036000830152614e5a81614a48565b9050919050565b60006020820190508181036000830152614e7a81614a6b565b9050919050565b60006020820190508181036000830152614e9a81614a8e565b9050919050565b60006020820190508181036000830152614eba81614ab1565b9050919050565b60006020820190508181036000830152614eda81614ad4565b9050919050565b60006020820190508181036000830152614efa81614af7565b9050919050565b60006020820190508181036000830152614f1a81614b1a565b9050919050565b60006020820190508181036000830152614f3a81614b3d565b9050919050565b60006020820190508181036000830152614f5a81614b83565b9050919050565b60006020820190508181036000830152614f7a81614ba6565b9050919050565b60006020820190508181036000830152614f9a81614bc9565b9050919050565b60006020820190508181036000830152614fba81614c0f565b9050919050565b6000602082019050614fd66000830184614c32565b92915050565b600060a082019050614ff16000830188614c32565b614ffe60208301876148b7565b8181036040830152615010818661482c565b905061501f606083018561481d565b61502c6080830184614c32565b9695505050505050565b600060408201905061504b6000830185614c32565b6150586020830184614c32565b9392505050565b60006020820190506150746000830184614c41565b92915050565b6000819050602082019050919050565b600081519050919050565b600081519050919050565b6000602082019050919050565b600082825260208201905092915050565b600082825260208201905092915050565b600081905092915050565b60006150e582615263565b91506150f083615263565b9250827fffffffffffffffffffffffffffffffffffffffffffffffffffffffffffffffff0382111561512557615124615351565b5b828201905092915050565b600061513b82615263565b915061514683615263565b92508261515657615155615380565b5b828204905092915050565b600061516c82615263565b915061517783615263565b9250817fffffffffffffffffffffffffffffffffffffffffffffffffffffffffffffffff04831182151516156151b0576151af615351565b5b828202905092915050565b60006151c682615263565b91506151d183615263565b9250828210156151e4576151e3615351565b5b828203905092915050565b60006151fa82615243565b9050919050565b60008115159050919050565b6000819050919050565b60007fffffffff0000000000000000000000000000000000000000000000000000000082169050919050565b600073ffffffffffffffffffffffffffffffffffffffff82169050919050565b6000819050919050565b600060ff82169050919050565b60006152858261529e565b9050919050565b600061529782615263565b9050919050565b60006152a9826152b0565b9050919050565b60006152bb82615243565b9050919050565b60005b838110156152e05780820151818401526020810190506152c5565b838111156152ef576000848401525b50505050565b600061530082615263565b9150600082141561531457615313615351565b5b600182039050919050565b6000600282049050600182168061533757607f821691505b6020821081141561534b5761534a6153af565b5b50919050565b7f4e487b7100000000000000000000000000000000000000000000000000000000600052601160045260246000fd5b7f4e487b7100000000000000000000000000000000000000000000000000000000600052601260045260246000fd5b7f4e487b7100000000000000000000000000000000000000000000000000000000600052602260045260246000fd5b7f4e487b7100000000000000000000000000000000000000000000000000000000600052603260045260246000fd5b7f4e487b7100000000000000000000000000000000000000000000000000000000600052604160045260246000fd5b600080fd5b6000601f19601f8301169050919050565b7f537472696e67733a20686578206c656e67746820696e73756666696369656e74600082015250565b7f45524332303a207472616e7366657220746f20746865207a65726f206164647260008201527f6573730000000000000000000000000000000000000000000000000000000000602082015250565b7f45524332303a206275726e20616d6f756e7420657863656564732062616c616e60008201527f6365000000000000000000000000000000000000000000000000000000000000602082015250565b7f4f776e61626c653a206e6577206f776e657220697320746865207a65726f206160008201527f6464726573730000000000000000000000000000000000000000000000000000602082015250565b7f45524332303a20617070726f766520746f20746865207a65726f20616464726560008201527f7373000000000000000000000000000000000000000000000000000000000000602082015250565b7f45524332303a207472616e7366657220616d6f756e742065786365656473206260008201527f616c616e63650000000000000000000000000000000000000000000000000000602082015250565b7f63616e6e6f7420656e6f75676820746f6b656e20666f72207377617070696e67600082015250565b7f45524332303a207472616e7366657220616d6f756e742065786365656473206160008201527f6c6c6f77616e6365000000000000000000000000000000000000000000000000602082015250565b7f4f776e61626c653a2063616c6c6572206973206e6f7420746865206f776e6572600082015250565b7f666565206e65656420746f207365742067726561746572207468616e2065717560008201527f616c203025000000000000000000000000000000000000000000000000000000602082015250565b7f5472616e7366657220616d6f756e74206d75737420626520677265617465722060008201527f7468616e207a65726f0000000000000000000000000000000000000000000000602082015250565b7f45524332303a206275726e2066726f6d20746865207a65726f2061646472657360008201527f7300000000000000000000000000000000000000000000000000000000000000602082015250565b7f3078206f72206f776e6572206973206e6f742061636365707465642068657265600082015250565b7f45524332303a207472616e736665722066726f6d20746865207a65726f20616460008201527f6472657373000000000000000000000000000000000000000000000000000000602082015250565b7f45524332303a20617070726f76652066726f6d20746865207a65726f2061646460008201527f7265737300000000000000000000000000000000000000000000000000000000602082015250565b7f666565206e65656420746f20736574206c6f776572207468616e203625000000600082015250565b7f416363657373436f6e74726f6c3a206163636f756e7420000000000000000000600082015250565b7f65787465726e616c2063616c6c206661696c6564000000000000000000000000600082015250565b7f535741504c4f434b54494d453a20494e56414c49440000000000000000000000600082015250565b7f45524332303a2064656372656173656420616c6c6f77616e63652062656c6f7760008201527f207a65726f000000000000000000000000000000000000000000000000000000602082015250565b7f206973206d697373696e6720726f6c6520000000000000000000000000000000600082015250565b7f416363657373436f6e74726f6c3a2063616e206f6e6c792072656e6f756e636560008201527f20726f6c657320666f722073656c660000000000000000000000000000000000602082015250565b6159cf816151ef565b81146159da57600080fd5b50565b6159e68161520d565b81146159f157600080fd5b50565b6159fd81615217565b8114615a0857600080fd5b50565b615a1481615263565b8114615a1f57600080fd5b5056fea164736f6c6343000807000a",
  "linkReferences": {},
  "deployedLinkReferences": {}
}