{
  "_format": "hh-sol-artifact-1",
  "contractName": "TESToken",
  "sourceName": "contracts/TESToken.sol",
  "abi": [
    {
      "inputs": [],
      "stateMutability": "nonpayable",
      "type": "constructor"
    },
    {
      "anonymous": false,
      "inputs": [
        {
          "indexed": true,
          "internalType": "address",
          "name": "owner",
          "type": "address"
        },
        {
          "indexed": true,
          "internalType": "address",
          "name": "spender",
          "type": "address"
        },
        {
          "indexed": false,
          "internalType": "uint256",
          "name": "value",
          "type": "uint256"
        }
      ],
      "name": "Approval",
      "type": "event"
    },
    {
      "anonymous": false,
      "inputs": [
        {
          "indexed": true,
          "internalType": "address",
          "name": "addr",
          "type": "address"
        }
      ],
      "name": "EventChangeSwapBalanceAddress",
      "type": "event"
    },
    {
      "anonymous": false,
      "inputs": [
        {
          "indexed": true,
          "internalType": "address",
          "name": "target",
          "type": "address"
        },
        {
          "indexed": false,
          "internalType": "bool",
          "name": "state",
          "type": "bool"
        }
      ],
      "name": "EventWhiteList",
      "type": "event"
    },
    {
      "anonymous": false,
      "inputs": [
        {
          "indexed": false,
          "internalType": "string",
          "name": "message",
          "type": "string"
        }
      ],
      "name": "Log",
      "type": "event"
    },
    {
      "anonymous": false,
      "inputs": [
        {
          "indexed": true,
          "internalType": "address",
          "name": "previousOwner",
          "type": "address"
        },
        {
          "indexed": true,
          "internalType": "address",
          "name": "newOwner",
          "type": "address"
        }
      ],
      "name": "OwnershipTransferred",
      "type": "event"
    },
    {
      "anonymous": false,
      "inputs": [
        {
          "indexed": true,
          "internalType": "bytes32",
          "name": "role",
          "type": "bytes32"
        },
        {
          "indexed": true,
          "internalType": "bytes32",
          "name": "previousAdminRole",
          "type": "bytes32"
        },
        {
          "indexed": true,
          "internalType": "bytes32",
          "name": "newAdminRole",
          "type": "bytes32"
        }
      ],
      "name": "RoleAdminChanged",
      "type": "event"
    },
    {
      "anonymous": false,
      "inputs": [
        {
          "indexed": true,
          "internalType": "bytes32",
          "name": "role",
          "type": "bytes32"
        },
        {
          "indexed": true,
          "internalType": "address",
          "name": "account",
          "type": "address"
        },
        {
          "indexed": true,
          "internalType": "address",
          "name": "sender",
          "type": "address"
        }
      ],
      "name": "RoleGranted",
      "type": "event"
    },
    {
      "anonymous": false,
      "inputs": [
        {
          "indexed": true,
          "internalType": "bytes32",
          "name": "role",
          "type": "bytes32"
        },
        {
          "indexed": true,
          "internalType": "address",
          "name": "account",
          "type": "address"
        },
        {
          "indexed": true,
          "internalType": "address",
          "name": "sender",
          "type": "address"
        }
      ],
      "name": "RoleRevoked",
      "type": "event"
    },
    {
      "anonymous": false,
      "inputs": [
        {
          "indexed": true,
          "internalType": "address",
          "name": "from",
          "type": "address"
        },
        {
          "indexed": true,
          "internalType": "address",
          "name": "to",
          "type": "address"
        },
        {
          "indexed": false,
          "internalType": "uint256",
          "name": "value",
          "type": "uint256"
        }
      ],
      "name": "Transfer",
      "type": "event"
    },
    {
      "stateMutability": "payable",
      "type": "fallback"
    },
    {
      "inputs": [],
      "name": "BURNER_ROLE",
      "outputs": [
        {
          "internalType": "bytes32",
          "name": "",
          "type": "bytes32"
        }
      ],
      "stateMutability": "view",
      "type": "function"
    },
    {
      "inputs": [],
      "name": "DEFAULT_ADMIN_ROLE",
      "outputs": [
        {
          "internalType": "bytes32",
          "name": "",
          "type": "bytes32"
        }
      ],
      "stateMutability": "view",
      "type": "function"
    },
    {
      "inputs": [
        {
          "internalType": "address",
          "name": "owner",
          "type": "address"
        },
        {
          "internalType": "address",
          "name": "spender",
          "type": "address"
        }
      ],
      "name": "allowance",
      "outputs": [
        {
          "internalType": "uint256",
          "name": "",
          "type": "uint256"
        }
      ],
      "stateMutability": "view",
      "type": "function"
    },
    {
      "inputs": [
        {
          "internalType": "address",
          "name": "spender",
          "type": "address"
        },
        {
          "internalType": "uint256",
          "name": "amount",
          "type": "uint256"
        }
      ],
      "name": "approve",
      "outputs": [
        {
          "internalType": "bool",
          "name": "",
          "type": "bool"
        }
      ],
      "stateMutability": "nonpayable",
      "type": "function"
    },
    {
      "inputs": [
        {
          "internalType": "address",
          "name": "account",
          "type": "address"
        }
      ],
      "name": "balanceOf",
      "outputs": [
        {
          "internalType": "uint256",
          "name": "",
          "type": "uint256"
        }
      ],
      "stateMutability": "view",
      "type": "function"
    },
    {
      "inputs": [],
      "name": "blacklistTime",
      "outputs": [
        {
          "internalType": "uint256",
          "name": "",
          "type": "uint256"
        }
      ],
      "stateMutability": "view",
      "type": "function"
    },
    {
      "inputs": [],
      "name": "bpEnabled",
      "outputs": [
        {
          "internalType": "bool",
          "name": "",
          "type": "bool"
        }
      ],
      "stateMutability": "view",
      "type": "function"
    },
    {
      "inputs": [
        {
          "internalType": "uint256",
          "name": "amount",
          "type": "uint256"
        }
      ],
      "name": "burn",
      "outputs": [],
      "stateMutability": "nonpayable",
      "type": "function"
    },
    {
      "inputs": [],
      "name": "decimals",
      "outputs": [
        {
          "internalType": "uint8",
          "name": "",
          "type": "uint8"
        }
      ],
      "stateMutability": "view",
      "type": "function"
    },
    {
      "inputs": [
        {
          "internalType": "address",
          "name": "spender",
          "type": "address"
        },
        {
          "internalType": "uint256",
          "name": "subtractedValue",
          "type": "uint256"
        }
      ],
      "name": "decreaseAllowance",
      "outputs": [
        {
          "internalType": "bool",
          "name": "",
          "type": "bool"
        }
      ],
      "stateMutability": "nonpayable",
      "type": "function"
    },
    {
      "inputs": [
        {
          "internalType": "address",
          "name": "account",
          "type": "address"
        }
      ],
      "name": "excludeFromFee",
      "outputs": [],
      "stateMutability": "nonpayable",
      "type": "function"
    },
    {
      "inputs": [],
      "name": "getFees",
      "outputs": [
        {
          "internalType": "uint256",
          "name": "buyFee",
          "type": "uint256"
        },
        {
          "internalType": "uint256",
          "name": "sellFee",
          "type": "uint256"
        }
      ],
      "stateMutability": "view",
      "type": "function"
    },
    {
      "inputs": [
        {
          "internalType": "bytes32",
          "name": "role",
          "type": "bytes32"
        }
      ],
      "name": "getRoleAdmin",
      "outputs": [
        {
          "internalType": "bytes32",
          "name": "",
          "type": "bytes32"
        }
      ],
      "stateMutability": "view",
      "type": "function"
    },
    {
      "inputs": [
        {
          "internalType": "bytes32",
          "name": "role",
          "type": "bytes32"
        },
        {
          "internalType": "address",
          "name": "account",
          "type": "address"
        }
      ],
      "name": "grantRole",
      "outputs": [],
      "stateMutability": "nonpayable",
      "type": "function"
    },
    {
      "inputs": [
        {
          "internalType": "bytes32",
          "name": "role",
          "type": "bytes32"
        },
        {
          "internalType": "address",
          "name": "account",
          "type": "address"
        }
      ],
      "name": "hasRole",
      "outputs": [
        {
          "internalType": "bool",
          "name": "",
          "type": "bool"
        }
      ],
      "stateMutability": "view",
      "type": "function"
    },
    {
      "inputs": [
        {
          "internalType": "address",
          "name": "spender",
          "type": "address"
        },
        {
          "internalType": "uint256",
          "name": "addedValue",
          "type": "uint256"
        }
      ],
      "name": "increaseAllowance",
      "outputs": [
        {
          "internalType": "bool",
          "name": "",
          "type": "bool"
        }
      ],
      "stateMutability": "nonpayable",
      "type": "function"
    },
    {
      "inputs": [
        {
          "internalType": "address",
          "name": "routerAddress",
          "type": "address"
        }
      ],
      "name": "initSwap",
      "outputs": [],
      "stateMutability": "nonpayable",
      "type": "function"
    },
    {
      "inputs": [],
      "name": "name",
      "outputs": [
        {
          "internalType": "string",
          "name": "",
          "type": "string"
        }
      ],
      "stateMutability": "view",
      "type": "function"
    },
    {
      "inputs": [],
      "name": "owner",
      "outputs": [
        {
          "internalType": "address",
          "name": "",
          "type": "address"
        }
      ],
      "stateMutability": "view",
      "type": "function"
    },
    {
      "inputs": [],
      "name": "pancakeswapV2Pair",
      "outputs": [
        {
          "internalType": "address",
          "name": "",
          "type": "address"
        }
      ],
      "stateMutability": "view",
      "type": "function"
    },
    {
      "inputs": [],
      "name": "pancakeswapV2Router",
      "outputs": [
        {
          "internalType": "contract IUniswapV2Router02",
          "name": "",
          "type": "address"
        }
      ],
      "stateMutability": "view",
      "type": "function"
    },
    {
      "inputs": [
        {
          "internalType": "address",
          "name": "target",
          "type": "address"
        }
      ],
      "name": "removeWhiteLists",
      "outputs": [],
      "stateMutability": "nonpayable",
      "type": "function"
    },
    {
      "inputs": [],
      "name": "renounceOwnership",
      "outputs": [],
      "stateMutability": "nonpayable",
      "type": "function"
    },
    {
      "inputs": [
        {
          "internalType": "bytes32",
          "name": "role",
          "type": "bytes32"
        },
        {
          "internalType": "address",
          "name": "account",
          "type": "address"
        }
      ],
      "name": "renounceRole",
      "outputs": [],
      "stateMutability": "nonpayable",
      "type": "function"
    },
    {
      "inputs": [
        {
          "internalType": "bytes32",
          "name": "role",
          "type": "bytes32"
        },
        {
          "internalType": "address",
          "name": "account",
          "type": "address"
        }
      ],
      "name": "revokeRole",
      "outputs": [],
      "stateMutability": "nonpayable",
      "type": "function"
    },
    {
      "inputs": [
        {
          "internalType": "uint256",
          "name": "fee",
          "type": "uint256"
        }
      ],
      "name": "setBuyFeeRate",
      "outputs": [],
      "stateMutability": "nonpayable",
      "type": "function"
    },
    {
      "inputs": [
        {
          "internalType": "address",
          "name": "pairAddress",
          "type": "address"
        }
      ],
      "name": "setPairAddress",
      "outputs": [],
      "stateMutability": "nonpayable",
      "type": "function"
    },
    {
      "inputs": [
        {
          "internalType": "uint256",
          "name": "fee",
          "type": "uint256"
        }
      ],
      "name": "setSellFeeRate",
      "outputs": [],
      "stateMutability": "nonpayable",
      "type": "function"
    },
    {
      "inputs": [
        {
          "internalType": "address",
          "name": "_swapBalanceAddress",
          "type": "address"
        }
      ],
      "name": "setSwapBalance",
      "outputs": [],
      "stateMutability": "nonpayable",
      "type": "function"
    },
    {
      "inputs": [
        {
          "internalType": "address",
          "name": "target",
          "type": "address"
        }
      ],
      "name": "setWhiteLists",
      "outputs": [],
      "stateMutability": "nonpayable",
      "type": "function"
    },
    {
      "inputs": [
        {
          "internalType": "bytes4",
          "name": "interfaceId",
          "type": "bytes4"
        }
      ],
      "name": "supportsInterface",
      "outputs": [
        {
          "internalType": "bool",
          "name": "",
          "type": "bool"
        }
      ],
      "stateMutability": "view",
      "type": "function"
    },
    {
      "inputs": [],
      "name": "swapBalanceAddress",
      "outputs": [
        {
          "internalType": "address",
          "name": "",
          "type": "address"
        }
      ],
      "stateMutability": "view",
      "type": "function"
    },
    {
      "inputs": [],
      "name": "swapLockTime",
      "outputs": [
        {
          "internalType": "uint256",
          "name": "",
          "type": "uint256"
        }
      ],
      "stateMutability": "view",
      "type": "function"
    },
    {
      "inputs": [
        {
          "internalType": "uint256",
          "name": "tokenAmount",
          "type": "uint256"
        }
      ],
      "name": "swapTokensForETH",
      "outputs": [],
      "stateMutability": "nonpayable",
      "type": "function"
    },
    {
      "inputs": [],
      "name": "symbol",
      "outputs": [
        {
          "internalType": "string",
          "name": "",
          "type": "string"
        }
      ],
      "stateMutability": "view",
      "type": "function"
    },
    {
      "inputs": [],
      "name": "totalSupply",
      "outputs": [
        {
          "internalType": "uint256",
          "name": "",
          "type": "uint256"
        }
      ],
      "stateMutability": "view",
      "type": "function"
    },
    {
      "inputs": [
        {
          "internalType": "address",
          "name": "recipient",
          "type": "address"
        },
        {
          "internalType": "uint256",
          "name": "amount",
          "type": "uint256"
        }
      ],
      "name": "transfer",
      "outputs": [
        {
          "internalType": "bool",
          "name": "",
          "type": "bool"
        }
      ],
      "stateMutability": "nonpayable",
      "type": "function"
    },
    {
      "inputs": [
        {
          "internalType": "address",
          "name": "sender",
          "type": "address"
        },
        {
          "internalType": "address",
          "name": "recipient",
          "type": "address"
        },
        {
          "internalType": "uint256",
          "name": "amount",
          "type": "uint256"
        }
      ],
      "name": "transferFrom",
      "outputs": [
        {
          "internalType": "bool",
          "name": "",
          "type": "bool"
        }
      ],
      "stateMutability": "nonpayable",
      "type": "function"
    },
    {
      "inputs": [
        {
          "internalType": "address",
          "name": "newOwner",
          "type": "address"
        }
      ],
      "name": "transferOwnership",
      "outputs": [],
      "stateMutability": "nonpayable",
      "type": "function"
    },
    {
      "inputs": [
        {
          "internalType": "uint256",
          "name": "amount",
          "type": "uint256"
        }
      ],
      "name": "updateSwapBalance",
      "outputs": [],
      "stateMutability": "nonpayable",
      "type": "function"
    },
    {
      "stateMutability": "payable",
      "type": "receive"
    }
  ],
  "bytecode": "0x60806040526000600b819055600c8190556010805460ff1916905560118190556012553480156200002f57600080fd5b506040518060400160405280600d81526020016c546974616e2054726164696e6760981b8152506040518060400160405280600381526020016254455360e81b81525081600390805190602001906200008a92919062000380565b508051620000a090600490602084019062000380565b505050620000bd620000b76200018460201b60201c565b62000188565b620000cb6012600a6200048a565b620000db906305f5e10062000553565b600a55620000ec33600a54620001da565b620000f9600033620002c3565b620001257f3c11d16cbaffd01df69ce1c404f6340ee057498f5f00246190ea54220576a84833620002c3565b6001600e60006200013e6005546001600160a01b031690565b6001600160a01b0316815260208082019290925260409081016000908120805494151560ff19958616179055308152600e909252902080549091166001179055620005c8565b3390565b600580546001600160a01b038381166001600160a01b0319831681179093556040519116919082907f8be0079c531659141344cd1fd0a4f28419497f9722a3daafe3b4186f6b6457e090600090a35050565b6001600160a01b038216620002355760405162461bcd60e51b815260206004820152601f60248201527f45524332303a206d696e7420746f20746865207a65726f206164647265737300604482015260640160405180910390fd5b806002600082825462000249919062000426565b90915550506001600160a01b038216600090815260208190526040812080548392906200027890849062000426565b90915550506040518181526001600160a01b038316906000907fddf252ad1be2c89b69c2b068fc378daa952ba7f163c4a11628f55a4df523b3ef9060200160405180910390a35b5050565b620002bf8282620002d5828262000353565b620002bf5760008281526006602090815260408083206001600160a01b03851684529091529020805460ff191660011790556200030f3390565b6001600160a01b0316816001600160a01b0316837f2f8788117e7eff1d82e926ec794901d17c78024a50270940304540a733656f0d60405160405180910390a45050565b60008281526006602090815260408083206001600160a01b038516845290915290205460ff165b92915050565b8280546200038e9062000575565b90600052602060002090601f016020900481019282620003b25760008555620003fd565b82601f10620003cd57805160ff1916838001178555620003fd565b82800160010185558215620003fd579182015b82811115620003fd578251825591602001919060010190620003e0565b506200040b9291506200040f565b5090565b5b808211156200040b576000815560010162000410565b600082198211156200043c576200043c620005b2565b500190565b600181815b8085111562000482578160001904821115620004665762000466620005b2565b808516156200047457918102915b93841c939080029062000446565b509250929050565b60006200049883836200049f565b9392505050565b600082620004b0575060016200037a565b81620004bf575060006200037a565b8160018114620004d85760028114620004e35762000503565b60019150506200037a565b60ff841115620004f757620004f7620005b2565b50506001821b6200037a565b5060208310610133831016604e8410600b841016171562000528575081810a6200037a565b62000534838362000441565b80600019048211156200054b576200054b620005b2565b029392505050565b6000816000190483118215151615620005705762000570620005b2565b500290565b600181811c908216806200058a57607f821691505b60208210811415620005ac57634e487b7160e01b600052602260045260246000fd5b50919050565b634e487b7160e01b600052601160045260246000fd5b61212380620005d86000396000f3fe6080604052600436106102275760003560e01c806391d1485411610122578063ce636726116100a5578063e34edc141161006c578063e34edc14146106e5578063e56a645e14610705578063e5dffed314610725578063f2f7049c14610745578063f2fde38b1461076557005b8063ce63672614610617578063d547741f14610637578063db8d55f114610657578063dcb5f2201461067f578063dd62ed3e1461069f57005b8063a22d4832116100e9578063a22d483214610581578063a457c2d7146105a1578063a9059cbb146105c1578063bd9797f4146105e1578063cb81c2291461060157005b806391d14854146104f757806395d89b41146105175780639729d64c1461052c5780639c466f1f1461054c578063a217fddf1461056c57005b806336568abe116101aa5780635289288411610171578063528928841461043657806370a082311461046e578063715018a6146104a45780638da5cb5b146104b95780639072e306146104d757005b806336568abe146103a057806339509351146103c057806342966c68146103e0578063437823ec146104005780634489d6f81461042057005b8063248a9ca3116101ee578063248a9ca3146102e657806326898da914610316578063282c51f3146103305780632f2ff15d14610364578063313ce5671461038457005b806301ffc9a71461023057806306fdde0314610265578063095ea7b31461028757806318160ddd146102a757806323b872dd146102c657005b3661022e57005b005b34801561023c57600080fd5b5061025061024b366004611dd1565b610785565b60405190151581526020015b60405180910390f35b34801561027157600080fd5b5061027a6107bc565b60405161025c9190611e70565b34801561029357600080fd5b506102506102a2366004611d67565b61084e565b3480156102b357600080fd5b506002545b60405190815260200161025c565b3480156102d257600080fd5b506102506102e1366004611d26565b610864565b3480156102f257600080fd5b506102b8610301366004611d93565b60009081526006602052604090206001015490565b34801561032257600080fd5b506010546102509060ff1681565b34801561033c57600080fd5b506102b87f3c11d16cbaffd01df69ce1c404f6340ee057498f5f00246190ea54220576a84881565b34801561037057600080fd5b5061022e61037f366004611dac565b610913565b34801561039057600080fd5b506040516012815260200161025c565b3480156103ac57600080fd5b5061022e6103bb366004611dac565b61093e565b3480156103cc57600080fd5b506102506103db366004611d67565b6109bc565b3480156103ec57600080fd5b5061022e6103fb366004611d93565b6109f8565b34801561040c57600080fd5b5061022e61041b366004611cb3565b610a2f565b34801561042c57600080fd5b506102b860125481565b34801561044257600080fd5b50600954610456906001600160a01b031681565b6040516001600160a01b03909116815260200161025c565b34801561047a57600080fd5b506102b8610489366004611cb3565b6001600160a01b031660009081526020819052604090205490565b3480156104b057600080fd5b5061022e610a7d565b3480156104c557600080fd5b506005546001600160a01b0316610456565b3480156104e357600080fd5b5061022e6104f2366004611d93565b610ab3565b34801561050357600080fd5b50610250610512366004611dac565b610ae2565b34801561052357600080fd5b5061027a610b0d565b34801561053857600080fd5b5061022e610547366004611cb3565b610b1c565b34801561055857600080fd5b5061022e610567366004611d93565b610be6565b34801561057857600080fd5b506102b8600081565b34801561058d57600080fd5b5061022e61059c366004611cb3565b610c66565b3480156105ad57600080fd5b506102506105bc366004611d67565b610cc8565b3480156105cd57600080fd5b506102506105dc366004611d67565b610d61565b3480156105ed57600080fd5b5061022e6105fc366004611d93565b610d6e565b34801561060d57600080fd5b506102b860115481565b34801561062357600080fd5b5061022e610632366004611cb3565b610e01565b34801561064357600080fd5b5061022e610652366004611dac565b61102f565b34801561066357600080fd5b50600b54600c546040805192835260208301919091520161025c565b34801561068b57600080fd5b5061022e61069a366004611cb3565b611055565b3480156106ab57600080fd5b506102b86106ba366004611ced565b6001600160a01b03918216600090815260016020908152604080832093909416825291909152205490565b3480156106f157600080fd5b5061022e610700366004611cb3565b611103565b34801561071157600080fd5b5061022e610720366004611d93565b6111a1565b34801561073157600080fd5b50600754610456906001600160a01b031681565b34801561075157600080fd5b50600854610456906001600160a01b031681565b34801561077157600080fd5b5061022e610780366004611cb3565b611393565b60006001600160e01b03198216637965db0b60e01b14806107b657506301ffc9a760e01b6001600160e01b03198316145b92915050565b6060600380546107cb90612084565b80601f01602080910402602001604051908101604052809291908181526020018280546107f790612084565b80156108445780601f1061081957610100808354040283529160200191610844565b820191906000526020600020905b81548152906001019060200180831161082757829003601f168201915b5050505050905090565b600061085b33848461142b565b50600192915050565b600061087184848461154f565b6001600160a01b0384166000908152600160209081526040808320338452909152902054828110156108fb5760405162461bcd60e51b815260206004820152602860248201527f45524332303a207472616e7366657220616d6f756e74206578636565647320616044820152676c6c6f77616e636560c01b60648201526084015b60405180910390fd5b610908853385840361142b565b506001949350505050565b60008281526006602052604090206001015461092f813361169c565b6109398383611700565b505050565b6001600160a01b03811633146109ae5760405162461bcd60e51b815260206004820152602f60248201527f416363657373436f6e74726f6c3a2063616e206f6e6c792072656e6f756e636560448201526e103937b632b9903337b91039b2b63360891b60648201526084016108f2565b6109b88282611786565b5050565b3360008181526001602090815260408083206001600160a01b0387168452909152812054909161085b9185906109f3908690611fd1565b61142b565b6005546001600160a01b03163314610a225760405162461bcd60e51b81526004016108f290611ee6565b610a2c33826117ed565b50565b6005546001600160a01b03163314610a595760405162461bcd60e51b81526004016108f290611ee6565b6001600160a01b03166000908152600e60205260409020805460ff19166001179055565b6005546001600160a01b03163314610aa75760405162461bcd60e51b81526004016108f290611ee6565b610ab1600061193b565b565b6005546001600160a01b03163314610add5760405162461bcd60e51b81526004016108f290611ee6565b600b55565b60009182526006602090815260408084206001600160a01b0393909316845291905290205460ff1690565b6060600480546107cb90612084565b6005546001600160a01b03163314610b465760405162461bcd60e51b81526004016108f290611ee6565b6001600160a01b038116610b9c5760405162461bcd60e51b815260206004820181905260248201527f3078206f72206f776e6572206973206e6f74206163636570746564206865726560448201526064016108f2565b600880546001600160a01b0319166001600160a01b0383169081179091556040517f0f7bf2342f244edc4ddc8b8c9c59859b32d0cf0fdba77897f8080db836b8fc1590600090a250565b6005546001600160a01b03163314610c105760405162461bcd60e51b81526004016108f290611ee6565b6006811115610c615760405162461bcd60e51b815260206004820152601d60248201527f666565206e65656420746f20736574206c6f776572207468616e20362500000060448201526064016108f2565b600c55565b6005546001600160a01b03163314610c905760405162461bcd60e51b81526004016108f290611ee6565b6009546001600160a01b031615610ca657600080fd5b600980546001600160a01b0319166001600160a01b0392909216919091179055565b3360009081526001602090815260408083206001600160a01b038616845290915281205482811015610d4a5760405162461bcd60e51b815260206004820152602560248201527f45524332303a2064656372656173656420616c6c6f77616e63652062656c6f77604482015264207a65726f60d81b60648201526084016108f2565b610d57338585840361142b565b5060019392505050565b600061085b33848461154f565b6005546001600160a01b03163314610d985760405162461bcd60e51b81526004016108f290611ee6565b3060009081526020819052604090205480821115610df85760405162461bcd60e51b815260206004820181905260248201527f63616e6e6f7420656e6f75676820746f6b656e20666f72207377617070696e6760448201526064016108f2565b6109b8826111a1565b6005546001600160a01b03163314610e2b5760405162461bcd60e51b81526004016108f290611ee6565b601154421015610e755760405162461bcd60e51b815260206004820152601560248201527414d5d0541313d0d2d51253514e8812539590531251605a1b60448201526064016108f2565b6000819050806001600160a01b031663c45a01556040518163ffffffff1660e01b815260040160206040518083038186803b158015610eb357600080fd5b505afa158015610ec7573d6000803e3d6000fd5b505050506040513d601f19601f82011682018060405250810190610eeb9190611cd0565b6001600160a01b031663c9c6539630836001600160a01b031663ad5c46486040518163ffffffff1660e01b815260040160206040518083038186803b158015610f3357600080fd5b505afa158015610f47573d6000803e3d6000fd5b505050506040513d601f19601f82011682018060405250810190610f6b9190611cd0565b6040516001600160e01b031960e085901b1681526001600160a01b03928316600482015291166024820152604401602060405180830381600087803b158015610fb357600080fd5b505af1158015610fc7573d6000803e3d6000fd5b505050506040513d601f19601f82011682018060405250810190610feb9190611cd0565b600980546001600160a01b03199081166001600160a01b039384161790915560078054909116918316919091179055611028426301e13380611fd1565b6011555050565b60008281526006602052604090206001015461104b813361169c565b6109398383611786565b6005546001600160a01b0316331461107f5760405162461bcd60e51b81526004016108f290611ee6565b6001600160a01b0381166000908152600d602052604090205460ff16156110a557600080fd5b6001600160a01b0381166000818152600d6020908152604091829020805460ff1916600190811790915591519182527ffd1d4aa2c8ad064e5488483008a99152737db29cc4d0f88d3b7b080f8d73cc8291015b60405180910390a250565b6005546001600160a01b0316331461112d5760405162461bcd60e51b81526004016108f290611ee6565b6001600160a01b0381166000908152600d602052604090205460ff1661115257600080fd5b6001600160a01b0381166000818152600d60209081526040808320805460ff19169055519182527ffd1d4aa2c8ad064e5488483008a99152737db29cc4d0f88d3b7b080f8d73cc8291016110f8565b6005546001600160a01b031633146111cb5760405162461bcd60e51b81526004016108f290611ee6565b6040805160028082526060820183526000926020830190803683370190505090503081600081518110611200576112006120d5565b6001600160a01b03928316602091820292909201810191909152600754604080516315ab88c960e31b81529051919093169263ad5c4648926004808301939192829003018186803b15801561125457600080fd5b505afa158015611268573d6000803e3d6000fd5b505050506040513d601f19601f8201168201806040525081019061128c9190611cd0565b8160018151811061129f5761129f6120d5565b6001600160a01b0392831660209182029290920101526007546112c5913091168461142b565b60075460085460405163791ac94760e01b81526001600160a01b039283169263791ac9479261130292879260009288929116904290600401611f60565b600060405180830381600087803b15801561131c57600080fd5b505af192505050801561132d575060015b6109b8577fcf34ef537ac33ee1ac626ca1587a0a7e8e51561e5514f8cb36afa1c5102b3bab60405161138790602080825260149082015273195e1d195c9b985b0818d85b1b0819985a5b195960621b604082015260600190565b60405180910390a15050565b6005546001600160a01b031633146113bd5760405162461bcd60e51b81526004016108f290611ee6565b6001600160a01b0381166114225760405162461bcd60e51b815260206004820152602660248201527f4f776e61626c653a206e6577206f776e657220697320746865207a65726f206160448201526564647265737360d01b60648201526084016108f2565b610a2c8161193b565b6001600160a01b03831661148d5760405162461bcd60e51b8152602060048201526024808201527f45524332303a20617070726f76652066726f6d20746865207a65726f206164646044820152637265737360e01b60648201526084016108f2565b6001600160a01b0382166114ee5760405162461bcd60e51b815260206004820152602260248201527f45524332303a20617070726f766520746f20746865207a65726f206164647265604482015261737360f01b60648201526084016108f2565b6001600160a01b0383811660008181526001602090815260408083209487168084529482529182902085905590518481527f8c5be1e5ebec7d5bd14f71427d1e84f3dd0314c0f7b2291e5b200ac8c7c3b925910160405180910390a3505050565b6001600160a01b0383166115755760405162461bcd60e51b81526004016108f290611f1b565b6001600160a01b03821661159b5760405162461bcd60e51b81526004016108f290611ea3565b600081116115fd5760405162461bcd60e51b815260206004820152602960248201527f5472616e7366657220616d6f756e74206d7573742062652067726561746572206044820152687468616e207a65726f60b81b60648201526084016108f2565b6001600160a01b0383166000908152600d602052604081205460ff16158061163e57506001600160a01b0383166000908152600d602052604090205460ff16155b1561165e576009546001600160a01b038481169116141561165e5750600c545b801561168b576000611670838361198d565b905061167d8530836119ab565b6116878382611aff565b9250505b6116968484846119ab565b50505050565b6116a68282610ae2565b6109b8576116be816001600160a01b03166014611b0b565b6116c9836020611b0b565b6040516020016116da929190611dfb565b60408051601f198184030181529082905262461bcd60e51b82526108f291600401611e70565b61170a8282610ae2565b6109b85760008281526006602090815260408083206001600160a01b03851684529091529020805460ff191660011790556117423390565b6001600160a01b0316816001600160a01b0316837f2f8788117e7eff1d82e926ec794901d17c78024a50270940304540a733656f0d60405160405180910390a45050565b6117908282610ae2565b156109b85760008281526006602090815260408083206001600160a01b0385168085529252808320805460ff1916905551339285917ff6391f5c32d9c69d2a47ea670b442974b53935d1edc7fd64eb21e047a839171b9190a45050565b6001600160a01b03821661184d5760405162461bcd60e51b815260206004820152602160248201527f45524332303a206275726e2066726f6d20746865207a65726f206164647265736044820152607360f81b60648201526084016108f2565b6001600160a01b038216600090815260208190526040902054818110156118c15760405162461bcd60e51b815260206004820152602260248201527f45524332303a206275726e20616d6f756e7420657863656564732062616c616e604482015261636560f01b60648201526084016108f2565b6001600160a01b03831660009081526020819052604081208383039055600280548492906118f090849061202a565b90915550506040518281526000906001600160a01b038516907fddf252ad1be2c89b69c2b068fc378daa952ba7f163c4a11628f55a4df523b3ef9060200160405180910390a3505050565b600580546001600160a01b038381166001600160a01b0319831681179093556040519116919082907f8be0079c531659141344cd1fd0a4f28419497f9722a3daafe3b4186f6b6457e090600090a35050565b60006119a4606461199e848661200b565b90611ca7565b9392505050565b6001600160a01b0383166119d15760405162461bcd60e51b81526004016108f290611f1b565b6001600160a01b0382166119f75760405162461bcd60e51b81526004016108f290611ea3565b6001600160a01b03831660009081526020819052604090205481811015611a6f5760405162461bcd60e51b815260206004820152602660248201527f45524332303a207472616e7366657220616d6f756e7420657863656564732062604482015265616c616e636560d01b60648201526084016108f2565b6001600160a01b03808516600090815260208190526040808220858503905591851681529081208054849290611aa6908490611fd1565b92505081905550826001600160a01b0316846001600160a01b03167fddf252ad1be2c89b69c2b068fc378daa952ba7f163c4a11628f55a4df523b3ef84604051611af291815260200190565b60405180910390a3611696565b60006119a4828461202a565b60606000611b1a83600261200b565b611b25906002611fd1565b67ffffffffffffffff811115611b3d57611b3d6120eb565b6040519080825280601f01601f191660200182016040528015611b67576020820181803683370190505b509050600360fc1b81600081518110611b8257611b826120d5565b60200101906001600160f81b031916908160001a905350600f60fb1b81600181518110611bb157611bb16120d5565b60200101906001600160f81b031916908160001a9053506000611bd584600261200b565b611be0906001611fd1565b90505b6001811115611c58576f181899199a1a9b1b9c1cb0b131b232b360811b85600f1660108110611c1457611c146120d5565b1a60f81b828281518110611c2a57611c2a6120d5565b60200101906001600160f81b031916908160001a90535060049490941c93611c518161206d565b9050611be3565b5083156119a45760405162461bcd60e51b815260206004820181905260248201527f537472696e67733a20686578206c656e67746820696e73756666696369656e7460448201526064016108f2565b60006119a48284611fe9565b600060208284031215611cc557600080fd5b81356119a481612101565b600060208284031215611ce257600080fd5b81516119a481612101565b60008060408385031215611d0057600080fd5b8235611d0b81612101565b91506020830135611d1b81612101565b809150509250929050565b600080600060608486031215611d3b57600080fd5b8335611d4681612101565b92506020840135611d5681612101565b929592945050506040919091013590565b60008060408385031215611d7a57600080fd5b8235611d8581612101565b946020939093013593505050565b600060208284031215611da557600080fd5b5035919050565b60008060408385031215611dbf57600080fd5b823591506020830135611d1b81612101565b600060208284031215611de357600080fd5b81356001600160e01b0319811681146119a457600080fd5b7f416363657373436f6e74726f6c3a206163636f756e7420000000000000000000815260008351611e33816017850160208801612041565b7001034b99036b4b9b9b4b733903937b6329607d1b6017918401918201528351611e64816028840160208801612041565b01602801949350505050565b6020815260008251806020840152611e8f816040850160208701612041565b601f01601f19169190910160400192915050565b60208082526023908201527f45524332303a207472616e7366657220746f20746865207a65726f206164647260408201526265737360e81b606082015260800190565b6020808252818101527f4f776e61626c653a2063616c6c6572206973206e6f7420746865206f776e6572604082015260600190565b60208082526025908201527f45524332303a207472616e736665722066726f6d20746865207a65726f206164604082015264647265737360d81b606082015260800190565b600060a082018783526020878185015260a0604085015281875180845260c086019150828901935060005b81811015611fb05784516001600160a01b031683529383019391830191600101611f8b565b50506001600160a01b03969096166060850152505050608001529392505050565b60008219821115611fe457611fe46120bf565b500190565b60008261200657634e487b7160e01b600052601260045260246000fd5b500490565b6000816000190483118215151615612025576120256120bf565b500290565b60008282101561203c5761203c6120bf565b500390565b60005b8381101561205c578181015183820152602001612044565b838111156116965750506000910152565b60008161207c5761207c6120bf565b506000190190565b600181811c9082168061209857607f821691505b602082108114156120b957634e487b7160e01b600052602260045260246000fd5b50919050565b634e487b7160e01b600052601160045260246000fd5b634e487b7160e01b600052603260045260246000fd5b634e487b7160e01b600052604160045260246000fd5b6001600160a01b0381168114610a2c57600080fdfea164736f6c6343000807000a",
  "linkReferences": {},
  "deployedLinkReferences": {}
}