{
  "_format": "hh-sol-artifact-1",
  "contractName": "TESToken",
  "sourceName": "contracts/TESToken.sol",
  "abi": [
    {
      "inputs": [],
      "stateMutability": "nonpayable",
      "type": "constructor"
    },
    {
      "anonymous": false,
      "inputs": [
        {
          "indexed": true,
          "internalType": "address",
          "name": "owner",
          "type": "address"
        },
        {
          "indexed": true,
          "internalType": "address",
          "name": "spender",
          "type": "address"
        },
        {
          "indexed": false,
          "internalType": "uint256",
          "name": "value",
          "type": "uint256"
        }
      ],
      "name": "Approval",
      "type": "event"
    },
    {
      "anonymous": false,
      "inputs": [
        {
          "indexed": true,
          "internalType": "address",
          "name": "addr",
          "type": "address"
        }
      ],
      "name": "EventChangeSwapBalanceAddress",
      "type": "event"
    },
    {
      "anonymous": false,
      "inputs": [
        {
          "indexed": true,
          "internalType": "address",
          "name": "target",
          "type": "address"
        },
        {
          "indexed": false,
          "internalType": "bool",
          "name": "state",
          "type": "bool"
        }
      ],
      "name": "EventWhiteList",
      "type": "event"
    },
    {
      "anonymous": false,
      "inputs": [
        {
          "indexed": false,
          "internalType": "string",
          "name": "message",
          "type": "string"
        }
      ],
      "name": "Log",
      "type": "event"
    },
    {
      "anonymous": false,
      "inputs": [
        {
          "indexed": true,
          "internalType": "address",
          "name": "previousOwner",
          "type": "address"
        },
        {
          "indexed": true,
          "internalType": "address",
          "name": "newOwner",
          "type": "address"
        }
      ],
      "name": "OwnershipTransferred",
      "type": "event"
    },
    {
      "anonymous": false,
      "inputs": [
        {
          "indexed": true,
          "internalType": "bytes32",
          "name": "role",
          "type": "bytes32"
        },
        {
          "indexed": true,
          "internalType": "bytes32",
          "name": "previousAdminRole",
          "type": "bytes32"
        },
        {
          "indexed": true,
          "internalType": "bytes32",
          "name": "newAdminRole",
          "type": "bytes32"
        }
      ],
      "name": "RoleAdminChanged",
      "type": "event"
    },
    {
      "anonymous": false,
      "inputs": [
        {
          "indexed": true,
          "internalType": "bytes32",
          "name": "role",
          "type": "bytes32"
        },
        {
          "indexed": true,
          "internalType": "address",
          "name": "account",
          "type": "address"
        },
        {
          "indexed": true,
          "internalType": "address",
          "name": "sender",
          "type": "address"
        }
      ],
      "name": "RoleGranted",
      "type": "event"
    },
    {
      "anonymous": false,
      "inputs": [
        {
          "indexed": true,
          "internalType": "bytes32",
          "name": "role",
          "type": "bytes32"
        },
        {
          "indexed": true,
          "internalType": "address",
          "name": "account",
          "type": "address"
        },
        {
          "indexed": true,
          "internalType": "address",
          "name": "sender",
          "type": "address"
        }
      ],
      "name": "RoleRevoked",
      "type": "event"
    },
    {
      "anonymous": false,
      "inputs": [
        {
          "indexed": true,
          "internalType": "address",
          "name": "from",
          "type": "address"
        },
        {
          "indexed": true,
          "internalType": "address",
          "name": "to",
          "type": "address"
        },
        {
          "indexed": false,
          "internalType": "uint256",
          "name": "value",
          "type": "uint256"
        }
      ],
      "name": "Transfer",
      "type": "event"
    },
    {
      "stateMutability": "payable",
      "type": "fallback"
    },
    {
      "inputs": [],
      "name": "BURNER_ROLE",
      "outputs": [
        {
          "internalType": "bytes32",
          "name": "",
          "type": "bytes32"
        }
      ],
      "stateMutability": "view",
      "type": "function"
    },
    {
      "inputs": [],
      "name": "DEFAULT_ADMIN_ROLE",
      "outputs": [
        {
          "internalType": "bytes32",
          "name": "",
          "type": "bytes32"
        }
      ],
      "stateMutability": "view",
      "type": "function"
    },
    {
      "inputs": [
        {
          "internalType": "address",
          "name": "owner",
          "type": "address"
        },
        {
          "internalType": "address",
          "name": "spender",
          "type": "address"
        }
      ],
      "name": "allowance",
      "outputs": [
        {
          "internalType": "uint256",
          "name": "",
          "type": "uint256"
        }
      ],
      "stateMutability": "view",
      "type": "function"
    },
    {
      "inputs": [
        {
          "internalType": "address",
          "name": "spender",
          "type": "address"
        },
        {
          "internalType": "uint256",
          "name": "amount",
          "type": "uint256"
        }
      ],
      "name": "approve",
      "outputs": [
        {
          "internalType": "bool",
          "name": "",
          "type": "bool"
        }
      ],
      "stateMutability": "nonpayable",
      "type": "function"
    },
    {
      "inputs": [
        {
          "internalType": "address",
          "name": "account",
          "type": "address"
        }
      ],
      "name": "balanceOf",
      "outputs": [
        {
          "internalType": "uint256",
          "name": "",
          "type": "uint256"
        }
      ],
      "stateMutability": "view",
      "type": "function"
    },
    {
      "inputs": [
        {
          "internalType": "uint256",
          "name": "amount",
          "type": "uint256"
        }
      ],
      "name": "burn",
      "outputs": [],
      "stateMutability": "nonpayable",
      "type": "function"
    },
    {
      "inputs": [],
      "name": "decimals",
      "outputs": [
        {
          "internalType": "uint8",
          "name": "",
          "type": "uint8"
        }
      ],
      "stateMutability": "view",
      "type": "function"
    },
    {
      "inputs": [
        {
          "internalType": "address",
          "name": "spender",
          "type": "address"
        },
        {
          "internalType": "uint256",
          "name": "subtractedValue",
          "type": "uint256"
        }
      ],
      "name": "decreaseAllowance",
      "outputs": [
        {
          "internalType": "bool",
          "name": "",
          "type": "bool"
        }
      ],
      "stateMutability": "nonpayable",
      "type": "function"
    },
    {
      "inputs": [
        {
          "internalType": "address",
          "name": "account",
          "type": "address"
        }
      ],
      "name": "excludeFromFee",
      "outputs": [],
      "stateMutability": "nonpayable",
      "type": "function"
    },
    {
      "inputs": [],
      "name": "getFees",
      "outputs": [
        {
          "internalType": "uint256",
          "name": "buyFee",
          "type": "uint256"
        },
        {
          "internalType": "uint256",
          "name": "sellFee",
          "type": "uint256"
        }
      ],
      "stateMutability": "view",
      "type": "function"
    },
    {
      "inputs": [
        {
          "internalType": "bytes32",
          "name": "role",
          "type": "bytes32"
        }
      ],
      "name": "getRoleAdmin",
      "outputs": [
        {
          "internalType": "bytes32",
          "name": "",
          "type": "bytes32"
        }
      ],
      "stateMutability": "view",
      "type": "function"
    },
    {
      "inputs": [
        {
          "internalType": "bytes32",
          "name": "role",
          "type": "bytes32"
        },
        {
          "internalType": "address",
          "name": "account",
          "type": "address"
        }
      ],
      "name": "grantRole",
      "outputs": [],
      "stateMutability": "nonpayable",
      "type": "function"
    },
    {
      "inputs": [
        {
          "internalType": "bytes32",
          "name": "role",
          "type": "bytes32"
        },
        {
          "internalType": "address",
          "name": "account",
          "type": "address"
        }
      ],
      "name": "hasRole",
      "outputs": [
        {
          "internalType": "bool",
          "name": "",
          "type": "bool"
        }
      ],
      "stateMutability": "view",
      "type": "function"
    },
    {
      "inputs": [
        {
          "internalType": "address",
          "name": "spender",
          "type": "address"
        },
        {
          "internalType": "uint256",
          "name": "addedValue",
          "type": "uint256"
        }
      ],
      "name": "increaseAllowance",
      "outputs": [
        {
          "internalType": "bool",
          "name": "",
          "type": "bool"
        }
      ],
      "stateMutability": "nonpayable",
      "type": "function"
    },
    {
      "inputs": [
        {
          "internalType": "address",
          "name": "routerAddress",
          "type": "address"
        }
      ],
      "name": "initSwap",
      "outputs": [],
      "stateMutability": "nonpayable",
      "type": "function"
    },
    {
      "inputs": [],
      "name": "name",
      "outputs": [
        {
          "internalType": "string",
          "name": "",
          "type": "string"
        }
      ],
      "stateMutability": "view",
      "type": "function"
    },
    {
      "inputs": [],
      "name": "owner",
      "outputs": [
        {
          "internalType": "address",
          "name": "",
          "type": "address"
        }
      ],
      "stateMutability": "view",
      "type": "function"
    },
    {
      "inputs": [],
      "name": "pancakeswapV2Pair",
      "outputs": [
        {
          "internalType": "address",
          "name": "",
          "type": "address"
        }
      ],
      "stateMutability": "view",
      "type": "function"
    },
    {
      "inputs": [],
      "name": "pancakeswapV2Router",
      "outputs": [
        {
          "internalType": "contract IUniswapV2Router02",
          "name": "",
          "type": "address"
        }
      ],
      "stateMutability": "view",
      "type": "function"
    },
    {
      "inputs": [
        {
          "internalType": "address",
          "name": "target",
          "type": "address"
        }
      ],
      "name": "removeWhiteLists",
      "outputs": [],
      "stateMutability": "nonpayable",
      "type": "function"
    },
    {
      "inputs": [],
      "name": "renounceOwnership",
      "outputs": [],
      "stateMutability": "nonpayable",
      "type": "function"
    },
    {
      "inputs": [
        {
          "internalType": "bytes32",
          "name": "role",
          "type": "bytes32"
        },
        {
          "internalType": "address",
          "name": "account",
          "type": "address"
        }
      ],
      "name": "renounceRole",
      "outputs": [],
      "stateMutability": "nonpayable",
      "type": "function"
    },
    {
      "inputs": [
        {
          "internalType": "bytes32",
          "name": "role",
          "type": "bytes32"
        },
        {
          "internalType": "address",
          "name": "account",
          "type": "address"
        }
      ],
      "name": "revokeRole",
      "outputs": [],
      "stateMutability": "nonpayable",
      "type": "function"
    },
    {
      "inputs": [
        {
          "internalType": "uint256",
          "name": "fee",
          "type": "uint256"
        }
      ],
      "name": "setBuyFeeRate",
      "outputs": [],
      "stateMutability": "nonpayable",
      "type": "function"
    },
    {
      "inputs": [
        {
          "internalType": "address",
          "name": "pairAddress",
          "type": "address"
        }
      ],
      "name": "setPairAddress",
      "outputs": [],
      "stateMutability": "nonpayable",
      "type": "function"
    },
    {
      "inputs": [
        {
          "internalType": "uint256",
          "name": "fee",
          "type": "uint256"
        }
      ],
      "name": "setSellFeeRate",
      "outputs": [],
      "stateMutability": "nonpayable",
      "type": "function"
    },
    {
      "inputs": [
        {
          "internalType": "address",
          "name": "_swapBalanceAddress",
          "type": "address"
        }
      ],
      "name": "setSwapBalance",
      "outputs": [],
      "stateMutability": "nonpayable",
      "type": "function"
    },
    {
      "inputs": [
        {
          "internalType": "address",
          "name": "target",
          "type": "address"
        }
      ],
      "name": "setWhiteLists",
      "outputs": [],
      "stateMutability": "nonpayable",
      "type": "function"
    },
    {
      "inputs": [
        {
          "internalType": "bytes4",
          "name": "interfaceId",
          "type": "bytes4"
        }
      ],
      "name": "supportsInterface",
      "outputs": [
        {
          "internalType": "bool",
          "name": "",
          "type": "bool"
        }
      ],
      "stateMutability": "view",
      "type": "function"
    },
    {
      "inputs": [],
      "name": "swapBalanceAddress",
      "outputs": [
        {
          "internalType": "address",
          "name": "",
          "type": "address"
        }
      ],
      "stateMutability": "view",
      "type": "function"
    },
    {
      "inputs": [],
      "name": "swapLockTime",
      "outputs": [
        {
          "internalType": "uint256",
          "name": "",
          "type": "uint256"
        }
      ],
      "stateMutability": "view",
      "type": "function"
    },
    {
      "inputs": [
        {
          "internalType": "uint256",
          "name": "tokenAmount",
          "type": "uint256"
        }
      ],
      "name": "swapTokensForETH",
      "outputs": [],
      "stateMutability": "nonpayable",
      "type": "function"
    },
    {
      "inputs": [],
      "name": "symbol",
      "outputs": [
        {
          "internalType": "string",
          "name": "",
          "type": "string"
        }
      ],
      "stateMutability": "view",
      "type": "function"
    },
    {
      "inputs": [],
      "name": "totalSupply",
      "outputs": [
        {
          "internalType": "uint256",
          "name": "",
          "type": "uint256"
        }
      ],
      "stateMutability": "view",
      "type": "function"
    },
    {
      "inputs": [
        {
          "internalType": "address",
          "name": "recipient",
          "type": "address"
        },
        {
          "internalType": "uint256",
          "name": "amount",
          "type": "uint256"
        }
      ],
      "name": "transfer",
      "outputs": [
        {
          "internalType": "bool",
          "name": "",
          "type": "bool"
        }
      ],
      "stateMutability": "nonpayable",
      "type": "function"
    },
    {
      "inputs": [
        {
          "internalType": "address",
          "name": "sender",
          "type": "address"
        },
        {
          "internalType": "address",
          "name": "recipient",
          "type": "address"
        },
        {
          "internalType": "uint256",
          "name": "amount",
          "type": "uint256"
        }
      ],
      "name": "transferFrom",
      "outputs": [
        {
          "internalType": "bool",
          "name": "",
          "type": "bool"
        }
      ],
      "stateMutability": "nonpayable",
      "type": "function"
    },
    {
      "inputs": [
        {
          "internalType": "address",
          "name": "newOwner",
          "type": "address"
        }
      ],
      "name": "transferOwnership",
      "outputs": [],
      "stateMutability": "nonpayable",
      "type": "function"
    },
    {
      "inputs": [
        {
          "internalType": "uint256",
          "name": "amount",
          "type": "uint256"
        }
      ],
      "name": "updateSwapBalance",
      "outputs": [],
      "stateMutability": "nonpayable",
      "type": "function"
    },
    {
      "stateMutability": "payable",
      "type": "receive"
    }
  ],
  "bytecode": "0x60806040526000600b556000600c5560006010553480156200002057600080fd5b506040518060400160405280600d81526020016c546974616e2054726164696e6760981b8152506040518060400160405280600381526020016254455360e81b81525081600390805190602001906200007b92919062000371565b5080516200009190600490602084019062000371565b505050620000ae620000a86200017560201b60201c565b62000179565b620000bc6012600a6200047b565b620000cc906305f5e10062000544565b600a55620000dd33600a54620001cb565b620000ea600033620002b4565b620001167f3c11d16cbaffd01df69ce1c404f6340ee057498f5f00246190ea54220576a84833620002b4565b6001600e60006200012f6005546001600160a01b031690565b6001600160a01b0316815260208082019290925260409081016000908120805494151560ff19958616179055308152600e909252902080549091166001179055620005b9565b3390565b600580546001600160a01b038381166001600160a01b0319831681179093556040519116919082907f8be0079c531659141344cd1fd0a4f28419497f9722a3daafe3b4186f6b6457e090600090a35050565b6001600160a01b038216620002265760405162461bcd60e51b815260206004820152601f60248201527f45524332303a206d696e7420746f20746865207a65726f206164647265737300604482015260640160405180910390fd5b80600260008282546200023a919062000417565b90915550506001600160a01b038216600090815260208190526040812080548392906200026990849062000417565b90915550506040518181526001600160a01b038316906000907fddf252ad1be2c89b69c2b068fc378daa952ba7f163c4a11628f55a4df523b3ef9060200160405180910390a35b5050565b620002b08282620002c6828262000344565b620002b05760008281526006602090815260408083206001600160a01b03851684529091529020805460ff19166001179055620003003390565b6001600160a01b0316816001600160a01b0316837f2f8788117e7eff1d82e926ec794901d17c78024a50270940304540a733656f0d60405160405180910390a45050565b60008281526006602090815260408083206001600160a01b038516845290915290205460ff165b92915050565b8280546200037f9062000566565b90600052602060002090601f016020900481019282620003a35760008555620003ee565b82601f10620003be57805160ff1916838001178555620003ee565b82800160010185558215620003ee579182015b82811115620003ee578251825591602001919060010190620003d1565b50620003fc92915062000400565b5090565b5b80821115620003fc576000815560010162000401565b600082198211156200042d576200042d620005a3565b500190565b600181815b8085111562000473578160001904821115620004575762000457620005a3565b808516156200046557918102915b93841c939080029062000437565b509250929050565b600062000489838362000490565b9392505050565b600082620004a1575060016200036b565b81620004b0575060006200036b565b8160018114620004c95760028114620004d457620004f4565b60019150506200036b565b60ff841115620004e857620004e8620005a3565b50506001821b6200036b565b5060208310610133831016604e8410600b841016171562000519575081810a6200036b565b62000525838362000432565b80600019048211156200053c576200053c620005a3565b029392505050565b6000816000190483118215151615620005615762000561620005a3565b500290565b600181811c908216806200057b57607f821691505b602082108114156200059d57634e487b7160e01b600052602260045260246000fd5b50919050565b634e487b7160e01b600052601160045260246000fd5b6120dd80620005c96000396000f3fe6080604052600436106102115760003560e01c806395d89b4111610117578063ce636726116100a5578063e34edc141161006c578063e34edc141461069f578063e56a645e146106bf578063e5dffed3146106df578063f2f7049c146106ff578063f2fde38b1461071f57005b8063ce636726146105d1578063d547741f146105f1578063db8d55f114610611578063dcb5f22014610639578063dd62ed3e1461065957005b8063a22d4832116100e9578063a22d48321461053b578063a457c2d71461055b578063a9059cbb1461057b578063bd9797f41461059b578063cb81c229146105bb57005b806395d89b41146104d15780639729d64c146104e65780639c466f1f14610506578063a217fddf1461052657005b806336568abe1161019f57806370a082311161016657806370a0823114610428578063715018a61461045e5780638da5cb5b146104735780639072e3061461049157806391d14854146104b157005b806336568abe14610370578063395093511461039057806342966c68146103b0578063437823ec146103d057806352892884146103f057005b806323b872dd116101e357806323b872dd146102b0578063248a9ca3146102d0578063282c51f3146103005780632f2ff15d14610334578063313ce5671461035457005b806301ffc9a71461021a57806306fdde031461024f578063095ea7b31461027157806318160ddd1461029157005b3661021857005b005b34801561022657600080fd5b5061023a610235366004611d8b565b61073f565b60405190151581526020015b60405180910390f35b34801561025b57600080fd5b50610264610776565b6040516102469190611e2a565b34801561027d57600080fd5b5061023a61028c366004611d21565b610808565b34801561029d57600080fd5b506002545b604051908152602001610246565b3480156102bc57600080fd5b5061023a6102cb366004611ce0565b61081e565b3480156102dc57600080fd5b506102a26102eb366004611d4d565b60009081526006602052604090206001015490565b34801561030c57600080fd5b506102a27f3c11d16cbaffd01df69ce1c404f6340ee057498f5f00246190ea54220576a84881565b34801561034057600080fd5b5061021861034f366004611d66565b6108cd565b34801561036057600080fd5b5060405160128152602001610246565b34801561037c57600080fd5b5061021861038b366004611d66565b6108f8565b34801561039c57600080fd5b5061023a6103ab366004611d21565b610976565b3480156103bc57600080fd5b506102186103cb366004611d4d565b6109b2565b3480156103dc57600080fd5b506102186103eb366004611c6d565b6109e9565b3480156103fc57600080fd5b50600954610410906001600160a01b031681565b6040516001600160a01b039091168152602001610246565b34801561043457600080fd5b506102a2610443366004611c6d565b6001600160a01b031660009081526020819052604090205490565b34801561046a57600080fd5b50610218610a37565b34801561047f57600080fd5b506005546001600160a01b0316610410565b34801561049d57600080fd5b506102186104ac366004611d4d565b610a6d565b3480156104bd57600080fd5b5061023a6104cc366004611d66565b610a9c565b3480156104dd57600080fd5b50610264610ac7565b3480156104f257600080fd5b50610218610501366004611c6d565b610ad6565b34801561051257600080fd5b50610218610521366004611d4d565b610ba0565b34801561053257600080fd5b506102a2600081565b34801561054757600080fd5b50610218610556366004611c6d565b610c20565b34801561056757600080fd5b5061023a610576366004611d21565b610c82565b34801561058757600080fd5b5061023a610596366004611d21565b610d1b565b3480156105a757600080fd5b506102186105b6366004611d4d565b610d28565b3480156105c757600080fd5b506102a260105481565b3480156105dd57600080fd5b506102186105ec366004611c6d565b610dbb565b3480156105fd57600080fd5b5061021861060c366004611d66565b610fe9565b34801561061d57600080fd5b50600b54600c5460408051928352602083019190915201610246565b34801561064557600080fd5b50610218610654366004611c6d565b61100f565b34801561066557600080fd5b506102a2610674366004611ca7565b6001600160a01b03918216600090815260016020908152604080832093909416825291909152205490565b3480156106ab57600080fd5b506102186106ba366004611c6d565b6110bd565b3480156106cb57600080fd5b506102186106da366004611d4d565b61115b565b3480156106eb57600080fd5b50600754610410906001600160a01b031681565b34801561070b57600080fd5b50600854610410906001600160a01b031681565b34801561072b57600080fd5b5061021861073a366004611c6d565b61134d565b60006001600160e01b03198216637965db0b60e01b148061077057506301ffc9a760e01b6001600160e01b03198316145b92915050565b6060600380546107859061203e565b80601f01602080910402602001604051908101604052809291908181526020018280546107b19061203e565b80156107fe5780601f106107d3576101008083540402835291602001916107fe565b820191906000526020600020905b8154815290600101906020018083116107e157829003601f168201915b5050505050905090565b60006108153384846113e5565b50600192915050565b600061082b848484611509565b6001600160a01b0384166000908152600160209081526040808320338452909152902054828110156108b55760405162461bcd60e51b815260206004820152602860248201527f45524332303a207472616e7366657220616d6f756e74206578636565647320616044820152676c6c6f77616e636560c01b60648201526084015b60405180910390fd5b6108c285338584036113e5565b506001949350505050565b6000828152600660205260409020600101546108e98133611656565b6108f383836116ba565b505050565b6001600160a01b03811633146109685760405162461bcd60e51b815260206004820152602f60248201527f416363657373436f6e74726f6c3a2063616e206f6e6c792072656e6f756e636560448201526e103937b632b9903337b91039b2b63360891b60648201526084016108ac565b6109728282611740565b5050565b3360008181526001602090815260408083206001600160a01b038716845290915281205490916108159185906109ad908690611f8b565b6113e5565b6005546001600160a01b031633146109dc5760405162461bcd60e51b81526004016108ac90611ea0565b6109e633826117a7565b50565b6005546001600160a01b03163314610a135760405162461bcd60e51b81526004016108ac90611ea0565b6001600160a01b03166000908152600e60205260409020805460ff19166001179055565b6005546001600160a01b03163314610a615760405162461bcd60e51b81526004016108ac90611ea0565b610a6b60006118f5565b565b6005546001600160a01b03163314610a975760405162461bcd60e51b81526004016108ac90611ea0565b600b55565b60009182526006602090815260408084206001600160a01b0393909316845291905290205460ff1690565b6060600480546107859061203e565b6005546001600160a01b03163314610b005760405162461bcd60e51b81526004016108ac90611ea0565b6001600160a01b038116610b565760405162461bcd60e51b815260206004820181905260248201527f3078206f72206f776e6572206973206e6f74206163636570746564206865726560448201526064016108ac565b600880546001600160a01b0319166001600160a01b0383169081179091556040517f0f7bf2342f244edc4ddc8b8c9c59859b32d0cf0fdba77897f8080db836b8fc1590600090a250565b6005546001600160a01b03163314610bca5760405162461bcd60e51b81526004016108ac90611ea0565b6006811115610c1b5760405162461bcd60e51b815260206004820152601d60248201527f666565206e65656420746f20736574206c6f776572207468616e20362500000060448201526064016108ac565b600c55565b6005546001600160a01b03163314610c4a5760405162461bcd60e51b81526004016108ac90611ea0565b6009546001600160a01b031615610c6057600080fd5b600980546001600160a01b0319166001600160a01b0392909216919091179055565b3360009081526001602090815260408083206001600160a01b038616845290915281205482811015610d045760405162461bcd60e51b815260206004820152602560248201527f45524332303a2064656372656173656420616c6c6f77616e63652062656c6f77604482015264207a65726f60d81b60648201526084016108ac565b610d1133858584036113e5565b5060019392505050565b6000610815338484611509565b6005546001600160a01b03163314610d525760405162461bcd60e51b81526004016108ac90611ea0565b3060009081526020819052604090205480821115610db25760405162461bcd60e51b815260206004820181905260248201527f63616e6e6f7420656e6f75676820746f6b656e20666f72207377617070696e6760448201526064016108ac565b6109728261115b565b6005546001600160a01b03163314610de55760405162461bcd60e51b81526004016108ac90611ea0565b601054421015610e2f5760405162461bcd60e51b815260206004820152601560248201527414d5d0541313d0d2d51253514e8812539590531251605a1b60448201526064016108ac565b6000819050806001600160a01b031663c45a01556040518163ffffffff1660e01b815260040160206040518083038186803b158015610e6d57600080fd5b505afa158015610e81573d6000803e3d6000fd5b505050506040513d601f19601f82011682018060405250810190610ea59190611c8a565b6001600160a01b031663c9c6539630836001600160a01b031663ad5c46486040518163ffffffff1660e01b815260040160206040518083038186803b158015610eed57600080fd5b505afa158015610f01573d6000803e3d6000fd5b505050506040513d601f19601f82011682018060405250810190610f259190611c8a565b6040516001600160e01b031960e085901b1681526001600160a01b03928316600482015291166024820152604401602060405180830381600087803b158015610f6d57600080fd5b505af1158015610f81573d6000803e3d6000fd5b505050506040513d601f19601f82011682018060405250810190610fa59190611c8a565b600980546001600160a01b03199081166001600160a01b039384161790915560078054909116918316919091179055610fe2426301e13380611f8b565b6010555050565b6000828152600660205260409020600101546110058133611656565b6108f38383611740565b6005546001600160a01b031633146110395760405162461bcd60e51b81526004016108ac90611ea0565b6001600160a01b0381166000908152600d602052604090205460ff161561105f57600080fd5b6001600160a01b0381166000818152600d6020908152604091829020805460ff1916600190811790915591519182527ffd1d4aa2c8ad064e5488483008a99152737db29cc4d0f88d3b7b080f8d73cc8291015b60405180910390a250565b6005546001600160a01b031633146110e75760405162461bcd60e51b81526004016108ac90611ea0565b6001600160a01b0381166000908152600d602052604090205460ff1661110c57600080fd5b6001600160a01b0381166000818152600d60209081526040808320805460ff19169055519182527ffd1d4aa2c8ad064e5488483008a99152737db29cc4d0f88d3b7b080f8d73cc8291016110b2565b6005546001600160a01b031633146111855760405162461bcd60e51b81526004016108ac90611ea0565b60408051600280825260608201835260009260208301908036833701905050905030816000815181106111ba576111ba61208f565b6001600160a01b03928316602091820292909201810191909152600754604080516315ab88c960e31b81529051919093169263ad5c4648926004808301939192829003018186803b15801561120e57600080fd5b505afa158015611222573d6000803e3d6000fd5b505050506040513d601f19601f820116820180604052508101906112469190611c8a565b816001815181106112595761125961208f565b6001600160a01b03928316602091820292909201015260075461127f91309116846113e5565b60075460085460405163791ac94760e01b81526001600160a01b039283169263791ac947926112bc92879260009288929116904290600401611f1a565b600060405180830381600087803b1580156112d657600080fd5b505af19250505080156112e7575060015b610972577fcf34ef537ac33ee1ac626ca1587a0a7e8e51561e5514f8cb36afa1c5102b3bab60405161134190602080825260149082015273195e1d195c9b985b0818d85b1b0819985a5b195960621b604082015260600190565b60405180910390a15050565b6005546001600160a01b031633146113775760405162461bcd60e51b81526004016108ac90611ea0565b6001600160a01b0381166113dc5760405162461bcd60e51b815260206004820152602660248201527f4f776e61626c653a206e6577206f776e657220697320746865207a65726f206160448201526564647265737360d01b60648201526084016108ac565b6109e6816118f5565b6001600160a01b0383166114475760405162461bcd60e51b8152602060048201526024808201527f45524332303a20617070726f76652066726f6d20746865207a65726f206164646044820152637265737360e01b60648201526084016108ac565b6001600160a01b0382166114a85760405162461bcd60e51b815260206004820152602260248201527f45524332303a20617070726f766520746f20746865207a65726f206164647265604482015261737360f01b60648201526084016108ac565b6001600160a01b0383811660008181526001602090815260408083209487168084529482529182902085905590518481527f8c5be1e5ebec7d5bd14f71427d1e84f3dd0314c0f7b2291e5b200ac8c7c3b925910160405180910390a3505050565b6001600160a01b03831661152f5760405162461bcd60e51b81526004016108ac90611ed5565b6001600160a01b0382166115555760405162461bcd60e51b81526004016108ac90611e5d565b600081116115b75760405162461bcd60e51b815260206004820152602960248201527f5472616e7366657220616d6f756e74206d7573742062652067726561746572206044820152687468616e207a65726f60b81b60648201526084016108ac565b6001600160a01b0383166000908152600d602052604081205460ff1615806115f857506001600160a01b0383166000908152600d602052604090205460ff16155b15611618576009546001600160a01b03848116911614156116185750600c545b801561164557600061162a8383611947565b9050611637853083611965565b6116418382611ab9565b9250505b611650848484611965565b50505050565b6116608282610a9c565b61097257611678816001600160a01b03166014611ac5565b611683836020611ac5565b604051602001611694929190611db5565b60408051601f198184030181529082905262461bcd60e51b82526108ac91600401611e2a565b6116c48282610a9c565b6109725760008281526006602090815260408083206001600160a01b03851684529091529020805460ff191660011790556116fc3390565b6001600160a01b0316816001600160a01b0316837f2f8788117e7eff1d82e926ec794901d17c78024a50270940304540a733656f0d60405160405180910390a45050565b61174a8282610a9c565b156109725760008281526006602090815260408083206001600160a01b0385168085529252808320805460ff1916905551339285917ff6391f5c32d9c69d2a47ea670b442974b53935d1edc7fd64eb21e047a839171b9190a45050565b6001600160a01b0382166118075760405162461bcd60e51b815260206004820152602160248201527f45524332303a206275726e2066726f6d20746865207a65726f206164647265736044820152607360f81b60648201526084016108ac565b6001600160a01b0382166000908152602081905260409020548181101561187b5760405162461bcd60e51b815260206004820152602260248201527f45524332303a206275726e20616d6f756e7420657863656564732062616c616e604482015261636560f01b60648201526084016108ac565b6001600160a01b03831660009081526020819052604081208383039055600280548492906118aa908490611fe4565b90915550506040518281526000906001600160a01b038516907fddf252ad1be2c89b69c2b068fc378daa952ba7f163c4a11628f55a4df523b3ef9060200160405180910390a3505050565b600580546001600160a01b038381166001600160a01b0319831681179093556040519116919082907f8be0079c531659141344cd1fd0a4f28419497f9722a3daafe3b4186f6b6457e090600090a35050565b600061195e60646119588486611fc5565b90611c61565b9392505050565b6001600160a01b03831661198b5760405162461bcd60e51b81526004016108ac90611ed5565b6001600160a01b0382166119b15760405162461bcd60e51b81526004016108ac90611e5d565b6001600160a01b03831660009081526020819052604090205481811015611a295760405162461bcd60e51b815260206004820152602660248201527f45524332303a207472616e7366657220616d6f756e7420657863656564732062604482015265616c616e636560d01b60648201526084016108ac565b6001600160a01b03808516600090815260208190526040808220858503905591851681529081208054849290611a60908490611f8b565b92505081905550826001600160a01b0316846001600160a01b03167fddf252ad1be2c89b69c2b068fc378daa952ba7f163c4a11628f55a4df523b3ef84604051611aac91815260200190565b60405180910390a3611650565b600061195e8284611fe4565b60606000611ad4836002611fc5565b611adf906002611f8b565b67ffffffffffffffff811115611af757611af76120a5565b6040519080825280601f01601f191660200182016040528015611b21576020820181803683370190505b509050600360fc1b81600081518110611b3c57611b3c61208f565b60200101906001600160f81b031916908160001a905350600f60fb1b81600181518110611b6b57611b6b61208f565b60200101906001600160f81b031916908160001a9053506000611b8f846002611fc5565b611b9a906001611f8b565b90505b6001811115611c12576f181899199a1a9b1b9c1cb0b131b232b360811b85600f1660108110611bce57611bce61208f565b1a60f81b828281518110611be457611be461208f565b60200101906001600160f81b031916908160001a90535060049490941c93611c0b81612027565b9050611b9d565b50831561195e5760405162461bcd60e51b815260206004820181905260248201527f537472696e67733a20686578206c656e67746820696e73756666696369656e7460448201526064016108ac565b600061195e8284611fa3565b600060208284031215611c7f57600080fd5b813561195e816120bb565b600060208284031215611c9c57600080fd5b815161195e816120bb565b60008060408385031215611cba57600080fd5b8235611cc5816120bb565b91506020830135611cd5816120bb565b809150509250929050565b600080600060608486031215611cf557600080fd5b8335611d00816120bb565b92506020840135611d10816120bb565b929592945050506040919091013590565b60008060408385031215611d3457600080fd5b8235611d3f816120bb565b946020939093013593505050565b600060208284031215611d5f57600080fd5b5035919050565b60008060408385031215611d7957600080fd5b823591506020830135611cd5816120bb565b600060208284031215611d9d57600080fd5b81356001600160e01b03198116811461195e57600080fd5b7f416363657373436f6e74726f6c3a206163636f756e7420000000000000000000815260008351611ded816017850160208801611ffb565b7001034b99036b4b9b9b4b733903937b6329607d1b6017918401918201528351611e1e816028840160208801611ffb565b01602801949350505050565b6020815260008251806020840152611e49816040850160208701611ffb565b601f01601f19169190910160400192915050565b60208082526023908201527f45524332303a207472616e7366657220746f20746865207a65726f206164647260408201526265737360e81b606082015260800190565b6020808252818101527f4f776e61626c653a2063616c6c6572206973206e6f7420746865206f776e6572604082015260600190565b60208082526025908201527f45524332303a207472616e736665722066726f6d20746865207a65726f206164604082015264647265737360d81b606082015260800190565b600060a082018783526020878185015260a0604085015281875180845260c086019150828901935060005b81811015611f6a5784516001600160a01b031683529383019391830191600101611f45565b50506001600160a01b03969096166060850152505050608001529392505050565b60008219821115611f9e57611f9e612079565b500190565b600082611fc057634e487b7160e01b600052601260045260246000fd5b500490565b6000816000190483118215151615611fdf57611fdf612079565b500290565b600082821015611ff657611ff6612079565b500390565b60005b83811015612016578181015183820152602001611ffe565b838111156116505750506000910152565b60008161203657612036612079565b506000190190565b600181811c9082168061205257607f821691505b6020821081141561207357634e487b7160e01b600052602260045260246000fd5b50919050565b634e487b7160e01b600052601160045260246000fd5b634e487b7160e01b600052603260045260246000fd5b634e487b7160e01b600052604160045260246000fd5b6001600160a01b03811681146109e657600080fdfea164736f6c6343000807000a",
  "linkReferences": {},
  "deployedLinkReferences": {}
}